:020000040000FA
:100000006022002049020000510200001502000099
:1000100055020000570200005902000000000000D5
:100020000000000000000000000000005B02000073
:100030005D020000000000005F020000610200009D
:10004000E5040000630200001D08000063020000D8
:10005000630200000103000063020000630200006D
:1000600063020000630200006302000063020000FC
:1000700063020000630200006302000063020000EC
:1000800063020000630200006302000063020000DC
:1000900063020000630200006302000063020000CC
:1000A0006302000063020000630200000908000010
:1000B0006302000063020000000000000000000076
:1000C000630200006302000063020000630200009C
:1000D00063020000630200006302000000000000F1
:1000E0000000000000000000000000000000000010
:1000F0000000000000000000000000000000000000
:1001000000000000000000000000000000000000EF
:1001100000000000000000000000000000000000DF
:1001200000000000000000000000000000000000CF
:1001300000000000000000000000000000000000BF
:1001400000000000000000000000000000000000AF
:10015000000000000000000000000000000000009F
:10016000000000000000000000000000000000008F
:10017000000000000000000000000000000000007F
:10018000000000000000000000000000000000006F
:10019000000000000000000000000000000000005F
:1001A000000000000000000000000000000000004F
:1001B000000000000000000000000000000000003F
:1001C000000000000000000000000000000000002F
:1001D000000000000000000000000000000000001F
:1001E000000000000000000000000000000000000F
:1001F00000000000000000000000000000000000FF
:10020000DFF80CD000F056F800480047F10B000072
:1002100060220020094B1EF0040F1CBFEFF3098081
:100220001847EFF308800649064A884201D89042F1
:1002300002D88D464FF0000018470000D902000098
:1002400060220020600200200648804706480047E0
:10025000FEE7FEE7FEE7FEE7FEE7FEE7FEE7FEE776
:10026000FEE7FEE73D0500000102000040EA010351
:100270009B0703D009E008C9121F08C0042AFAD25C
:1002800003E011F8013B00F8013B521EF9D2704720
:10029000D2B201E000F8012B491EFBD270470022C8
:1002A000F6E710B513460A4604461946FFF7F0FF75
:1002B000204610BD064C074D06E0E06840F0010303
:1002C00094E8070098471034AC42F6D3FFF79CFF40
:1002D000FC1600001C17000000F000F8BFF34F8F61
:1002E00005480168054A01F4E06111430160BFF36C
:1002F0004F8F00BFFDE700000CED00E00400FA05A1
:100300002DE9F05F5D4CD4F804015D4D012690B1FC
:10031000D4F8000380070ED55A4801F03FF86878FA
:1003200040B905F1100000F0A9FF5748C66006600B
:100330000020A8606E70D4F81801544F08B3D4F8A8
:10034000000340061DD552480068C0F3C800A0F164
:1003500002084C48143001F021F83878302803D0D6
:10036000387850280BD00BE0D5F804C0BCF1000F52
:1003700007D04346454A0221E868E04701E02E7075
:10038000E661D4F81001DFF808A14FF0100BAAF1D4
:10039000140AD0B1D4F80003C00616D539480C3081
:1003A00000F0FCFFC4F808B3CAF800700AF10401B9
:1003B000C1F800B0E661D5F804C0BCF1000F04D06C
:1003C00000231A460321E868E047D4F84C01DFF81F
:1003D000C4904FF00D0838B3D4F80003000323D5C0
:1003E0002848483000F0DAFF2648143000F0D6FFE5
:1003F0002448243000F0D2FFCAF800702449103994
:10040000C1F800B0E6614FF48860C4F804032149E4
:100410000831C1F80080C9F800806F6827B1002357
:100420001A461946E868B847D4F8280160B1D4F8EC
:100430000003400508D5174F0837386811482430A5
:1004400000F0ACFFC7F80080D4F81C01002813D0DE
:10045000D4F8000300060FD5D9F800704C460948BF
:10046000183000F09BFFF80704D0287810B1266000
:1004700000202870C4F80080BDE8F09F00500040C4
:10048000040000200451004000B00140D0010020D1
:10049000245500400454004000F01F020121914007
:1004A0004009800000F1E020C0F88012704700F0A1
:1004B0001F02012191404009800000F1E020C0F8B6
:1004C000001170474907090E002806DA00F00F00F6
:1004D00000F1E02080F8141D704700F1E02080F862
:1004E000001470472DE9F0414FF48077384600F052
:1004F00093FE0124104EA50748B1384600F093FE44
:100500000120C5F808037470002000F009FA4FF4C8
:100510008277384600F080FE00280BD0384600F085
:1005200082FE0220C5F80803B470BDE8F041012046
:1005300000F0F6B9BDE8F0819C010020F0B5A348B9
:100540000023021D01780125101D4FF0805406295B
:100550000BD11678360708D10678C6F30316032E9A
:1005600006D0042E04D0052E02D0062907D00EE0B6
:10057000B4F82463964FC6F304263E6002E0167872
:10058000360704D10678C6F30316032E02D00629D7
:1005900004D00FE0904F8F4E7E670EE0167836073E
:1005A00008D10678C6F30316032E06D0042E04D015
:1005B000052E02D0062907D00EE0D4F84462874FFA
:1005C000C6F342363E6002E01678360704D106785C
:1005D000C6F30316032E02D0062906D011E0804E82
:1005E000376827F0807737600EE01678360708D135
:1005F0000678C6F30316032E06D0042E04D0052E6B
:1006000002D006290AD011E04FF08046C6F80C311E
:10061000C6F81031714E361F336002E01678360787
:1006200004D10678C6F30316032E02D0062905D09E
:100630000CE06A4F032664373E600AE016783607FE
:1006400004D10678C6F30316032E02D006290DD076
:1006500014E0644F05263E60624E78363560614E88
:10066000083633603F263F1D3E6002E016783607AD
:1006700004D10678C6F30316052E02D0062957D0FA
:1006800068E059490968594A11605749091D0968C4
:10069000121D1160544908310968121D1160524938
:1006A0000C310968121D11604F4910310968121D83
:1006B00011604D4914310968121D11604A49183101
:1006C00009684A4A2032116047491C310968121DE5
:1006D0001160454920310968121D116042492431D9
:1006E0000968121D1160404928310968121D116006
:1006F0003D492C310968121D11603B4930310968B0
:100700003A4A40321160384934310968121D11608B
:10071000354938310968121D116033493C31096887
:10072000121D1160304940310968121D116002E04C
:10073000117809070ED10078C0F30310032803D005
:10074000042801D0052805D1D4F85802284900F022
:100750004F00086022487438016841F4700101605C
:10076000BFF34F8FBFF36F8F4FF01021D1F800020E
:10077000002803DBD1F80402002822DA1D4A1560A4
:100780001D480468002CFCD01524C1F800420568FF
:10079000002DFCD0C1F8044201680029FCD0136090
:1007A00001680029FCD0BFF34F8F0D48F038016875
:1007B000124A01F4E06111430160BFF34F8F00BFA3
:1007C000FDE710490E480860F0BD0000E00F00F0A2
:1007D000403501400DF0ADBA00C007403C05004077
:1007E000FCED00E0105600400404001020C500405D
:1007F000E40E004004E5014000E401400400FA0575
:100800000090D0036800002010B500F02DF90249D7
:100810000020C1F8400110BD00B001400448017F34
:1008200004480029024901D000F0ACBE00F01BBE14
:10083000B00100200020004002E008C8121F08C1DB
:10084000002AFAD170477047002001E001C1121F51
:10085000002AFBD170470000BFF34F8F05480168A5
:10086000054A01F4E06111430160BFF34F8F00BFFF
:10087000FDE700000CED00E00400FA050EB50021D4
:100880000091CDE901106A4644F20100FFF7E4FF50
:100890000EBD00F003B800F009B8000072B60248BF
:1008A0000168491C01607047000000200349086886
:1008B000401E086000D162B67047000000000020B2
:1008C0000249085C012100F055BD0000BA16000085
:1008D0000249085C002100F04DBD0000BA1600007E
:1008E0007CB50024084E25460122305D009500238A
:1008F0001146019500F02CFD641C042CF4D3BDE8D6
:100900007C4000F003B80000BA16000010B50024C7
:100910002046FFF7D5FF641C042CF9D310BD00005E
:1009200070B5084C050009D010342168002907D0A3
:1009300008682060496828468847F6E70834F4E7E5
:1009400070BD00009C01002070B5254CA0421ED156
:10095000F1B1012936D0022928D0032917D1072067
:1009600000F0A4F9002812D194F8680094F86910F6
:1009700088420CD194F86A00002808D10023D4E9F9
:1009800001501A460321A847012084F86A0070BD6F
:10099000052000F08BF90028F9D1A06864680023D5
:1009A000A446BDE870401A46012160471046190070
:1009B000EDD00028EBD00278302AE8D1BDE87040B5
:1009C00000F094B9082000F071F928B9A06800235C
:1009D00064681A460221A047BDE8704000F020BAC2
:1009E000F0010020F0B51C490B68091D09681B4A7D
:1009F0000224C2F804431A4CC2F80443DAB2C3F327
:100A00000724C3F30743027082EA040583F08806D3
:100A1000447075408370C57001710D0A0E0C4571EC
:100A20000F0E867169407E40C771714001720321CB
:100A3000417211040B4A41EA0421194311604168D3
:100A4000C07909BA21F0FF010143101F0160054977
:100A500044200C310860F0BD5004001000500040EC
:100A60008000080094550040FEB513480068134C00
:100A700010F0030F4FF0000501D0A560FEBDA06887
:100A8000401CA0600728F9D90D480126066100F036
:100A9000E1FBBFF35F8F0B480560BFF35F8F06601C
:100AA000666826B100231A460121E068B0476570E8
:100AB0006846FFF797FFFEBD3C540040040000204D
:100AC00000B00140FC5F004070B50C00054613D03B
:100AD0000A4800F063FC0A480560094940F6FF70C7
:100AE0000C3100EAC400086006481021C0F8041365
:100AF0000121C160002070BD0C2070BD105100406C
:100B000010550040005000403EB51B4AD160506077
:100B10006846FFF767FF0A21684600F0D5FA1648D5
:100B2000164910300024C0E9004100F0D3FB05460F
:100B300013480460001D0460114904200C31086052
:100B40000F4964203C3108600E480121C0F80012B2
:100B50000904C0F804131B20FFF79EFC07211B208B
:100B6000FFF7B0FC1B20FFF7A2FC1DB1852D01D0C3
:100B700003203EBD00203EBD040000208D13000078
:100B800004B5014000B00140094910B50D200860CE
:100B90000849012088600520FFF77EFC0721052019
:100BA000FFF790FC0520FFF782FC002010BD00003D
:100BB0000454004000500040054910B50120086071
:100BC000012000F039FB0028FAD10249487010BD1D
:100BD000040000409C0100200268134602E08A42A3
:100BE00004D01268002AFAD10B600160704700003F
:100BF0000EB5FFF775FE0021114800F09DFA08B10F
:100C0000FFF73CFE4FF48070029002A90D480E4A97
:100C1000CDE9000126232021A2F1200000F066F991
:100C200008B1FFF72BFE0748029900F065FA08B1FA
:100C3000FFF724FE00F03DFA08B1FFF71FFEFEE7C4
:100C4000D50E00009C0000209416000010B51C4634
:100C5000934200D914462246FFF708FB204610BDF8
:100C600010B51C46934200D914460A462146FFF7A8
:100C70000FFB204610BD00000B4900F11002134687
:100C80004A610A6913448B6128B14FF47C73CB61CC
:100C90004FF4806301E00023CB61C01C1044800846
:100CA0000B6281F869007047F001002070B50D4DAE
:100CB0000D4A00212C7800BF01EB4103D65CA6420F
:100CC0000AD113445B78834206D101EB4100104402
:100CD00080782870002070BD491C0F29ECD30820B3
:100CE00070BD0000F00100206C00002070B50446CB
:100CF000022920D10620FFF7D9FF00281BD10E4979
:100D000064784B69A2002046934208D88D69103D53
:100D1000954204D3C968C3EB8400084403E000F0A3
:100D200017F8054838301021FFF7CEFE2046BDE801
:100D3000704000F099B870BDF001002003490268CE
:100D40004A6242688A62008988857047F001002003
:100D50002DE9F041264F8400102529463846FFF73B
:100D60009EFAA7F138067069A0420BD9021B31190F
:100D70002B4638462431FFF769FFD0F110050444B3
:100D8000074432D0B069A0420CD970693169201A89
:100D90000A1AF1682B4601443846FFF757FF2D1A0F
:100DA00004440744002D20D0F069A04209D9021B59
:100DB0002B4600213846FFF753FF2D1A0444074401
:100DC00013D0306AA04208D9021B2B46FF213846B7
:100DD000FFF746FF2D1A074407D02B463846BDE8DB
:100DE000F0411A460021FFF73BBFBDE8F08100004B
:100DF0002802002070B50C460546914201D90C200E
:100E000070BD0120FFF752FF08B1082070BD05B981
:100E100000240248C0E90354002070BDF001002006
:100E200070B5002103230A460C460E4801260CE04B
:100E300006FA03F50D43E9B25B1E05D5831883F866
:100E4000481007230021521C641C90F86950A542E9
:100E5000EEDC024482F84810002100F8681F81701F
:100E600070BD0000F0010020F0B5C208514200EB57
:100E7000C1010024124BC1F107010125042813D33D
:100E800005FA01F603EB020CF7B29CF848603E420B
:100E900004D0BE438CF848602E4600E0002693F84C
:100EA00068703E4483F86860491E01D50721521CD2
:100EB000401C10F0FF0002D0641C042CDEDBF0BDEF
:100EC000F0010020024AC2E9000102F10800704767
:100ED00030000020012904D0022905D10020FFF7AD
:100EE000EFBC0020FFF7F4BC704700002DE9F0478D
:100EF0000546DDE908980E4614461F46124800F0E4
:100F000038F84CB13946204600F076F901460E48D3
:100F100000F06BF8002815D14DB131462846FFF797
:100F2000D1FF0146084800F060F800280AD10648C1
:100F3000806830B142464946BDE8F047024800F0BB
:100F40001BB80720BDE8F0872400002070B51546C7
:100F50000B00044609D028686268904201D2042040
:100F600070BD18462168FFF781F96068286000208D
:100F700070BD0021816070472DE9F8439046894695
:100F800007004FF0000606D0B8F1000F03D03D680F
:100F90000DB1002422E00E20BDE8F88324B1611CCD
:100FA000884207D1402106E0012801D0802102E0DB
:100FB000C02100E00021D8F800006B46801B0090A3
:100FC0004A46286800F01FF80028E5D10098B9F1DA
:100FD000000F064400D08144641C2D1DB868A04257
:100FE000DCD80020C8F80060D6E7D0E901329A4288
:100FF00001D304207047036843F822108168491C1C
:101000008160002070472DE9F843144698460A464F
:1010100005004FF000074AD06878297A4618B61DB7
:1010200000B1761C8CB332F0C00002D00720BDE8BE
:10103000F883D8F80000B04201D20420F7E722700C
:101040002B78601C1A4322702A7A00F8012B214663
:101050000746041D687828B104F8010B087840F0B1
:10106000080008702A7A2046E968FFF7FFF8287A16
:101070006A7804442AB120466968FFF7F7F868786F
:101080000444D8F80000801B00902B697BB16A46AD
:101090002146686998470028C9D114B1009800BA60
:1010A0003860009831180020C8F80010BFE70E2003
:1010B000BDE710B50420FFF7F9FD08B1082010BD09
:1010C000BDE81040FFF760BD10B5040003D00A2949
:1010D00001D00C2010BD0320FFF7E8FD08B1082067
:1010E00010BD2CB14FEA0400FFF728FE002010BD10
:1010F0000048F9E7F216000010B54FF47772FFF7D9
:1011000079FE040013D10B480322016900F8342F43
:10111000FE2902D84170022005E0FF2242700A0A2F
:101120008270C1700420FFF7A7FDFFF779FE20460B
:1011300010BD0000F001002070B50E46050005D07E
:101140000020FFF7B3FD18B1082070BD072070BD67
:101150000B4C0C48C4E901561434FFF7EFFDFF2097
:10116000A076E076E1202077112060777C20A077C0
:101170000F20E077BDE8704001490348FFF7C4BC89
:10118000F0010020F2160000490900002DE9F047A7
:10119000164604460279007B1518ED1D41B33068F0
:1011A000A84202D20420BDE8F0874FF0000801F801
:1011B000018B4FF0010981F800904F1C207907F84E
:1011C000010B227938462168FFF750F8207907444F
:1011D000207B07F8010B227B3846A168FFF746F811
:1011E000207B2021384480F8008080F801908170B5
:1011F00000203560D7E70000054A044B13600C233C
:10120000137190601173034870470000E6160000E8
:10121000E00100205000002000F18040006800281C
:1012200000D00120704708B500F180400021016026
:101230000068009008BD00000549096840F480304E
:1012400001F00111814201D1012070470020704757
:101250000C04004010B50020FFF71BFB0648416856
:10126000491E4160406808B9FFF7A6FCBDE8104080
:101270000020FFF710BB00009C01002070B5144D4A
:101280000446687838B114B16168002088470020AE
:10129000FFF7FFFA13E00020FFF7FBFA24B10C4838
:1012A00021460830FFF798FC686840B94FF4807019
:1012B000FFF7B9FF01208107C1F8040308606868DF
:1012C000401C6860BDE870400020FFF7E4BA0000F1
:1012D0009C01002070B50E4C0025207808B18525B2
:1012E00013E00021A16061602161E1604FF0E02026
:1012F000D0F80001012610F0010F03D107210020D2
:1013000000F00AF8034806602670284670BD000009
:101310009C010020180500404907090E002806DA44
:1013200000F00F0202F1E02282F8141D03E000F148
:10133000E02282F8001400F01F02012191404009D0
:10134000800000F1E020C0F88012C0F80011704762
:1013500070B541EA4201DDE904564FF0A04441EA8C
:10136000830141EA052104EB800041EA0641C0F80F
:10137000001770BD01224FF0A043824011B1C3F8A5
:1013800008257047C3F80C2570470000002802D1DB
:1013900001490120086070470050004008B5002155
:1013A00001600068009008BD4058002800D001206E
:1013B000704708B5002242504058009008BDD0F850
:1013C0000403084000D0012070474058002800D096
:1013D0000120704708B5002242504058009008BDD7
:1013E00070B50546C87D0C4600284FF48471284628
:1013F0000AD0FFF7DEFFD5F81805627EE168885451
:10140000607E401C607670BDFFF7D3FFD5F81805ED
:1014100070BD1FB501238DF800308DF808100192C2
:10142000D0E90012684690471FBD70B50C460546CE
:101430004FF48E71FFF7BDFFA18AA068415CA08ABE
:10144000401CA082C5F81C1570BD1FB500228DF888
:1014500000208DF80810816801918275D0E9001292
:10146000684690471FBD2DE9FF470C4605464FF4DF
:101470000071FFF7A4FF01274FF40178002618B38D
:101480004FF4927949462846FFF78EFFE0B149466E
:101490002846FFF78EFFC5F80883A07E00B96F606D
:1014A00002208DF80000D5F88004C5F88004039070
:1014B000E07D8DF80800E0680190E6752676D4E9B5
:1014C00000126846904727E004212846FFF777FF7F
:1014D00010B34FF484712846FFF766FFE0B1214650
:1014E0002846FFF77DFFE07D617E884214D1207E93
:1014F00038B1617EE268E0752069E0602676667644
:1015000007E0A07E00B96F60C5F80883E675617ECC
:10151000E2682046FFF77DFF4FF48E78414628466B
:10152000FFF742FF88B1A08AA17D884204D22146FC
:101530002846FFF77AFF08E041462846FFF739FFC3
:10154000A17D11B12046FFF780FF4FF4A2784146FC
:101550002846FFF729FF002812D041462846FFF70A
:1015600028FFA07E00B12F60E07D002808D0E6753E
:10157000617EE26804B02046BDE8F047FFF749BF4E
:10158000BDE8FF872DE9FF410C464FF492770546F1
:101590003946FFF71AFF0026C0B139462846FFF743
:1015A00019FF02208DF80000D5F88004C5F88004EA
:1015B0000390D5F83C058DF80800E0680190E675C9
:1015C0002676D4E900126846904724E04FF48877E5
:1015D00039462846FFF7F9FEE8B139462846FFF7B5
:1015E000F9FED5F83C05C1B2E07D884213D1207EDA
:1015F00060B1E268D5F8000220F02000C5F80002D2
:10160000207EE0752069E060267601E0E675E268FC
:101610002046FFF7FEFE4FF4A27739462846FFF733
:10162000D4FE68B139462846FFF7D4FEE07D38B1D4
:10163000E675D5F83C05E268C1B22046FFF7E9FE41
:101640004FF4907631462846FFF7BFFE00280FD0B2
:1016500031462846FFF7BEFEA07D002808D0D5F809
:101660004C0504B0C1B22046BDE8F041FFF7EDBE25
:10167000BDE8FF816E6F2E6E6F7264696373656D76
:10168000692E616E64726F69642E6E7266746F6F1C
:101690006C626F787B65313264326461372D343827
:1016A00038352D343030662D626364342D366362F4
:1016B0006435623863663632637D111213140D0E81
:1016C0000F10616E64726F69642E636F6D3A706B98
:1016D0006777696E646F77732E636F6D2F4C6175DA
:1016E0006E636841707057696E646F777350686F8E
:1016F0006E65000102030405060708091C170000B7
:10170000000000209C00000038080000B81700000E
:101710009C000020C42100004808000000000000D8
:1017200000000000000000000000000000000000B9
:1017300000000000000000000000000000000000A9
:101740001C0000200200000000000000000000005B
:101750000000000004000000000000000F00000076
:10176000C21600004D0F00003000002003000000F2
:101770000000000015000000D11600008D110000CF
:10178000E00100200090D0030406050408030409CA
:1017900002050704050803050902030504030902FD
:1017A000000001010301010102020403020A000218
:0817B000010202090200000021
:0400000500000201F4
:00000001FF
