:020000040000FA
:10000000582A0020150200001D0200001F020000F7
:100010002102000023020000250200000000000071
:1000200000000000000000000000000027020000A7
:1000300029020000000000002B0200002D02000039
:10004000510500002F020000E1080000CD0500006E
:100050002F0200002F020000790300002F02000091
:100060002F0200002F0200002F0200002F020000CC
:100070002F0200002F0200002F0200002F020000BC
:100080002F020000A90500002F0200002F0200002F
:10009000110600002F0200002F0200002F020000B6
:1000A0002F0200002F0200002F0200002F0200008C
:1000B0002F0200002F0200000000000000000000DE
:1000C0002F0200002F0200002F0200002F0200006C
:1000D0002F0200002F0200002F020000000000008D
:1000E0000000000000000000000000000000000010
:1000F0000000000000000000000000000000000000
:1001000000000000000000000000000000000000EF
:1001100000000000000000000000000000000000DF
:1001200000000000000000000000000000000000CF
:1001300000000000000000000000000000000000BF
:1001400000000000000000000000000000000000AF
:10015000000000000000000000000000000000009F
:10016000000000000000000000000000000000008F
:10017000000000000000000000000000000000007F
:10018000000000000000000000000000000000006F
:10019000000000000000000000000000000000005F
:1001A000000000000000000000000000000000004F
:1001B000000000000000000000000000000000003F
:1001C000000000000000000000000000000000002F
:1001D000000000000000000000000000000000001F
:1001E000000000000000000000000000000000000F
:1001F00000000000000000000000000000000000FF
:10020000DFF80CD000F0A6F8004800476D1B000096
:10021000582A00200648804706480047FEE7FEE7C8
:10022000FEE7FEE7FEE7FEE7FEE7FEE7FEE7FEE7A6
:1002300015060000010200002DE9F05F05460020D0
:1002400092469B4688460646814640241BE0284647
:1002500041464746224600F06CF853465A46C01ABB
:10026000914110D311461846224600F053F82D1A3A
:1002700067EB01084F4622460120002100F04AF8B2
:1002800017EB00094E41201EA4F10104DFDC4846B3
:1002900031462A464346BDE8F09F000000487047BB
:1002A0008448000040EA01039B0703D009E008C925
:1002B000121F08C0042AFAD203E011F8013B00F82B
:1002C000013B521EF9D27047D2B201E000F8012B77
:1002D000491EFBD270470022F6E710B513460A46C6
:1002E00004461946FFF7F0FF204610BD421C10F8E7
:1002F000011B0029FBD1801A704730B5044600204D
:10030000034600E05B1C934203D2E05CCD5C401BE3
:10031000F8D030BD202A04DB203A00FA02F1002098
:1003200070479140C2F1200320FA03F31943904033
:100330007047202A04DB203A21FA02F0002170479E
:1003400021FA02F3D040C2F120029140084319463D
:1003500070470000064C074D06E0E06840F00103DE
:1003600094E8070098471034AC42F6D3FFF74CFFEF
:1003700094480000B44800002DE9F04700268CB0F6
:10038000DFF86091B0464FF4807501243746069639
:10039000284602F08BFB38B1D9F80403204203D081
:1003A000284602F079FB26432D1D64007F1CADB268
:1003B000082FEDD34FF4BE74204602F077FB48B10E
:1003C000204602F069FB46F0004606AA0121002003
:1003D00002F04EFB444D16F0FF0F15D0012700240C
:1003E00037420DD009EB8401D1F81005D1F8101572
:1003F000C0F3042055F82420C1F3014102B1904715
:100400007F00641C082CEBD3002E67DA4FF0FF301E
:10041000CDE9088000263446281910F8507F90F95D
:10042000000027F0C008401C44D009A9404601F054
:1004300019FC58B34FEA9719404601F0D1F855F826
:1004400020701FB1B9F1030F03D00FE0B9F1030F12
:1004500030D108A84FEAD80208F00703815C4FF0BA
:10046000010C0CFA03FC41EA0C0181544FF0A0414D
:1004700001EB8800D0F8000706A9C0F3014A404606
:1004800001F0F0FB18B1BAF1020F03D012E0BAF19B
:10049000030F0FD1B9F1030F08D1BAF1020F1BD02E
:1004A0000221404602F0B2FA761CF6B217B1494674
:1004B0004046B847641C042CAED3002E0ED06A46CA
:1004C0000121002002F0D4FA06990098884205D054
:1004D0000690089809909DE70321E2E70CB0BDE87B
:1004E000F0870000006000406C03002000F01F0255
:1004F000012191404009800000F1E020C0F8801205
:10050000704700F01F02012191404009800000F176
:10051000E020C0F80011704700F01F020121914057
:100520004009800000F1E020C0F800127047490740
:10053000090E002806DA00F00F0000F1E02080F834
:10054000141D704700F1E02080F80014704700008F
:100550002DE9F0414FF48077384601F08BFB012400
:10056000104EA50748B1384601F08BFB0120C5F8B5
:1005700008037470002001F03BF84FF4827738468E
:1005800001F078FB00280BD0384601F07AFB0220FE
:10059000C5F80803B470BDE8F041012001F028B8A7
:1005A000BDE8F0815803002007480021C0F8401141
:1005B000C0F84411C0F84811C0F84C11C0F800113F
:1005C000C0F8041103F0B0B90010014038B50F486D
:1005D0000D4C0025C0F80851D0F8081100912146B3
:1005E00003F000FA00280ED1A07FFF2801D002F00E
:1005F0002CFA65772572D4E9002101B004F10800D6
:10060000BDE83040104738BDC40300200030004032
:1006100003F0DCB8F0B5A3480023021D01780125E2
:10062000101D4FF0805406290BD11678360708D1DB
:100630000678C6F30316032E06D0042E04D0052E2A
:1006400002D0062907D00EE0B4F82463964FC6F313
:1006500004263E6002E01678360704D10678C6F319
:100660000316032E02D0062904D00FE0904F8F4EC0
:100670007E670EE01678360708D10678C6F30316B3
:10068000032E06D0042E04D0052E02D0062907D052
:100690000EE0D4F84462874FC6F342363E6002E073
:1006A0001678360704D10678C6F30316032E02D057
:1006B000062906D011E0804E376827F08077376032
:1006C0000EE01678360708D10678C6F30316032E17
:1006D00006D0042E04D0052E02D006290AD011E03F
:1006E0004FF08046C6F80C31C6F81031714E361FF7
:1006F000336002E01678360704D10678C6F3031695
:10070000032E02D0062905D00CE06A4F0326643779
:100710003E600AE01678360704D10678C6F3031661
:10072000032E02D006290DD014E0644F05263E604A
:10073000624E78363560614E083633603F263F1D85
:100740003E6002E01678360704D10678C6F3031639
:10075000052E02D0062957D068E059490968594A40
:1007600011605749091D0968121D1160544908316B
:100770000968121D116052490C310968121D11607F
:100780004F4910310968121D11604D491431096833
:10079000121D11604A49183109684A4A2032116015
:1007A00047491C310968121D11604549203109680B
:1007B000121D1160424924310968121D116040491F
:1007C00028310968121D11603D492C310968121D3C
:1007D00011603B49303109683A4A4032116038496A
:1007E00034310968121D1160354938310968121D0C
:1007F000116033493C310968121D116030494031A4
:100800000968121D116002E0117809070ED1007805
:10081000C0F30310032803D0042801D0052805D114
:10082000D4F85802284900F04F0008602248743874
:10083000016841F470010160BFF34F8FBFF36F8F08
:100840004FF01021D1F80002002803DBD1F8040298
:10085000002822DA1D4A15601D480468002CFCD0CF
:100860001524C1F800420568002DFCD0C1F80442EF
:1008700001680029FCD0136001680029FCD0BFF397
:100880004F8F0D48F0380168124A01F4E0611143BE
:100890000160BFF34F8F00BFFDE710490E480860AD
:1008A000F0BD0000E00F00F0403501400DF0ADBAA2
:1008B00000C007403C050040FCED00E01056004041
:1008C0000404001020C50040E40E004004E501408F
:1008D00000E401400400FA050090D003600000200D
:1008E0000448017F04480029024901D003F065B99A
:1008F00003F0D4B8E8030020002000400FB41CB57A
:100900000A46521ECDE9000207A9054B6A46069821
:1009100000F018F8009A002111701CBC5DF814FB5F
:10092000A70D000002E008C8121F08C1002AFAD172
:1009300070477047002001E001C1121F002AFBD15F
:10094000704700002DE9FF4F8DB00F460546002689
:1009500006E025280BD0DDE90F1290476D1C761CB0
:1009600028780028F5D111B03046BDE8F08F00247A
:10097000A246A1460122EC4900E0044315F8013FDC
:10098000203B02FA03F00842F7D128782A2810D039
:100990006FF02F022878A0F13001092914D80AEB52
:1009A0008A0102EB410144F0020400EB010A6D1CD4
:1009B000F0E701CF5FEA000A03D544F40054CAF11E
:1009C000000A44F002046D1C28782E2817D115F86F
:1009D000010F44F004042A280ED06FF02F0228786B
:1009E000A0F1300109290AD809EB890102EB410184
:1009F00000EB01096D1CF2E757F8049B6D1C287889
:100A00006C280FD006DC4C2817D068280DD06A2837
:100A100014D104E0742810D07A280FD10DE044F4EA
:100A200000140AE044F4801401E044F440146978AE
:100A3000814202D104F580146D1C6D1C2A786E2A47
:100A40001FD00CDC632A31D004DC002A8BD0582A5A
:100A500011D1A3E0642A68D0692A0CD165E0732A19
:100A60002ED004DC6F2A73D0702A04D19BE0752A43
:100A70006FD0782A6ED01046DDE90F129047761CB1
:100A800050E1C4F30250022806D0032809D00428FC
:100A900001CF09D0066045E101CFF117C0E900613F
:100AA00040E101CF06803DE106703BE117F8040B01
:100AB0008DF8000000208DF80100EB46012003E0D6
:100AC00057F804BB4FF0FF3061074FF0000102D42C
:100AD0000DE008F10101884649450FDA8045F8DB51
:100AE0001BF808100029F4D108E008F1010188463C
:100AF0008142FADB1BF808100029F6D1DDE90F234B
:100B0000AAEB08008146214600F036F9304400EB9C
:100B1000080604E0DDE90F121BF8010B9047B8F15D
:100B20000108F7D221464846F7E00A21C4F30253F0
:100B30004FF0000B0891022B04D001CFC117032BFB
:100B400009D00AE0FF1D27F00707F7E8020108E0D7
:100B500032E01FE020E000B2C117042B01D140B207
:100B6000C117031E71F1000307DA4FF0000CD0EB40
:100B70000C006CEB01012D2302E0230504D52B238F
:100B80008DF82430012303E0E30701D02023F7E7A9
:100B9000984658E00A2110E010210EE010204FF096
:100BA000000B08900CE010214FF0000B44F00404FF
:100BB0004FF00809089103E008214FF0000B08915D
:100BC000C4F30253022B04D001CF0021032B06D023
:100BD00006E0FF1D27F00707F7E8020103E080B2F7
:100BE000042B00D1C0B24FF0000823072BD5702A88
:100BF00007D0DDF820C08CF0100C5CEA0B0C05D09F
:100C00000EE040238DF82430012308E050EA010370
:100C100006D030238DF824308DF825200223984605
:100C2000DDF820C08CF0080C5CEA0B0C0BD150EA0C
:100C3000010301D1630706D530238DF824304FF02E
:100C40000108A9F10109582A04D038A20B9208AA78
:100C50000A920BE03AA2F9E75B46089AFFF7ECFA32
:100C60000B9B9B5C0A9A521E0A92137050EA010277
:100C7000F2D10A98ADEB000000F1200B600702D51D
:100C800024F4803401E04FF00109D94502DDA9EBDD
:100C90000B0000E0002000EB0B0141440890AAEBA0
:100CA000010AE00306D4DDE90F232146504600F097
:100CB00063F806444FF0000908E009A911F809009B
:100CC000DDE90F12904709F10109761CC145F4DBFB
:100CD000E0030CD5DDE90F232146504600F04CF827
:100CE000064404E0DDE90F1230209047761C089995
:100CF000481E08900029F5DC08E00A980A99007857
:100D0000491C0A91DDE90F129047761CBBF10001E6
:100D1000ABF1010BF1DC21465046DDE90F2300F079
:100D200019F806446D1C1BE60928010030313233E6
:100D30003435363738396162636465660000000017
:100D40003031323334353637383941424344454601
:100D5000000000002DE9F041044600251E4617461C
:100D6000880404D405E039462020B0476D1C641E79
:100D7000F9D52846BDE8F0812DE9F041044600256B
:100D80001E469046C80301D5302700E0202788047E
:100D900004D505E041463846B0476D1C641EF9D5C0
:100DA0002846BDE8F0814A68002A06D00A68531C2C
:100DB0000B6010704868401E48607047022000F0C9
:100DC0008BB9000070B50024064D06E0686801216B
:100DD00010F8340001F066F8641C28788442F5D3DA
:100DE000002070BD1C000020F8B515460C460646D4
:100DF000052A01D20720F8BD01F03AF918B901F02F
:100E000009F90028F7D1104900204E600C70C1E9A3
:100E100002500E4D08610DE006EBC40069680091B8
:100E200081788DF801100078094A694601F08CF844
:100E30000028E0D1641EE4B2EED2BDE8F840054AD5
:100E40000021024800F04AB81C000020784700004A
:100E500065170000C51600000DA1012002F036F84C
:100E600001F08EFF01F090FF0028FBD10CA10320C0
:100E700002F02CF8BFF34F8F10480168104A01F4BC
:100E8000E06111430160BFF34F8F00BFFDE7000039
:100E90003A4552524F523A466174616C0D0A000055
:100EA0003A494E464F3A486974207765616B20682D
:100EB000616E646C65720D0A000000000CED00E0CC
:100EC0000400FA050EB500210091CDE901106A4633
:100ED00044F20100FFF7C0FF0EBD0000074B9B78F6
:100EE00023B12AB120B10068037C1BB108207047F0
:100EF0000720704741744261002070472804002099
:100F000070B502F031FA104800240B2104704470CF
:100F10000E4D817014206C602C706C70FFF7E6FA37
:100F200007211420FFF703FB1420FFF7EAFA084813
:100F3000046007211120FFF7FAFA0548001F006836
:100F4000A860002070BD00002804002030000020B0
:100F5000081501402DE9F843DFF8709099F8023048
:100F60005BB350B3052902D20720BDE8F88343697B
:100F70001BB3437C012B22D0002704460025884662
:100F80001646284600F036F8684602F08FFEC0B1DB
:100F9000012101700E4944600968C0E90218C0E9E6
:100FA00004769DF8000089F80100002000F024F884
:100FB0001420FFF7B1FA2846D7E70820D5E70F46F7
:100FC000DBE70425002000F017F8F4E728040020F0
:100FD000041501400649897839B130B1416921B120
:100FE00000210174022102F07FBC0820704700003C
:100FF0002804002000F002B800F008B872B60248D9
:101000000168491C016070474400002003490868DA
:10101000401E086000D162B6704700004400002006
:101020002DE9F041064608680C46411C4FF0A047E8
:101030004FF0010506D005FA00F1C7F80815206841
:1010400001F0DAFC6068411C02D0002101F0C1FC13
:101050003079204901EB4010A169007F00283068F9
:10106000C0F8241525D0607D227D31681043C1F879
:101070006C05D4E900123068C0F80C15C0F81425CE
:1010800024E0A068411C02D0002101F0A2FCE0682D
:10109000411C05D08540C7F80855E06801F0ACFC5C
:1010A000D4E902123068C0F80825C0F81015BDE870
:1010B000F081607D217D32680843C2F86C05D4E977
:1010C00000123068C0F81425C0F80C15207D0128E6
:1010D000D7D0ECE7E803002007490B5C4FF0A041B4
:1010E000D1F804250120984020EA0203C1F8083510
:1010F0001040C1F80C057047FC3F00000249085C35
:10110000012101F0A9BC0000FC3F00000249085C7D
:10111000002101F0A1BC0000FC3F00000649095C71
:101120004FF0A040D0F80405C84010F0010000D0F6
:10113000012080F001007047FC3F00007CB50024D6
:10114000084E25460122305D009500231146019589
:1011500001F0EEFB641C042CF4D3BDE87C4000F0ED
:1011600003B80000FC3F000010B500242046FFF744
:10117000C5FF641C042CF9D310BD10B50024204613
:10118000FFF7C4FF641C042CF9D310BD10B5024650
:10119000064B4FF0FF3000215C5C944201D10846C1
:1011A00010BD491C0429F7D310BD00000040000009
:1011B0002DE9F0470D468146FFF7E8FF0446042875
:1011C00036D2DFF874801B481C4EA8F10C0725B3FB
:1011D000012D0ED0022D2BD104EB44003044457874
:1011E000002D25D0B968002922D02846BDE8F04757
:1011F000084704EB4401755C0E44717849B10E4A0E
:101200004FF40041093A8068FFF7A4FE08B987F857
:101210000390B17808F80410E2E78068FFF7DAFE7F
:1012200004EB4401314418F804008D78A842D7D06B
:10123000BDE8F08704400000180000202C030020C7
:101240000E2805D0112805D10021034801F016BA57
:101250000121FAE770470000B03D000070B500239F
:10126000042810D20D4D00EB4004012A02D10129BF
:101270000CD00022094E00EB4000304461B101293E
:1012800006D0022906D00723184670BD0E30C2B220
:101290002A55F9E74270F7E78270F5E72C03002042
:1012A00070B506461E480024C0E90161B00720D58C
:1012B0000025012211462846FFF7D0FF6D1C044689
:1012C000042D02D2002CF4D013E094B940F26662EF
:1012D00004211448FFF788FD04000AD1FFF772FDCE
:1012E000040006D10F48104A0021001FFFF7F6FD49
:1012F0000446F00701D0FFF721FF74B909480B4AF3
:1013000000210C38FFF7EAFD040006D10548084A21
:1013100001210838FFF7E2FD0446204670BD0000B9
:101320000C0000201040000075150000A9190000F5
:10133000BD0D00002DE9F05F6A4C0546002660787F
:10134000B34618B184F801B000F016FB664F4FF4B5
:101350007A694FF4C87A4FF00108182D62D2DFE89D
:1013600005F0AC0C0C31404D62676B746B74BE7D44
:101370007D7D7D7DACAFB2B5BEBE0020FFF7CEFE59
:1013800000284FF0000008D0FFF7B8FE022D02D170
:101390004FF4E16008E0484606E0FFF7B7FE022D93
:1013A00001D1C82000E05046410CC0034FF4FA724E
:1013B000801841F10001257052000023FEF73CFF28
:1013C00001462AE00020FFF7A9FE00284FF00000A8
:1013D00004D0FFF793FE4FF44870E5E7FFF796FE61
:1013E000DFE70020FFF79AFE00284FF0000002D050
:1013F000FFF784FECFE7FFF789FED4E70020FFF771
:101400008DFE00284FF0000002D0FFF777FE01E0CC
:10141000FFF77CFE257041F69A1100223868FFF72D
:1014200099FD064646E00020FFF756FE257008E0CD
:10143000002051E025703DE084F801800120FFF795
:101440004BFE002240F6CD41E8E784F80180012000
:10145000FFF742FE00224FF48041DFE77868FFF794
:10146000B9FD0646D5F1110000D02EB10220FFF7DC
:1014700045FE84F802B01DE0012816D980B2C821CB
:101480004843C117C90341EA5041C0034FF4FA72FF
:10149000801841F1000152000023FEF7CDFE014605
:1014A00000227868FFF756FD06460220FFF72EFE61
:1014B00084F802803046BDE8F09F00F05DFAB9E79D
:1014C00000F05AFAB4E700F057FA04E000F054FADA
:1014D0000020FFF71BFE0120FFF718FEAAE7FFF729
:1014E0004CFEA7E70C00002004400000002901DAB0
:1014F000002070470268114401600120704700001D
:1015000070B5461C0D4601240020FFF773FD114AFB
:1015100010682860D2E900109568081A2B1A701C10
:101520005B1C98420FD963B10B480C4B29400068F3
:101530001B6802EB810163F39F20C8601068401CA8
:101540001060002401E0881910600020FFF754FDAE
:10155000204670BD40060020DC4700005C000020F3
:10156000034803C8814201D1012070470020704721
:101570004006002000780221FFF71ABE05494FF00F
:10158000FF32082841F8202002D3084480F8482080
:10159000704700006C030020F0B54FF0FF3512B12A
:1015A0000023082601E008230C260C4C05E000BFB0
:1015B00054F823707F1C04D05B1CB342F8D3284638
:1015C000F0BD26185DB286F8305044F82310002A8A
:1015D000F5D1E11881F84800F1E700006C03002024
:1015E0000249084490F93000704700006C03002065
:1015F00070B5084C050009D010342168002907D0C7
:1016000008682060496828468847F6E70834F4E708
:1016100070BD0000580300202DE9F05F26484168A6
:10162000F1B3DFF898B00E688146DBF800408768B8
:101630008078E11B21F07F45ED1CB0B9DFF8808098
:101640004FF48030C8F84403C8F804031120FEF7B3
:101650004DFF1120FEF755FF4FF0010AC8F800A01A
:101660002F2000F05DFB89F802A0B54200D235467C
:10167000124BE8193C3320F07F401860DBF8001073
:101680005A46091B21F07F41001B20F07F40C91CF6
:1016900081420FD9106818602F2000F041FB00E054
:1016A00004E0BDE8F05F1120FEF736BFBDE8F05F53
:1016B00001F05ABEBDE8F09F300000200415014043
:1016C000001001402DE9F04100260125144C22E0D4
:1016D0006068226900EBC607387805FA00F111420C
:1016E00017D08A43226100F08BFC02463878E36809
:1016F00005FA00F1194002FA00F3994209D179780C
:10170000012901D0012100E0002151407A6802B195
:101710009047761CF6B220788642D9D3BDE8F08196
:101720001C0000200E4910B50A784C780023A24214
:1017300012D0521CD2B20A70022A00D10B70084A91
:101740000B780C3252F8232002608868104420F095
:101750007F408860012010BD0360002010BD0000A4
:10176000300000202DE9F041124E07460125BD4012
:101770003068FFF72FFC00280DD10F4C206928425C
:1017800007D1384600F03CFC0028E06805D028432B
:1017900004E0A8432061BDE8F081A843E06020692F
:1017A00028432061A1683068BDE8F0410022FFF7BE
:1017B000D1BB0000784700001C000020F0B593B0BA
:1017C0001546064631B1012907D0022907D0072066
:1017D00013B0F0BD6FF0270102E0002100E02821E6
:1017E000404C01AF0DF1100C0DCC87E80D0001F15C
:1017F0004002ADF80420ADF8082089CC8CE88900BF
:10180000501FADF81000C01CADF81400B4E88810EB
:101810000DF11C0E8EE88810ADF81C00001DADF80F
:101820002000B4E888100DF1280E8EE88810ADF87D
:101830002800C01CADF82C0054E91A03CDE90D03B3
:10184000ADF8342054E91802CDE90F0201F13C0053
:10185000ADF83C0054E91602CDE911024331ADF870
:1018600044102A4601A9304600F00BFF08B1FFF7EB
:1018700029FB2A4604A9304600F003FF08B1FFF710
:1018800021FB2A4607A9304600F0FBFE08B1FFF70E
:1018900019FB2A460AA9304600F0F3FE08B1FFF70B
:1018A00011FB00232A460DA9304600F0E3FD08B1E4
:1018B000FFF708FB01242B4622460FA9304600946F
:1018C00000F0B2FF08B1FFF7FDFA2B46012211A983
:1018D0003046009400F0A8FF08B1FFF7F3FA0020AB
:1018E00076E70000D03D000070B50E460446007952
:1018F00018494FF4A27501EB4010017F2068A1B197
:101900004FF4887101F099FC4FF49071206801F058
:1019100094FC4FF49271206801F08FFC29462068F6
:1019200001F08BFC0C49206809E04FF48E7101F046
:1019300073FC2946206801F06FFC08492068C0F854
:101940000413206800F0ABFA3146BDE8704000F0A7
:101950008ABA0000E80300201003020080000200A1
:101960000268134602E08A4204D01268002AFAD1C3
:101970000B600160704700000A4810B5807860B1C4
:10198000002401E0022C06D02046FFF7B7FB641CC0
:10199000042CF7D310BD0324F6E7BDE81040FFF791
:1019A000E3BB00000C00002003480179C90702D006
:1019B0000078FFF7BFBC70470C0000202DE9FF4FF7
:1019C00083B09946DDF840800F4616464FF0FF3051
:1019D000494501D2012300E003460193424500DA64
:1019E000012000904FF0000BB9EB070000D54042FA
:1019F00005B2B8EB060000D5404204B2119B039833
:101A000001F076FCA54204DA65406C4065404FF079
:101A1000010B601B400000B2029060000FFA80FAD8
:101A2000AAEB050004B21EE0002C09DB0198384443
:101A300087B20098304486B20298204404B20CE089
:101A400004EB0A0004B2BBF1000F03D0009830444D
:101A500086B202E00198384487B232463946119B7B
:101A6000039801F045FC4645DED14F45DCD107B077
:101A7000BDE8F08F2DE9F047394E002780463D46FE
:101A8000DFF8E090D6F804A057E003D00446D0F881
:101A90001C8035E099F8002002EB4201521CD2B2C2
:101AA00089F8002009EBC10199F80230091D9A421A
:101AB00001D189F8005048680A780446012A12D0FA
:101AC000022A02D0032A3BD108E001F0DDFE00B17A
:101AD0000127257434E00574C06900E070680028AF
:101AE000F9D170602CE0207C50BB88686060C868C9
:101AF000A0600869E0604869A061F07800B16560A5
:101B00006268B168184B501A20F07F40984202D2A8
:101B1000A168084406E0881AA16820F07F4081424D
:101B200002D9081A206000E0256065600120A560E8
:101B300020742046E56101F089FEB8F10000A4D1CF
:101B400099F8001099F801008142A3D117B9716882
:101B5000514502D00120BDE8F0870020FBE70000DE
:101B60003000002028040020FFFF7F000EB500F0A9
:101B70001DF908B1FFF7A6F9002000F039F9FFF7C9
:101B8000BFF908B1FFF79EF9234A01212348FFF767
:101B9000A5F908B1FFF796F9204C00224FF4004157
:101BA0002068FFF7D7F908B1FFF78CF901F0CEF9FB
:101BB00008B1FFF787F9002001F0B6F908B1FFF787
:101BC00081F917490220FFF76BFB08B1FFF77AF99B
:101BD00014A1032001F07AF91048203000F044FDF0
:101BE00008B1FFF76FF96068029000211848CDE94D
:101BF00000010A4817A3012202A9203000F0BCFD11
:101C000008B1FFF75FF901F0B5F900BF01F0BCF8CA
:101C10000028FBD1F7E7000039370000903D0000B5
:101C2000411200004150503A494E464F3A535049F4
:101C3000207472616E73616374696F6E206D616E82
:101C400061676572206578616D706C650A0D0000D2
:101C50006C47000020204E4F5244494353454D49A4
:101C600000000000C20800F007030120895C9840D2
:101C70000840704700F180400068002800D0012033
:101C8000704708B500F180400021016000680090B5
:101C900008BD000000283ED01F49204A096800BF47
:101CA00000BF00BF00BF00BF00BF00BF00BF914228
:101CB0002FD000BF00BF00BF00BF00BF00BF00BFEC
:101CC00000BF00BF00BF00BF00BF00BF00BF00BF1C
:101CD00000BF00BF00BF00BF00BF00BF00BF00BF0C
:101CE00000BF00BF00BF00BF00BF00BF00BF00BFFC
:101CF00000BF00BF00BF00BF00BF00BF00BF00BFEC
:101D000000BF00BF00BF00BF00BF00BF00BF00BFDB
:101D100000BF401EC3D17047600000200024F400C3
:101D200000283ED01F49204A096800BF00BF00BFFD
:101D300000BF00BF00BF00BF00BF91422FD000BF57
:101D400000BF00BF00BF00BF00BF00BF00BF00BF9B
:101D500000BF00BF00BF00BF00BF00BF00BF00BF8B
:101D600000BF00BF00BF00BF00BF00BF00BF00BF7B
:101D700000BF00BF00BF00BF00BF00BF00BF00BF6B
:101D800000BF00BF00BF00BF00BF00BF00BF00BF5B
:101D900000BF00BF00BF00BF00BF00BF00BF401EAC
:101DA000C3D17047600000200024F40070B50E4CD1
:101DB0000025207808B1852513E00021A16061602D
:101DC0002161E1604FF0E020D0F80001012610F021
:101DD000010F03D10721002000F045F803480660F9
:101DE0002670284670BD00005803002018050040EA
:101DF00070B5154D0446A87838B114B1616801205A
:101E000088470020FFF7F6F815E00020FFF7F2F80A
:101E100024B10D4821461030FFF7A2FDE86850B903
:101E20004FF48270FFF72DFF02204107C1F8040331
:101E3000064901200860E868401CE860BDE8704081
:101E40000020FFF7D9B80000580300200800004028
:101E500000F01F02012191404009800000F1E020C4
:101E6000C0F8801170474907090E002806DA00F013
:101E70000F0202F1E02282F8141D03E000F1E022DB
:101E800082F8001400F01F020121914040098000F7
:101E900000F1E020C0F88012C0F800117047000B7C
:101EA00040B270472DE9F0418846054601F0CCF973
:101EB000234E002828461AD0FFF792FB304490F8B2
:101EC00048008009032802D001280ED007E04FF017
:101ED000A040D0F81005E84010F0010F05D0032114
:101EE0002846BDE8F04100F091BD0221F8E701F07D
:101EF000B7F9002822D02846FFF772FB04464FF4BA
:101F0000807000EB84000F4F81B207EB8400D0F8A3
:101F1000102542F00102C0F81025084600F0BCFD73
:101F2000B8F1000F0AD02846FFF75AFB56F82000F8
:101F3000002803D00120A040C7F80403BDE8F081C9
:101F40006C030020006000402DE9FC41DFF8A48014
:101F5000044608EB0400002790F930001346C01730
:101F60000E46401C01D0082741E0F2781946204671
:101F7000FFF712FB0546401C38D0B07850B14FF047
:101F8000A04000EB8400D0F8001721F00201C0F857
:101F9000001707E000217378204600910A4601915E
:101FA00000F0D8FCF078C0B11348317800EB850020
:101FB000D0F81025114B1A40C0F810254FF4F852F4
:101FC0004FF4403302EA042203EA01410A43D0F805
:101FD00010150A43C0F8102509E008EB0500327817
:101FE00010F8481F41EA8211017000E004273846CA
:101FF000BDE8FC816C03002000600040FFE0FCFFB6
:102000004FF0A041D1F81015C14011F0010000D0EF
:102010000120704770B5144D95F8540008B10820A0
:1020200070BD0020411E2A18401CC0B282F830103A
:102030002028F8D300242046FFF7A0FA641CE4B25D
:102040000C2CF8D307210620FFF70DFF4FF4BE70CC
:1020500000F022FD05494FF00040C1F804030120C3
:1020600085F85400002070BD6C0300200060004023
:10207000034890F85400002800D001207047000069
:102080006C0300200121B1EB507F01D1012070478A
:10209000002070472DE9FC5F074640790C4600EBB5
:1020A000C001464800EB8106307F10B10820BDE832
:1020B000FC9FC6E90023207B4FF0A04B4FF00109A5
:1020C000012805D8227809FA02F0CBF80C0502E0C5
:1020D000207800F0BAFC4FF0000ACDF800A0CDF84F
:1020E00004A0207853465246012100F045FC657853
:1020F0004FF0FF38FF2D07D009FA05F0CBF80C059B
:10210000284600F06FFC00E04546A078FF2809D083
:10211000002280465346CDF800A01146CDF804A019
:1021200000F02AFCE078FF2804D000F08EFCE07874
:1021300000F058FC7979214A01EBC10102EB8101E1
:10214000E078887738682378C0F80835C0F80C55EF
:10215000C0F81085A168C0F82415237B617B01B10C
:102160000121012B04D0022B05D0032B08D105E05F
:1021700041F0020104E041F0040101E041F00601F8
:10218000C0F854157B79617903EBC30302EB83023A
:10219000D177316811B10421C0F804134D46C0F85D
:1021A0000095306820B1217997F90400FFF75BFEB4
:1021B000504686F81DA0357779E70000C40300205B
:1021C0001FB5069C00918DF8042002938DF80C40F9
:1021D0000022694600F026F804B010BD10B5417920
:1021E0000F4A01EBC10102EB8102116859B190F96C
:1021F0000410012301F01F04A3404909890001F1E3
:10220000E021C1F880310068116819B14FF0FF3149
:10221000C0F808130021C0F80015117710BD0000A8
:10222000C40300202DE9F0410E4615464179184AB5
:1022300001EBC10102EB810100244A7F12B11120A0
:10224000BDE8F0810B6801221BB115F0140F00D11D
:102250004A7796E8885001F10C0888E8885091F890
:10226000213023F0070381F821308B7FFF2B04D02E
:102270004FF0A0479A40C7F80C251DB100204877C1
:10228000062403E00068324601F0F2F82046D7E762
:10229000C40300202DE9F04105460079164F904611
:1022A00007EB40140E46E07E10B10820BDE8F08137
:1022B000707F20772846FEF7B3FE5FEA0800606073
:1022C0003169216003D0317F2846FFF70DFB287963
:1022D00007EB4010007F0028286801D0082100E0AB
:1022E0000421C0F800150020E0752076A0750121BA
:1022F000E176A076DAE70000E80300202DE9F04758
:10230000054600793F4E904606EB40140F46207F6D
:1023100018B10846FFF7B6FE30B1284600F074F851
:1023200020B11120BDE8F0871020FBE784F816806B
:10233000A7600027A78228794FF0010806EB401418
:102340003E46207F0028286825D04FF490794946E2
:1023500000F073FF4FF4AC7A5146286800F06DFF2F
:102360002868A17DA268C0F84425C0F848152868EF
:10237000C0F808806068F0B94946286800F058FF46
:1023800080465146286800F053FF58EA0001F3D018
:1023900058BBA7750FE04FF48E7A514600F03CFF12
:1023A0002868C0F808802146286801F051FB616860
:1023B0004FF4807089B13046B4E75146286800F088
:1023C00026FF10B9A08A4845F7D1A08A484505D014
:1023D0002146286801F03CFB00E08146A08AA17DEF
:1023E0008842EAD3A08A484501D10F26D1E7514659
:1023F000286800F00CFF0028F9D02868C0F80C808D
:10240000C7E70000E80300200079044901EB401011
:10241000807D002800D0012070470000E8030020E4
:1024200070B5044600791149002601EB401520687B
:102430002A7FC0F80065686888B1207901EB4010F8
:10244000007F0028206801D0094901E008498C3943
:10245000C0F808132068FFF722FDFFF7F9FC2046BB
:1024600000F00AFFEE766E6070BD0000E803002009
:10247000100302002DE9FF5F0C46B1F90450C16959
:10248000904683469A462288A08800268B88121A96
:102490003746934206DB62884988101A4FF00109DB
:1024A000814277DA072004B0BDE8F09FBAF1000F4F
:1024B00072D02188881B01D44A1B33D5701CCDF8FB
:1024C0000090CDE90180084483B260880021401B60
:1024D00082B2584600F02BFFCDE900982188681C95
:1024E0000390084483B260880021801B82B2584662
:1024F00000F01DFFCDE9009821880398084483B2BD
:1025000060880021304482B2584600F010FFCDE9C7
:10251000009821880298084483B2608800212844EA
:1025200082B233E009EB4601CDF80090CDE901819C
:102530008BB26188491B8AB281B2584600F0F7FE1F
:1025400009EB4500CDE9009883B203906088801BB9
:1025500082B22088401B81B2584600F0E8FECDE9E7
:102560000098039883B26088304482B22088401B70
:1025700081B2584600F0DBFECDE9009860880299F0
:10258000284482B220888BB2801B81B2584600F06A
:10259000CEFE51E061E0FFE760884346284482B206
:1025A0002088304481B2584600F0A2FE608843463D
:1025B000284482B22088801B81B2584600F098FEE1
:1025C00060884346304482B22088284481B258460D
:1025D00000F08EFE60884346304482B22088401B63
:1025E00081B2584600F084FE60884346401B82B2A8
:1025F0002088801B81B2584600F07AFE60884346EE
:10260000401B82B22088304481B2584600F070FEF0
:1026100060884346801B82B22088401B81B25846A6
:1026200000F066FE60884346801B82B22088284402
:1026300081B2584600F05CFE002F07DC761C36B2F3
:1026400007EB4600401C07B2002F06DD6D1E2DB2C1
:10265000684207EB4000401E07B2B542BFF626AF06
:10266000002020E70069004710B504460068804755
:10267000002802D1E2690121117010BD826908466B
:1026800010472DE9FC47C3690C46814698880988A4
:102690004FF000081546C446884203D25A88A688DF
:1026A000B24206D36288904206D25888E3889842A4
:1026B00002D20720BDE8FC87A388E688CF1AA2EBE8
:1026C000060000D57F42002800DA4042874202DD42
:1026D000B4F808C001E0B4F80880994201D0B242D1
:1026E00010D1581AB31A00D55B4263449BB2CDE9AE
:1026F0000035002800DA4042404483B2484600F0EA
:1027000016FE36E0B8F1000F15D000260FE0B4F940
:102710000600CDE90005A0886288304483B2208895
:10272000304481B24846FFF749F9761CB6B2208999
:10273000B042ECD81DE0BCF1000F14D000260EE032
:10274000E088304400B2CDE900056088A3883044B9
:1027500082B221884846FFF731F9761CB6B220894B
:10276000B042EDD805E030B2CDE900054846FFF7AC
:1027700025F900209EE700002DE9FE4F81460888DC
:102780000C9DADF80800D9F81C0088464C8841889B
:1027900028781F46081A9346A04202DA0720BDE8AF
:1027A000FE8F00264FF00A0A2BE00A2A2ED0CDE930
:1027B000004B02AB2946484601F090FAB95D6878B3
:1027C000081AC0B220292CD0696811F8200000BF77
:1027D000D9F81C108A88121ABDF8080082420FDA54
:1027E0000D9888B1B8F80000ADF80800287849883D
:1027F000B0FBFAF22244024494B2081AA04203DB6E
:10280000761CBA5D002AD0D10020C8E7B8F80000D5
:10281000ADF808002878B0FBFAF12144084484B2EE
:10282000CCE728784008D3E72DE9FE4F9A468B88FD
:1028300015468146581B87B2C8880C46411BDDF8F7
:1028400030C08EB2012B13D0012811D0B3EB450F4D
:102850000ED3B0EB450F0BD3D9F81C202188B2F86A
:102860000480884507D25288B4F80280424502D2DB
:102870000720BDE8FE8FBCF1000F06D0CDE9000AAD
:102880006288484600F053FD50E0ADF800106088C3
:10289000ADF802002088A18852460844ADF8040033
:1028A0006088ADF80600ADF8085069464846FFF765
:1028B000E8FE2088ADF80000608852463044ADF84C
:1028C00002002088A1880844ADF8040060886946A9
:1028D0003044ADF806004846FFF7D3FE2088ADF837
:1028E0000000608852462844ADF802002088ADF808
:1028F0000400608869463044ADF806004846FFF79A
:10290000C0FE208852463844ADF800006088694611
:102910002844ADF8020020883844ADF804006088EF
:102920003044ADF806004846FFF7ABFE0020A0E7B4
:1029300070B541EA4201DDE904564FF0A04441EA96
:10294000830141EA052104EB800041EA0641C0F819
:10295000001770BD70B541EA4201DDE904564FF041
:10296000A04441EA830141EA052104EB800041EAE9
:102970000641C0F8001770BD70B541EA4201DDE9BB
:1029800004564FF0A04441EA830141EA052104EBDB
:10299000800041EA0641C0F8001770BD70B541EAF9
:1029A0004201DDE904564FF0A04441EA830141EAC7
:1029B000052104EB800041EA0641C0F8001770BD14
:1029C0001CB5002100910B4601220191FFF7E6FFA3
:1029D0001CBD1CB500220B46009211460192FFF768
:1029E000DDFF1CBD1CB5002100910B4601220191A9
:1029F0001146FFF7C1FF1CBD1CB5002100910B461D
:102A0000012201911146FFF7C9FF1CBD4FF0A04202
:102A100002EB8000D0F8002722F44032C0F80027F3
:102A2000D0F8002742EA0141C0F8001770474FF084
:102A3000A04221B101218140C2F81815704702EB74
:102A400080000021C0F8001770474FF0A04201211C
:102A50008140C2F80815704701224FF0A043824020
:102A600011B1C3F808257047C3F80C257047000062
:102A700018B5084B6C4601441B68009306E000BF84
:102A800054F82030D3F81035401C08C28142F7D8E2
:102A900018BD000030400000034908B5084400217B
:102AA00001600068009008BD006000400249405885
:102AB000012800D0002070470060004000487047A7
:102AC000352B000030B5184C054689B0207828B168
:102AD0006078854202D1002009B030BD2022134920
:102AE0006846FDF7DFFB00208DF8140006200090FB
:102AF0000820019005200390072002904FF0EB7012
:102B000006900948001DFFF78BFC0DB1002200E084
:102B1000074A05486946001DFFF7BCFB0028DBD1CA
:102B2000012020706570D6E750000020BC470000EF
:102B30008D3A00002DE9F04FC1B00D004FF00001BB
:102B400040914D984B991C46174601EB000B01D064
:102B50000A2000E00020804600F04AFC00287CD1DA
:102B60006E46BCB9409840AA3118284600F016FFBE
:102B7000002872D03846FDF7B9FBC22800D9C22020
:102B8000054640982A4630443946FDF78BFB40986D
:102B9000284440904FF0200A409901EB080231325E
:102BA0000DEB01050DEB0206002002E005F801AB7C
:102BB000401C4045FAD300275C4508D305F801AB1B
:102BC00005F801AB05F801AB06F801AB2DE04B9819
:102BD000844202D24A98005D02E0211A4C98405C7F
:102BE0002B46814602460121880022FA00F000F0BF
:102BF0000F00092801D9373000E03030C1F1010C55
:102C0000491E03F80C00EFD29D1C05F801ABFDF73F
:102C100045FB016811F8090010F03E0F01D048464D
:102C200000E02E2006F8010B641C7F1C102FC3D37C
:102C30000D2030700A20707085F800A04099684619
:102C400041444331409100F0D9FB30B100F0D0FB5A
:102C500018B9002040905C459ED341B02046BDE8A5
:102C6000F08F2DE9F043C7B000251C4690468946F9
:102C70004E9F459500F0BCFB00287AD1459805AEE3
:102C8000311845AA484600F089FE002835D0072FA4
:102C900027D2DFE807F004121B35424F5D004046A3
:102CA000FDF724FB054645982918FF2919D830441B
:102CB0002A464146FDF7F6FA13E045982368C0F529
:102CC000807130444246FDF719FE09E060680090CB
:102CD00045982368C0F5807130444246FDF70EFEEA
:102CE0000546294645A8FEF701FC459978B3B1F59C
:102CF000807F3ED805A800F081FB47B0BDE8F08397
:102D0000D4E90101CDE9000145982368C0F580713F
:102D100030444246FDF7F2FDE2E7201D07C88DE88A
:102D2000070045982368C0F5807130444246FDF79E
:102D3000E5FDD5E7201D0FC88DE80F0045982368F5
:102D4000C0F5807130444246FDF7D8FDC8E710E079
:102D500004F1080001AD0FC885E80F00606800901D
:102D600045982368C0F5807130444246FDF7C6FDA2
:102D7000B6E70020C1E7000000487047632C000060
:102D80000120FFF79FBE00002DE9F04F87B0FEF74E
:102D9000E7FB18B1002007B0BDE8F08F454ED6E93B
:102DA000014704EA070006EB8000A146641CC568E1
:102DB0000CE000BFC5F3891000EB9550044404EA11
:102DC000070006EB8000A146C568641CA807F1D087
:102DD00005F003004FF0000B022805D0AA0A01A855
:102DE000C5F38313002153E004EA070006EB8000DB
:102DF00004F1010A0AEA0704C268381B80004FEA9E
:102E00009558001DC5F38913804521D929490C31F6
:102E100038B106EB840400F0FF0CA8EB00000C3482
:102E200004E00C46002108F0FF0C0846C0B2CDE9D2
:102E30000210CDE9004CD6F81444C5F3C20059463F
:102E4000A047404511D108F103080AEB98042AE095
:102E5000002106EB84000C300090CDE90181039144
:102E6000C5F3C200D6F81444EAE760F38F1509EA07
:102E7000070006EB8000C56016E000BF04EA070CFF
:102E800006EB8C0C491CDCF80CC040F804CB641C2D
:102E90009942F3D3C5F3C2000093D6F8105401ABA6
:102EA0005946A84700B17460FEF75AFB80F0010054
:102EB00071E7000040060020034AFF2393600023CF
:102EC0001360536000F028B8400600202DE9F84355
:102ED0000F4F88460446002569462846BE68FEF71F
:102EE0000FFB002812D00B480021406861F38200DC
:102EF000009964F3C50001EA060265F3891007EB47
:102F0000820268F39F20491CD0600091BDE8F883DD
:102F100040060020DC470000024A02F5826203C23C
:102F2000704700004006002070B506460020FFF7FD
:102F3000C9FD040008D1FFF7C1FD0546FFF71CFFDE
:102F400032462946FFF7B8FF204670BD064910B546
:102F500000204870091D0860BFF35F8F03490448D3
:102F600000F0DBF8002010BD48000020984700006A
:102F70003405002010B50020FEF73CF8F1EE100AF1
:102F800020F09F00E1EE100ABFF35F8F054940205B
:102F9000C1F880020020FEF72FF820BF40BF20BFFD
:102FA00010BD000004E000E02DE9F04104460027D8
:102FB00090460E463846FEF71DF8204600F038F8D9
:102FC00030B105270020FEF717F83846BDE8F0813C
:102FD00020680568B8F1000F05D10168204600F0AF
:102FE0003FF821680860E268012A0CD0022A0ED05E
:102FF000042A11D06068082A13D005FB020130466C
:10300000FDF750F9DEE76068405D3070DAE7606830
:1030100030F815003080D5E7606850F82500306042
:10302000D0E700EBC500D0E90010C6E90010C9E701
:10303000016808684968884201D101207047002072
:10304000704701680A6849688068884201D9491C4C
:1030500000E00021914201D101207047002070471B
:103060008068884201D9481C7047002070472DE9CC
:10307000F04104464FF000080E464046FDF7BAFF07
:103080002046FFF7DEFF070009D0207C38B14FF063
:1030900004080020FDF7B0FF4046BDE8F08120683D
:1030A000456841682046FFF7DBFF2168486037B17B
:1030B000206801682046FFF7D3FF21680860E268B6
:1030C000012A14D0022A16D0042A19D0082A1CD0AA
:1030D0006068314605FB0200FDF7E4F8204600F089
:1030E0001AF921688A688242D3D28860D1E7616880
:1030F00030784855F2E76168308821F81500EDE72F
:103100006168306841F82500E8E7D6E900016268A7
:1031100002EBC502C2E90001E0E701600968416015
:10312000AFF3008010B5D0E900215368994201D176
:10313000002104E0D1E90034A34202D019468160A5
:1031400010BD08314160F0E770B5044603460D46F6
:10315000084A0830FEF79EFF010008D120680022CF
:10316000427604C03CCD3CC0A0F11002026008468B
:1031700070BD0000293400002DE9F04105460468C7
:1031800086B01E4690460F460020FDF733FF607E56
:1031900020B111250020FDF72FFF1AE001206076F5
:1031A0000020FDF729FF18220C496846FDF77AF840
:1031B000CDE902578DF810806946284600F010F8D6
:1031C000050002D005E006B1B047607E0028FAD1C4
:1031D000A57E06B02846BDE8F0810000A4470000A7
:1031E00073B50546406801A9FFF741FF040003D10C
:1031F0000021284600F044FA20467CBD10B5044664
:103200000830FEF7EBFF21680020086010BD405831
:10321000002800D00120704708B5002242504058D5
:10322000009008BDD0F80403084000D0012070478A
:103230004058002800D00120704708B500224250B5
:103240004058009008BD00000449084490F930003F
:10325000082801DB01207047002070476C03002024
:103260000449084490F93000082801D20120704731
:10327000002070476C03002070B5034600791B499D
:1032800001EB40101968027F4FF0FF30002AD1F89F
:103290000C25D1F81465D1F80855D1F8104504D0A3
:1032A000C1F80C05C1F8140503E0C1F81405C1F814
:1032B0000C051968C1F80805C1F81005501C02D0AA
:1032C0001046FFF77DFB701C02D03046FFF778FBFD
:1032D000601C02D02046FFF773FB681C04D0284610
:1032E000BDE87040FFF76CBB70BD0000E803002034
:1032F000F0B40D46C16914468A884988954208D2BF
:103300008C4206D2866821462846B446F0BC1A464E
:103310006047F0BC704701680A684968914201D370
:10332000881A70478068801A0844401C7047F8B5B6
:1033300015460246C0691C460E46DDE906378188FF
:1033400040888E420FD285420DD2891BA14200DAFD
:103350008CB2401B984200DA83B20097D7682246AD
:1033600029463046B847F8BD70B5012670044FF0C5
:10337000E0210025C1F88001084C4010C4F8480342
:10338000C4F8080366602F20FEF7CAFCA660044C50
:103390002F20A560FEF7C4FCA57070BD0010014091
:1033A0003000002070B50546C87D0C4600284FF45B
:1033B000847128460AD0FFF72FFFD5F81805627EE2
:1033C000E1688854607E401C607670BDFFF724FF82
:1033D000D5F8180570BD1FB501238DF800308DF8A4
:1033E00008100192D0E90012684690471FBD000006
:1033F0000148FFF709B800005400002070B50D46E1
:103400000A46014601240648FCF74CFFEAB204498B
:103410000448FEF773FF00B10024204670BD000091
:10342000400500205400002010B50C4601462068DD
:10343000097849B10321204600F0CAFA2046BDE8C8
:103440001040012100F01CB9027E0021521C0368CB
:10345000D2B21B7C9342EED90276204600F05CF992
:103460000100E8D110BD09688876002048767047D1
:10347000F8B50026044681F8206004200D46C4F803
:103480000803C4F80861D4F808010090107910B15D
:103490001068007800E0E87FC4F81C051079012866
:1034A00002D91068407803E0107B012802D9E87F38
:1034B000C4F81C05286818B10420C4F80403F8BD3A
:1034C000D4F808010028FBD0C4F80861D4F808013A
:1034D00000902946204600F085FA0028F0D1A87F08
:1034E000FF28ECD0BDE8F840FFF7AFBA084900EB81
:1034F000400001EBC001064810B5F038FFF770FE40
:10350000002803D0BDE81040FDF7DCBC10BD000072
:103510000C3F000070B500240E4D02E001D30720DF
:1035200010E00C4804EB440605EBC6011038FFF729
:1035300057FE30B90748603000EBC6017038FFF71E
:103540004FFE08B1FDF7BEFC641CE4B2042CE5D3C9
:1035500070BD00002C3E00007FB51C4C04F15800EB
:103560000FC88DE80F006946A4F17800FFF7ECFD65
:10357000002829D14FF400711548FCF7ACFE012159
:103580001220FFF754FA01211820FFF750FA4FF0EC
:10359000A0454FF08076C5F80C6543F6982005F5F8
:1035A000A165FEF777FB2E604FF4FA60FEF772FB21
:1035B000683494E80F008DE80F000023012269466B
:1035C000A4F1E000FFF7D8FD04B070BD943E000008
:1035D000EC00002070B5C1F3C703C3EBC314C1F303
:1035E000C7050444C5EBC51630442844084D2344A0
:1035F000074C405D074D01F007011C44695C012345
:103600008B400AB1184300E09843207070BD000061
:10361000EC000020143E00002DE9F0438618DDF890
:103620001C908046802E15D2CF18202F12D2CDB2FA
:103630000EE000BF08F0FF0406E04A462946204697
:10364000FFF7C8FF641CE4B2A642F6D86D1CEDB2C9
:10365000AF42EFD8BDE8F0834FF0A0414FF4802097
:10366000C1F80C0570474FF0A0414FF48020C1F81D
:10367000080570470148FFF7C1BD00001C3E00006F
:103680002DE9F0410E460546002700202C68FDF785
:10369000B1FC3EB92868006820B1BDE8F0410020C7
:1036A000FDF7AABC002221466868FFF77DFC08B13F
:1036B0002760F2E70020FDF79FFC2068406920B3F7
:1036C00020684669102231466069FCF716FE58B141
:1036D00005F108008046FEF781FD2B460D4A314674
:1036E0004046FEF7D7FC66612776286800680168C7
:1036F00009B180688847284600F00EF8010006D01E
:10370000284600F065F90126BFE7261DDAE7BDE887
:10371000F08100002934000008B550F8082B117E14
:103720001268D26802EB01110A7B00920A798B6859
:103730000968FEF745FD08BD10B5224C207830B36E
:1037400001284FF00002204811462CD0FEF736F831
:1037500008B1FDF7B7FB002201211B48FEF72EF848
:1037600008B1FDF7AFFB012202211748FEF726F84A
:1037700008B1FDF7A7FB1448FEF774FF2078401C42
:10378000C0B22070022801D90020207010BD012293
:1037900000210D48FEF712F808B1FDF793FB002257
:1037A00007E00022E0E7FEF709F808B1FDF78AFB21
:1037B000012201210448FEF701F80028F1D0FDF7AD
:1037C00081FBEEE708000020B03D00002DE9F84F36
:1037D0001D4C00256846D4E901A6FDF7A3FF00278C
:1037E00038B30023009A61681CE0D1F800C0084695
:1037F000944503D9ACEB02020A6015E0A2EB0C027F
:1038000063440760D0F80CC0C1698146BCF1000F69
:1038100008D006EB030828F07F48C0E9018CC9F8FE
:103820001C5005460029E0D128466160FEF722F9C8
:1038300003E02846FEF71EF910B15046FDF7ECFEF6
:10384000E770BDE8F88F0000300000200D4B10B588
:10385000596831B102680C68A24204D8A21A0A6001
:10386000C161586010BD0B4603E00B46C969121BCD
:1038700021B10C689442F8D3A41A0C600260C161B3
:10388000D86110BD300000202DE9F041144E77685A
:103890003D462C4603E0844204D02546E469002CD2
:1038A000F9D11BE0D4B1A5420BD1F869706040B9E1
:1038B0000C49012088600021B160F0702F20FEF7D4
:1038C0002FFA2168E069E86110B1026811440160D3
:1038D0007068874202D00120BDE8F0810020FBE73C
:1038E0003000002000100140F8B5064600240D46C7
:1038F0002046FDF77FFB684600F0D8F968B10570F7
:10390000084946609DF8000048700020FDF774FBF0
:103910001420FCF701FE2046F8BD04240020FDF72A
:103920006BFBF8E7280400202DE9F041194D6C6885
:10393000002C2CD0184800270068A968B846401A07
:1039400020F07F462068B0420CD82146361A074442
:10395000E469087C20B181F810808869496988474A
:10396000002CEFD129786878814206D1401CC0B282
:103970006870022801D185F80180064869780C300A
:1039800040F82170BDE8F0411420FCF7C5BDBDE84A
:10399000F0810000300000200415014010B51446ED
:1039A00002004FF001000CD00846136806A24FF445
:1039B0008071FCF7A3FF01462046BDE81040FDF7EB
:1039C00095BD0021216010BD5B253038645D00008D
:1039D00000680B4600684268002A02D081681846D9
:1039E0001047704738B5D0F818258DF8002091F8A9
:1039F00020200B7E9A4203D29DF800304C69A354DC
:103A000091F82020521CD3B281F8203091F8214047
:103A10005A1C640707D50C7C944200D90A740C7EAA
:103A2000944200D90A760D7C954202D9C968895C16
:103A300003E00C7E944203D9C97FC0F81C1503E053
:103A4000AB4201D3A34201D2012038BD002038BDD2
:103A500070B50C4605464FF48E71FFF7DDFBA18A69
:103A6000A068415CA08A401CA082C5F81C1570BDEE
:103A70001FB500228DF800208DF808108168019193
:103A80008275D0E90012684690471FBD0078012872
:103A900001D1014988707047500000202DE9FF478F
:103AA0000C4605464FF40071FFF7BCFB01274FF4AD
:103AB0000178002618B34FF4927949462846FFF75B
:103AC000A6FBE0B149462846FFF7A6FBC5F80883E8
:103AD000A07E00B96F6002208DF80000D5F8800448
:103AE000C5F880040390E07D8DF80800E06801903F
:103AF000E6752676D4E900126846904727E004214F
:103B00002846FFF78FFB10B34FF484712846FFF768
:103B10007EFBE0B121462846FFF744FCE07D617E54
:103B2000884214D1207E38B1617EE268E075206958
:103B3000E0602676667607E0A07E00B96F60C5F883
:103B40000883E675617EE2682046FFF744FC4FF487
:103B50008E7841462846FFF75AFB88B1A08AA17D9E
:103B6000884204D221462846FFF772FF08E041460A
:103B70002846FFF751FBA17D11B12046FFF778FFE2
:103B80004FF4A27841462846FFF741FB002812D0A7
:103B900041462846FFF740FBA07E00B12F60E07D44
:103BA000002808D0E675617EE26804B02046BDE8D2
:103BB000F047FFF710BCBDE8FF872DE9FF410C4639
:103BC0004FF4927705463946FFF732FB0026C0B125
:103BD00039462846FFF731FB02208DF80000D5F862
:103BE0008004C5F880040390D5F83C058DF80800E2
:103BF000E0680190E6752676D4E9001268469047A1
:103C000024E04FF4887739462846FFF711FBE8B1E6
:103C100039462846FFF711FBD5F83C05C1B2E07DD7
:103C2000884213D1207E60B1E268D5F8000220F00E
:103C30002000C5F80002207EE0752069E06026764D
:103C400001E0E675E2682046FFF7C5FB4FF4A27776
:103C500039462846FFF7ECFA68B139462846FFF79F
:103C6000ECFAE07D38B1E675D5F83C05E268C1B202
:103C70002046FFF7B0FB4FF4907631462846FFF719
:103C8000D7FA00280FD031462846FFF7D6FAA07D94
:103C9000002808D0D5F84C0504B0C1B22046BDE8D4
:103CA000F041FFF7E5BEBDE8FF8100000A494A7810
:103CB0008B78521CD2B2934200D100220B789342EF
:103CC00001D1002070470270487800EB400001EB02
:103CD000C000001D70470000280400202DE9FF4FA0
:103CE000487883B0101AC0B20C46009049689846D4
:103CF00011F82000C01D4FEAD009202A01D000276A
:103D000034E0B8F80000217800EB51003AE00026DA
:103D100028E000250098022101EB800B109807FB9A
:103D2000096A384401906168C5F1070231F80B0057
:103D3000A1680144012011F80A10904001420BD003
:103D4000B8F8000005EBC601084481B20198119B48
:103D500082B20398FFF7CCFA6D1CEDB2082DE2D3C6
:103D6000761CB6B24E45D4D37F1CBFB22078B84281
:103D7000CDD86168009811F82000E1780144B8F8C6
:103D800000000844A8F8000007B0BDE8F08F00006C
:103D9000640000200500010000001500080000007C
:103DA00000001300020002000000130002000200E5
:103DB0005935000075360000D53500001936000071
:103DC0001535000000000000ED3400000000002068
:103DD00000001400000016000100000000001700A1
:103DE0000000190001000000000019000000190087
:103DF0000100000000001900000017000100000091
:103E0000C4000020840000200F0000000400000017
:103E1000010000000706050403020100D000002095
:103E2000003E000000300040030000005936000052
:103E300000000000000000005C3F000001000000E6
:103E400000000000593600000000000000000000E3
:103E50006C3F000001000000000000005936000027
:103E600000000000000000007C3F00000100000096
:103E700000000000593600000000000000000000B3
:103E80008C3F0000010000000000000067360000C9
:103E900000000000000000009C3F00000100000046
:103EA0000000000067360000000000000000000075
:103EB000AC3F000001000000000000006736000079
:103EC0000000000000000000BC3F000001000000F6
:103ED0000000000067360000000000000000000045
:103EE000CC3F000001000000000000001917FF1681
:103EF00007FF00000000008000000000503F0000AD
:103F00000C00000000000000000000005936000016
:103F10000000000000000000DC3F00000100000085
:103F20000000000059360000000000000000000002
:103F3000EC3F00000100000000000000B340001052
:103F4000E0B2400010E0B1400010E0B0400010E0EE
:103F5000E2AEA2A0C0222F40AF8117A63C3F0000D6
:103F6000050000000000000000000000413F0000CC
:103F7000050000000000000000000000463F0000B7
:103F80000500000000000000000000004B3F0000A2
:103F9000050000000000000000000000EC00002010
:103FA0008000000000000000000000006C01002004
:103FB000800000000000000000000000EC01002074
:103FC0008000000000000000000000006C020020E3
:103FD0008000000000000000000000000900002038
:103FE0000100000000000000000000000A000020A6
:103FF0000100000000000000000000001112131476
:104000000D0E0F10EC0200200C03002038030020DE
:104010000D000300B11100000E000300B1110000FB
:104020000F000300B111000010000300B1110000E7
:1040300000000050008080808080808080008000B0
:10404000000000A0A0A0A0000000000000000000F0
:10405000001414147E2828FC50505000000000204A
:1040600070A8A8A0702828A8702000000000600098
:1040700090809100620004000800118022404240BC
:10408000018000000000000000304848483050889F
:104090008A847A0000000080808080000000000098
:1040A00000000000002040408080808080808040B0
:1040B00040200080404020202020202020404080C0
:1040C0000020A870D80000000000000000000000E0
:1040D00000002020F8202000000000000000000068
:1040E0000000000000004080000000000000000010
:1040F000F0000000000000000000000000000000D0
:1041000000008000000000101010202020404040DF
:1041100080808000007088888888888888887000FF
:1041200000000020E020202020202020200000008F
:1041300000708888081020408080F800000000701F
:10414000880808300808088870000000000818284F
:10415000284888F808080800000000F8808080F0EF
:1041600088080888700000000070888080B0C888C7
:1041700088887000000000F80808101020204040D7
:1041800040000000007088888870888888887000E7
:10419000000000708888889868080888700000000F
:1041A000000000008000000000008000000000000F
:1041B00000004000000000004080000000000018E7
:1041C0003060C0603018000000000000000000F8FF
:1041D00000F8000000000000000000C0603018304F
:1041E00060C00000000000708888081020202000B7
:1041F000200000000F0030C04020402087908890B1
:104200008890891046E0400030600F800000000078
:1042100000000800080014001400220022007F00A3
:1042200041008080808000000000000000FC82824D
:1042300082FC82828282FC000000003C42818080FD
:10424000808081423C00000000FC8281818181816C
:104250008182FC00000000FE808080FC80808080E5
:10426000FE00000000FE808080FC80808080800056
:104270000000003C42818080878181433D00000036
:104280000081818181FF8181818181000000008026
:104290008080808080808080800000000008080886
:1042A0000808080888887000000000848890A0C072
:1042B000A0908884820000000080808080808080C0
:1042C0008080FC000000000080808080C180C18070
:1042D000A280A28094809480888088800000000062
:1042E00000000081C1A1A191898585838100000022
:1042F000003C42818181818181423C00000000FCC0
:1043000082818182FC80808080000000003C4281AC
:104310008181818185423D0000000000FC00820017
:10432000810081008200FE00810081008100808088
:10433000000000000000007C828280700C028282FB
:104340007C0000000000FF80080008000800080052
:104350000800080008000800080000000000000035
:10436000008181818181818181423C0000000000C7
:10437000808080804100410022002200140014004F
:104380000800080000000000000000008208820809
:1043900082084510451028A028A028A010401040F1
:1043A000000000000000008181422418182442818E
:1043B0008100000000008080808041002200140005
:1043C00008000800080008000800000000000000C5
:1043D00000FC0408081020404080FC00000000E0C1
:1043E0008080808080808080808080E000808080ED
:1043F0004040402020201010100000E0202020200D
:1044000020202020202020E02050880000000000F4
:10441000000000000000000000000000000000009C
:104420000000FE00008040000000000000000000CE
:1044300000000000000078847C8484847A000000FE
:1044400000808080B8C4848484C4B8000000000068
:1044500000007884808080847800000000040404D8
:10446000748C8484848C74000000000000007884C4
:1044700084FC80847800000000204040E040404000
:1044800040404000000000000000748C8484848C54
:104490007404047800808080B0C888888888880088
:1044A000000000800000808080808080800000000C
:1044B000004000004040404040404040408000807C
:1044C00080808890A0E09088840000000080808038
:1044D000808080808080800000000000000000005C
:1044E0000000B300CC8088808880888088808880A5
:1044F00000000000000000000000B0C88888888824
:10450000880000000000000078848484848478009F
:10451000000000000000B8C4848484C4B880808097
:1045200000000000748C8484848C740404040000F3
:104530000000A0C08080808080000000000000009B
:104540007088807008887000000000004040E040E3
:10455000404040402000000000000000888888881B
:1045600088986800000000000000828244442828E7
:10457000100000000000000000000000888088801B
:1045800055005500550022002200000000000000E8
:1045900000000000844830303048840000000000F3
:1045A0000000828244442828101020C0000000002F
:1045B000F01020404080F000000000182020202053
:1045C00020C02020202020180080808080808080D3
:1045D00080808080808000C0202020202018202023
:1045E000202020C00062928C00000000000000002B
:1045F00000000100000003000E0007001C00050081
:104600002A000A003800070054000100620003007D
:10461000700003007E0005008C0005009A00020077
:10462000A8000400B6000100C4000400D200050088
:10463000E0000300EE000500FC0005000A01050093
:10464000180105002601050034010500420105009E
:10465000500105005E0101006C0102007A010500B5
:104660008801050096010500A4010500B2010C00B7
:10467000C0010900DC010700F8010800060208007B
:104680001402070022020700300208003E02080060
:104690004C0201005A02050068020700760206007B
:1046A0008402090092020800AE020800BC02080061
:1046B000CA020800D8020900E60207000203090046
:1046C000100308002C0309003A030D0056030800EC
:1046D00072030900800306009C030300AA03040080
:1046E000B8030300C6030500D4030700E203020079
:1046F000F0030700FE0306000C0406001A0406007F
:104700002804060036040300440406005204050091
:10471000600401006E0402007C0406008A040100AB
:1047200098040900A6040500C2040600D00406008F
:10473000DE040600EC040300FA040500080503008B
:10474000160505002405070032050900400506008E
:104750005C0507006A050400780505008605010070
:1047600094050500A2050700B00500000E217E0299
:10477000F24500003440000008040020030000005F
:104780000000000000000000000000000000000029
:104790000000000000000000804700009847000073
:1047A000040000000000000067340000000000006A
:1047B000000000000000000000000000FFFFFFFFFD
:1047C000FFFFFFFFFFFFFFFFFFFFFFFF00000000F5
:1047D000000000000000D6010701000029000000D1
:1047E00001000000010000000100000001000000C5
:1047F00001000000010000000100000002000000B4
:1048000000404040404040404040414141414140E3
:104810004040404040404040404040404040404098
:104820004005020202020202020202020202020227
:10483000022020202020202020202002020202022C
:104840000202909090909090101010101010101084
:104850001010101010101010101010100202020290
:1048600002028888888888880808080808080808D4
:1048700008080808080808080808080802020202D0
:1048800040000000014800004F766572666C6F774B
:104890000D0A0000B4480000000000206400000081
:1048A000240900001849000064000020F4290000D9
:1048B00034090000000020008000000000A6A700CE
:1048C00000000000000000000000000000000000E8
:1048D00000000000000000000000000000000000D8
:1048E00000000000000000000000000000000000C8
:1048F00000000000000000000000000000000000B8
:104900000000000000000000002000400000000047
:08491000884800000090D0036C
:0400000500000201F4
:00000001FF
