:020000040000FA
:10000000682A0020150200001D0200001F020000E7
:100010002102000023020000250200000000000071
:1000200000000000000000000000000027020000A7
:1000300029020000000000002B0200002D02000039
:10004000A10500002F0200004D0800001D06000061
:100050002F0200002F020000790300002F02000091
:100060002F0200002F0200002F0200002F020000CC
:100070002F0200002F0200002F0200002F020000BC
:100080002F020000F90500002F0200002F020000DF
:10009000610600002F0200002F0200002F02000066
:1000A0002F0200002F0200002F0200002F0200008C
:1000B0002F0200002F0200000000000000000000DE
:1000C0002F0200002F0200002F0200002F0200006C
:1000D0002F0200002F0200002F0200002F0200005C
:1000E0002F0200002F0200002F0200002F0200004C
:1000F000000000002F0200000000000000000000CF
:1001000000000000000000000000000000000000EF
:1001100000000000000000000000000000000000DF
:1001200000000000000000000000000000000000CF
:1001300000000000000000000000000000000000BF
:1001400000000000000000000000000000000000AF
:10015000000000000000000000000000000000009F
:10016000000000000000000000000000000000008F
:10017000000000000000000000000000000000007F
:10018000000000000000000000000000000000006F
:10019000000000000000000000000000000000005F
:1001A000000000000000000000000000000000004F
:1001B000000000000000000000000000000000003F
:1001C000000000000000000000000000000000002F
:1001D000000000000000000000000000000000001F
:1001E000000000000000000000000000000000000F
:1001F00000000000000000000000000000000000FF
:10020000DFF80CD000F0A6F800480047D91A00002B
:10021000682A00200648804706480047FEE7FEE7B8
:10022000FEE7FEE7FEE7FEE7FEE7FEE7FEE7FEE7A6
:1002300065060000010200002DE9F05F0546002080
:1002400092469B4688460646814640241BE0284647
:1002500041464746224600F06CF853465A46C01ABB
:10026000914110D311461846224600F053F82D1A3A
:1002700067EB01084F4622460120002100F04AF8B2
:1002800017EB00094E41201EA4F10104DFDC4846B3
:1002900031462A464346BDE8F09F000000487047BB
:1002A0003049000040EA01039B0703D009E008C978
:1002B000121F08C0042AFAD203E011F8013B00F82B
:1002C000013B521EF9D27047D2B201E000F8012B77
:1002D000491EFBD270470022F6E710B513460A46C6
:1002E00004461946FFF7F0FF204610BD421C10F8E7
:1002F000011B0029FBD1801A704730B5044600204D
:10030000034600E05B1C934203D2E05CCD5C401BE3
:10031000F8D030BD202A04DB203A00FA02F1002098
:1003200070479140C2F1200320FA03F31943904033
:100330007047202A04DB203A21FA02F0002170479E
:1003400021FA02F3D040C2F120029140084319463D
:1003500070470000064C074D06E0E06840F00103DE
:1003600094E8070098471034AC42F6D3FFF74CFFEF
:1003700040490000604900002DE9F04F00268FB091
:10038000DFF8B081B14602964FF4807501243746FC
:100390000396284602F0E8FB38B1D8F8040320425F
:1003A00003D0284602F0D6FB26432D1D64007F1C97
:1003B000ADB2082FEDD34FF4BE74204602F0D4FB4B
:1003C00048B1204602F0C6FB46F0004602AA0221D0
:1003D000002002F0A9FB584C16F0FF0F15D00127A2
:1003E000002537420DD008EB8501D1F81005D1F872
:1003F0001015C0F3052054F82520C1F3014102B1C6
:1004000090477F006D1C082DEBD3002E7DDA002075
:10041000CDF82890411E0DF1080B08AACDF82C90BC
:1004200042F82010401C91460228F9D300252E46A0
:10043000A01910F8607F90F9000027F0C008401C58
:1004400049D008A9404601F0C3FB88B34FEA971A88
:10045000404601F07BF854F820701FB1BAF1030F49
:1004600003D00FE0BAF1030F35D10AA84FEAD80242
:1004700008F00703815C4FF0010C0CFA03FC41EA21
:100480000C01815406A8CDF8188002F0E7FA06990D
:1004900000EB8100D0F8000702A9C0F301400690EC
:1004A000404601F095FB0028069802D0022802D0B1
:1004B00011E003280FD1BAF1030F08D106980228E2
:1004C00032D00221404602F069FA6D1CEDB217B13C
:1004D00051464046B847761C042EA9D3002D20D0A3
:1004E00004AA0221002002F01FFB00205A4604A9A2
:1004F00052F8206051F82030B34217D000200AAEE5
:100500004FEA090351F8207000E00AE042F8207039
:1005100056F8207043F82070401C0228F2D3002DBA
:1005200084D10FB0BDE8F08F0321CBE7401C022837
:10053000DED3F6E7006000406C03002000F01F02ED
:10054000012191404009800000F1E020C0F88012B4
:10055000704700F01F02012191404009800000F126
:10056000E020C0F80011704700F01F020121914007
:100570004009800000F1E020C0F8001270474907F0
:10058000090E002806DA00F00F0000F1E02080F8E4
:10059000141D704700F1E02080F80014704700003F
:1005A0002DE9F0414FF48077384601F019FB012422
:1005B000104EA50748B1384601F019FB0120C5F8D7
:1005C00008037470002000F0C9FF4FF482773846AA
:1005D00001F006FB00280BD0384601F008FB022092
:1005E000C5F80803B470BDE8F041012000F0B6BFC3
:1005F000BDE8F0815803002007480021C0F84011F1
:10060000C0F84411C0F84811C0F84C11C0F80011EE
:10061000C0F8041103F0DCB90010014038B50F48F0
:100620000D4C0025C0F80851D0F808110091214662
:1006300003F02CFA00280ED1A07FFF2801D002F091
:100640004CFA65772572D4E9002101B004F1080065
:10065000BDE83040104738BDD403002000300040D2
:1006600003F008B930B54FF080500022D0F83011B7
:100670000123082902D1D0F8344114B1082909D046
:100680000BE04FF08041C1F80C21C1F81021614905
:100690000A6005E0D0F8344114B1082957D059E078
:1006A0005D4909685D4C21605B49091D0968241D8D
:1006B0002160594908310968241D216056490C31CF
:1006C0000968241D2160544910310968241D2160E6
:1006D000514914310968241D21604F4918310968B6
:1006E0004E4C203421604C491C310968241D216086
:1006F000494920310968241D21604749243109688E
:10070000241D2160444928310968241D2160424983
:100710002C310968241D21603F49303109683F4C64
:10072000403421603C4934310968241D21603A4934
:1007300038310968241D216037493C310968241D7E
:100740002160354940310968241D216005E0D0F859
:10075000344114B1082904D006E0324C30492160FC
:1007600005E0D0F8344114B1082904D006E02E4C3D
:10077000FB21216005E0D0F8344114B1082908D0EC
:100780000EE090F858422948016864F303010160C3
:1007900002E0D0F8340118B925494FF40070086020
:1007A0002448016841F470010160BFF34F8FBFF32B
:1007B0006F8F4FF01021D1F80002002803DBD1F831
:1007C0000402002822DA1C4C23601C480368002B1A
:1007D000FCD01223C1F800320568002DFCD0C1F80E
:1007E000043201680029FCD0226001680029FCD095
:1007F000BFF34F8F0F487C380168114A01F4E06164
:1008000011430160BFF34F8F00BFFDE70E490D4854
:10081000086030BD380500400404001020C50040C9
:10082000488103008C56004018F50040E40E00405B
:100830004096024088ED00E004E5014000E40140FC
:100840000400FA050090D003600000200448017FF6
:1008500004480029024901D003F003BA03F072B939
:10086000F8030020002000400FB41CB50A46521EB9
:10087000CDE9000207A9054B6A46069800F018F872
:10088000009A002111701CBC5DF814FB130D0000D0
:1008900002E008C8121F08C1002AFAD17047704749
:1008A000002001E001C1121F002AFBD170470000A7
:1008B0002DE9FF4F8DB00F460546002606E025289E
:1008C0000BD0DDE90F1290476D1C761C28780028AC
:1008D000F5D111B03046BDE8F08F0024A246A14604
:1008E0000122EC4900E0044315F8013F203B02FAE5
:1008F00003F00842F7D128782A2810D06FF02F0291
:100900002878A0F13001092914D80AEB8A0102EBFA
:10091000410144F0020400EB010A6D1CF0E701CF35
:100920005FEA000A03D544F40054CAF1000A44F017
:1009300002046D1C28782E2817D115F8010F44F0F9
:1009400004042A280ED06FF02F022878A0F130017D
:1009500009290AD809EB890102EB410100EB0109E1
:100960006D1CF2E757F8049B6D1C28786C280FD09B
:1009700006DC4C2817D068280DD06A2814D104E072
:10098000742810D07A280FD10DE044F400140AE046
:1009900044F4801401E044F440146978814202D1A7
:1009A00004F580146D1C6D1C2A786E2A1FD00CDC97
:1009B000632A31D004DC002A8BD0582A11D1A3E05D
:1009C000642A68D0692A0CD165E0732A2ED004DC31
:1009D0006F2A73D0702A04D19BE0752A6FD0782AD1
:1009E0006ED01046DDE90F129047761C50E1C4F33B
:1009F0000250022806D0032809D0042801CF09D0CC
:100A0000066045E101CFF117C0E9006140E101CF87
:100A100006803DE106703BE117F8040B8DF80000FD
:100A200000208DF80100EB46012003E057F804BBDD
:100A30004FF0FF3061074FF0000102D40DE008F1E4
:100A40000101884649450FDA8045F8DB1BF808109C
:100A50000029F4D108E008F1010188468142FADB5F
:100A60001BF808100029F6D1DDE90F23AAEB0800D6
:100A70008146214600F036F9304400EB080604E0D8
:100A8000DDE90F121BF8010B9047B8F10108F7D20E
:100A900021464846F7E00A21C4F302534FF0000B09
:100AA0000891022B04D001CFC117032B09D00AE013
:100AB000FF1D27F00707F7E8020108E032E01FE01A
:100AC00020E000B2C117042B01D140B2C117031EB0
:100AD00071F1000307DA4FF0000CD0EB0C006CEB67
:100AE00001012D2302E0230504D52B238DF82430AA
:100AF000012303E0E30701D02023F7E7984658E0FD
:100B00000A2110E010210EE010204FF0000B089099
:100B10000CE010214FF0000B44F004044FF00809E2
:100B2000089103E008214FF0000B0891C4F3025331
:100B3000022B04D001CF0021032B06D006E0FF1DBD
:100B400027F00707F7E8020103E080B2042B00D189
:100B5000C0B24FF0000823072BD5702A07D0DDF86C
:100B600020C08CF0100C5CEA0B0C05D00EE040238A
:100B70008DF82430012308E050EA010306D0302329
:100B80008DF824308DF8252002239846DDF820C00A
:100B90008CF0080C5CEA0B0C0BD150EA010301D17C
:100BA000630706D530238DF824304FF00108A9F1F2
:100BB0000109582A04D038A20B9208AA0A920BE025
:100BC0003AA2F9E75B46089AFFF736FB0B9B9B5C62
:100BD0000A9A521E0A92137050EA0102F2D10A9840
:100BE000ADEB000000F1200B600702D524F4803447
:100BF00001E04FF00109D94502DDA9EB0B0000E04F
:100C0000002000EB0B0141440890AAEB010AE0032D
:100C100006D4DDE90F232146504600F063F8064470
:100C20004FF0000908E009A911F80900DDE90F12E9
:100C3000904709F10109761CC145F4DBE0030CD5AE
:100C4000DDE90F232146504600F04CF8064404E04D
:100C5000DDE90F1230209047761C0899481E089055
:100C60000029F5DC08E00A980A990078491C0A91E5
:100C7000DDE90F129047761CBBF10001ABF1010BCF
:100C8000F1DC21465046DDE90F2300F019F8064457
:100C90006D1C1BE6092801003031323334353637FC
:100CA00038396162636465660000000030313233B8
:100CB0003435363738394142434445460000000058
:100CC0002DE9F041044600251E461746880404D449
:100CD00005E039462020B0476D1C641EF9D5284632
:100CE000BDE8F0812DE9F041044600251E469046FE
:100CF000C80301D5302700E02027880404D505E08B
:100D000041463846B0476D1C641EF9D52846BDE8FB
:100D1000F0814A68002A06D00A68531C0B601070E4
:100D20004868401E48607047022000F083B9000008
:100D300070B50024064D06E06868012110F8340003
:100D400001F066F8641C28788442F5D3002070BD59
:100D50001C000020F8B515460C460646052A01D2AF
:100D60000720F8BD01F036F918B901F005F900289F
:100D7000F7D1104900204E600C70C1E902500E4DB1
:100D800008610DE006EBC4006968009181788DF878
:100D900001100078094A694601F086F80028E0D180
:100DA000641EE4B2EED2BDE8F840054A00210248D4
:100DB00000F04AB81C00002024480000D1160000B2
:100DC000311600000DA1012002F0DEF802F036F825
:100DD00002F038F80028FBD10CA1032002F0D4F86F
:100DE000BFF34F8F10480168104A01F4E0611143CE
:100DF0000160BFF34F8F00BFFDE700003A4552523C
:100E00004F523A466174616C0D0A00003A494E46F1
:100E10004F3A486974207765616B2068616E646C35
:100E200065720D0A000000000CED00E00400FA05F8
:100E30000EB500210091CDE901106A4644F201008F
:100E4000FFF7C0FF0EBD0000074B9B7823B12AB10E
:100E500020B10068037C1BB1082070470720704751
:100E600041744261002070473804002070B502F0E0
:100E7000D9FA104800240B21047044700E4D817083
:100E800014206C602C706C70FFF758FB0721142045
:100E9000FFF775FB1420FFF75CFB0848046007218F
:100EA0001120FFF76CFB0548001F0068A8600020B8
:100EB00070BD0000380400203000002008150140FB
:100EC0002DE9F843DFF8709099F802305BB350B326
:100ED000052902D20720BDE8F88343691BB3437C90
:100EE000012B22D0002704460025884616462846B6
:100EF00000F036F8684602F02DFFC0B10121017004
:100F00000E4944600968C0E90218C0E904769DF8FA
:100F1000000089F80100002000F024F81420FFF7F9
:100F200023FB2846D7E70820D5E70F46DBE7042553
:100F3000002000F017F8F4E7380400200415014001
:100F40000649897839B130B1416921B10021017474
:100F5000022102F01DBD0820704700003804002067
:100F600000F002B800F008B872B602480168491CE7
:100F7000016070474400002003490868401E086073
:100F800000D162B6704700004400002070B50546ED
:100F900008680C46411C04D001F0A9FD206801F04E
:100FA000F3FC6068411C02D0002101F0DAFC2879D2
:100FB0001F4901EB40102968007F0028A069C1F893
:100FC000240523D0607D227D29681043C1F86C057B
:100FD000D4E900122868C0F80C15C0F8142522E0E6
:100FE000A068411C02D0002101F0BBFCE068411C5C
:100FF00004D001F07CFDE06801F0C6FCD4E90212E7
:101000002868C0F80825C0F8101570BD607D217DE6
:101010002A680843C2F86C05D4E900122868C0F8B1
:101020001425C0F80C15207D0128D9D070BD000012
:10103000F8030020094908B5085C0090684601F0F3
:10104000FFFCD0F80425009B0121994021EA02030E
:10105000C0F808351140C0F80C1508BDA4400000C8
:101060000249085C012101F04CBD0000A4400000D1
:101070000249085C002101F044BD0000A4400000CA
:10108000084908B5085C0090684601F0D9FCD0F822
:1010900004050099C84010F0010000D0012080F044
:1010A000010008BDA44000007CB50024084E254680
:1010B0000122305D009500231146019501F0E4FB0B
:1010C000641C042CF4D3BDE87C4000F003B800009D
:1010D000A440000010B500242046FFF7C1FF641CA7
:1010E000042CF9D310BD10B500242046FFF7C0FF33
:1010F000641C042CF9D310BD10B50246064B4FF00A
:10110000FF3000215C5C944201D1084610BD491CAF
:101110000429F7D310BD0000A84000002DE9F047D6
:101120000D468146FFF7E8FF0446042836D2DFF873
:1011300074801B481C4EA8F10C0725B3012D0ED05E
:10114000022D2BD104EB440030444578002D25D0EE
:10115000B968002922D02846BDE8F047084704EBCB
:101160004401755C0E44717849B10E4A4FF4004158
:10117000093A8068FFF7A4FE08B987F80390B178B0
:1011800008F80410E2E78068FFF7DAFE04EB440198
:10119000314418F804008D78A842D7D0BDE8F08714
:1011A000AC400000180000202C0300200E2805D0C1
:1011B000112805D10021034801F00CBA0121FAE7FA
:1011C00070470000583E000070B50023042810D27C
:1011D0000D4D00EB4004012A02D101290CD0002260
:1011E000094E00EB4000304461B1012906D00229CC
:1011F00006D00723184670BD0E30C2B22A55F9E753
:101200004270F7E78270F5E72C03002070B50646C0
:101210001E480024C0E90161B00720D50025012245
:1012200011462846FFF7D0FF6D1C0446042D02D25C
:10123000002CF4D013E094B940F266620421144803
:10124000FFF788FD04000AD1FFF772FD040006D104
:101250000F48104A0021001FFFF7F6FD0446F00773
:1012600001D0FFF721FF74B909480B4A00210C385F
:10127000FFF7EAFD040006D10548084A01210838B5
:10128000FFF7E2FD0446204670BD00000C00002080
:10129000B8400000E114000015190000290D0000FD
:1012A0002DE9F05F6A4C054600266078B34618B118
:1012B00084F801B000F016FB664F4FF47A694FF4E2
:1012C000C87A4FF00108182D62D2DFE805F0AC0CA7
:1012D0000C31404D62676B746B74BE7D7D7D7D7D8E
:1012E000ACAFB2B5BEBE0020FFF7CAFE00284FF07B
:1012F000000008D0FFF7B4FE022D02D14FF4E160E8
:1013000008E0484606E0FFF7B3FE022D01D1C820F1
:1013100000E05046410CC0034FF4FA72801841F1CE
:101320000001257052000023FEF786FF01462AE0E7
:101330000020FFF7A5FE00284FF0000004D0FFF7C3
:101340008FFE4FF44870E5E7FFF792FEDFE70020DD
:10135000FFF796FE00284FF0000002D0FFF780FE56
:10136000CFE7FFF785FED4E70020FFF789FE0028CE
:101370004FF0000002D0FFF773FE01E0FFF778FEA8
:10138000257041F69A1100223868FFF799FD06464C
:1013900046E00020FFF74EFE257008E0002051E0F7
:1013A00025703DE084F801800120FFF743FE002214
:1013B00040F6CD41E8E784F801800120FFF73AFECE
:1013C00000224FF48041DFE77868FFF7B9FD064659
:1013D000D5F1110000D02EB10220FFF741FE84F8B4
:1013E00002B01DE0012816D980B2C8214843C117B8
:1013F000C90341EA5041C0034FF4FA72801841F129
:10140000000152000023FEF717FF01460022786812
:10141000FFF756FD06460220FFF72AFE84F80280F9
:101420003046BDE8F09F00F05DFAB9E700F05AFAE7
:10143000B4E700F057FA04E000F054FA0020FFF798
:1014400017FE0120FFF714FEAAE7FFF74CFEA7E7FF
:101450000C000020AC400000002901DA0020704799
:1014600002681144016001207047000070B5461CFD
:101470000D4601240020FFF773FD114A1068286013
:10148000D2E900109568081A2B1A701C5B1C984250
:101490000FD963B10B480C4B294000681B6802EB65
:1014A000810163F39F20C8601068401C1060002415
:1014B00001E0881910600020FFF754FD204670BD40
:1014C00050060020884800005C000020034803C844
:1014D000814201D101207047002070475006002052
:1014E00000780221FFF71ABE05494FF0FF320828A5
:1014F00041F8202002D3084480F8582070470000AB
:101500006C030020F0B54FF0FF3512B10023082620
:1015100001E008230C260C4C05E000BF54F82370B2
:101520007F1C04D05B1CB342F8D32846F0BD2618BC
:101530005DB286F8305044F82310002AF5D1E11846
:1015400081F85800F1E700006C03002002490844CC
:1015500090F93000704700006C03002070B5084C13
:10156000050009D010342168002907D008682060E0
:10157000496828468847F6E70834F4E770BD00005C
:10158000580300202DE9F05F26484168F1B3DFF8E9
:1015900098B00E688146DBF8004087688078E11BD0
:1015A00021F07F45ED1CB0B9DFF880804FF480302A
:1015B000C8F84403C8F804031120FEF7BFFF112048
:1015C000FEF7C7FF4FF0010AC8F800A02F2000F077
:1015D0005DFB89F802A0B54200D23546124BE819EE
:1015E0003C3320F07F401860DBF800105A46091B9E
:1015F00021F07F41001B20F07F40C91C81420FD9A0
:10160000106818602F2000F041FB00E004E0BDE806
:10161000F05F1120FEF7A8BFBDE8F05F01F002BF48
:10162000BDE8F09F3000002004150140001001408B
:101630002DE9F04100260125144C22E06068226962
:1016400000EBC607387805FA00F1114217D08A433B
:10165000226100F089FC02463878E36805FA00F15F
:10166000194002FA00F3994209D17978012901D091
:10167000012100E0002151407A6802B19047761CB8
:10168000F6B220788642D9D3BDE8F0811C00002054
:101690000E4910B50A784C780023A24212D0521C91
:1016A000D2B20A70022A00D10B70084A0B780C32B1
:1016B00052F8232002608868104420F07F40886040
:1016C000012010BD0360002010BD0000300000208C
:1016D0002DE9F041124E07460125BD403068FFF765
:1016E0002FFC00280DD10F4C2069284207D1384625
:1016F00000F03AFC0028E06805D0284304E0A84345
:101700002061BDE8F081A843E060206928432061A2
:10171000A1683068BDE8F0410022FFF7D1BB0000AE
:10172000244800001C000020F0B593B01546064682
:1017300031B1012907D0022907D0072013B0F0BD2D
:101740006FF0270102E0002100E02821404C01AFAA
:101750000DF1100C0DCC87E80D0001F14002ADF841
:101760000420ADF8082089CC8CE88900501FADF822
:101770001000C01CADF81400B4E888100DF11C0E68
:101780008EE88810ADF81C00001DADF82000B4E80C
:1017900088100DF1280E8EE88810ADF82800C01CC6
:1017A000ADF82C0054E91A03CDE90D03ADF834204F
:1017B00054E91802CDE90F0201F13C00ADF83C00FC
:1017C00054E91602CDE911024331ADF844102A461E
:1017D00001A9304600F001FF08B1FFF729FB2A46B6
:1017E00004A9304600F0F9FE08B1FFF721FB2A46B4
:1017F00007A9304600F0F1FE08B1FFF719FB2A46B1
:101800000AA9304600F0E9FE08B1FFF711FB0023FA
:101810002A460DA9304600F0D9FD08B1FFF708FBB4
:1018200001242B4622460FA93046009400F0A8FF61
:1018300008B1FFF7FDFA2B46012211A930460094AA
:1018400000F09EFF08B1FFF7F3FA002076E70000F2
:10185000783E000070B50E460446007918494FF4F2
:10186000A27501EB4010017F2068A1B14FF488718F
:1018700001F041FD4FF49071206801F03CFD4FF400
:101880009271206801F037FD2946206801F033FD90
:101890000C49206809E04FF48E7101F01BFD2946C8
:1018A000206801F017FD08492068C0F8041320687B
:1018B00000F0ABFA3146BDE8704000F08ABA000093
:1018C000F8030020100302008000020002681346A3
:1018D00002E08A4204D01268002AFAD10B6001604B
:1018E000704700000A4810B5807860B1002401E01C
:1018F000022C06D02046FFF7B3FB641C042CF7D360
:1019000010BD0324F6E7BDE81040FFF7E3BB00007D
:101910000C00002003480179C90702D00078FFF7C6
:10192000BFBC70470C0000202DE9FF4F83B09946E3
:10193000DDF840800F4616464FF0FF30494501D292
:10194000012300E003460193424500DA01200090A4
:101950004FF0000BB9EB070000D5404205B2B8EBE1
:10196000060000D5404204B2119B039801F01EFD11
:10197000A54204DA65406C4065404FF0010B601BE6
:10198000400000B2029060000FFA80FAAAEB050056
:1019900004B21EE0002C09DB0198384487B200989D
:1019A000304486B20298204404B20CE004EB0A00F2
:1019B00004B2BBF1000F03D00098304486B202E0BD
:1019C0000198384487B232463946119B039801F09A
:1019D000EDFC4645DED14F45DCD107B0BDE8F08FC8
:1019E0002DE9F047394E002780463D46DFF8E0906C
:1019F000D6F804A057E003D00446D0F81C8035E0A8
:101A000099F8002002EB4201521CD2B289F8002062
:101A100009EBC10199F80230091D9A4201D189F8F8
:101A2000005048680A780446012A12D0022A02D0DF
:101A3000032A3BD108E001F07BFF00B101272574A8
:101A400034E00574C06900E070680028F9D1706066
:101A50002CE0207C50BB88686060C868A060086982
:101A6000E0604869A061F07800B165606268B168C3
:101A7000184B501A20F07F40984202D2A1680844C7
:101A800006E0881AA16820F07F40814202D9081A36
:101A9000206000E0256065600120A560207420467C
:101AA000E56101F027FFB8F10000A4D199F800101A
:101AB00099F801008142A3D117B97168514502D04C
:101AC0000120BDE8F0870020FBE700003000002087
:101AD00038040020FFFF7F000EB500F01DF908B1AB
:101AE000FFF7A6F9002000F039F9FFF7BFF908B1B8
:101AF000FFF79EF9234A01212348FFF7A5F908B112
:101B0000FFF796F9204C00224FF400412068FFF7C0
:101B1000D7F908B1FFF78CF901F076FA08B1FFF7B1
:101B200087F9002001F05EFA08B1FFF781F9174943
:101B30000220FFF76BFB08B1FFF77AF914A103202D
:101B400001F022FA1048203000F03AFD08B1FFF70A
:101B50006FF96068029000211848CDE900010A4839
:101B600017A3012202A9203000F0B2FD08B1FFF74F
:101B70005FF901F05DFA00BF01F064F90028FBD1C4
:101B8000F7E70000E1370000383E0000AD1100002B
:101B90004150503A494E464F3A5350492074726171
:101BA0006E73616374696F6E206D616E61676572DB
:101BB000206578616D706C650A0D000018480000A2
:101BC00020204E4F5244494353454D4900000000E8
:101BD000C20800F007030120895C98400840704764
:101BE00000F180400068002800D00120704708B54F
:101BF00000F18040002101600068009008BD0000F5
:101C000000283ED01F49204A096800BF00BF00BF1E
:101C100000BF00BF00BF00BF00BF91422FD000BF78
:101C200000BF00BF00BF00BF00BF00BF00BF00BFBC
:101C300000BF00BF00BF00BF00BF00BF00BF00BFAC
:101C400000BF00BF00BF00BF00BF00BF00BF00BF9C
:101C500000BF00BF00BF00BF00BF00BF00BF00BF8C
:101C600000BF00BF00BF00BF00BF00BF00BF00BF7C
:101C700000BF00BF00BF00BF00BF00BF00BF401ECD
:101C8000C3D17047600000200024F40000283ED03B
:101C90001F49204A096800BF00BF00BF00BF00BF46
:101CA00000BF00BF00BF91422FD000BF00BF00BFE8
:101CB00000BF00BF00BF00BF00BF00BF00BF00BF2C
:101CC00000BF00BF00BF00BF00BF00BF00BF00BF1C
:101CD00000BF00BF00BF00BF00BF00BF00BF00BF0C
:101CE00000BF00BF00BF00BF00BF00BF00BF00BFFC
:101CF00000BF00BF00BF00BF00BF00BF00BF00BFEC
:101D000000BF00BF00BF00BF00BF401EC3D170476F
:101D1000600000200024F40070B50E4C00252078EF
:101D200008B1852513E00021A16061602161E160B7
:101D30004FF0E020D0F80001012610F0010F03D190
:101D40000721002000F045F8034806602670284669
:101D500070BD0000580300201805004070B5154DF7
:101D60000446A87838B114B1616801208847002082
:101D7000FFF7F6F815E00020FFF7F2F824B10D4860
:101D800021461030FFF7A2FDE86850B94FF4827089
:101D9000FFF72DFF02204107C1F804030649012087
:101DA0000860E868401CE860BDE870400020FFF76C
:101DB000D9B80000580300200800004000F01F02BE
:101DC000012191404009800000F1E020C0F880111D
:101DD00070474907090E002806DA00F00F0202F1E9
:101DE000E02282F8141D03E000F1E02282F80014E2
:101DF00000F01F02012191404009800000F1E02025
:101E0000C0F88012C0F800117047000B40B2704754
:101E10002DE9F0410E46804601F074FA204D00286D
:101E2000404616D0FFF792FB284490F858008009EE
:101E3000032802D001280AD003E0404600F038FE13
:101E400028B103214046BDE8F04100F0A7BD0221C2
:101E5000F8E701F063FA002820D04046FFF776FB50
:101E60000446104F4FF4807007EB840100EB8400B0
:101E7000D1F8102580B242F00102C1F8102500F01F
:101E800069FE002E0AD04046FFF760FB55F820009F
:101E9000002803D00120A040C7F80403BDE8F0816A
:101EA0006C030020006000402DE9FC41DFF8AC80AD
:101EB000044608EB0400002790F930001346C017D1
:101EC0000E46401C01D0082744E0F278194620460F
:101ED000FFF718FB0546401C3BD0B07868B1684658
:101EE000009400F0BBFD009900EB8100D0F80017D2
:101EF00021F00201C0F8001707E0002173782046A6
:101F000000910A46019100F0D8FCF078C0B1144865
:101F1000317800EB8500D0F81025124B1A40C0F83C
:101F200010254FF47C524FF4403302EA042203EAB6
:101F300001410A43D0F810150A43C0F8102509E002
:101F400008EB0500327810F8581F41EA8211017041
:101F500000E004273846BDE8FC8100006C03002047
:101F600000600040FFC0FCFF10B500F0A1FD00289C
:101F700000D0012010BD000070B5144D95F864002C
:101F800008B1082070BD0020411E2A18401CC0B2B4
:101F900082F830103028F8D300242046FFF7A4FA46
:101FA000641CE4B20C2CF8D307210620FFF711FFC4
:101FB0004FF4BE7000F0CEFD05494FF00040C1F86F
:101FC0000403012085F86400002070BD6C0300202C
:101FD00000600040034890F86400002800D0012011
:101FE000704700006C0300200121B1EB507F01D14C
:101FF00001207047002070472DE9FC4707464079D3
:102000000C46DFF80CA100EBC0010AEB8106307F23
:1020100010B10820BDE8FC87C6E90023207B012819
:10202000207802D800F0DCFC01E000F056FD4FF013
:102030000009CDF80090CDF8049020784B464A4630
:10204000012100F053FC60784FF0FF35FF2806D0E7
:10205000804600F0C5FC404600F08CFC00E0A8463D
:10206000A078FF2809D0002205464B46CDF8009005
:102070001146CDF8049000F039FCE078FF2804D038
:1020800000F02BFDE07800F075FC7979E07801EB49
:10209000C1010AEB8101887738682378C0F80835D8
:1020A000C0F80C85C0F81055A168C0F82415237B32
:1020B000617B01B10121012B04D0022B05D0032B40
:1020C00008D105E041F0020104E041F0040101E023
:1020D00041F00601C0F854157B79617903EBC30325
:1020E0000AEB8302D177316811B10421C0F80413DF
:1020F0000125C0F80055306820B1217997F9040016
:10210000FFF767FE484686F81D90357782E70000A6
:10211000D40300201FB5069C00918DF80420029383
:102120008DF80C400022694600F026F804B010BD7E
:1021300010B541790F4A01EBC10102EB8102116830
:1021400059B190F90410012301F01F04A34049097B
:10215000890001F1E021C1F880310068116819B1EE
:102160004FF0FF31C0F808130021C0F800151177B7
:1021700010BD0000D40300202DE9F041064688463A
:102180004079194900EBC00001EB80041546607FDF
:10219000002710B11120BDE8F081206820B115F0B2
:1021A000140F01D10120607798E80E00D8F80C00D8
:1021B000C4E90530C4E9031294F8210020F00700B7
:1021C00084F82100A07FFF2801D000F009FC1DB198
:1021D00000206077062704E042462146306801F07F
:1021E000A5F93846D7E70000D40300202DE9F041D7
:1021F00005460079164F904607EB40140E46E07EE8
:1022000010B10820BDE8F081707F20772846FEF7E6
:10221000BDFE5FEA080060603169216003D0317F54
:102220002846FFF717FB287907EB4010007F0028AE
:10223000286801D0082100E00421C0F80015002022
:10224000E0752076A0750121E176A076DAE700003E
:10225000F80300202DE9F047054600793F4E9046EF
:1022600006EB40140F46207F18B10846FFF7BCFE6E
:1022700030B1284600F074F820B11120BDE8F08795
:102280001020FBE784F81680A7600027A782287932
:102290004FF0010806EB40143E46207F00282868D6
:1022A00025D04FF49079494601F025F84FF4AC7AE7
:1022B0005146286801F01FF82868A17DA268C0F87F
:1022C0004425C0F848152868C0F808806068F0B94F
:1022D0004946286801F00AF880465146286801F00E
:1022E00005F858EA0001F3D058BBA7750FE04FF48A
:1022F0008E7A514600F0EEFF2868C0F8088021462B
:10230000286801F0F9FB61684FF4807089B13046AC
:10231000B4E75146286800F0D8FF10B9A08A4845B4
:10232000F7D1A08A484505D02146286801F0E4FB92
:1023300000E08146A08AA17D8842EAD3A08A484570
:1023400001D10F26D1E75146286800F0BEFF0028D2
:10235000F9D02868C0F80C80C7E70000F803002017
:102360000079044901EB4010807D002800D0012055
:1023700070470000F803002070B504460079114949
:10238000002601EB401520682A7FC0F800656868C8
:1023900088B1207901EB4010007F0028206801D02F
:1023A000094901E008498C39C0F808132068FFF793
:1023B0002CFDFFF703FD204600F0BCFFEE766E60BB
:1023C00070BD0000F8030020100302002DE9FF5F3C
:1023D0000C46B1F90450C169904683469A4622885A
:1023E000A08800268B88121A3746934206DB628843
:1023F0004988101A4FF00109814277DA072004B0AA
:10240000BDE8F09FBAF1000F72D02188881B01D47B
:102410004A1B33D5701CCDF80090CDE901800844EB
:1024200083B260880021401B82B2584600F0DDFF75
:10243000CDE900982188681C0390084483B2608825
:102440000021801B82B2584600F0CFFFCDE90098F2
:1024500021880398084483B260880021304482B206
:10246000584600F0C2FFCDE9009821880298084440
:1024700083B260880021284482B233E009EB460130
:10248000CDF80090CDE901818BB26188491B8AB2F9
:1024900081B2584600F0A9FF09EB4500CDE900984C
:1024A00083B203906088801B82B22088401B81B277
:1024B000584600F09AFFCDE90098039883B26088EF
:1024C000304482B22088401B81B2584600F08DFF14
:1024D000CDE9009860880299284482B220888BB2A6
:1024E000801B81B2584600F080FF51E061E0FFE7B9
:1024F00060884346284482B22088304481B25846DE
:1025000000F054FF60884346284482B22088801B34
:1025100081B2584600F04AFF60884346304482B298
:102520002088284481B2584600F040FF6088434626
:10253000304482B22088401B81B2584600F036FFFA
:1025400060884346401B82B22088801B81B2584677
:1025500000F02CFF60884346401B82B22088304444
:1025600081B2584600F022FF60884346801B82B249
:102570002088401B81B2584600F018FF608843460F
:10258000801B82B22088284481B2584600F00EFF9A
:10259000002F07DC761C36B207EB4600401C07B262
:1025A000002F06DD6D1E2DB2684207EB4000401E75
:1025B00007B2B542BFF626AF002020E7006900470A
:1025C00010B5044600688047002802D1E269012165
:1025D000117010BD8269084610472DE9FC47C36998
:1025E0000C468146988809884FF000081546C44675
:1025F000884203D25A88A688B24206D362889042A3
:1026000006D25888E388984202D20720BDE8FC87AA
:10261000A388E688CF1AA2EB060000D57F420028E7
:1026200000DA4042874202DDB4F808C001E0B4F8A5
:102630000880994201D0B24210D1581AB31A00D57D
:102640005B4263449BB2CDE90035002800DA40428A
:10265000404483B2484600F0C8FE36E0B8F1000FAF
:1026600015D000260FE0B4F90600CDE90005A088DA
:102670006288304483B22088304481B24846FFF7F4
:1026800053F9761CB6B22089B042ECD81DE0BCF1FB
:10269000000F14D000260EE0E088304400B2CDE9EF
:1026A00000056088A388304482B221884846FFF73D
:1026B0003BF9761CB6B22089B042EDD805E030B2C5
:1026C000CDE900054846FFF72FF900209EE70000FE
:1026D0002DE9FE4F814608880C9DADF80800D9F819
:1026E0001C0088464C88418828781F46081A934663
:1026F000A04202DA0720BDE8FE8F00264FF00A0A4A
:102700002BE00A2A2ED0CDE9004B02AB29464846E1
:1027100001F038FBB95D6878081AC0B220292CD0C6
:10272000696811F8200000BFD9F81C108A88121AB5
:10273000BDF8080082420FDA0D9888B1B8F80000A1
:10274000ADF8080028784988B0FBFAF22244024428
:1027500094B2081AA04203DB761CBA5D002AD0D1DD
:102760000020C8E7B8F80000ADF808002878B0FBF2
:10277000FAF12144084484B2CCE728784008D3E732
:102780002DE9FE4F9A468B8815468146581B87B225
:10279000C8880C46411BDDF830C08EB2012B13D027
:1027A000012811D0B3EB450F0ED3B0EB450F0BD37F
:1027B000D9F81C202188B2F80480884507D25288B5
:1027C000B4F80280424502D20720BDE8FE8FBCF17A
:1027D000000F06D0CDE9000A6288484600F005FEE9
:1027E00050E0ADF800106088ADF802002088A188A4
:1027F00052460844ADF804006088ADF80600ADF814
:10280000085069464846FFF7E8FE2088ADF800000A
:10281000608852463044ADF802002088A188084400
:10282000ADF80400608869463044ADF806004846BB
:10283000FFF7D3FE2088ADF8000060885246284498
:10284000ADF802002088ADF8040060886946304485
:10285000ADF806004846FFF7C0FE208852463844CF
:10286000ADF80000608869462844ADF80200208871
:102870003844ADF8040060883044ADF8060048469E
:10288000FFF7ABFE0020A0E72DE9FF411C46DDE984
:102890000A7815460E46684600F0D2F846EA450129
:1028A00041EA840141EA072242EA0841009A00EB2A
:1028B0008200C0F80017BDE8FF812DE9FF411C46EA
:1028C000DDE90A7815460E46684600F0C7F846EA84
:1028D000450141EA840141EA072242EA0841009A9F
:1028E00000EB8200C0F80017BDE8FF812DE9FF4131
:1028F0001C46DDE90A7815460E46684600F0BCF82D
:1029000046EA450141EA840141EA072242EA0841D8
:10291000009A00EB8200C0F80017BDE8FF812DE9A6
:10292000FF411C46DDE90A7815460E46684600F070
:10293000B1F846EA450141EA840141EA072242EA48
:102940000841009A00EB8200C0F80017BDE8FF8143
:102950001CB5002100910B4601220191FFF7DFFF1A
:102960001CBD1CB500220B46009211460192FFF7D8
:10297000D6FF1CBD1CB5002100910B460122019120
:102980001146FFF7B3FF1CBD1CB5002100910B469B
:10299000012201911146FFF7C2FF1CBD13B50C4681
:1029A000684600F05BF8009900EB8101D1F8002740
:1029B00022F44032C1F80027009900EB8100D0F8E2
:1029C000001741EA0441C0F800171CBD01B5684674
:1029D00000F028F8009A01219140C0F80C1508BDBC
:1029E00001B5684600F048F8009A01219140C0F80E
:1029F0000C1508BD03B581B041B101A800F012F873
:102A0000019A01219140C0F818150EBD019800905F
:102A1000684600F007F8009A002100EB8200C0F839
:102A200000170EBD0168202902D24FF0A040704768
:102A300001F01F01016001487047000000030050D1
:102A40000168202902D24FF0A040704701F01F0119
:102A50000160014870470000000300500168202910
:102A600002D24FF0A040704701F01F010160014801
:102A700070470000000300500168202902D24FF087
:102A8000A040704701F01F0101600148704700003D
:102A9000000300500168202902D24FF0A040704787
:102AA00001F01F0101600148704700000003005061
:102AB00001B56846FFF7D2FFD0F810050099C8406D
:102AC00000F0010008BD01B56846FFF7ABFF009AB2
:102AD00001219140C0F8081508BD01B56846FFF70F
:102AE000CBFF009A01219140C0F8081508BD01B53F
:102AF0006846FFF7CFFF009A01219140C0F8081502
:102B000008BD38B501240090684631B1FFF798FF41
:102B100000998C40C0F8084538BDFFF791FF009937
:102B20008C40C0F80C4538BD1CB5094C0144D4E9B3
:102B30000034CDE900346C4606E000BF54F8203084
:102B4000D3F81035401C08C28142F7D81CBD0000E4
:102B5000D8400000034908B508440021016000681E
:102B6000009008BD0060004002494058012800D094
:102B7000002070470060004000487047F12B0000C3
:102B800030B5184C054689B0207828B16078854268
:102B900002D1002009B030BD202213496846FDF75C
:102BA00081FB00208DF81400062000900820019081
:102BB00005200390072002904FF0EB700690094823
:102BC000001DFFF7D9FB0DB1002200E0074A0548C0
:102BD0006946001DFFF70AFB0028DBD101202070A9
:102BE0006570D6E75000002068480000353B0000C3
:102BF0002DE9F04FC1B00D004FF0000140914D980C
:102C00004B991C46174601EB000B01D00A2000E04F
:102C10000020804600F04AFC00287CD16E46BCB9FA
:102C2000409840AA3118284600F00CFF002872D0C6
:102C30003846FDF75BFBC22800D9C2200546409804
:102C40002A4630443946FDF72DFB409828444090F1
:102C50004FF0200A409901EB080231320DEB0105DB
:102C60000DEB0206002002E005F801AB401C4045D8
:102C7000FAD300275C4508D305F801AB05F801AB92
:102C800005F801AB06F801AB2DE04B98844202D267
:102C90004A98005D02E0211A4C98405C2B46814620
:102CA00002460121880022FA00F000F00F000928F6
:102CB00001D9373000E03030C1F1010C491E03F872
:102CC0000C00EFD29D1C05F801ABFDF7E7FA016897
:102CD00011F8090010F03E0F01D0484600E02E2008
:102CE00006F8010B641C7F1C102FC3D30D2030701D
:102CF0000A20707085F800A040996846414443312D
:102D0000409100F0D9FB30B100F0D0FB18B90020A1
:102D100040905C459ED341B02046BDE8F08F2DE940
:102D2000F043C7B000251C46904689464E9F459506
:102D300000F0BCFB00287AD1459805AE311845AAB1
:102D4000484600F07FFE002835D0072F27D2DFE865
:102D500007F004121B35424F5D004046FDF7C6FAEE
:102D6000054645982918FF2919D830442A46414676
:102D7000FDF798FA13E045982368C0F58071304458
:102D80004246FDF771FD09E06068009045982368B0
:102D9000C0F5807130444246FDF766FD0546294680
:102DA00045A8FEF759FB459978B3B1F5807F3ED829
:102DB00005A800F081FB47B0BDE8F083D4E901012C
:102DC000CDE9000145982368C0F580713044424642
:102DD000FDF74AFDE2E7201D07C88DE8070045988A
:102DE0002368C0F5807130444246FDF73DFDD5E7CC
:102DF000201D0FC88DE80F0045982368C0F580712D
:102E000030444246FDF730FDC8E710E004F1080009
:102E100001AD0FC885E80F006068009045982368F1
:102E2000C0F5807130444246FDF71EFDB6E7002034
:102E3000C1E70000004870471F2D00000120FFF788
:102E40009FBE00002DE9F04F87B0FEF73FFB18B1A1
:102E5000002007B0BDE8F08F454ED6E9014704EAEF
:102E6000070006EB8000A146641CC5680CE000BFAB
:102E7000C5F3891000EB9550044404EA070006EB03
:102E80008000A146C568641CA807F1D005F00300C6
:102E90004FF0000B022805D0AA0A01A8C5F383133E
:102EA000002153E004EA070006EB800004F1010A68
:102EB0000AEA0704C268381B80004FEA9558001DD3
:102EC000C5F38913804521D929490C3138B106EB66
:102ED000840400F0FF0CA8EB00000C3404E00C4666
:102EE000002108F0FF0C0846C0B2CDE90210CDE980
:102EF000004CD6F81444C5F3C2005946A0474045DB
:102F000011D108F103080AEB98042AE0002106EB2E
:102F100084000C300090CDE901810391C5F3C2001B
:102F2000D6F81444EAE760F38F1509EA070006EBC8
:102F30008000C56016E000BF04EA070C06EB8C0CAD
:102F4000491CDCF80CC040F804CB641C9942F3D354
:102F5000C5F3C2000093D6F8105401AB5946A847F8
:102F600000B17460FEF7B2FA80F0010071E7000072
:102F700050060020034AFF23936000231360536030
:102F800000F028B8500600202DE9F8430F4F88467E
:102F90000446002569462846BE68FEF767FA002801
:102FA00012D00B480021406861F38200009964F35D
:102FB000C50001EA060265F3891007EB820268F397
:102FC0009F20491CD0600091BDE8F8835006002086
:102FD00088480000024A02F5826203C2704700007E
:102FE0005006002070B506460020FFF7C9FD04001A
:102FF00008D1FFF7C1FD0546FFF71CFF3246294601
:10300000FFF7B8FF204670BD064910B50020487094
:10301000091D0860BFF35F8F0349044800F0DBF827
:10302000002010BD48000020444800004405002056
:1030300010B50020FDF794FFF1EE100A20F09F007C
:10304000E1EE100ABFF35F8F05494020C1F880020E
:103050000020FDF787FF20BF40BF20BF10BD00004C
:1030600004E000E02DE9F0410446002790460E46BA
:103070003846FDF775FF204600F038F830B10527D7
:103080000020FDF76FFF3846BDE8F0812068056835
:10309000B8F1000F05D10168204600F03FF8216823
:1030A0000860E268012A0CD0022A0ED0042A11D04E
:1030B0006068082A13D005FB02013046FDF7F2F8DC
:1030C000DEE76068405D3070DAE7606830F8150070
:1030D0003080D5E7606850F825003060D0E700EB1D
:1030E000C500D0E90010C6E90010C9E7016808680A
:1030F0004968884201D1012070470020704701686B
:103100000A6849688068884201D9491C00E00021AA
:10311000914201D1012070470020704780688842A9
:1031200001D9481C7047002070472DE9F041044642
:103130004FF000080E464046FDF712FF2046FFF70D
:10314000DEFF070009D0207C38B14FF004080020D2
:10315000FDF708FF4046BDE8F081206845684168FA
:103160002046FFF7DBFF2168486037B1206801681F
:103170002046FFF7D3FF21680860E268012A14D0D7
:10318000022A16D0042A19D0082A1CD060683146B9
:1031900005FB0200FDF786F8204600F01AF92168C9
:1031A0008A688242D3D28860D1E761683078485516
:1031B000F2E76168308821F81500EDE76168306852
:1031C00041F82500E8E7D6E90001626802EBC50294
:1031D000C2E90001E0E7016009684160AFF30080E7
:1031E00010B5D0E900215368994201D1002104E0D3
:1031F000D1E90034A34202D01946816010BD0831E4
:103200004160F0E770B5044603460D46084A0830B1
:10321000FEF7F2FE010008D120680022427604C0C9
:103220003CCD3CC0A0F110020260084670BD000019
:10323000E53400002DE9F0410546046886B01E46DD
:1032400090460F460020FDF78BFE607E20B11125D1
:103250000020FDF787FE1AE0012060760020FDF7D0
:1032600081FE18220C496846FDF71CF8CDE902578B
:103270008DF810806946284600F010F8050002D04D
:1032800005E006B1B047607E0028FAD1A57E06B001
:103290002846BDE8F08100005048000073B505469F
:1032A000406801A9FFF741FF040003D1002128462F
:1032B00000F03AFA20467CBD10B504460830FEF70F
:1032C00037FF21680020086010BD4058002800D05A
:1032D0000120704708B5002242504058009008BDB8
:1032E000D0F80403084000D001207047405800285F
:1032F00000D00120704708B500224250405800908D
:1033000008BD00000449084490F93000082801DB9A
:1033100001207047002070476C03002004490844D6
:1033200090F93000082801D2012070470020704732
:103330006C03002070B5034600791B4901EB401077
:103340001968027F4FF0FF30002AD1F80C25D1F820
:103350001465D1F80855D1F8104504D0C1F80C0512
:10336000C1F8140503E0C1F81405C1F80C0519688B
:10337000C1F80805C1F81005501C02D01046FFF72F
:10338000E7FA701C02D03046FFF7E2FA601C02D068
:103390002046FFF7DDFA681C04D02846BDE87040DF
:1033A000FFF7D6BA70BD0000F8030020F0B40D4658
:1033B000C16914468A884988954208D28C4206D24F
:1033C000866821462846B446F0BC1A466047F0BCE1
:1033D000704701680A684968914201D3881A7047AA
:1033E0008068801A0844401C7047F8B515460246AC
:1033F000C0691C460E46DDE90637818840888E424A
:103400000FD285420DD2891BA14200DA8CB2401B3B
:10341000984200DA83B20097D768224629463046A0
:10342000B847F8BD70B5012670044FF0E0210025C3
:10343000C1F88001084C4010C4F84803C4F80803E0
:1034400066602F20FEF722FCA660044C2F20A560AA
:10345000FEF71CFCA57070BD00100140300000207C
:1034600070B50546C87D0C4600284FF48471284687
:103470000AD0FFF72FFFD5F81805627EE16888545F
:10348000607E401C607670BDFFF724FFD5F81805FC
:1034900070BD1FB501238DF800308DF80810019222
:1034A000D0E90012684690471FBD00000148FEF7B2
:1034B00057BF00005400002070B50D460A46014673
:1034C00001240648FCF7EEFEEAB204490448FEF780
:1034D000C1FE00B10024204670BD00005005002050
:1034E0005400002010B50C4601462068097849B107
:1034F0000321204600F0C0FA2046BDE8104001211B
:1035000000F012B9027E0021521C0368D2B21B7C6B
:103510009342EED90276204600F052F90100E8D13C
:1035200010BD09688876002048767047F8B50026F7
:10353000044681F8206004200D46C4F80803C4F84E
:103540000861D4F808010090107910B11068007873
:1035500000E0E87FC4F81C051079012802D9106842
:10356000407803E0107B012802D9E87FC4F81C05ED
:10357000286818B10420C4F80403F8BDD4F8080181
:103580000028FBD0C4F80861D4F80801009029464F
:10359000204600F07BFA0028F0D1A87FFF28ECD06D
:1035A000BDE8F840FFF799BA084900EB400001EB8D
:1035B000C001064810B5F038FFF770FE002803D0B0
:1035C000BDE81040FDF734BC10BD0000B43F000062
:1035D00070B500240E4D02E001D3072010E00C4826
:1035E00004EB440605EBC6011038FFF757FE30B96F
:1035F0000748603000EBC6017038FFF74FFE08B196
:10360000FDF716FC641CE4B2042CE5D370BD000089
:10361000D43E00001FB51B4C04F158000FC88DE8C4
:103620000F006946A4F17800FFF7ECFD002826D1D1
:103630004FF400711448FCF74EFE01212820FFF7DB
:10364000D9F901212E20FFF7D5F92E20FFF7BEF979
:1036500043F69820FEF7D4FA2E20FFF734FA4FF401
:10366000FA60FEF7CDFA683494E80F008DE80F0099
:10367000002301226946A4F1E000FFF7DBFD04B05E
:1036800010BD00003C3F0000EC00002070B5C1F30D
:10369000C703C3EBC314C1F3C7050444C5EBC51688
:1036A00030442844084D2344074C405D074D01F049
:1036B00007011C44695C01238B400AB1184300E0F8
:1036C0009843207070BD0000EC000020BC3E00005C
:1036D0002DE9F0438618DDF81C908046802E15D227
:1036E000CF18202F12D2CDB20EE000BF08F0FF0499
:1036F00006E04A4629462046FFF7C8FF641CE4B2AC
:10370000A642F6D86D1CEDB2AF42EFD8BDE8F0830B
:103710002820FFF75BB92820FFF7D5B90148FFF74C
:10372000CBBD0000C43E00002DE9F0410E46054629
:10373000002700202C68FDF713FC3EB928680068BC
:1037400020B1BDE8F0410020FDF70CBC002221466D
:103750006868FFF787FC08B12760F2E70020FDF7F3
:1037600001FC2068406920B3206846691022314678
:103770006069FCF7C2FD58B105F108008046FEF70C
:10378000D7FC2B460D4A31464046FEF735FC6661B4
:10379000277628680068016809B18068884728464C
:1037A00000F00EF8010006D0284600F065F9012669
:1037B000BFE7261DDAE7BDE8F0810000E534000030
:1037C00008B550F8082B117E1268D26802EB01117F
:1037D0000A7B00920A798B680968FEF79BFC08BD9A
:1037E00010B5224C207830B301284FF00002204859
:1037F00011462CD0FDF798FF08B1FDF719FB002208
:1038000001211B48FDF790FF08B1FDF711FB0122D4
:1038100002211748FDF788FF08B1FDF709FB14489E
:10382000FEF7CCFE2078401CC0B22070022801D9DF
:103830000020207010BD012200210D48FDF774FF0B
:1038400008B1FDF7F5FA002207E00022E0E7FDF7F6
:103850006BFF08B1FDF7ECFA012201210448FDF7E6
:1038600063FF0028F1D0FDF7E3FAEEE7080000203F
:10387000583E00002DE9F84F1D4C00256846D4E95C
:1038800001A6FDF705FF002738B30023009A616801
:103890001CE0D1F800C00846944503D9ACEB020205
:1038A0000A6015E0A2EB0C0263440760D0F80CC07C
:1038B000C1698146BCF1000F08D006EB030828F06F
:1038C0007F48C0E9018CC9F81C5005460029E0D1A9
:1038D00028466160FEF784F803E02846FEF780F88A
:1038E00010B15046FDF74EFEE770BDE8F88F0000BE
:1038F000300000200D4B10B5596831B102680C68DA
:10390000A24204D8A21A0A60C161586010BD0B46D9
:1039100003E00B46C969121B21B10C689442F8D32D
:10392000A41A0C600260C161D86110BD3000002093
:103930002DE9F041144E77683D462C4603E0844261
:1039400004D02546E469002CF9D11BE0D4B1A5428E
:103950000BD1F869706040B90C49012088600021E2
:10396000B160F0702F20FEF791F92168E069E861FD
:1039700010B10268114401607068874202D00120D2
:10398000BDE8F0810020FBE730000020001001407E
:10399000F8B5064600240D462046FDF7E1FA6846D4
:1039A00000F0D8F968B10570084946609DF800003C
:1039B00048700020FDF7D6FA1420FCF7D5FD20460C
:1039C000F8BD04240020FDF7CDFAF8E73804002004
:1039D0002DE9F041194D6C68002C2CD018480027B7
:1039E0000068A968B846401A20F07F462068B042B7
:1039F0000CD82146361A0744E469087C20B181F8C6
:103A00001080886949698847002CEFD12978687847
:103A1000814206D1401CC0B26870022801D185F8ED
:103A20000180064869780C3040F82170BDE8F0410B
:103A30001420FCF799BDBDE8F081000030000020A3
:103A40000415014010B5144602004FF001000CD0DF
:103A50000846136806A24FF48071FCF705FF014683
:103A60002046BDE81040FDF7F7BC0021216010BDE5
:103A70005B253038645D000000680B4600684268D2
:103A8000002A02D0816818461047704738B5D0F830
:103A900018258DF8002091F820200B7E9A4203D241
:103AA0009DF800304C69A35491F82020521CD3B2E9
:103AB00081F8203091F821405A1C640707D50C7C0E
:103AC000944200D90A740C7E944200D90A760D7C87
:103AD000954202D9C968895C03E00C7E944203D9FF
:103AE000C97FC0F81C1503E0AB4201D3A34201D249
:103AF000012038BD002038BD70B50C4605464FF496
:103B00008E71FFF7E7FBA18AA068415CA08A401C88
:103B1000A082C5F81C1570BD1FB500228DF80020CD
:103B20008DF80810816801918275D0E9001268460D
:103B300090471FBD0078012801D101498870704766
:103B4000500000202DE9FF470C4605464FF4007158
:103B5000FFF7C6FB01274FF40178002618B34FF496
:103B6000927949462846FFF7B0FBE0B1494628461E
:103B7000FFF7B0FBC5F80883A07E00B96F60022094
:103B80008DF80000D5F88004C5F880040390E07D2E
:103B90008DF80800E0680190E6752676D4E90012F9
:103BA0006846904727E004212846FFF799FB10B3A9
:103BB0004FF484712846FFF788FBE0B12146284680
:103BC000FFF74EFCE07D617E884214D1207E38B143
:103BD000617EE268E0752069E0602676667607E03F
:103BE000A07E00B96F60C5F80883E675617EE26863
:103BF0002046FFF74EFC4FF48E7841462846FFF7EB
:103C000064FB88B1A08AA17D884204D2214628465F
:103C1000FFF772FF08E041462846FFF75BFBA17DF6
:103C200011B12046FFF778FF4FF4A27841462846AD
:103C3000FFF74BFB002812D041462846FFF74AFB0E
:103C4000A07E00B12F60E07D002808D0E675617E7F
:103C5000E26804B02046BDE8F047FFF71ABCBDE8B3
:103C6000FF872DE9FF410C464FF492770546394610
:103C7000FFF73CFB0026C0B139462846FFF73BFB67
:103C800002208DF80000D5F88004C5F88004039068
:103C9000D5F83C058DF80800E0680190E6752676B9
:103CA000D4E900126846904724E04FF488773946FB
:103CB0002846FFF71BFBE8B139462846FFF71BFBF8
:103CC000D5F83C05C1B2E07D884213D1207E60B1B9
:103CD000E268D5F8000220F02000C5F80002207E3E
:103CE000E0752069E060267601E0E675E26820462E
:103CF000FFF7CFFB4FF4A27739462846FFF7F6FAD5
:103D000068B139462846FFF7F6FAE07D38B1E67526
:103D1000D5F83C05E268C1B22046FFF7BAFB4FF484
:103D2000907631462846FFF7E1FA00280FD0314659
:103D30002846FFF7E0FAA07D002808D0D5F84C050A
:103D400004B0C1B22046BDE8F041FFF7E5BEBDE8D2
:103D5000FF8100000A494A788B78521CD2B2934204
:103D600000D100220B78934201D1002070470270ED
:103D7000487800EB400001EBC000001D70470000D8
:103D8000380400202DE9FF4F487883B0101AC0B2E4
:103D90000C4600904968984611F82000C01D4FEA73
:103DA000D009202A01D0002734E0B8F8000021789B
:103DB00000EB51003AE0002628E00025009802219F
:103DC00001EB800B109807FB096A38440190616889
:103DD000C5F1070231F80B00A1680144012011F878
:103DE0000A10904001420BD0B8F8000005EBC60164
:103DF000084481B20198119B82B20398FFF7D6FA6A
:103E00006D1CEDB2082DE2D3761CB6B24E45D4D36C
:103E10007F1CBFB22078B842CDD86168009811F8F5
:103E20002000E1780144B8F800000844A8F8000038
:103E300007B0BDE8F08F000064000020050001001D
:103E4000000015000800000000001300020002003E
:103E50000000130002000200153600001D370000AC
:103E60008D360000D1360000D13500000000000082
:103E7000A93500000000002000001400000016001A
:103E80000100000000001700000019000100000000
:103E900000001900000019000100000000001900D6
:103EA0000000170001000000C40000208400002072
:103EB0000F000000040000000100000007060504D8
:103EC00003020100D0000020A83E000000300040A6
:103ED0000300000011370000000000000000000097
:103EE0000440000001000000000000001137000045
:103EF000000000000000000014400000010000006D
:103F00000000000011370000000000000000000069
:103F100024400000010000000000000011370000F4
:103F2000000000000000000034400000010000001C
:103F30000000000017370000000000000000000033
:103F4000444000000100000000000000173700009E
:103F500000000000000000005440000001000000CC
:103F60000000000017370000000000000000000003
:103F7000644000000100000000000000173700004E
:103F8000000000000000000074400000010000007C
:103F9000000000002F2DFF2C07FF00000000008014
:103FA00000000000F83F00000C00000000000000CE
:103FB00000000000113700000000000000000000B9
:103FC00084400000010000000000000011370000E4
:103FD000000000000000000094400000010000000C
:103FE00000000000B3400010E0B2400010E0B1401B
:103FF0000010E0B0400010E0E2AEA2A0C0222F40CE
:10400000AF8117A6E43F000005000000000000009B
:1040100000000000E93F0000050000000000000073
:1040200000000000EE3F000005000000000000005E
:1040300000000000F33F0000050000000000000049
:1040400000000000EC0000208000000000000000E4
:10405000000000006C010020800000000000000053
:1040600000000000EC0100208000000000000000C3
:10407000000000006C020020800000000000000032
:104080000000000009000020010000000000000006
:10409000000000000A0000200100000000000000F5
:1040A000000000000D0E0F100B0C1819EC02002080
:1040B0000C030020380300200B0003001D1100003A
:1040C0000C0003001D110000180003001D1100006A
:1040D000190003001D1100000000005000030050F3
:1040E000008080808080808080008000000000A0B0
:1040F000A0A0A000000000000000000000141414A4
:104100007E2828FC505050000000002070A8A8A075
:10411000702828A8702000000000600090809100A6
:10412000620004000800118022404240018000002B
:104130000000000000304848483050888A847A00E7
:10414000000000808080800000000000000000006F
:10415000002040408080808080808040402000801F
:104160004040202020202020204040800020A870B7
:10417000D800000000000000000000000000202027
:10418000F8202000000000000000000000000000F7
:10419000000040800000000000000000F00000006F
:1041A000000000000000000000000000000080008F
:1041B000000000101010202020404040808080002F
:1041C00000708888888888888888700000000020AF
:1041D000E02020202020202020000000007088887F
:1041E000081020408080F800000000708808083027
:1041F000080808887000000000081828284888F877
:1042000008080800000000F8808080F0880808880E
:10421000700000000070888080B0C88888887000B6
:10422000000000F808081010202040404000000066
:104230000070888888708888888870000000007006
:1042400088888898680808887000000000000000CE
:10425000800000000000800000000000000040001E
:104260000000000040800000000000183060C060C6
:104270003018000000000000000000F800F8000006
:1042800000000000000000C06030183060C0000076
:104290000000007088880810202020002000000006
:1042A0000F0030C04020402087908890889089106F
:1042B00046E0400030600F80000000000000080071
:1042C000080014001400220022007F0041008080BA
:1042D000808000000000000000FC828282FC82825C
:1042E0008282FC000000003C42818080808081420C
:1042F0003C00000000FC8281818181818182FC0080
:10430000000000FE808080FC80808080FE00000035
:1043100000FE808080FC8080808080000000003C67
:1043200042818080878181433D000000008181813E
:1043300081FF8181818181000000008080808080F8
:1043400080808080800000000008080808080808B5
:1043500088887000000000848890A0C0A0908884A5
:104360008200000000808080808080808080FC004F
:104370000000000080808080C180C180A280A28077
:104380009480948088808880000000000000008174
:10439000C1A1A1918985858381000000003C4281F3
:1043A0008181818181423C00000000FC8281818208
:1043B000FC80808080000000003C428181818181FE
:1043C00085423D0000000000FC0082008100810069
:1043D0008200FE00810081008100808000000000DA
:1043E0000000007C828280700C0282827C000000CF
:1043F0000000FF800800080008000800080008000E
:104400000800080008000000000000000081818111
:104410008181818181423C00000000008080808099
:10442000410041002200220014001400080008008E
:104430000000000000000000820882088208451089
:10444000451028A028A028A010401040000000001F
:10445000000000818142241818244281810000005C
:1044600000008080808041002200140008000800C5
:1044700008000800080000000000000000FC04081C
:10448000081020404080FC00000000E08080808018
:1044900080808080808080E000808080404040205C
:1044A00020201010100000E02020202020202020BC
:1044B000202020E0205088000000000000000000C4
:1044C0000000000000000000000000000000FE00EE
:1044D000008040000000000000000000000000001C
:1044E000000078847C8484847A00000000808080CE
:1044F000B8C4848484C4B80000000000000078843C
:10450000808080847800000000040404748C84841B
:10451000848C7400000000000000788484FC808497
:104520007800000000204040E04040404040400013
:10453000000000000000748C8484848C740404786F
:1045400000808080B0C8888888888800000000804B
:10455000000080808080808080000000004000009B
:1045600040404040404040404080008080808890F3
:10457000A0E090888400000000808080808080809F
:104580008080800000000000000000000000B300F8
:10459000CC808880888088808880888000000000A7
:1045A000000000000000B0C88888888888000000EB
:1045B0000000000078848484848478000000000077
:1045C0000000B8C4848484C4B880808000000000E7
:1045D000748C8484848C7404040400000000A0C0E3
:1045E0008080808080000000000000007088807063
:1045F00008887000000000004040E040404040401B
:1046000020000000000000008888888888986800E2
:1046100000000000000082824444282810000000AE
:1046200000000000000000008880888055005500D0
:1046300055002200220000000000000000000000E1
:10464000844830303048840000000000000082823E
:1046500044442828101020C000000000F010204022
:104660004080F000000000182020202020C02020E2
:104670002020201800808080808080808080808042
:10468000808000C02020202020182020202020C052
:104690000062928C00000000000000000000010099
:1046A000000003000E0007001C0005002A000A009D
:1046B000380007005400010062000300700003008E
:1046C0007E0005008C0005009A000200A80004008E
:1046D000B6000100C4000400D2000500E0000300A1
:1046E000EE000500FC0005000A01050018010500A8
:1046F00026010500340105004201050050010500B6
:104700005E0101006C0102007A01050088010500CC
:1047100096010500A4010500B2010C00C0010900CA
:10472000DC010700F8010800060208001402070077
:1047300022020700300208003E0208004C0201007D
:104740005A0205006802070076020600840209008A
:1047500092020800AE020800BC020800CA0208006B
:10476000D8020900E602070002030900100308004E
:104770002C0309003A030D005603080072030900D8
:10478000800306009C030300AA030400B80303008F
:10479000C6030500D4030700E2030200F00307008C
:1047A000FE0306000C0406001A0406002804060096
:1047B00036040300440406005204050060040100AE
:1047C0006E0402007C0406008A04010098040900BB
:1047D000A6040500C2040600D0040600DE0406009C
:1047E000EC040300FA0405000805030016050500A3
:1047F0002405070032050900400506005C05070096
:104800006A05040078050500860501009405050089
:10481000A2050700B00500000E217E029E460000A2
:10482000E040000018040020030000000000000029
:104830000000000000000000000000000000000078
:10484000000000002C480000444800000400000064
:104850000000000023350000000000000000000000
:104860000000000000000000FFFFFFFFFFFFFFFF50
:10487000FFFFFFFFFFFFFFFF000000000000000040
:104880000000D6010701000029000000010000001F
:104890000100000001000000010000000100000014
:1048A0000100000001000000020000000040404044
:1048B00040404040404041414141414040404040F3
:1048C000404040404040404040404040400502029F
:1048D000020202020202020202020202022020205E
:1048E00020202020202020020202020202029090BA
:1048F00090909090101010101010101010101010B8
:10490000101010101010101002020202020288880B
:104910008888888808080808080808080808080817
:1049200008080808080808080202020240000000FF
:10493000AD4800004F766572666C6F770D0A000017
:1049400060490000000000206400000090080000A2
:10495000C449000064000020042A0000A0080000F0
:10496000000020008000000000A6A700000000005A
:104970000000000000000000000000000000000037
:104980000000000000000000000000000000000027
:104990000000000000000000000000000000000017
:1049A0000000000000000000000000000000000007
:1049B000000000000020004000000000344900001A
:0449C0000090D00390
:0400000500000201F4
:00000001FF
