:020000040000FA
:1000000060250020150200001D0200001F020000F4
:100010002102000023020000250200000000000071
:1000200000000000000000000000000027020000A7
:1000300029020000000000002B0200002D02000039
:100040002F0200002F0200004D0500002F020000CB
:100050002F0200002F0200002F0200002F020000DC
:100060002F0200002F0200002F0200002F020000CC
:100070002F0200002F0200002F0200002F020000BC
:100080002F0200002F0200002F02000037030000A3
:100090002F0200002F0200002F0200002F0200009C
:1000A0002F0200002F0200002F0200002F0200008C
:1000B0002F0200002F0200000000000000000000DE
:1000C0002F0200002F0200002F0200002F0200006C
:1000D0002F0200002F0200002F0200002F0200005C
:1000E0002F0200002F0200002F0200002F0200004C
:1000F000000000002F0200000000000000000000CF
:1001000000000000000000000000000000000000EF
:1001100000000000000000000000000000000000DF
:1001200000000000000000000000000000000000CF
:1001300000000000000000000000000000000000BF
:1001400000000000000000000000000000000000AF
:10015000000000000000000000000000000000009F
:10016000000000000000000000000000000000008F
:10017000000000000000000000000000000000007F
:10018000000000000000000000000000000000006F
:10019000000000000000000000000000000000005F
:1001A000000000000000000000000000000000004F
:1001B000000000000000000000000000000000003F
:1001C000000000000000000000000000000000002F
:1001D000000000000000000000000000000000001F
:1001E000000000000000000000000000000000000F
:1001F00000000000000000000000000000000000FF
:10020000DFF80CD000F066F800480047610D0000F0
:10021000602500200648804706480047FEE7FEE7C5
:10022000FEE7FEE7FEE7FEE7FEE7FEE7FEE7FEE7A6
:100230006503000001020000004870471C1D00001B
:1002400040EA01039B0703D009E008C9121F08C058
:10025000042AFAD203E011F8013B00F8013B521ED8
:10026000F9D27047421C10F8011B0029FBD1801AFB
:1002700070472DE9F05F0546002092469B46884670
:100280000646814640241BE0284641464746224612
:1002900000F041F853465A46C01A914110D3114616
:1002A0001846224600F028F82D1A67EB01084F4641
:1002B00022460120002100F01FF817EB00094E41F3
:1002C000201EA4F10104DFDC484631462A4643469D
:1002D000BDE8F09F064C074D06E0E06840F00103E2
:1002E00094E8070098471034AC42F6D3FFF78CFF30
:1002F0002C1D00004C1D0000202A04DB203A00FACF
:1003000002F1002070479140C2F1200320FA03F36C
:10031000194390407047202A04DB203A21FA02F06A
:100320000021704721FA02F3D040C2F1200291402F
:1003300008431946704710B50121080200F0F6FC89
:1003400002214FF4827000F0F1FC04214FF484701C
:1003500000F0ECFCBDE8104008214FF4867000F07E
:10036000E5BC000030B54FF080500022D0F83011CD
:100370000123082902D1D0F8344114B1082909D049
:100380000BE04FF08041C1F80C21C1F81021614908
:100390000A6005E0D0F8344114B1082957D059E07B
:1003A0005D4909685D4C21605B49091D0968241D90
:1003B0002160594908310968241D216056490C31D2
:1003C0000968241D2160544910310968241D2160E9
:1003D000514914310968241D21604F4918310968B9
:1003E0004E4C203421604C491C310968241D216089
:1003F000494920310968241D216047492431096891
:10040000241D2160444928310968241D2160424986
:100410002C310968241D21603F49303109683F4C67
:10042000403421603C4934310968241D21603A4937
:1004300038310968241D216037493C310968241D81
:100440002160354940310968241D216005E0D0F85C
:10045000344114B1082904D006E0324C30492160FF
:1004600005E0D0F8344114B1082904D006E02E4C40
:10047000FB21216005E0D0F8344114B1082908D0EF
:100480000EE090F858422948016864F303010160C6
:1004900002E0D0F8340118B925494FF40070086023
:1004A0002448016841F470010160BFF34F8FBFF32E
:1004B0006F8F4FF01021D1F80002002803DBD1F834
:1004C0000402002822DA1C4C23601C480368002B1D
:1004D000FCD01223C1F800320568002DFCD0C1F811
:1004E000043201680029FCD0226001680029FCD098
:1004F000BFF34F8F0F487C380168114A01F4E06167
:1005000011430160BFF34F8F00BFFDE70E490D4857
:10051000086030BD380500400404001020C50040CC
:10052000488103008C56004018F50040E40E00405E
:100530004096024088ED00E004E5014000E40140FF
:100540000400FA050090D003240000200448017F35
:1005500004480029024901D001F0F9BA01F068BA53
:1005600028000020002000400FB41CB50A46521E8F
:10057000CDE9000207A9054B6A46069800F018F875
:10058000009A002111701CBC5DF814FB130A0000D6
:1005900002E008C8121F08C1002AFAD1704770474C
:1005A000002001E001C1121F002AFBD170470000AA
:1005B0002DE9FF4F8DB00F460546002606E02528A1
:1005C0000BD0DDE90F1290476D1C761C28780028AF
:1005D000F5D111B03046BDE8F08F0024A246A14607
:1005E0000122EC4900E0044315F8013F203B02FAE8
:1005F00003F00842F7D128782A2810D06FF02F0294
:100600002878A0F13001092914D80AEB8A0102EBFD
:10061000410144F0020400EB010A6D1CF0E701CF38
:100620005FEA000A03D544F40054CAF1000A44F01A
:1006300002046D1C28782E2817D115F8010F44F0FC
:1006400004042A280ED06FF02F022878A0F1300180
:1006500009290AD809EB890102EB410100EB0109E4
:100660006D1CF2E757F8049B6D1C28786C280FD09E
:1006700006DC4C2817D068280DD06A2814D104E075
:10068000742810D07A280FD10DE044F400140AE049
:1006900044F4801401E044F440146978814202D1AA
:1006A00004F580146D1C6D1C2A786E2A1FD00CDC9A
:1006B000632A31D004DC002A8BD0582A11D1A3E060
:1006C000642A68D0692A0CD165E0732A2ED004DC34
:1006D0006F2A73D0702A04D19BE0752A6FD0782AD4
:1006E0006ED01046DDE90F129047761C50E1C4F33E
:1006F0000250022806D0032809D0042801CF09D0CF
:10070000066045E101CFF117C0E9006140E101CF8A
:1007100006803DE106703BE117F8040B8DF8000000
:1007200000208DF80100EB46012003E057F804BBE0
:100730004FF0FF3061074FF0000102D40DE008F1E7
:100740000101884649450FDA8045F8DB1BF808109F
:100750000029F4D108E008F1010188468142FADB62
:100760001BF808100029F6D1DDE90F23AAEB0800D9
:100770008146214600F036F9304400EB080604E0DB
:10078000DDE90F121BF8010B9047B8F10108F7D211
:1007900021464846F7E00A21C4F302534FF0000B0C
:1007A0000891022B04D001CFC117032B09D00AE016
:1007B000FF1D27F00707F7E8020108E032E01FE01D
:1007C00020E000B2C117042B01D140B2C117031EB3
:1007D00071F1000307DA4FF0000CD0EB0C006CEB6A
:1007E00001012D2302E0230504D52B238DF82430AD
:1007F000012303E0E30701D02023F7E7984658E000
:100800000A2110E010210EE010204FF0000B08909C
:100810000CE010214FF0000B44F004044FF00809E5
:10082000089103E008214FF0000B0891C4F3025334
:10083000022B04D001CF0021032B06D006E0FF1DC0
:1008400027F00707F7E8020103E080B2042B00D18C
:10085000C0B24FF0000823072BD5702A07D0DDF86F
:1008600020C08CF0100C5CEA0B0C05D00EE040238D
:100870008DF82430012308E050EA010306D030232C
:100880008DF824308DF8252002239846DDF820C00D
:100890008CF0080C5CEA0B0C0BD150EA010301D17F
:1008A000630706D530238DF824304FF00108A9F1F5
:1008B0000109582A04D038A20B9208AA0A920BE028
:1008C0003AA2F9E75B46089AFFF7D3FC0B9B9B5CC7
:1008D0000A9A521E0A92137050EA0102F2D10A9843
:1008E000ADEB000000F1200B600702D524F480344A
:1008F00001E04FF00109D94502DDA9EB0B0000E052
:10090000002000EB0B0141440890AAEB010AE00330
:1009100006D4DDE90F232146504600F063F8064473
:100920004FF0000908E009A911F80900DDE90F12EC
:10093000904709F10109761CC145F4DBE0030CD5B1
:10094000DDE90F232146504600F04CF8064404E050
:10095000DDE90F1230209047761C0899481E089058
:100960000029F5DC08E00A980A990078491C0A91E8
:10097000DDE90F129047761CBBF10001ABF1010BD2
:10098000F1DC21465046DDE90F2300F019F806445A
:100990006D1C1BE6092801003031323334353637FF
:1009A00038396162636465660000000030313233BB
:1009B000343536373839414243444546000000005B
:1009C0002DE9F041044600251E461746880404D44C
:1009D00005E039462020B0476D1C641EF9D5284635
:1009E000BDE8F0812DE9F041044600251E46904601
:1009F000C80301D5302700E02027880404D505E08E
:100A000041463846B0476D1C641EF9D52846BDE8FE
:100A1000F0814A68002A06D00A68531C0B601070E7
:100A20004868401E486070470DA1012000F098FE04
:100A300000F0F0FD00F0F2FD0028FBD10CA1032036
:100A400000F08EFEBFF34F8F10480168104A01F48A
:100A5000E06111430160BFF34F8F00BFFDE700006D
:100A60003A4552524F523A466174616C0D0A000089
:100A70003A494E464F3A486974207765616B206861
:100A8000616E646C65720D0A000000000CED00E000
:100A90000400FA050EB500210091CDE901106A4667
:100AA00044F20100FFF7C0FF0EBD00F003B800F0F4
:100AB00009B8000072B602480168491C016070471D
:100AC0001000002003490868401E086000D162B68B
:100AD000704700001000002070B5054608680C46FD
:100AE000411C04D000F016FC206800F0EDFB6068AB
:100AF000411C02D0002100F0DEFB28791F4901EBE8
:100B000040102968007F0028A069C1F8240523D07F
:100B1000607D227D29681043C1F86C05D4E900127C
:100B20002868C0F80C15C0F8142522E0A068411C04
:100B300002D0002100F0BFFBE068411C04D000F0AF
:100B4000E9FBE06800F0C0FBD4E902122868C0F8B5
:100B50000825C0F8101570BD607D217D2A68084306
:100B6000C2F86C05D4E900122868C0F81425C0F852
:100B70000C15207D0128D9D070BD00002800002070
:100B8000094908B5085C0090684600F0A7FBD0F85A
:100B90000425009B0121994021EA0203C0F8083591
:100BA0001140C0F80C1508BD4C1C00000249085C3F
:100BB000012100F0B9BB00004C1C00000249085C98
:100BC000002100F0B1BB00004C1C00007CB50024EB
:100BD000084E25460122305D0095002311460195FF
:100BE00000F02EFB641C042CF4D3BDE87C4000F024
:100BF00003B800004C1C000010B500242046FFF78D
:100C0000D5FF641C042CF9D310BD002901DA0020A3
:100C100070470268114401600120704770B5461C9E
:100C20000D4601240020FFF740FF114A106828609C
:100C3000D2E900109568081A2B1A701C5B1C9842A8
:100C40000FD963B10B480C4B294000681B6802EBBD
:100C5000810163F39F20C8601068401C106000246D
:100C600001E0881910600020FFF721FF204670BDC9
:100C700048010020741C000020000020034803C825
:100C8000814201D1012070470020704748010020B7
:100C900070B50E460446007918494FF4A27501EB71
:100CA0004010017F2068A1B14FF4887100F0DAFD97
:100CB0004FF49071206800F0D5FD4FF492712068D8
:100CC00000F0D0FD2946206800F0CCFD0C492068DA
:100CD00009E04FF48E7100F0B4FD2946206800F061
:100CE000B0FD08492068C0F80413206800F00DF931
:100CF0003146BDE8704000F0ECB80000280000204C
:100D0000100302008000020010B5B0F5827F09D107
:100D10000020FFF735FF04480168491C0160416865
:100D2000491C416010BD00000000002078B40A4B4F
:100D3000C21815680024002D0BD0D3F804330B42E1
:100D400007D01460116800910449496801B070BC73
:100D5000084778BC704700000030014008000020C0
:100D60000EB5FFF733FF0024012202200094234632
:100D70001146019400F04AFA00220B20032300944C
:100D80001146019400F042FA002000F043FD08B142
:100D9000FFF780FE184A07CA8DE8070002208DF889
:100DA00008001649684600F0D3F808B1FFF772FE54
:100DB00000F0B6F812A1032000F0D2FC1A4E1B4D31
:100DC0000424371F4FEA850800F08EFD0120FFF74D
:100DD000F5FE3460284600F02BF800F085FD012078
:100DE000FFF7E4FE3C60404600F022F800F016FCFD
:100DF0000028FBD1E8E70000401C0000090D0000BE
:100E00004150503A494E464F3A4C50434F4D502076
:100E100064726976657220757361676520657861B3
:100E20006D706C650D0A00000C050050A086010075
:100E300000283ED01F49204A096800BF00BF00BFFC
:100E400000BF00BF00BF00BF00BF91422FD000BF56
:100E500000BF00BF00BF00BF00BF00BF00BF00BF9A
:100E600000BF00BF00BF00BF00BF00BF00BF00BF8A
:100E700000BF00BF00BF00BF00BF00BF00BF00BF7A
:100E800000BF00BF00BF00BF00BF00BF00BF00BF6A
:100E900000BF00BF00BF00BF00BF00BF00BF00BF5A
:100EA00000BF00BF00BF00BF00BF00BF00BF401EAB
:100EB000C3D17047240000200024F40000F01F027A
:100EC000012191404009800000F1E020C0F880112C
:100ED00070474907090E002806DA00F00F0202F1F8
:100EE000E02282F8141D03E000F1E02282F80014F1
:100EF00000F01F02012191404009800000F1E02034
:100F0000C0F88012C0F800117047000B40B2704763
:100F10000121B1EB507F01D10120704700207047C3
:100F200008480122026008480021C0F80011C0F8FA
:100F30000411C0F80811C0F80C1102600349022026
:100F40000870704700350140003001400800002063
:100F50002DE9F041324C227812B10820BDE8F08131
:100F6000304A01255560304B00261E60DFF8B8C0BE
:100F700007780CF1080C07F00F07CCF80070076831
:100F80006FEA070C5FEA4C7C07D1DFF89CC0C7F31F
:100F900000470CF10C0CCCF80070DFF88CC007791E
:100FA0000CF1200C07F00307CCF80070DFF878C0D4
:100FB00047790CF1380C07F00107CCF80070C2F843
:100FC00000620F27C2F80873A9B16160017A1F6837
:100FD0001E60154E361DD6F800C02CF0070C4CEAEA
:100FE000010CC6F800C01F600179B1B1012904D01D
:100FF000022905D102E00720B0E70421C2F804135A
:10100000D2F8001241F00101C2F80012417A132017
:10101000FFF75FFF25700020A0E70821EEE7000042
:101020000800002000300140003501402DE9F0416A
:1010300005460079164F904607EB40140E46E07EB9
:1010400010B10820BDE8F081707F20772846FFF7B7
:1010500043FD5FEA080060603169216003D0317FA1
:101060002846FFF715FE287907EB4010007F00287F
:10107000286801D0082100E00421C0F800150020F4
:10108000E0752076A0750121E176A076DAE7000010
:10109000280000202DE9F047054600793F4E904694
:1010A00006EB40140F46207F18B10846FFF730FFCB
:1010B00030B1284600F074F820B11120BDE8F08767
:1010C0001020FBE784F81680A7600027A782287904
:1010D0004FF0010806EB40143E46207F00282868A8
:1010E00025D04FF49079494600F0BCFB4FF4AC7A20
:1010F0005146286800F0B6FB2868A17DA268C0F8B8
:101100004425C0F848152868C0F808806068F0B920
:101110004946286800F0A1FB80465146286800F047
:101120009CFB58EA0001F3D058BBA7750FE04FF4C1
:101130008E7A514600F085FB2868C0F80880214669
:10114000286800F04FFC61684FF4807089B1304628
:10115000B4E75146286800F06FFB10B9A08A4845F3
:10116000F7D1A08A484505D02146286800F03AFC0E
:1011700000E08146A08AA17D8842EAD3A08A484542
:1011800001D10F26D1E75146286800F055FB002811
:10119000F9D02868C0F80C80C7E7000028000020BC
:1011A0000079044901EB4010807D002800D0012027
:1011B000704700002800002070B5044600791149EE
:1011C000002601EB401520682A7FC0F8006568689A
:1011D00088B1207901EB4010007F0028206801D001
:1011E000094901E008498C39C0F808132068FFF765
:1011F0008CFEFFF763FE204600F03AFBEE766E6051
:1012000070BD0000280000201003020070B52028E7
:10121000DDE9046502D24FF0A04402E0074C00F083
:101220001F0041EA420141EA830141EA062104EB41
:10123000800041EA0541C0F8001770BD000300506E
:101240002DE9FF411C46DDE90A7815460E46684641
:1012500000F044F846EA450141EA840141EA0722E8
:1012600042EA0841009A00EB8200C0F80017BDE88E
:10127000FF812DE9FF411C46DDE90A7815460E463F
:10128000684600F039F846EA450141EA840141EA3E
:10129000072242EA0841009A00EB8200C0F80017DA
:1012A000BDE8FF811CB5002100910B460122019190
:1012B000FFF7DFFF1CBD1CB500220B460092114654
:1012C0000192FFF7D6FF1CBD1CB5002100910B4613
:1012D000012201911146FFF7CCFF1CBD01682029B6
:1012E00002D24FF0A040704701F01F010160014899
:1012F00070470000000300500168202902D24FF01F
:10130000A040704701F01F010160014870470000D4
:101310000003005001B56846FFF7EEFF009A012177
:101320009140C0F8081508BD38B501240090684602
:1013300031B1FFF7D3FF00998C40C0F8084538BDA4
:10134000FFF7CCFF00998C40C0F80C4538BD000079
:1013500000487047C913000030B5184C054689B0E5
:10136000207828B16078854202D1002009B030BDD4
:10137000202213496846FEF763FF00208DF8140011
:10138000062000900820019005200390072002907D
:101390004FF0EB7006900948001DFFF70DFF0DB1EF
:1013A000002200E0074A05486946001DFFF73EFE9F
:1013B0000028DBD1012020706570D6E714000020E2
:1013C000541C0000211A00002DE9F04FC1B00D009F
:1013D0004FF0000140914D984B991C46174601EB88
:1013E000000B01D00A2000E00020804600F0C4FA83
:1013F00000287CD16E46BCB9409840AA31182846D6
:1014000000F0D6FA002872D03846FEF72BFFC2282B
:1014100000D9C220054640982A4630443946FEF796
:101420000FFF4098284440904FF0200A409901EB6C
:10143000080231320DEB01050DEB0206002002E03F
:1014400005F801AB401C4045FAD300275C4508D3A2
:1014500005F801AB05F801AB05F801AB06F801ABE7
:101460002DE04B98844202D24A98005D02E0211A96
:101470004C98405C2B46814602460121880022FAA6
:1014800000F000F00F00092801D9373000E03030BB
:10149000C1F1010C491E03F80C00EFD29D1C05F8A8
:1014A00001ABFEF7C9FE016811F8090010F03E0F0C
:1014B00001D0484600E02E2006F8010B641C7F1C7A
:1014C000102FC3D30D2030700A20707085F800A053
:1014D0004099684641444331409100F053FA30B19D
:1014E00000F04AFA18B9002040905C459ED341B004
:1014F0002046BDE8F08F2DE9F043C7B000251C461B
:10150000904689464E9F459500F036FA00287AD1DC
:10151000459805AE311845AA484600F049FA00281A
:1015200035D0072F27D2DFE807F004121B35424FD2
:101530005D004046FEF796FE054645982918FF29AE
:1015400019D830442A464146FEF77AFE13E0459802
:101550002368C0F5807130444246FFF705F809E082
:101560006068009045982368C0F580713044424619
:10157000FEF7FAFF0546294645A8FFF746FB4599C1
:1015800078B3B1F5807F3ED805A800F0FBF947B0ED
:10159000BDE8F083D4E90101CDE900014598236855
:1015A000C0F5807130444246FEF7DEFFE2E7201DC1
:1015B00007C88DE8070045982368C0F5807130445E
:1015C0004246FEF7D1FFD5E7201D0FC88DE80F007A
:1015D00045982368C0F5807130444246FEF7C4FF49
:1015E000C8E710E004F1080001AD0FC885E80F005E
:1015F0006068009045982368C0F580713044424689
:10160000FEF7B2FFB6E70020C1E7000000487047D0
:10161000F71400000120FFF79FBE00002DE9F04FF6
:1016200087B0FFF72BFB18B1002007B0BDE8F08FA3
:10163000454ED6E9014704EA070006EB8000A146C3
:10164000641CC5680CE000BFC5F3891000EB955021
:10165000044404EA070006EB8000A146C568641C48
:10166000A807F1D005F003004FF0000B022805D0C9
:10167000AA0A01A8C5F38313002153E004EA070076
:1016800006EB800004F1010A0AEA0704C268381B6D
:1016900080004FEA9558001DC5F38913804521D974
:1016A00029490C3138B106EB840400F0FF0CA8EB9B
:1016B00000000C3404E00C46002108F0FF0C084642
:1016C000C0B2CDE90210CDE9004CD6F81444C5F300
:1016D000C2005946A047404511D108F103080AEB62
:1016E00098042AE0002106EB84000C300090CDE93C
:1016F00001810391C5F3C200D6F81444EAE760F310
:101700008F1509EA070006EB8000C56016E000BFF0
:1017100004EA070C06EB8C0C491CDCF80CC040F802
:1017200004CB641C9942F3D3C5F3C2000093D6F8EE
:10173000105401AB5946A84700B17460FFF79EFAF8
:1017400080F0010071E7000048010020034AFF23F8
:10175000936000231360536000F054B848010020E8
:101760002DE9F8430F4F8846044600256946284670
:10177000BE68FFF753FA002812D00B4800214068DA
:1017800061F38200009964F3C50001EA060265F383
:10179000891007EB820268F39F20491CD0600091FA
:1017A000BDE8F88348010020741C00002DE9F843CF
:1017B000124D884604460127914669463846AE6870
:1017C000FFF72CFA002817D00D480021806861F33C
:1017D0008200009964F3C50001EA060267F38910EC
:1017E00005EB820268F39F20491CD06000913140D4
:1017F00005EB8101C1F80C90BDE8F8834801002099
:10180000741C0000024A02F5826203C270470000A5
:101810004801002070B506460020FFF79DFD04003A
:1018200008D1FFF795FD0546FFF7F0FE3246294641
:10183000FFF78CFF204670BD4058002800D00120E3
:10184000704708B5002242504058009008BDD0F8BB
:101850000403084000D0012070474058002800D001
:101860000120704708B5002242504058009008BD42
:1018700070B5034600791B4901EB40101968027FDF
:101880004FF0FF30002AD1F80C25D1F81465D1F8BB
:101890000855D1F8104504D0C1F80C05C1F814055D
:1018A00003E0C1F81405C1F80C051968C1F8080572
:1018B000C1F81005501C02D01046FFF7F3FC701C55
:1018C00002D03046FFF7EEFC601C02D02046FFF746
:1018D000E9FC681C04D02846BDE87040FFF7E2BC74
:1018E00070BD00002800002010B5074C07E02068FC
:1018F000401E2060626805A10320FFF757FF2068A3
:101900000028F4D110BD0000000000204150503AE2
:10191000494E464F3A2325642066616C6C2064650D
:101920007465637465640D0A0000000070B50546B7
:10193000C87D0C4600284FF4847128460AD0FFF772
:1019400080FFD5F81805627EE1688854607E401CEF
:10195000607670BDFFF775FFD5F8180570BD1FB52F
:1019600001238DF800308DF808100192D0E90012A3
:10197000684690471FBD00000148FFF711BC0000FA
:101980001800002070B50D460A460146012406489D
:10199000FEF756FCEAB204490448FFF77BFB00B1AE
:1019A0000024204670BD00004800002018000020E0
:1019B00010B5144602004FF001000CD00846136821
:1019C00006A24FF48071FEF7CFFD01462046BDE828
:1019D0001040FFF71AB90021216010BD5B25303897
:1019E000645D000070B50C4605464FF48E71FFF73C
:1019F00028FFA18AA068415CA08A401CA082C5F88B
:101A00001C1570BD1FB500228DF800208DF8081040
:101A1000816801918275D0E90012684690471FBD28
:101A20000078012801D10149887070471400002016
:101A30002DE9FF470C4605464FF40071FFF707FFFD
:101A400001274FF40178002618B34FF492794946E4
:101A50002846FFF7F1FEE0B149462846FFF7F1FEC0
:101A6000C5F80883A07E00B96F6002208DF80000E1
:101A7000D5F88004C5F880040390E07D8DF8080057
:101A8000E0680190E6752676D4E900126846904732
:101A900027E004212846FFF7DAFE10B34FF48471E3
:101AA0002846FFF7C9FEE0B121462846FFF73EFF72
:101AB000E07D617E884214D1207E38B1617EE2688B
:101AC000E0752069E0602676667607E0A07E00B9C2
:101AD0006F60C5F80883E675617EE2682046FFF70F
:101AE0003EFF4FF48E7841462846FFF7A5FE88B1A9
:101AF000A08AA17D884204D221462846FFF772FFC2
:101B000008E041462846FFF79CFEA17D11B1204622
:101B1000FFF778FF4FF4A27841462846FFF78CFE86
:101B2000002812D041462846FFF78BFEA07E00B168
:101B30002F60E07D002808D0E675617EE26804B081
:101B40002046BDE8F047FFF70ABFBDE8FF872DE953
:101B5000FF410C464FF4927705463946FFF77DFE6C
:101B60000026C0B139462846FFF77CFE02208DF8DA
:101B70000000D5F88004C5F880040390D5F83C0532
:101B80008DF80800E0680190E6752676D4E9001229
:101B90006846904724E04FF4887739462846FFF797
:101BA0005CFEE8B139462846FFF75CFED5F83C05F7
:101BB000C1B2E07D884213D1207E60B1E268D5F8E1
:101BC000000220F02000C5F80002207EE0752069A8
:101BD000E060267601E0E675E2682046FFF7BFFE8A
:101BE0004FF4A27739462846FFF737FE68B13946E9
:101BF0002846FFF737FEE07D38B1E675D5F83C059D
:101C0000E268C1B22046FFF7AAFE4FF49076314653
:101C10002846FFF722FE00280FD031462846FFF75E
:101C200021FEA07D002808D0D5F84C0504B0C1B233
:101C30002046BDE8F041FFF7E5BEBDE8FF810000AA
:101C40000300000002000000020700000D0E0F104C
:101C50000B0C1819FFFFFFFFFFFFFFFFFFFFFFFF48
:101C6000FFFFFFFF00000000000000000000D601A1
:101C70000701000029000000010000000100000031
:101C80000100000001000000010000000100000050
:101C90000100000002000000004040404040404081
:101CA000404041414141414040404040404040402F
:101CB00040404040404040404005020202020202D3
:101CC0000202020202020202022020202020202022
:101CD0002020200202020202020290909090909036
:101CE00010101010101010101010101010101010F4
:101CF0001010101002020202020288888888888868
:101D00000808080808080808080808080808080853
:101D1000080808080202020240000000991C0000A6
:101D20004F766572666C6F770D0A00004C1D0000DF
:101D3000000000202800000090050000741D000035
:101D40002800002038250000A00500000000000049
:101D50000000000000000000000000000000000083
:101D6000000000000020004000000000201D0000D6
:041D70000090D0030C
:0400000500000201F4
:00000001FF
