:020000040000FA
:1000000058210020150200001D0200001F02000000
:100010002102000023020000250200000000000071
:1000200000000000000000000000000027020000A7
:1000300029020000000000002B0200002D02000039
:10004000A10200002F020000090500002F0200009D
:100050002F0200002F0200002F0200002F020000DC
:100060002F0200002F0200002F0200002F020000CC
:100070002F0200002F0200002F0200002F020000BC
:100080002F020000F90200002F0200002F020000E2
:100090001D0300002F0200002F0200002F020000AD
:1000A0002F0200002F0200002F0200002F0200008C
:1000B0002F0200002F0200000000000000000000DE
:1000C0002F0200002F0200002F0200002F0200006C
:1000D0002F0200002F0200002F0200002F0200005C
:1000E0002F0200002F0200002F0200002F0200004C
:1000F000000000002F0200000000000000000000CF
:1001000000000000000000000000000000000000EF
:1001100000000000000000000000000000000000DF
:1001200000000000000000000000000000000000CF
:1001300000000000000000000000000000000000BF
:1001400000000000000000000000000000000000AF
:10015000000000000000000000000000000000009F
:10016000000000000000000000000000000000008F
:10017000000000000000000000000000000000007F
:10018000000000000000000000000000000000006F
:10019000000000000000000000000000000000005F
:1001A000000000000000000000000000000000004F
:1001B000000000000000000000000000000000003F
:1001C000000000000000000000000000000000002F
:1001D000000000000000000000000000000000001F
:1001E000000000000000000000000000000000000F
:1001F00000000000000000000000000000000000FF
:10020000DFF80CD000F018F800480047CD070000D8
:10021000582100200648804706480047FEE7FEE7D1
:10022000FEE7FEE7FEE7FEE7FEE7FEE7FEE7FEE7A6
:100230002103000001020000064C074D06E0E068C3
:1002400040F0010394E8070098471034AC42F6D31D
:10025000FFF7DAFF400E0000600E000000F01F0202
:10026000012191404009800000F1E020C0F8801297
:10027000704700F01F02012191404009800000F109
:10028000E020C0F80011704700F01F0201219140EA
:100290004009800000F1E020C0F800127047000023
:1002A0002DE9F0414FF48077384600F09FFA0124A1
:1002B000104EA50748B1384600F09FFA0120C5F856
:1002C00008037470002000F07BF94FF48277384601
:1002D00000F08CFA00280BD0384600F08EFA02208D
:1002E000C5F80803B470BDE8F041012000F068B91A
:1002F000BDE8F0811800002007480021C0F8401137
:10030000C0F84411C0F84811C0F84C11C0F80011F1
:10031000C0F8041100F030BC0010014000F09EBB9A
:1003200030B54FF080500022D0F830110123082959
:1003300002D1D0F8344114B1082909D00BE04FF0B4
:100340008041C1F80C21C1F8102161490A6005E023
:10035000D0F8344114B1082957D059E05D490968F3
:100360005D4C21605B49091D0968241D21605949C4
:1003700008310968241D216056490C310968241D83
:100380002160544910310968241D216051491431FC
:100390000968241D21604F49183109684E4C2034EA
:1003A00021604C491C310968241D216049492031D4
:1003B0000968241D2160474924310968241D2160F2
:1003C000444928310968241D216042492C310968BB
:1003D000241D21603F49303109683F4C4034216081
:1003E0003C4934310968241D21603A493831096893
:1003F000241D216037493C310968241D216035499D
:1004000040310968241D216005E0D0F8344114B161
:10041000082904D006E0324C3049216005E0D0F8CC
:10042000344114B1082904D006E02E4CFB21216090
:1004300005E0D0F8344114B1082908D00EE090F856
:1004400058422948016864F30301016002E0D0F8D2
:10045000340118B925494FF4007008602448016838
:1004600041F470010160BFF34F8FBFF36F8F4FF006
:100470001021D1F80002002803DBD1F80402002883
:1004800022DA1C4C23601C480368002BFCD012238A
:10049000C1F800320568002DFCD0C1F804320168B3
:1004A0000029FCD0226001680029FCD0BFF34F8FE7
:1004B0000F487C380168114A01F4E0611143016082
:1004C000BFF34F8F00BFFDE70E490D48086030BDF8
:1004D000380500400404001020C500404881030096
:1004E0008C56004018F50040E40E00404096024053
:1004F00088ED00E004E5014000E401400400FA0555
:100500000090D003140000200448017F0448002913
:10051000024901D000F017BC00F086BB2C0000207F
:100520000020004002E008C8121F08C1002AFAD1CA
:1005300070477047002001E001C1121F002AFBD163
:1005400070470000094908B5085C0090684600F053
:1005500003FAD0F80425009B0121994021EA020307
:10056000C0F808351140C0F80C1508BD360E000063
:100570000249085C012100F0FDB90000360E0000C0
:100580007CB50024084E25460122305D00950023ED
:100590001146019500F0C6F9641C042CF4D3BDE8A3
:1005A0007C4000F003B80000360E000010B50024B7
:1005B0002046FFF7DDFF641C042CF9D310BD0000BA
:1005C00070B5084C050009D010342168002907D007
:1005D00008682060496828468847F6E70834F4E749
:1005E00070BD0000180000202DE9F05F264841682A
:1005F000F1B3DFF898B00E688146DBF800408768F9
:100600008078E11B21F07F45ED1CB0B9DFF88080D8
:100610004FF48030C8F84403C8F804031120FFF7F2
:100620001DFE1120FFF725FE4FF0010AC8F800A0BB
:100630002F2000F031F989F802A0B54200D23546EA
:10064000124BE8193C3320F07F401860DBF80010B3
:100650005A46091B21F07F41001B20F07F40C91C36
:1006600081420FD9106818602F2000F015F900E0C2
:1006700004E0BDE8F05F1120FFF706BEBDE8F05FC3
:1006800000F0A8B9BDE8F09F00000020041501406B
:10069000001001400E4910B50A784C780023A242A0
:1006A00012D0521CD2B20A70022A00D10B70084A32
:1006B0000B780C3252F8232002608868104420F036
:1006C0007F408860012010BD0360002010BD000045
:1006D000000000202DE9F047394E002780463D46B6
:1006E000DFF8E090D6F804A057E003D00446D0F835
:1006F0001C8035E099F8002002EB4201521CD2B276
:1007000089F8002009EBC10199F80230091D9A42CD
:1007100001D189F8005048680A780446012A12D0AD
:10072000022A02D0032A3BD108E000F0F5F900B11B
:100730000127257434E00574C06900E07068002862
:10074000F9D170602CE0207C50BB88686060C8687C
:10075000A0600869E0604869A061F07800B1656058
:100760006268B168184B501A20F07F40984202D25C
:10077000A168084406E0881AA16820F07F40814201
:1007800002D9081A206000E0256065600120A5609C
:1007900020742046E56100F0A1F9B8F10000A4D171
:1007A00099F8001099F801008142A3D117B9716836
:1007B000514502D00120BDE8F0870020FBE7000092
:1007C000000000204C000020FFFF7F00FFF7D8FE54
:1007D000054D00242046FFF7B5FE284600F016F828
:1007E000641C042CF6DBF4E720A1070000F1804034
:1007F0000068002800D00120704708B500F1804053
:10080000002101600068009008BD000000283ED073
:100810001F49204A096800BF00BF00BF00BF00BFDA
:1008200000BF00BF00BF91422FD000BF00BF00BF7C
:1008300000BF00BF00BF00BF00BF00BF00BF00BFC0
:1008400000BF00BF00BF00BF00BF00BF00BF00BFB0
:1008500000BF00BF00BF00BF00BF00BF00BF00BFA0
:1008600000BF00BF00BF00BF00BF00BF00BF00BF90
:1008700000BF00BF00BF00BF00BF00BF00BF00BF80
:1008800000BF00BF00BF00BF00BF401EC3D1704704
:10089000140000200024F40000283ED01F49204A04
:1008A000096800BF00BF00BF00BF00BF00BF00BF9E
:1008B00000BF91422FD000BF00BF00BF00BF00BFEC
:1008C00000BF00BF00BF00BF00BF00BF00BF00BF30
:1008D00000BF00BF00BF00BF00BF00BF00BF00BF20
:1008E00000BF00BF00BF00BF00BF00BF00BF00BF10
:1008F00000BF00BF00BF00BF00BF00BF00BF00BF00
:1009000000BF00BF00BF00BF00BF00BF00BF00BFEF
:1009100000BF00BF00BF401EC3D1704714000020BD
:100920000024F4002DE9FF411C46DDE90A78154654
:100930000E46684600F010F846EA450141EA840197
:1009400041EA072242EA0841009A00EB8200C0F81F
:100950000017BDE8FF8100000168202902D24FF096
:10096000A040704701F01F0101600148704700007E
:100970000003005038B501240090684631B1FFF7FC
:10098000EBFF00998C40C0F8084538BDFFF7E4FF45
:1009900000998C40C0F80C4538BD4058002800D064
:1009A0000120704708B5002242504058009008BD11
:1009B000D0F80403084000D00120704740580028B8
:1009C00000D00120704708B50022425040580090E6
:1009D00008BD000070B5012670044FF0E02100252D
:1009E000C1F88001084C4010C4F84803C4F808035B
:1009F00066602F20FFF750FFA660044C2F20A560F3
:100A0000FFF74AFFA57070BD0010014000000020F4
:100A100070B50546C87D0C4600284FF48471284601
:100A20000AD0FFF7BFFFD5F81805627EE168885449
:100A3000607E401C607670BDFFF7B4FFD5F81805E6
:100A400070BD1FB501238DF800308DF8081001929C
:100A5000D0E90012684690471FBD00002DE9F84F0D
:100A60001D4C00256846D4E901A6FFF713FE0027B8
:100A700038B30023009A61681CE0D1F800C0084632
:100A8000944503D9ACEB02020A6015E0A2EB0C021C
:100A900063440760D0F80CC0C1698146BCF1000F07
:100AA00008D006EB030828F07F48C0E9018CC9F89C
:100AB0001C5005460029E0D128466160FFF70AFE78
:100AC00003E02846FFF706FE10B15046FFF78CFD05
:100AD000E770BDE8F88F0000000000200D4B10B556
:100AE000596831B102680C68A24204D8A21A0A609F
:100AF000C161586010BD0B4603E00B46C969121B6B
:100B000021B10C689442F8D3A41A0C600260C16150
:100B1000D86110BD000000202DE9F041144E776827
:100B20003D462C4603E0844204D02546E469002C6F
:100B3000F9D11BE0D4B1A5420BD1F869706040B97E
:100B40000C49012088600021B160F0702F20FFF770
:100B5000A3FE2168E069E86110B1026811440160F8
:100B60007068874202D00120BDE8F0810020FBE7D9
:100B700000000020001001402DE9F041194D6C6883
:100B8000002C2CD0184800270068A968B846401AE5
:100B900020F07F462068B0420CD82146361A074420
:100BA000E469087C20B181F8108088694969884728
:100BB000002CEFD129786878814206D1401CC0B260
:100BC0006870022801D185F80180064869780C30E8
:100BD00040F82170BDE8F0411420FFF755BBBDE897
:100BE000F0810000000000200415014070B50C46A3
:100BF00005464FF48E71FFF7D5FEA18AA068415CCF
:100C0000A08A401CA082C5F81C1570BD1FB500222B
:100C10008DF800208DF80810816801918275D0E967
:100C20000012684690471FBD2DE9FF470C46054658
:100C30004FF40071FFF7BCFE01274FF40178002646
:100C400018B34FF4927949462846FFF7A6FEE0B163
:100C500049462846FFF7A6FEC5F80883A07E00B9DE
:100C60006F6002208DF80000D5F88004C5F880047C
:100C70000390E07D8DF80800E0680190E675267627
:100C8000D4E900126846904727E004212846FFF780
:100C90008FFE10B34FF484712846FFF77EFEE0B15B
:100CA00021462846FFF7B4FEE07D617E884214D1DC
:100CB000207E38B1617EE268E0752069E0602676CA
:100CC000667607E0A07E00B96F60C5F80883E67518
:100CD000617EE2682046FFF7B4FE4FF48E7841460D
:100CE0002846FFF75AFE88B1A08AA17D884204D227
:100CF00021462846FFF77AFF08E041462846FFF7DD
:100D000051FEA17D11B12046FFF780FF4FF4A2787C
:100D100041462846FFF741FE002812D041462846AA
:100D2000FFF740FEA07E00B12F60E07D002808D0D4
:100D3000E675617EE26804B02046BDE8F047FFF743
:100D400080BEBDE8FF872DE9FF410C464FF4927746
:100D500005463946FFF732FE0026C0B1394628461F
:100D6000FFF731FE02208DF80000D5F88004C5F8A9
:100D700080040390D5F83C058DF80800E0680190E8
:100D8000E6752676D4E900126846904724E04FF4D1
:100D9000887739462846FFF711FEE8B139462846DC
:100DA000FFF711FED5F83C05C1B2E07D884213D1B2
:100DB000207E60B1E268D5F8000220F02000C5F87E
:100DC0000002207EE0752069E060267601E0E6758D
:100DD000E2682046FFF735FE4FF4A27739462846F1
:100DE000FFF7ECFD68B139462846FFF7ECFDE07DE2
:100DF00038B1E675D5F83C05E268C1B22046FFF788
:100E000020FE4FF4907631462846FFF7D7FD0028A4
:100E10000FD031462846FFF7D6FDA07D002808D028
:100E2000D5F84C0504B0C1B22046BDE8F041FFF74B
:100E3000EDBEBDE8FF810D0E0F100B0C1819000060
:100E4000600E0000000000201800000024050000D3
:100E5000780E00001800002040210000340500003A
:100E60000000000000000000000000000000000082
:080E7000000000000090D00317
:0400000500000201F4
:00000001FF
