:020000040000FA
:10000000A022002049020000510200001502000059
:1000100055020000570200005902000000000000D5
:100020000000000000000000000000005B02000073
:100030005D020000000000005F020000610200009D
:10004000A904000063020000E9060000630200004A
:10005000630200000103000063020000630200006D
:1000600063020000630200006302000063020000FC
:1000700063020000630200006302000063020000EC
:1000800063020000630200006302000063020000DC
:1000900063020000630200006302000063020000CC
:1000A00063020000630200006302000063020000BC
:1000B0006302000063020000000000000000000076
:1000C000630200006302000063020000630200009C
:1000D000630200006302000063020000630200008C
:1000E000630200006302000063020000630200007C
:1000F000000000006302000000000000000000009B
:1001000000000000000000000000000000000000EF
:1001100000000000000000000000000000000000DF
:1001200000000000000000000000000000000000CF
:1001300000000000000000000000000000000000BF
:1001400000000000000000000000000000000000AF
:10015000000000000000000000000000000000009F
:10016000000000000000000000000000000000008F
:10017000000000000000000000000000000000007F
:10018000000000000000000000000000000000006F
:10019000000000000000000000000000000000005F
:1001A000000000000000000000000000000000004F
:1001B000000000000000000000000000000000003F
:1001C000000000000000000000000000000000002F
:1001D000000000000000000000000000000000001F
:1001E000000000000000000000000000000000000F
:1001F00000000000000000000000000000000000FF
:10020000DFF80CD000F056F800480047390A00002B
:10021000A0220020094B1EF0040F1CBFEFF3098041
:100220001847EFF308800649064A884201D89042F1
:1002300002D88D464FF0000018470000D902000098
:10024000A0220020A0020020064880470648004760
:10025000FEE7FEE7FEE7FEE7FEE7FEE7FEE7FEE776
:10026000FEE7FEE7010500000102000040EA01038D
:100270009B0703D009E008C9121F08C0042AFAD25C
:1002800003E011F8013B00F8013B521EF9D2704720
:10029000D2B201E000F8012B491EFBD270470022C8
:1002A000F6E710B513460A4604461946FFF7F0FF75
:1002B000204610BD064C074D06E0E06840F0010303
:1002C00094E8070098471034AC42F6D3FFF79CFF40
:1002D000C0150000E015000000F000F8BFF34F8FDC
:1002E00005480168054A01F4E06111430160BFF36C
:1002F0004F8F00BFFDE700000CED00E00400FA05A1
:100300002DE9F05F624C0025D4F8040138B1D4F82F
:100310000003800703D55F4800F012FF0225D4F8E0
:10032000080160B1D4F80003400708D55948001D02
:1003300000F006FF0DB1032502E0012500E015B134
:10034000284600F003FFD4F81801534F534D0126FF
:1003500008B3D4F8000340061DD551480068C0F327
:10036000C800A0F102084B48143000F0E9FE3878CC
:10037000302803D0387850280BD00BE0D5F804C0D3
:10038000BCF1000F07D04346434A0221E868E0472A
:1003900001E02E70E661D4F810014FF01009D0B1E1
:1003A000D4F80003C00616D53A480C3000F0C8FE59
:1003B000C4F808933A4914390F60091DC1F8009038
:1003C000E661D5F804C0BCF1000F04D000231A4642
:1003D0000321E868E047D4F84C01DFF8C880DFF873
:1003E000C4A04FF00D0BA8F1080838B3D4F80003EF
:1003F000000323D52748483000F0A2FE25481430DA
:1004000000F09EFE2348243000F09AFE2448143861
:100410000760011DC1F80090E6614FF48860C4F8E0
:100420000403CAF800B0C8F800600220A8606F6832
:1004300027B100231A461946E868B847D4F82801BE
:1004400060B1D4F80003400508D5DAF8000057463B
:100450001048243000F074FEC7F800B0D4F81C0136
:10046000002812D0D4F8000300060ED5D8F800708A
:1004700044460848183000F063FEF80704D0287896
:1004800010B12660002028702660BDE8F09F0000B3
:10049000005000400451004020020020580000207D
:1004A000245500400C5400402DE9F0414FF4807772
:1004B000384600F066FD0124104EA50748B13846C5
:1004C00000F066FD0120C5F808037470002000F0FC
:1004D0008DF94FF48277384600F053FD00280BD099
:1004E000384600F055FD0220C5F80803B470BDE899
:1004F000F041012000F07AB9BDE8F081EC01002064
:1005000030B54FF080500022D0F830110123082977
:1005100002D1D0F8344114B1082909D00BE04FF0D2
:100520008041C1F80C21C1F8102161490A6005E041
:10053000D0F8344114B1082957D059E05D49096811
:100540005D4C21605B49091D0968241D21605949E2
:1005500008310968241D216056490C310968241DA1
:100560002160544910310968241D2160514914311A
:100570000968241D21604F49183109684E4C203408
:1005800021604C491C310968241D216049492031F2
:100590000968241D2160474924310968241D216010
:1005A000444928310968241D216042492C310968D9
:1005B000241D21603F49303109683F4C403421609F
:1005C0003C4934310968241D21603A4938310968B1
:1005D000241D216037493C310968241D21603549BB
:1005E00040310968241D216005E0D0F8344114B180
:1005F000082904D006E0324C3049216005E0D0F8EB
:10060000344114B1082904D006E02E4CFB212160AE
:1006100005E0D0F8344114B1082908D00EE090F874
:1006200058422948016864F30301016002E0D0F8F0
:10063000340118B925494FF4007008602448016856
:1006400041F470010160BFF34F8FBFF36F8F4FF024
:100650001021D1F80002002803DBD1F804020028A1
:1006600022DA1C4C23601C480368002BFCD01223A8
:10067000C1F800320568002DFCD0C1F804320168D1
:100680000029FCD0226001680029FCD0BFF34F8F05
:100690000F487C380168114A01F4E06111430160A0
:1006A000BFF34F8F00BFFDE70E490D48086030BD16
:1006B000380500400404001020C5004048810300B4
:1006C0008C56004018F50040E40E00404096024071
:1006D00088ED00E004E5014000E401400400FA0573
:1006E0000090D003700000200448017F04480029D6
:1006F000024901D000F056BE00F0C5BD0002002046
:100700000020004002E008C8121F08C1002AFAD1E8
:1007100070477047002001E001C1121F002AFBD181
:1007200070470000BFF34F8F05480168054A01F488
:10073000E06111430160BFF34F8F00BFFDE7000090
:100740000CED00E00400FA050EB500210091CDE9A2
:1007500001106A4644F20100FFF7E4FF0EBD00F00D
:1007600003B800F009B8000072B602480168491CDD
:10077000016070475400002003490868401E08606B
:1007800000D162B670470000540000200249085CA6
:10079000012100F0B9BC0000AC1500000249085C62
:1007A000002100F0B1BC0000AC1500007CB50024B5
:1007B000084E25460122305D009500231146019523
:1007C00000F07AFC641C042CF4D3BDE87C4000F0FB
:1007D00003B80000AC15000010B500242046FFF758
:1007E000D5FF641C042CF9D310BD000070B5084C73
:1007F000050009D010342168002907D0086820605E
:10080000496828468847F6E70834F4E770BD0000D9
:10081000EC01002070B5254CA0421ED1F1B1012998
:1008200036D0022928D0032917D1072000F058F923
:10083000002812D194F8680094F8691088420CD10D
:1008400094F86A00002808D10023D4E901501A4620
:100850000321A847012084F86A0070BD052000F03C
:100860003FF90028F9D1A06864680023A446BDE8D8
:1008700070401A460121604710461900EDD000284B
:10088000EBD00278302AE8D1BDE8704000F048B9DA
:10089000082000F025F928B9A068002364681A46EA
:1008A0000221A047BDE8704000F0D4B9300200201A
:1008B000F0B524490B68091D0968244C224A2260BE
:1008C000224C0122703C2260204C3F22603C22607E
:1008D0001E4C0022503C22601D4A0624C2F80443EC
:1008E0001C4CC2F80443DAB2C3F30724C3F3074332
:1008F000027082EA040583F08806447075408370B4
:10090000C57001710D0A0E0C45710F0E867169409C
:100910007E40C7717140017203214172110441EAA6
:1009200004210A4A1943F83A11604168C07909BAAA
:1009300021F0FF010143101F016004494420EC39FC
:100940000860F0BD50040010488103008C56004040
:10095000005000408000080070B50C00054613D020
:100960000A4800F0EDFB0A480560094940F6FF70AF
:100970000C3100EAC400086006481021C0F80413D6
:100980000121C160002070BD0C2070BD10510040DD
:1009900010550040005000400EB50C4AD160506028
:1009A0006846FFF785FF0A21684600F059FA0748B4
:1009B0000749103041600021016000F03FFB18B191
:1009C000852801D003200EBD00200EBD5800002058
:1009D00031110000084901200860084988604FF083
:1009E000E0212020C1F88002E0224B1D83F8002482
:1009F000C1F800010020704704540040005000403E
:100A0000054910B501200860012000F0C9FA00284E
:100A1000FAD10249487010BD04000040EC010020EA
:100A20000268134602E08A4204D01268002AFAD112
:100A30000B6001607047000008B54FF480700090B3
:100A4000FFF7B4FE00210C4800F042FA08B1FFF7AE
:100A50007BFE6946094800F01DFD0848009900F03A
:100A600017FA08B1FFF770FE00F0EEF908B1FFF7D2
:100A70006BFE20BFFDE70000F90C0000E000002045
:100A800010B51C46934200D914462246FFF7EEFBF0
:100A9000204610BD10B51C46934200D914460A46A4
:100AA0002146FFF7F5FB204610BD00000B4900F181
:100AB000100213464A610A6913448B6128B14FF44E
:100AC0007C73CB614FF4806301E00023CB61C01CD9
:100AD000104480080B6281F86900704730020020E2
:100AE00070B50D4D0D4A00212C7800BF01EB41037C
:100AF000D65CA6420AD113445B78834206D101EB4F
:100B00004100104480782870002070BD491C0F29D6
:100B1000ECD3082070BD00003002002074000020DB
:100B200070B50446022920D10620FFF7D9FF00281E
:100B30001BD10E4964784B69A2002046934208D825
:100B40008D69103D954204D3C968C3EB8400084405
:100B500003E000F017F8054838301021FFF7FCFEDD
:100B60002046BDE8704000F099B870BD300200200A
:100B7000034902684A6242688A6200898885704730
:100B8000300200202DE9F041264F8400102529462F
:100B90003846FFF784FBA7F138067069A0420BD9ED
:100BA000021B31192B4638462431FFF769FFD0F17B
:100BB00010050444074432D0B069A0420CD97069D2
:100BC0003169201A0A1AF1682B4601443846FFF7AA
:100BD00057FF2D1A04440744002D20D0F069A0428D
:100BE00009D9021B2B4600213846FFF753FF2D1A67
:100BF0000444074413D0306AA04208D9021B2B4694
:100C0000FF213846FFF746FF2D1A074407D02B4631
:100C10003846BDE8F0411A460021FFF73BBFBDE86A
:100C2000F08100006802002070B50C460546914234
:100C300001D90C2070BD0120FFF752FF08B1082038
:100C400070BD05B900240248C0E90354002070BDFE
:100C50003002002070B5002103230A460C460E48DE
:100C600001260CE006FA03F50D43E9B25B1E05D53B
:100C7000831883F8481007230021521C641C90F845
:100C80006950A542EEDC024482F84810002100F8C9
:100C9000681F817070BD000030020020F0B5C208EE
:100CA000514200EBC1010024124BC1F107010125A3
:100CB000042813D305FA01F603EB020CF7B29CF8F3
:100CC00048603E4204D0BE438CF848602E4600E0A7
:100CD000002693F868703E4483F86860491E01D589
:100CE0000721521C401C10F0FF0002D0641C042C91
:100CF000DEDBF0BD30020020012904D0022905D13D
:100D00000020FFF743BD0020FFF748BD70472DE9E5
:100D1000F8439046894607004FF0000606D0B8F128
:100D2000000F03D03D680DB1002422E00E20BDE885
:100D3000F88324B1611C884207D1402106E00128D4
:100D400001D0802102E0C02100E00021D8F800009D
:100D50006B46801B00904A46286800F01FF8002868
:100D6000E5D10098B9F1000F064400D08144641C1D
:100D70002D1DB868A042DCD80020C8F80060D6E776
:100D8000D0E901329A4201D304207047036843F846
:100D900022108168491C8160002070472DE9F843CA
:100DA000144698460A4605004FF000074AD0687876
:100DB000297A4618B61D00B1761C8CB332F0C000FB
:100DC00002D00720BDE8F883D8F80000B04201D275
:100DD0000420F7E722702B78601C1A4322702A7ACD
:100DE00000F8012B21460746041D687828B104F855
:100DF000010B087840F0080008702A7A2046E9685C
:100E0000FFF734FA287A6A7804442AB120466968E0
:100E1000FFF72CFA68780444D8F80000801B009093
:100E20002B697BB16A462146686998470028C9D179
:100E300014B1009800BA3860009831180020C8F842
:100E40000010BFE70E20BDE710B50420FFF748FEF5
:100E500008B1082010BDBDE81040FFF7BBBD000081
:100E600010B5040003D00A2901D00C2010BD0320C6
:100E7000FFF736FE08B1082010BD2CB14FEA040080
:100E8000FFF776FE002010BD0048F9E7B515000019
:100E900010B54FF47772FFF7C7FE040013D10B486B
:100EA0000322016900F8342FFE2902D84170022084
:100EB00005E0FF2242700A0A8270C1700420FFF729
:100EC000F5FDFFF7C7FE204610BD000030020020F0
:100ED00070B50E46050005D00020FFF701FE18B1E1
:100EE000082070BD072070BD0B4C0C48C4E90156AA
:100EF0001434FFF73DFEFF20A076E076E120207756
:100F0000112060777C20A0770F20E077BDE870404B
:100F100001490348FFF740BD30020020B51500002D
:100F2000150800002DE9F0410446007A164698B1F4
:100F3000420611D402060FD462686AB122695AB11E
:100F4000E3684BB146B185186D1CB9B13268AA424D
:100F500004D20420BDE8F0810720FBE722784F1C73
:100F600000EBC2100870227A38466168FFF77EF9FC
:100F7000207AD4E903123844FFF778F9002035606D
:100F8000E8E700F180400068002800D001207047A9
:100F900008B500F18040002101600068009008BDA4
:100FA0000549096840F4803001F00111814201D106
:100FB00001207047002070470C04004010B500204D
:100FC000FFF7CDFB06484168491E4160406808B9FB
:100FD000FFF716FDBDE810400020FFF7C2BB000080
:100FE000EC01002070B5144D0446687838B114B196
:100FF0006168002088470020FFF7B1FB13E0002064
:10100000FFF7ADFB24B10C4821460830FFF708FD7F
:10101000686840B94FF48070FFF7BAFF012081077C
:10102000C1F8040308606868401C6860BDE870404F
:101030000020FFF796BB0000EC01002070B50E4CBD
:101040000025207808B1852513E00021A1606160AA
:101050002161E1604FF0E020D0F80001012610F09E
:10106000010F03D10721002000F00AF803480660B1
:101070002670284670BD0000EC01002018050040D5
:101080004907090E002806DA00F00F0202F1E022FB
:1010900082F8141D03E000F1E02282F8001400F051
:1010A0001F02012191404009800000F1E020C0F8BA
:1010B0008012C0F8001170472DE9FF411C46DDE9A0
:1010C0000A7815460E46684600F010F846EA4501D3
:1010D00041EA840141EA072242EA0841009A00EB12
:1010E0008200C0F80017BDE8FF81000001682029D8
:1010F00002D24FF0A040704701F01F01016001488B
:10110000704700000003005038B501240090684685
:1011100031B1FFF7EBFF00998C40C0F8084538BDAE
:10112000FFF7E4FF00998C40C0F80C4538BD000083
:10113000002802D10149012008607047005000409A
:1011400008B5002101600068009008BDF1B59DF868
:1011500000000125194C03280AD119480068A1682C
:10116000084203D002208DF8000001E08DF8005005
:101170009DF80000012809D0022806D1607818B92E
:101180000E481030FFF72EFF6570F8BD0D4E35612B
:10119000B560FFF713FF002060704FF48860C6F859
:1011A0000803A5606568002DEFD0E06801B0AC468B
:1011B000BDE8F04000231A46012160475800002096
:1011C0003C540040005000404058002800D001200E
:1011D000704708B5002242504058009008BDD0F832
:1011E0000403084000D0012070474058002800D078
:1011F0000120704708B5002242504058009008BDB9
:1012000070B50546C87D0C4600284FF48471284609
:101210000AD0FFF7DEFFD5F81805627EE168885432
:10122000607E401C607670BDFFF7D3FFD5F81805CF
:1012300070BD1FB501238DF800308DF808100192A4
:10124000D0E90012684690471FBD70B50C460546B0
:101250004FF48E71FFF7BDFFA18AA068415CA08AA0
:10126000401CA082C5F81C1570BD1FB500228DF86A
:1012700000208DF80810816801918275D0E9001274
:10128000684690471FBD2DE9FF470C4605464FF4C1
:101290000071FFF7A4FF01274FF40178002618B36F
:1012A0004FF4927949462846FFF78EFFE0B1494650
:1012B0002846FFF78EFFC5F80883A07E00B96F604F
:1012C00002208DF80000D5F88004C5F88004039052
:1012D000E07D8DF80800E0680190E6752676D4E997
:1012E00000126846904727E004212846FFF777FF61
:1012F00010B34FF484712846FFF766FFE0B1214632
:101300002846FFF77DFFE07D617E884214D1207E74
:1013100038B1617EE268E0752069E0602676667625
:1013200007E0A07E00B96F60C5F80883E675617EAE
:10133000E2682046FFF77DFF4FF48E78414628464D
:10134000FFF742FF88B1A08AA17D884204D22146DE
:101350002846FFF77AFF08E041462846FFF739FFA5
:10136000A17D11B12046FFF780FF4FF4A2784146DE
:101370002846FFF729FF002812D041462846FFF7EC
:1013800028FFA07E00B12F60E07D002808D0E67520
:10139000617EE26804B02046BDE8F047FFF749BF30
:1013A000BDE8FF872DE9FF410C464FF492770546D3
:1013B0003946FFF71AFF0026C0B139462846FFF725
:1013C00019FF02208DF80000D5F88004C5F88004CC
:1013D0000390D5F83C058DF80800E0680190E675AB
:1013E0002676D4E900126846904724E04FF48877C7
:1013F00039462846FFF7F9FEE8B139462846FFF797
:10140000F9FED5F83C05C1B2E07D884213D1207EBB
:1014100060B1E268D5F8000220F02000C5F80002B3
:10142000207EE0752069E060267601E0E675E268DE
:101430002046FFF7FEFE4FF4A27739462846FFF715
:10144000D4FE68B139462846FFF7D4FEE07D38B1B6
:10145000E675D5F83C05E268C1B22046FFF7E9FE23
:101460004FF4907631462846FFF7BFFE00280FD094
:1014700031462846FFF7BEFEA07D002808D0D5F8EB
:101480004C0504B0C1B22046BDE8F041FFF7EDBE07
:10149000BDE8FF8170B586B00C460546254E142286
:1014A00025496846FEF7E2FE142269462348FEF706
:1014B000DDFEA6F148013046FFF762FC08B1FFF7F8
:1014C00043F91D491B4E142214316846FEF7CEFE27
:1014D0001A48142269461430FEF7C8FEA6F13001FE
:1014E0003046FFF74DFC08B1FFF72EF91249114EB7
:1014F000142228316846FEF7B9FE104814226946C6
:101500002830FEF7B3FEA6F118013046FFF738FC8D
:1015100008B1FFF719F9224629460648FFF7F7FBFD
:10152000002804D006B0BDE87040FFF70DB906B042
:1015300070BD00004800002050150000A4000020ED
:1015400048656C6C6F20576F726C6421656E00008B
:10155000000000004C1500000200000040150000D3
:101560000C000000000000009915000002000000BF
:101570008C1500000D00000000000000AA150000FE
:10158000020000009B1500000F00000048616C6C19
:101590006F2056657264656E214E4F576974616A9B
:1015A00020C59A77696563696521504C0D0E0F104F
:1015B0000B0C181954000102030405060708090062
:1015C000E015000000000020A40000000407000057
:1015D00084160000A4000020FC2100001407000075
:1015E000010000000000000001000000B415000030
:1015F000250F0000A40000200100000000000000F2
:1016000001000000B4150000250F0000B800002004
:10161000010000000000000001000000B4150000FF
:10162000250F0000CC000020E00100200300000096
:1016300000000000000000000000000000000000AA
:101640000100000000000000000000000000000099
:101650000090D003040605040803040902050704EA
:10166000050803050902030504030902000001013E
:101670000301010102020403020A0002010202093D
:041680000200000064
:0400000500000201F4
:00000001FF
