:020000040000FA
:1000000040270020150200001D0200001F02000012
:100010002102000023020000250200000000000071
:1000200000000000000000000000000027020000A7
:1000300029020000000000002B0200002D02000039
:10004000B90500002F020000750A00002F02000011
:100050002F0200002F0200002F02000035060000D2
:100060002F0200004D0A0000610A00002F0200006C
:100070002F0200002F0200002F0200002F020000BC
:100080002F020000110600002F0200002B050000C7
:100090007D0700002F0200002F0200002F02000049
:1000A0002F0200002F0200002F0200002F0200008C
:1000B0002F0200002F0200000000000000000000DE
:1000C0002F0200002F0200002F0200002F0200006C
:1000D0002F0200002F0200002F020000000000008D
:1000E0000000000000000000000000000000000010
:1000F0000000000000000000000000000000000000
:1001000000000000000000000000000000000000EF
:1001100000000000000000000000000000000000DF
:1001200000000000000000000000000000000000CF
:1001300000000000000000000000000000000000BF
:1001400000000000000000000000000000000000AF
:10015000000000000000000000000000000000009F
:10016000000000000000000000000000000000008F
:10017000000000000000000000000000000000007F
:10018000000000000000000000000000000000006F
:10019000000000000000000000000000000000005F
:1001A000000000000000000000000000000000004F
:1001B000000000000000000000000000000000003F
:1001C000000000000000000000000000000000002F
:1001D000000000000000000000000000000000001F
:1001E000000000000000000000000000000000000F
:1001F00000000000000000000000000000000000FF
:10020000DFF80CD000F070F900480047F518000046
:10021000402700200648804706480047FEE7FEE7E3
:10022000FEE7FEE7FEE7FEE7FEE7FEE7FEE7FEE7A6
:1002300081070000010200000048704728310000DB
:1002400040EA01039B0703D009E008C9121F08C058
:10025000042AFAD203E011F8013B00F8013B521ED8
:10026000F9D27047421C10F8011B0029FBD1801AFB
:1002700070472DE9FE4F81EA030404F0004421F0A9
:10028000004100944FF0000B23F0004350EA0104BA
:100290005ED052EA03045BD0C3F30A54C1F30A559B
:1002A0002C44A4F2F3340194A0FB0254C1F31301D3
:1002B00041F48011C3F3130343F4801301FB0244A0
:1002C00000FB034E840A970A44EA815447EA8357A5
:1002D000A4FB076802958D0A05FB07854FEA932C5E
:1002E00004FB0C542705029D4FEA065847EA1637CF
:1002F000B5EB08056EEB070C870E920E47EA8117E7
:1003000042EA8312A7FB0201B6EB0B0164EB000487
:100310002B0D43EA0C335E1844EB1C50DA46514671
:10032000E7FB0201C5F313044FEA0B3343EA14530E
:100330004FEA0432019C43EA0603A4F10C04029440
:10034000009CCDE900B400F080F803B0BDE8F08F68
:1003500000200146F9E70EB5C10F80EAE0700844BD
:10036000CA07002140F233438DE80E000A460B46CF
:1003700000F06BF803B000BDC1F30A5210B5C1F331
:10038000130140F2FF3341F480119A4201DA002058
:1003900010BD40F233439A42A2F2334203DC524290
:1003A00000F034F810BD904010BD2DE9F05F054617
:1003B000002092469B4688460646814640241BE024
:1003C000284641464746224600F020F853465A4602
:1003D000C01A914110D311461846224600F096F8F3
:1003E0002D1A67EB01084F4622460120002100F03C
:1003F0008DF817EB00094E41201EA4F10104DFDC4B
:10040000484631462A464346BDE8F09F202A04DB91
:10041000203A21FA02F00021704721FA02F3D0407D
:10042000C2F12002914008431946704710B5141ECE
:1004300073F1000408DA401C41F1000192185B419D
:100440001A4301D120F0010010BD2DE9F04D924674
:100450009B4611B1B1FA81F202E0B0FA80F220328B
:10046000904600F053F804460F4640EA0A0041EA7D
:100470000B0153465A46084313D0114653EA010074
:1004800019D0C8F140025046FFF7C0FF05460E469E
:1004900050465946424600F039F8084305D001203D
:1004A00004E020463946BDE8F08D0020054346EAC9
:1004B000E0762C4337430A986305E40AA0EB080072
:1004C0000022FD0A44EA47540A3002D500200146C2
:1004D000E9E7010510196941DDE90845001969419D
:1004E000BDE8F04DA2E70000064C074D06E0E068CD
:1004F00040F0010394E8070098471034AC42F6D36B
:10050000FFF782FE84310000A4310000202A04DBC2
:10051000203A00FA02F1002070479140C2F1200316
:1005200020FA03F319439040704710B501210802E7
:1005300000F0CEFE02214FF4827000F0C9FE0421CB
:100540004FF4847000F0C4FEBDE8104008214FF461
:10055000867000F0BDBE00F01F02012191404009ED
:10056000800000F1E020C0F88012704700F01F0208
:10057000012191404009800000F1E020C0F8001105
:10058000704700F01F02012191404009800000F1F6
:10059000E020C0F8001270474907090E002806DA6B
:1005A00000F00F0000F1E02080F8141D704700F10A
:1005B000E02080F8001470472DE9F0414FF4807777
:1005C000384601F001FA0124104EA50748B138461B
:1005D00001F001FA0120C5F808037470002000F052
:1005E00063FE4FF48277384601F0EEF900280BD015
:1005F000384601F0F0F90220C5F80803B470BDE8F0
:10060000F041012000F050BEBDE8F0817C000020E8
:1006100007480021C0F84011C0F84411C0F8481143
:10062000C0F84C11C0F80011C0F8041102F076BBFC
:10063000001001402DE9FE434FF48278404602F05D
:10064000A9F94C4F00254C4C012600B3404602F05E
:10065000A9F994F82E0010B194F82F10D1B18DF8AB
:100660000050616801912189ADF80810E26832B14B
:10067000218B618362602181E56010B102E0257405
:1006800000E03E6021686846884784F82F5094F85F
:100690002E0060B34FF48077384602F07BF930B318
:1006A000384602F07FF9628B94F82D108A420AD9FD
:1006B000A2EB010080B260832289A2EB0000626895
:1006C00002EB400005E007D1E06828B184F82F6014
:1006D000658302F019F904E08A4202D184F82F60A0
:1006E0006583404602F05EF92248001D06604FF423
:1006F0008877384602F04EF948B1384602F052F990
:10070000257402208DF800002168684688474FF460
:100710008A77384602F03EF928B1384602F042F9AD
:100720002574BDE8FE834FF000484FF48C7967696B
:100730001DE000BFB7FA87F028FA00F109EB800549
:100740008F43284602F026F988B1284602F02AF99C
:10075000A5F58C75E8088DF8040045F38000401C71
:100760008DF800608DF80500216868468847002FE5
:10077000E0D1D6E7007000409000002002F040BABF
:10078000F0B5A3480023021D01780125101D4FF08C
:10079000805406290BD11678360708D10678C6F39F
:1007A0000316032E06D0042E04D0052E02D00629EF
:1007B00007D00EE0B4F82463964FC6F304263E60DB
:1007C00002E01678360704D10678C6F30316032E26
:1007D00002D0062904D00FE0904F8F4E7E670EE0C6
:1007E0001678360708D10678C6F30316032E06D00E
:1007F000042E04D0052E02D0062907D00EE0D4F82E
:100800004462874FC6F342363E6002E016783607F0
:1008100004D10678C6F30316032E02D0062906D0AB
:1008200011E0804E376827F0807737600EE0167849
:10083000360708D10678C6F30316032E06D0042E19
:1008400004D0052E02D006290AD011E04FF08046D0
:10085000C6F80C31C6F81031714E361F336002E015
:100860001678360704D10678C6F30316032E02D095
:10087000062905D00CE06A4F032664373E600AE083
:100880001678360704D10678C6F30316032E02D075
:1008900006290DD014E0644F05263E60624E78367E
:1008A0003560614E083633603F263F1D3E6002E0F2
:1008B0001678360704D10678C6F30316052E02D043
:1008C000062957D068E059490968594A11605749C3
:1008D000091D0968121D1160544908310968121D6B
:1008E000116052490C310968121D11604F491031D5
:1008F0000968121D11604D4914310968121D1160FB
:100900004A49183109684A4A2032116047491C3166
:100910000968121D1160454920310968121D1160D6
:10092000424924310968121D116040492831096883
:10093000121D11603D492C310968121D11603B499F
:10094000303109683A4A4032116038493431096817
:10095000121D1160354938310968121D1160334983
:100960003C310968121D1160304940310968121D7F
:10097000116002E0117809070ED10078C0F303106E
:10098000032803D0042801D0052805D1D4F8580243
:10099000284900F04F00086022487438016841F48B
:1009A00070010160BFF34F8FBFF36F8F4FF01021C5
:1009B000D1F80002002803DBD1F80402002822DA73
:1009C0001D4A15601D480468002CFCD01524C1F890
:1009D00000420568002DFCD0C1F8044201680029DE
:1009E000FCD0136001680029FCD0BFF34F8F0D4885
:1009F000F0380168124A01F4E06111430160BFF36D
:100A00004F8F00BFFDE710490E480860F0BD0000A1
:100A1000E00F00F0403501400DF0ADBA00C00740D6
:100A20003C050040FCED00E01056004004040010BE
:100A300020C50040E40E004004E5014000E4014010
:100A40000400FA050090D003580000200422024957
:100A5000024800F0A7BE0000C00000200090004047
:100A600004220249024800F09DBE0000CC00002094
:100A700000A000400448017F04480029024901D039
:100A800002F055BA02F0C4B9D8000020002000409E
:100A90000FB41CB50A46521ECDE9000207A9054B4A
:100AA0006A46069800F018F8009A002111701CBCE4
:100AB0005DF814FB3B0F000002E008C8121F08C1DC
:100AC000002AFAD170477047002001E001C1121FCF
:100AD000002AFBD1704700002DE9FF4F8DB00F4673
:100AE0000546002606E025280BD0DDE90F129047C9
:100AF0006D1C761C28780028F5D111B03046BDE871
:100B0000F08F0024A246A1460122EC4900E00443F4
:100B100015F8013F203B02FA03F00842F7D128788C
:100B20002A2810D06FF02F022878A0F1300109296F
:100B300014D80AEB8A0102EB410144F0020400EBF5
:100B4000010A6D1CF0E701CF5FEA000A03D544F407
:100B50000054CAF1000A44F002046D1C28782E28C3
:100B600017D115F8010F44F004042A280ED06FF0B5
:100B70002F022878A0F1300109290AD809EB890150
:100B800002EB410100EB01096D1CF2E757F8049BF1
:100B90006D1C28786C280FD006DC4C2817D06828EC
:100BA0000DD06A2814D104E0742810D07A280FD10F
:100BB0000DE044F400140AE044F4801401E044F42D
:100BC00040146978814202D104F580146D1C6D1CBB
:100BD0002A786E2A1FD00CDC632A31D004DC002A6C
:100BE0008BD0582A11D1A3E0642A68D0692A0CD18D
:100BF00065E0732A2ED004DC6F2A73D0702A04D1EA
:100C00009BE0752A6FD0782A6ED01046DDE90F126E
:100C10009047761C50E1C4F30250022806D0032806
:100C200009D0042801CF09D0066045E101CFF117B2
:100C3000C0E9006140E101CF06803DE106703BE183
:100C400017F8040B8DF8000000208DF80100EB462A
:100C5000012003E057F804BB4FF0FF3061074FF06D
:100C6000000102D40DE008F10101884649450FDA80
:100C70008045F8DB1BF808100029F4D108E008F1E2
:100C8000010188468142FADB1BF808100029F6D1E1
:100C9000DDE90F23AAEB08008146214600F036F972
:100CA000304400EB080604E0DDE90F121BF8010BED
:100CB0009047B8F10108F7D221464846F7E00A21EB
:100CC000C4F302534FF0000B0891022B04D001CF64
:100CD000C117032B09D00AE0FF1D27F00707F7E82B
:100CE000020108E032E01FE020E000B2C117042B4F
:100CF00001D140B2C117031E71F1000307DA4FF0B2
:100D0000000CD0EB0C006CEB01012D2302E023055D
:100D100004D52B238DF82430012303E0E30701D011
:100D20002023F7E7984658E00A2110E010210EE052
:100D300010204FF0000B08900CE010214FF0000B3A
:100D400044F004044FF00809089103E008214FF033
:100D5000000B0891C4F30253022B04D001CF0021F1
:100D6000032B06D006E0FF1D27F00707F7E8020176
:100D700003E080B2042B00D1C0B24FF0000823077B
:100D80002BD5702A07D0DDF820C08CF0100C5CEA5F
:100D90000B0C05D00EE040238DF82430012308E031
:100DA00050EA010306D030238DF824308DF8252039
:100DB00002239846DDF820C08CF0080C5CEA0B0C8E
:100DC0000BD150EA010301D1630706D530238DF81A
:100DD00024304FF00108A9F10109582A04D038A2A3
:100DE0000B9208AA0A920BE03AA2F9E75B46089A2E
:100DF000FFF7DBFA0B9B9B5C0A9A521E0A92137058
:100E000050EA0102F2D10A98ADEB000000F1200B8C
:100E1000600702D524F4803401E04FF00109D94580
:100E200002DDA9EB0B0000E0002000EB0B014144C8
:100E30000890AAEB010AE00306D4DDE90F2321465E
:100E4000504600F063F806444FF0000908E009A995
:100E500011F80900DDE90F12904709F10109761C2C
:100E6000C145F4DBE0030CD5DDE90F2321465046F4
:100E700000F04CF8064404E0DDE90F123020904702
:100E8000761C0899481E08900029F5DC08E00A98AD
:100E90000A990078491C0A91DDE90F129047761CE7
:100EA000BBF10001ABF1010BF1DC21465046DDE95D
:100EB0000F2300F019F806446D1C1BE609280100F9
:100EC00030313233343536373839616263646566C0
:100ED0000000000030313233343536373839414282
:100EE00043444546000000002DE9F041044600253A
:100EF0001E461746880404D405E039462020B04732
:100F00006D1C641EF9D52846BDE8F0812DE9F0413D
:100F1000044600251E469046C80301D5302700E050
:100F20002027880404D505E041463846B0476D1CAB
:100F3000641EF9D52846BDE8F0814A68002A06D02B
:100F40000A68531C0B6010704868401E4860704768
:100F50000DA1012001F036FC01F08EFB01F090FBA9
:100F60000028FBD10CA1032001F02CFCBFF34F8F14
:100F700010480168104A01F4E06111430160BFF3B9
:100F80004F8F00BFFDE700003A4552524F523A469C
:100F90006174616C0D0A00003A494E464F3A486947
:100FA00074207765616B2068616E646C65720D0AF0
:100FB000000000000CED00E00400FA050EB5002171
:100FC0000091CDE901106A4644F20100FFF7C0FF2D
:100FD0000EBD0000074B9B7823B12AB120B10068F9
:100FE000037C1BB1082070470720704741744261A1
:100FF00000207047F800002070B501F035FD104862
:1010000000240B21047044700E4D817014206C601C
:101010002C706C70FFF79FFA07211420FFF7BCFAC1
:101020001420FFF7A3FA0848046007211120FFF7F6
:10103000B3FA0548001F0068A860002070BD0000DA
:10104000F800002024000020081501402DE9F84395
:10105000DFF8709099F802305BB350B3052902D2E3
:101060000720BDE8F88343691BB3437C012B22D0E2
:1010700000270446002588461646284600F026F834
:10108000684601F0CDFFC0B1012101700E494460F6
:101090000968C0E90218C0E904769DF8000089F8E3
:1010A0000100002000F014F81420FFF76AFA284627
:1010B000D7E70820D5E70F46DBE70425002000F03E
:1010C00007F8F4E7F80000200415014000F002B82A
:1010D00000F008B872B602480168491C0160704708
:1010E0003800002003490868401E086000D162B63D
:1010F00070470000380000202DE9F04106460868DE
:101100000C46411C4FF0A0474FF0010506D005FAF0
:1011100000F1C7F80815206801F016F96068411C55
:1011200002D0002101F007F93079204901EB40108D
:10113000A169007F00283068C0F8241525D0607DA3
:10114000227D31681043C1F86C05D4E90012306883
:10115000C0F80C15C0F8142524E0A068411C02D08A
:10116000002101F0E8F8E068411C05D08540C7F88F
:101170000855E06801F0E8F8D4E902123068C0F8D8
:101180000825C0F81015BDE8F081607D217D32682A
:101190000843C2F86C05D4E900123068C0F8142581
:1011A000C0F80C15207D0128D7D0ECE7D80000202E
:1011B0000249085C012101F0D8B800005430000059
:1011C0000249085C002101F0D0B800005430000052
:1011D0007CB50024084E25460122305D0095002391
:1011E0001146019501F07AF8641C042CF4D3BDE893
:1011F0007C4000F003B800005430000010B500241B
:101200002046FFF7D5FF641C042CF9D310BD00293C
:1012100001DA002070470268114401600120704724
:1012200070B5461C0D4601240020FFF74FFF114A00
:1012300010682860D2E900109568081A2B1A701CF3
:101240005B1C98420FD963B10B480C4B29400068D6
:101250001B6802EB810163F39F20C8601068401C8B
:101260001060002401E0881910600020FFF730FFB3
:10127000204670BD24030020803000005400002070
:10128000034803C8814201D1012070470020704704
:10129000240300200348017FB1FA81F1C1F11F014D
:1012A000417670470402002070B5084C050009D053
:1012B00010342168002907D0086820604968284652
:1012C0008847F6E70834F4E770BD00007C00002092
:1012D00010B5044608482258002A0CD0D0F8040360
:1012E000084208D0204600F07FFB044920464968A8
:1012F000BDE81040084710BD003001401C00002030
:101300002DE9F05F26484168F1B3DFF898B00E6828
:101310008146DBF8004087688078E11B21F07F453B
:10132000ED1CB0B9DFF880804FF48030C8F844037A
:10133000C8F804031120FFF70EF91120FFF716F982
:101340004FF0010AC8F800A02F2000F0A3FB89F895
:1013500002A0B54200D23546124BE8193C3320F0CA
:101360007F401860DBF800105A46091B21F07F41CE
:10137000001B20F07F40C91C81420FD91068186003
:101380002F2000F087FB00E004E0BDE8F05F1120B3
:10139000FFF7F7B8BDE8F05F01F066BBBDE8F09F6E
:1013A00024000020041501400010014070B5002009
:1013B000484D0146421E05F1080600BF45F82010C1
:1013C00046F82020401C0228F8DB43A1032001F04E
:1013D000F9F900BF01F054F90028FBD14FF47A74F9
:1013E000204600F00BFB43A1032001F0EBF900BF06
:1013F00001F046F90028FBD1204600F0FFFA41A198
:10140000032001F0DFF900BF01F03AF90028FBD119
:10141000204600F0F3FA3FA1032001F0D3F900BF0A
:1014200001F02EF90028FBD100F048FC002832D151
:1014300000F03EFC0028FBD13AA1032001F0C2F9E4
:1014400001F01EF90028FBD1204600F0D7FA29A1AF
:10145000032001F0B7F900BF01F012F90028FBD119
:10146000204600F0CBFA27A1032001F0ABF900BF22
:1014700001F006F90028FBD1204600F0BFFA25A1B3
:10148000032001F09FF900BF01F0FAF80028FBD11A
:1014900000F014FC28B1BDE870402AA1032001F03F
:1014A00091B900F005FC0028FBD1642000F0A6FAF9
:1014B000286831680844420868687168084443082D
:1014C00004480C3842608360BDE8704021A10320CD
:1014D00001F0CAB90C0000204150503A494E464F25
:1014E0003A546F75636820626F746820706164732A
:1014F0002E0D0A004150503A494E464F3A332E2E97
:101500002E0D0A004150503A494E464F3A322E2E87
:101510002E0D0A004150503A494E464F3A312E2E78
:101520002E0D0A004150503A494E464F3A52656CD2
:101530006561736520626F746820706164732E0D3D
:101540000A0000004150503A494E464F3A427573E6
:10155000792E0A004150503A494E464F3A4E65772F
:10156000207468726573686F6C64732C2041494EF7
:10157000313A2025642C2041494E373A2025642EEB
:101580000D0A000038B5114C0546E07E00F0E6FE7D
:10159000607E04EB40000581ADF80050607E8DF860
:1015A0000200207F627E012191408843207702D192
:1015B000207607490860616868468847207F0028D0
:1015C00003D0FFF767FE00F079FB38BD040200206E
:1015D0000075004010B5044682781948012A017848
:1015E0000FD0022A0DD0072A28D1E9B1228815A1EF
:1015F000032001F00DF920880121BDE8104000F022
:1016000083B839B1228815A1032001F001F920889F
:101610000021F2E72188406881424FF0000009D3A1
:10162000BDE81040FFF7CCBD2188806881424FF0B3
:101630000200F5D2BDE81040FFF7BABD10BD0000B2
:10164000000000204150503A494E464F3A50414424
:10165000323A2025642E0D0A000000004150503A15
:10166000494E464F3A504144313A2025642E0D0AE6
:101670000000000008B5002000901A208DF800003E
:101680000549684600F0D4FA08B1FFF797FC8220BC
:1016900000F0C0FA08BD0000D515000010B500F03C
:1016A0000DFB002805D0BDE8104002A1032001F089
:1016B00089B810BD4150503A494E464F3A42757371
:1016C000792E0D0A000000000E4910B50A784C78FA
:1016D0000023A24212D0521CD2B20A70022A00D1B8
:1016E0000B70084A0B780C3252F82320026088688D
:1016F000104420F07F408860012010BD036000206E
:1017000010BD000024000020074A52F82130834217
:1017100001D242F82100044A083252F821308342B3
:1017200001D942F8210070470C00002070B50E4628
:101730000446007918494FF4A27501EB4010017F6F
:101740002068A1B14FF4887101F04CF94FF4907109
:10175000206801F047F94FF49271206801F042F9D6
:101760002946206801F03EF90C49206809E04FF451
:101770008E7101F026F92946206801F022F9084906
:101780002068C0F80413206800F0CAFA3146BDE8AA
:10179000704000F022BA0000D800002010030200C0
:1017A000800002002DE9F8430025164688460446CD
:1017B0002F4614E04FF4A07000EB85004FF4803109
:1017C0002258A9404AB1D4F804230A4205D0275030
:1017D00021580091D8E9002190476D1CEDB2B54227
:1017E000E8D3BDE8F8830268134602E08A4204D0D9
:1017F0001268002AFAD10B60016070472DE9F047AA
:10180000394E002780463D46DFF8E090D6F804A028
:1018100057E003D00446D0F81C8035E099F800204A
:1018200002EB4201521CD2B289F8002009EBC1013F
:1018300099F80230091D9A4201D189F80050486890
:101840000A780446012A12D0022A02D0032A3BD188
:1018500008E001F033FA00B10127257434E0057483
:10186000C06900E070680028F9D170602CE0207C2D
:1018700050BB88686060C868A0600869E06048691B
:10188000A061F07800B165606268B168184B501AC9
:1018900020F07F40984202D2A168084406E0881AEE
:1018A000A16820F07F40814202D9081A206000E040
:1018B000256065600120A56020742046E56101F087
:1018C000DFF9B8F10000A4D199F8001099F80100EF
:1018D0008142A3D117B97168514502D00120BDE8FA
:1018E000F0870020FBE7000024000020F800002023
:1018F000FFFF7F00002000F0F5FF08B1FFF75EFB5F
:10190000FFF766FC00F00CF9002410B1FFF756FB5E
:1019100002E0002000F026F9FFF76EFB08B1FFF7A8
:101920004DFB14A1032000F04DFFFFF7A3FE1D495E
:10193000032000F047FF00BF00F0A2FE0028FBD10B
:1019400000F0C6FF792813D00020174D287010B181
:10195000FFF72CFD2C7015A1032000F033FF01F0E0
:1019600033F900BF00F08CFE0028FBD130BFF9E74F
:101970000120EAE74150503A494E464F3A436170E0
:10198000616369746976652073656E73696E67203B
:10199000647269766572206578616D706C652E0D74
:1019A0000A0000002C310000000000204150503A95
:1019B000494E464F3A4D6F64756C6520726561649F
:1019C000792E0D0A0000000000F180400068002818
:1019D00000D00120704708B500F18040002101606F
:1019E0000068009008BD0000034908B508440022C3
:1019F00002600068009008BD003001404FF47A7129
:101A0000484300F001B8000000283ED01F49204A9A
:101A1000096800BF00BF00BF00BF00BF00BF00BF1C
:101A200000BF91422FD000BF00BF00BF00BF00BF6A
:101A300000BF00BF00BF00BF00BF00BF00BF00BFAE
:101A400000BF00BF00BF00BF00BF00BF00BF00BF9E
:101A500000BF00BF00BF00BF00BF00BF00BF00BF8E
:101A600000BF00BF00BF00BF00BF00BF00BF00BF7E
:101A700000BF00BF00BF00BF00BF00BF00BF00BF6E
:101A800000BF00BF00BF401EC3D1704758000020F8
:101A90000024F40000283ED01F49204A096800BFF6
:101AA00000BF00BF00BF00BF00BF00BF00BF91422A
:101AB0002FD000BF00BF00BF00BF00BF00BF00BFEE
:101AC00000BF00BF00BF00BF00BF00BF00BF00BF1E
:101AD00000BF00BF00BF00BF00BF00BF00BF00BF0E
:101AE00000BF00BF00BF00BF00BF00BF00BF00BFFE
:101AF00000BF00BF00BF00BF00BF00BF00BF00BFEE
:101B000000BF00BF00BF00BF00BF00BF00BF00BFDD
:101B100000BF401EC3D17047580000200024F400CD
:101B200070B50E4C0025207808B1852513E0002102
:101B3000A16061602161E1604FF0E020D0F8000118
:101B4000012610F0010F03D10721002000F045F815
:101B5000034806602670284670BD00007C00002007
:101B60001805004070B5154D0446A87838B114B179
:101B70006168012088470020FFF7A8FA15E00020DF
:101B8000FFF7A4FA24B10D4821461030FFF72BFED1
:101B9000E86850B94FF48270FFF71DFF022041073B
:101BA000C1F80403064901200860E868401CE860A9
:101BB000BDE870400020FFF78BBA00007C000020D9
:101BC0000800004000F01F02012191404009800000
:101BD00000F1E020C0F8801170474907090E002885
:101BE00006DA00F00F0202F1E02282F8141D03E091
:101BF00000F1E02282F8001400F01F020121914060
:101C00004009800000F1E020C0F88012C0F8001107
:101C100070470000054901220A7602220A708A7E76
:101C200002438A76002008767047000004020020F4
:101C30002DE9F0410E46D0B1CEB1194D00272F76D7
:101C40000078E8764FF0A04101EB80000324C0F853
:101C50000047E87E00F082FB12486E6012498470F3
:101C6000002000F0EBF820B12046BDE8F08107200D
:101C7000FBE7E87E00F072FB0A49002000F0AEF8B6
:101C80000028F1D107480121801E00F055F80028F6
:101C9000EAD106480760012028700020E5E700002F
:101CA000040200203E000020112B000000750040BF
:101CB0000148007E704700000402002070B5144CFB
:101CC000A07E10B3207F012550B912480560207E08
:101CD00008B1112070BD2576A07E2077FFF7DAFAD3
:101CE000607E0D49401CC0B2C8710C490022C1F889
:101CF0001425C1F81005E07E4FF0A0418540C1F8E1
:101D00000C5500F0E1F80028E4D1002070BD00007F
:101D100004020020007500403E00002000700040DA
:101D2000000B40B270470121B1EB507F01D101207F
:101D300070470020704700002DE9F041254C064611
:101D400012200D46C4F808032348017C022918D04C
:101D5000027C01464FF4807891F82E10012A12D0AF
:101D60000222C4F80423012707744660058100227B
:101D7000C26021B3458390F82D10304600F0C4FDB9
:101D800025E0122002E0C2682AB10220C4F8040350
:101D90001120BDE8F081C660058361B94746384629
:101DA00000F0F8FD0028FAD0384600F0FBFD294687
:101DB000304600F0A9FD0220C4F8040307E02946DC
:101DC000304600F0A1FD404600F0ECFD2760002009
:101DD000DFE70000007000409000002070B50C4666
:101DE00014490546087C08B1112070BD2079124EB7
:101DF00008B1012801D10020306001EB4500027FCD
:101E00001AB911F82D2F521C0A70E1790177217A45
:101E100041772146284600F07FFD227AE179284665
:101E200000F0AEFD207908B1012801D10120306019
:101E3000002070BD90000020007500402DE9F041A9
:101E40001D4C054694F82C0010B10820BDE8F08127
:101E500009B115B102E00720F8E7184D44F8101B4E
:101E6000174928780860091D68780860E878A07725
:101E7000012727770020207060776060114EE0779F
:101E80006FF00040C6F808034FF4827000F08AFD3E
:101E9000B01500F087FDA9780720FFF79EFE02200D
:101EA000C6F80403A07F10B10120C6F8040304485B
:101EB000F03807600020C9E7900000205C30000087
:101EC000F075004000700040084900200A7C012A9B
:101ED00001D00820704791F82E30054A01210BB13E
:101EE00011607047024A121DFAE7000090000020BE
:101EF000007000402DE9F04105460079164F9046EC
:101F000007EB40140E46E07E10B10820BDE8F081DA
:101F1000707F20772846FFF7EFF85FEA08006060DF
:101F20003169216003D0317F2846FFF7FFFB287914
:101F300007EB4010007F0028286801D0082100E04E
:101F40000421C0F800150020E0752076A07501215D
:101F5000E176A076DAE70000D80000202DE9F04114
:101F600005460079284E904606EB40140F46207F28
:101F700018B10846FFF7D7FE80B1626800234FF41E
:101F800004704FF4017172B12A7906EB4212127F8C
:101F9000002A2A6805D0C2F8080304E01020BDE832
:101FA000F081C2F80813E27DB2B1227E7AB1626894
:101FB0005AB12A7906EB4212127F1AB12968C1F888
:101FC000040302E02868C0F804131120E7E7276142
:101FD000012384F8188005E084F817800020E7606A
:101FE000607620762879424606EB40103946007F1D
:101FF0000028284603D0BDE8F04100F05BB8BDE8FA
:10200000F04100F003B80000D80000202DE9F05F97
:1020100004460079264901EB4015A87E184302D1F9
:10202000204600F064FD68680028206806D04FF460
:102030000171C0F804130020BDE8F09F4FF4A276B0
:10204000314600F0BEFCB1464FF4927A4FF4847BE7
:102050005146206800F0B0FC06465946206800F062
:10206000ABFC80464946206800F0A6FC074648EADB
:1020700007003043ECD056EA070007D12946206814
:1020800000F010FDE87D697E8842E1D80020E87507
:102090000EB10320D0E70FB10F20CDE7A97E0120BC
:1020A0000029216801D00860C5E74860C3E7000047
:1020B000D80000202DE9F05F894604464FF488756A
:1020C0009A46904600260068294600F08BFC4FF4A3
:1020D000A2773946206800F085FC2068C0F8349566
:1020E000C0F838852068BAF1000F14D0D0F800127B
:1020F00041F02001C0F800122179DFF8648008EB7C
:102100004110406850B120684FF40471C0F80413C6
:102110003046BDE8F09F01210160EDE7AA46B946CF
:102120004FF4927B5146206800F057FC0746494621
:10213000206800F052FC05465946206800F04DFC2E
:10214000014647EA05000843ECD02379002208EB5A
:102150004310C27501B10326002DD9D00F26D7E751
:10216000D80000202DE9F047054600793F4E904603
:1021700006EB40140F46207F18B10846FFF7D3FD49
:1021800030B1284600F074F820B11120BDE8F08786
:102190001020FBE784F81680A7600027A782287923
:1021A0004FF0010806EB40143E46207F00282868C7
:1021B00025D04FF49079494600F014FC4FF4AC7AE6
:1021C0005146286800F00EFC2868A17DA268C0F87E
:1021D0004425C0F848152868C0F808806068F0B940
:1021E0004946286800F0F9FB80465146286800F00F
:1021F000F4FB58EA0001F3D058BBA7750FE04FF489
:102200008E7A514600F0DDFB2868C0F80880214630
:10221000286800F0D7FD61684FF4807089B13046BE
:10222000B4E75146286800F0C7FB10B9A08A4845BA
:10223000F7D1A08A484505D02146286800F0C2FDA4
:1022400000E08146A08AA17D8842EAD3A08A484561
:1022500001D10F26D1E75146286800F0ADFB0028D8
:10226000F9D02868C0F80C80C7E70000D80000202B
:102270000079044901EB4010807D002800D0012046
:1022800070470000D800002070B50446007911495D
:10229000002601EB401520682A7FC0F800656868B9
:1022A00088B1207901EB4010007F0028206801D020
:1022B000094901E008498C39C0F808132068FFF784
:1022C0002FFDFFF77FFC204600F092FBEE766E605C
:1022D00070BD0000D80000201003020070B541EA74
:1022E0004201DDE904564FF0A04441EA830141EA8E
:1022F000052104EB800041EA0641C0F8001770BDDB
:1023000070B541EA4201DDE904564FF0A04441EACC
:10231000830141EA052104EB800041EA0641C0F84F
:10232000001770BD1CB5002100910B4601220191E0
:10233000FFF7E6FF1CBD1CB500220B4600921146BC
:102340000192FFF7DDFF1CBD1CB5002100910B467B
:10235000012201911146FFF7D3FF1CBD4FF0A042AF
:1023600001218140C2F80815704701224FF0A043B7
:10237000824011B1C3F808257047C3F80C25704797
:1023800038B50B4C607828B101226946201DFFF753
:10239000E5FD0AE00020A070054801226946001D05
:1023A000FFF7DCFDA0780028FCD09DF8000038BDC8
:1023B00048000020004870472D24000030B5184C1C
:1023C000054689B0207828B16078854202D1002086
:1023D00009B030BD202213496846FDF731FF0020C7
:1023E0008DF814000620009008200190052003902D
:1023F000072002904FF0EB7006900948001DFFF790
:1024000043FF0DB1002200E0074A05486946001D60
:10241000FFF770FD0028DBD1012020706570D6E742
:102420004800002060300000012E00002DE9F04F30
:10243000C1B00D004FF0000140914D984B991C46E2
:10244000174601EB000B01D00A2000E00020804677
:1024500000F09EFB00287CD16E46BCB9409840AA93
:102460003118284600F094FC002872D03846FDF759
:10247000F9FEC22800D9C220054640982A463044B9
:102480003946FDF7DDFE4098284440904FF0200A81
:10249000409901EB080231320DEB01050DEB02060C
:1024A000002002E005F801AB401C4045FAD30027AC
:1024B0005C4508D305F801AB05F801AB05F801ABA5
:1024C00006F801AB2DE04B98844202D24A98005D99
:1024D00002E0211A4C98405C2B46814602460121BD
:1024E000880022FA00F000F00F00092801D93730E7
:1024F00000E03030C1F1010C491E03F80C00EFD2AE
:102500009D1C05F801ABFDF797FE016811F8090065
:1025100010F03E0F01D0484600E02E2006F8010BD7
:10252000641C7F1C102FC3D30D2030700A207070E4
:1025300085F800A04099684641444331409100F03D
:102540002DFB30B100F024FB18B9002040905C4511
:102550009ED341B02046BDE8F08F2DE9F043C7B0CF
:1025600000251C46904689464E9F459500F010FB7D
:1025700000287AD1459805AE311845AA484600F0A2
:1025800007FC002835D0072F27D2DFE807F0041218
:102590001B35424F5D004046FDF764FE05464598F9
:1025A0002918FF2919D830442A464146FDF748FE2C
:1025B00013E045982368C0F5807130444246FEF729
:1025C00067FA09E06068009045982368C0F580715B
:1025D00030444246FEF75CFA0546294645A8FEF718
:1025E00016FE459978B3B1F5807F3ED805A800F076
:1025F000D5FA47B0BDE8F083D4E90101CDE9000187
:1026000045982368C0F5807130444246FEF740FA91
:10261000E2E7201D07C88DE8070045982368C0F54C
:10262000807130444246FEF733FAD5E7201D0FC8CB
:102630008DE80F0045982368C0F58071304442460C
:10264000FEF726FAC8E710E004F1080001AD0FC854
:1026500085E80F006068009045982368C0F5807198
:1026600030444246FEF714FAB6E70020C1E7000006
:10267000004870475B2500000120FFF79FBE000067
:102680002DE9F04F87B0FEF7FBFD18B1002007B031
:10269000BDE8F08F454ED6E9014704EA070006EB96
:1026A0008000A146641CC5680CE000BFC5F389101A
:1026B00000EB9550044404EA070006EB8000A146B5
:1026C000C568641CA807F1D005F003004FF0000BAB
:1026D000022805D0AA0A01A8C5F38313002153E0FC
:1026E00004EA070006EB800004F1010A0AEA070485
:1026F000C268381B80004FEA9558001DC5F3891346
:10270000804521D929490C3138B106EB840400F009
:10271000FF0CA8EB00000C3404E00C46002108F08C
:10272000FF0C0846C0B2CDE90210CDE9004CD6F846
:102730001444C5F3C2005946A047404511D108F1E1
:1027400003080AEB98042AE0002106EB84000C3011
:102750000090CDE901810391C5F3C200D6F814447D
:10276000EAE760F38F1509EA070006EB8000C56011
:1027700016E000BF04EA070C06EB8C0C491CDCF8E1
:102780000CC040F804CB641C9942F3D3C5F3C200DB
:102790000093D6F8105401AB5946A84700B17460B5
:1027A000FEF76EFD80F0010071E7000024030020B9
:1027B000034AFF23936000231360536000F08AB83C
:1027C000240300202DE9F8430F4F884604460025D6
:1027D00069462846BE68FEF723FD002812D00B4844
:1027E0000021406861F38200009964F3C50001EAAA
:1027F000060265F3891007EB820268F39F20491CEB
:10280000D0600091BDE8F8832403002080300000F0
:102810002DE9F843124D8846044601279146694642
:102820003846AE68FEF7FCFC002817D00D480021A2
:10283000806861F38200009964F3C50001EA060232
:1028400067F3891005EB820268F39F20491CD06072
:102850000091314005EB8101C1F80C90BDE8F8838F
:1028600024030020803000002DE9F84F164C8846E4
:10287000064602279A46914669463846A568FEF7FD
:10288000CFFC00281ED01148C168002060F38201EF
:10289000009866F3C50100EA050267F3891104EBAD
:1028A000820268F39F21401CD16000EA050204EB1C
:1028B0008202401CC2F80C900090284004EB80007B
:1028C000C0F80CA0BDE8F88F240300208030000081
:1028D000FFF756BD024A02F5826203C2704700004C
:1028E0002403002070B506460020FFF767FD0400B2
:1028F00008D1FFF75FFD0546FFF7BAFE32462946CD
:10290000FFF756FF204670BD024A1060101D01609F
:10291000704700002C76004010B50A784B783024C0
:1029200002F0030204EA03131A438B784FF4E064C5
:1029300004EA03231A43CB784FF4805404EA0333A8
:102940001A430B794FF4E02404EA03431A434B790A
:102950004FF4801404EA03531A438B79240104EAE8
:1029600003631A43030105481844C0F81825CA79BF
:10297000097AC0F81415C0F8102510BD0070004089
:10298000030103481844C0F81425C0F81015704717
:102990000070004002494058002800D001207047D4
:1029A00000700040034908B5084400220260006836
:1029B000009008BD007000404058002800D0012061
:1029C000704708B5002242504058009008BDD0F82A
:1029D0000403084000D0012070474058002800D070
:1029E0000120704708B5002242504058009008BDB1
:1029F00070B5034600791B4901EB40101968027F4E
:102A00004FF0FF30002AD1F80C25D1F81465D1F829
:102A10000855D1F8104504D0C1F80C05C1F81405CB
:102A200003E0C1F81405C1F80C051968C1F80805E0
:102A3000C1F81005501C02D01046FFF773FC701C43
:102A400002D03046FFF76EFC601C02D02046FFF734
:102A500069FC681C04D02846BDE87040FFF762BCE2
:102A600070BD0000D800002070B5012670044FF042
:102A7000E0210025C1F88001084C4010C4F848034B
:102A8000C4F8080366602F20FFF704F8A660044C22
:102A90002F20A560FEF7FEFFA57070BD001001405D
:102AA0002400002070B50546C87D0C4600284FF470
:102AB000847128460AD0FFF784FFD5F81805627E96
:102AC000E1688854607E401C607670BDFFF779FF36
:102AD000D5F8180570BD1FB501238DF800308DF8AD
:102AE00008100192D0E90012684690471FBD10B54A
:102AF000044600684FF49271FFF763FF4FF484714E
:102B00002068FFF75EFF20680121016010BD000012
:102B100010B504461548C07EFFF720FC012160680F
:102B2000FFF70AF96068B0F90000FDF714FC9FEDAB
:102B3000101B53EC112BFDF79CFB9FED0F1B53EC6F
:102B4000112BFDF796FB9FED0E1B53EC112BFDF7A0
:102B500090FB9FED0D1B53EC112BFDF78AFBFDF74E
:102B60000BFCBDE8104080B2FEF70CBD0402002053
:102B7000333333333333E33F0000000000408F40F2
:102B80000000000000000840000000000000503F6E
:102B90000148FFF76DBB00004C00002070B50D46EA
:102BA0000A46014601240648FDF74AFBEAB20449F9
:102BB0000448FFF7D7FA00B10024204670BD00009A
:102BC000240200204C00002010B50A4A01210A48C6
:102BD000FEF700FA08B1FEF7F1F9002240F2666153
:102BE0000648FEF733FA002803D0BDE81040FEF790
:102BF000E5B910BD9D160000503000005C000020BB
:102C00002DE9F84F1D4C00256846D4E901A6FEF7D2
:102C10005BFD002738B30023009A61681CE0D1F8FF
:102C200000C00846944503D9ACEB02020A6015E0E7
:102C3000A2EB0C0263440760D0F80CC0C169814666
:102C4000BCF1000F08D006EB030828F07F48C0E96C
:102C5000018CC9F81C5005460029E0D12846616066
:102C6000FEF7CCFD03E02846FEF7C8FD10B1504644
:102C7000FEF746FBE770BDE8F88F00002400002057
:102C80000D4B10B5596831B102680C68A24204D8E6
:102C9000A21A0A60C161586010BD0B4603E00B46E2
:102CA000C969121B21B10C689442F8D3A41A0C60B4
:102CB0000260C161D86110BD240000202DE9F041FF
:102CC000144E77683D462C4603E0844204D02546E6
:102CD000E469002CF9D11BE0D4B1A5420BD1F8690D
:102CE000706040B90C49012088600021B160F0702B
:102CF0002F20FEF7CFFE2168E069E86110B102687D
:102D0000114401607068874202D00120BDE8F08163
:102D10000020FBE724000020001001402DE9F041D5
:102D2000194D6C68002C2CD0184800270068A96841
:102D3000B846401A20F07F462068B0420CD82146A1
:102D4000361A0744E469087C20B181F8108088694C
:102D500049698847002CEFD129786878814206D1EB
:102D6000401CC0B26870022801D185F80180064875
:102D700069780C3040F82170BDE8F0411420FDF76F
:102D800000BCBDE8F08100002400002004150140D3
:102D900010B5144602004FF001000CD0084613682D
:102DA00006A24FF48071FDF773FE01462046BDE890
:102DB0001040FEF72CBA0021216010BD5B25303891
:102DC000645D000070B50C4605464FF48E71FFF748
:102DD000F8FDA18AA068415CA08A401CA082C5F8C9
:102DE0001C1570BD1FB500228DF800208DF808104D
:102DF000816801918275D0E90012684690471FBD35
:102E00000078012801D101498870704748000020EE
:102E10002DE9FF470C4605464FF40071FFF7D7FD3B
:102E200001274FF40178002618B34FF492794946F0
:102E30002846FFF7C1FDE0B149462846FFF7C1FD2E
:102E4000C5F80883A07E00B96F6002208DF80000ED
:102E5000D5F88004C5F880040390E07D8DF8080063
:102E6000E0680190E6752676D4E90012684690473E
:102E700027E004212846FFF7AAFD10B34FF4847120
:102E80002846FFF799FDE0B121462846FFF70AFEE4
:102E9000E07D617E884214D1207E38B1617EE26897
:102EA000E0752069E0602676667607E0A07E00B9CE
:102EB0006F60C5F80883E675617EE2682046FFF71B
:102EC0000AFE4FF48E7841462846FFF775FD88B11B
:102ED000A08AA17D884204D221462846FFF772FFCE
:102EE00008E041462846FFF76CFDA17D11B1204660
:102EF000FFF778FF4FF4A27841462846FFF75CFDC4
:102F0000002812D041462846FFF75BFDA07E00B1A5
:102F10002F60E07D002808D0E675617EE26804B08D
:102F20002046BDE8F047FFF7D6BDBDE8FF872DE995
:102F3000FF410C464FF4927705463946FFF74DFDA9
:102F40000026C0B139462846FFF74CFD02208DF817
:102F50000000D5F88004C5F880040390D5F83C053E
:102F60008DF80800E0680190E6752676D4E9001235
:102F70006846904724E04FF4887739462846FFF7A3
:102F80002CFDE8B139462846FFF72CFDD5F83C0565
:102F9000C1B2E07D884213D1207E60B1E268D5F8ED
:102FA000000220F02000C5F80002207EE0752069B4
:102FB000E060267601E0E675E2682046FFF78BFDCB
:102FC0004FF4A27739462846FFF707FD68B1394626
:102FD0002846FFF707FDE07D38B1E675D5F83C05DA
:102FE000E268C1B22046FFF776FD4FF49076314695
:102FF0002846FFF7F2FC00280FD031462846FFF79D
:10300000F1FCA07D002808D0D5F84C0504B0C1B271
:103010002046BDE8F041FFF7E5BEBDE8FF810000B6
:103020000A494A788B78521CD2B2934200D10022CE
:103030000B78934201D1002070470270487800EB72
:10304000400001EBC000001D70470000F8000020A8
:103050005C000020111213140D0E0F100100070068
:10306000FFFFFFFFFFFFFFFFFFFFFFFFFFFFFFFF70
:1030700000000000000000000000D6010701000071
:103080002900000001000000010000000100000014
:10309000010000000100000001000000010000002C
:1030A000020000000040404040404040404041415C
:1030B000414141404040404040404040404040400D
:1030C00040404040400502020202020202020202A7
:1030D00002020202022020202020202020202002A4
:1030E0000202020202029090909090901010101034
:1030F00010101010101010101010101010101010D0
:103100000202020202028888888888880808080863
:10311000080808080808080808080808080808082F
:103120000202020240000000A53000004150503A67
:10313000494E464F3A446F20796F752077616E741F
:1031400020746F20656E74657220636F6E666967A8
:1031500075726174696F6E206D6F646520746F2085
:10316000736574207468726573686F6C64733F284C
:10317000792F6E290D0A00004F766572666C6F77A5
:103180000D0A0000A4310000000000205C000000D7
:10319000B80A0000003200005C000020E4260000B5
:1031A000C80A0000000000005203000052030000A3
:1031B000000000000000000000000000000000000F
:1031C00000000000000000000000000000000000FF
:1031D00000000000000000000000000000000000EF
:1031E00000000000000002000001000000000000DC
:1031F0000020004000000000783100000090D00363
:0400000500000201F4
:00000001FF
