:020000040000FA
:10000000902C00204902000051020000150200005F
:1000100055020000570200005902000000000000D5
:100020000000000000000000000000005B02000073
:100030005D020000000000005F020000610200009D
:10004000AB0A000063020000F50E0000630200002E
:1000500063020000630200007108000063020000F8
:1000600063020000630200006302000063020000FC
:1000700063020000630200006302000063020000EC
:1000800063020000B90A000063020000630200007E
:10009000250C000063020000630200006302000000
:1000A00063020000630200006302000063020000BC
:1000B0006302000063020000000000000000000076
:1000C000630200006302000063020000630200009C
:1000D00063020000630200006302000000000000F1
:1000E0000000000000000000000000000000000010
:1000F0000000000000000000000000000000000000
:1001000000000000000000000000000000000000EF
:1001100000000000000000000000000000000000DF
:1001200000000000000000000000000000000000CF
:1001300000000000000000000000000000000000BF
:1001400000000000000000000000000000000000AF
:10015000000000000000000000000000000000009F
:10016000000000000000000000000000000000008F
:10017000000000000000000000000000000000007F
:10018000000000000000000000000000000000006F
:10019000000000000000000000000000000000005F
:1001A000000000000000000000000000000000004F
:1001B000000000000000000000000000000000003F
:1001C000000000000000000000000000000000002F
:1001D000000000000000000000000000000000001F
:1001E000000000000000000000000000000000000F
:1001F00000000000000000000000000000000000FF
:10020000DFF80CD000F0B2FA00480047E128000007
:10021000902C0020094B1EF0040F1CBFEFF3098047
:100220001847EFF308800649064A884201D89042F1
:1002300002D88D464FF0000018470000ED0900007D
:10024000902C0020900C002006488047064800476C
:10025000FEE7FEE7FEE7FEE7FEE7FEE7FEE7FEE776
:10026000FEE7FEE7290C0000010200002DE9F05F27
:100270000546002092469B46884606468146402415
:100280001BE0284641464746224600F0A7F8534661
:100290005A46C01A914110D311461846224600F022
:1002A0008EF82D1A67EB01084F46224601200021E7
:1002B00000F085F817EB00094E41201EA4F101045F
:1002C000DFDC484631462A464346BDE8F09F000041
:1002D000004870478044000040EA01039B0703D0B8
:1002E00009E008C9121F08C0042AFAD203E011F875
:1002F000013B00F8013B521EF9D27047D2B201E037
:1003000000F8012B491EFBD270470022F6E710B51A
:1003100013460A4604461946FFF7F0FF204610BD73
:1003200010B5044604E00B7800F8013B03B1491C0A
:10033000521EF8D2204610BD421C10F8011B0029A5
:10034000FBD1801A704710B5002200E0521C835C7C
:100350008C5CA34201D1002BF8D1D8B2E1B2401A93
:1003600010BD034611F8012B00F8012B002AF9D12A
:100370001846704730B505460020034600E05B1C78
:10038000934205D2EC5CC85C201A01D1002CF6D156
:1003900030BD30B50B46014600202022012409E083
:1003A00021FA02F59D4205D303FA02F5491B04FA2E
:1003B00002F52844151EA2F10102F1DC30BD202A0D
:1003C00004DB203A00FA02F1002070479140C2F1AC
:1003D000200320FA03F3194390407047202A04DBDE
:1003E000203A21FA02F00021704721FA02F3D040AE
:1003F000C2F1200291400843194670472DE9FE4F93
:10040000804681EA0300C00F0C46009021F00041B5
:1004100023F00045B8EB0200A94105D24046214631
:1004200090461C460B46024623F00040104347D03E
:10043000270DC7F30A00C3F30A510290401A019036
:1004400040286BDAC3F3130040F4801B00989246F7
:1004500020B10023D2EB030A63EB0B0B0198594642
:10046000C0F140025046FFF7AAFF06460D4650462F
:100470005946019A00F08CF910EB08006141002404
:1004800087EA115284EAE7731A4340D0009A62B3B4
:10049000019A012A4FEA075215DC001B61EB0201A9
:1004A0004FF0004202EA0752CDE90042001C41F53C
:1004B000801132462B4600F08CF903B0BDE8F08F76
:1004C00040462146F9E7001B61EB0201001C41F5A3
:1004D000801300185B412018A2F5001747EB0301B9
:1004E00040EAD570B6196D4111E06D084FEA360645
:1004F00045EAC0754FEA0752001B61EB0201001C80
:1005000041F5801149084FEA300000195141324647
:100510002B4603B0BDE8F04F00F04CB90098012223
:1005200040000023D0EB020263EBE0730098214609
:100530004FEAE074B8EB000061EB0401E9E783F0F7
:1005400000435BE781F0004158E72DE9FE4F81EA67
:10055000030404F0004421F0004100944FF0000B2C
:1005600023F0004350EA01045ED052EA03045BD05A
:10057000C3F30A54C1F30A552C44A4F2F334019492
:10058000A0FB0254C1F3130141F48011C3F3130320
:1005900043F4801301FB024400FB034E840A970AD4
:1005A00044EA815447EA8357A4FB076802958D0A01
:1005B00005FB07854FEA932C04FB0C542705029D8D
:1005C0004FEA065847EA1637B5EB08056EEB070CFD
:1005D000870E920E47EA811742EA8312A7FB0201B7
:1005E000B6EB0B0164EB00042B0D43EA0C335E18F1
:1005F00044EB1C50DA465146E7FB0201C5F31304F5
:100600004FEA0B3343EA14534FEA0432019C43EAA6
:100610000603A4F10C040294009CCDE900B400F0A0
:10062000D8F803B0BDE8F08F00200146F9E72DE9C6
:10063000F04D81EA030404F0004B21F0004514461C
:100640004FF0000A23F0004150EA050220D054EA9E
:1006500001021DD0C5F30A570246C5F31303C1F3C7
:100660001300C1F30A5640F4801543F48013A7EB3E
:100670000608101BD64608F2FD3873EB050002D3BE
:1006800008F1010801E092185B41B8F1000F03DAAC
:1006900000200146BDE8F08D00204FF48011064691
:1006A00084460EE0171B73EB050705D3121B63EBA3
:1006B000050306434CEA010C49084FEA3000921842
:1006C0005B4150EA0107EDD152EA030012D082EA01
:1006D000040083EA0501084305D0101BAB4106D294
:1006E0000122002306E000224FF0004302E06FF0F9
:1006F000010253101AEB06004CEB085110EB0A00F4
:1007000041EB0B01BDE8F04D00F054B8C1F30A52C3
:10071000C1F3130140F2FF3341F480119A4202DA2F
:1007200000200146704740F233439A42A2F233421E
:1007300002DC5242FFF752BEFFF741BE30B5041E45
:1007400071F1000404DB4FF00044404264EB01010E
:10075000141E73F1000405DB1C464FF000435242A7
:1007600063EB0403994208BF904230BD064C074D2D
:1007700006E0E06840F0010394E807009847103471
:10078000AC42F6D3FFF740FD8C450000AC450000BD
:10079000202A06DBCB17203A41FA02F043EAE07345
:1007A00006E041FA02F3D040C2F120029140084332
:1007B0001946704710B5141E73F1000408DA401C86
:1007C00041F1000192185B411A4301D120F0010070
:1007D00010BD2DE9F04D92469B4611B1B1FA81F260
:1007E00002E0B0FA80F220329046FFF7E8FD0446BE
:1007F0000F4640EA0A0041EA0B0153465A460843B5
:1008000013D0114653EA010019D0C8F140025046F6
:10081000FFF7E4FD05460E46504659464246FFF7AF
:10082000CEFD084305D0012004E020463946BDE84E
:10083000F08D0020054346EAE0762C4337430A98C2
:100840006305E40AA0EB08000022FD0A44EA4754CD
:100850000A3002D500200146E9E701051019694177
:10086000DDE9084500196941BDE8F04DA2E7000047
:100870002DE9F04700268CB0DFF86891B0464FF4C0
:100880008075012437460696284603F061F838B192
:10089000D9F80403204203D0284603F04FF826433A
:1008A0002D1D64007F1CADB2082FEDD34FF4BE7434
:1008B000204603F04DF848B1204603F03FF846F0DB
:1008C000004606AA0121002003F000F8464D16F06C
:1008D000FF0F15D00127002437420DD009EB84010A
:1008E000D1F81005D1F81015C0F3042055F82420D4
:1008F000C1F3014102B190477F00641C082CEBD387
:10090000002E6BDA4FF0FF30CDE908800026344628
:10091000281910F8507F90F9000027F0C008401CFB
:1009200048D009A9404602F02BF878B34FEA97194E
:10093000404601F0A9FA55F820701FB1B9F1030F34
:1009400003D00FE0B9F1030F34D108A84FEAD80162
:1009500008F00702435C4FF0010C0CFA02FC43EA7A
:100960000C03435404A8CDF8108002F041FF049911
:1009700000EB8100D0F8000706A9C0F3014A404609
:1009800001F0FEFF18B1BAF1020F03D012E0BAF184
:10099000030F0FD1B9F1030F08D1BAF1020F1BD029
:1009A0000221404602F0E4FE761CF6B217B1494639
:1009B0004046B847641C042CAAD3002E0ED06A46C9
:1009C0000121002002F082FF06990098884205D09C
:1009D00006900898099099E70321E2E70CB0BDE87A
:1009E000F08700000060004068050020044682692E
:1009F00009A1012003F0AEF802F0EAFF02F0ECFFDB
:100A00000028FBD10D4804600D480068C00700D0E5
:100A100000BE204600F016F8484152444641554C6D
:100A2000543A4552524F523A486172646661756C4D
:100A3000742050433A25780D0A000000340000204D
:100A4000F0ED00E0BFF34F8F05480168054A01F45F
:100A5000E06111430160BFF34F8F00BFFDE700006D
:100A60000CED00E00400FA0500F01F0201219140A6
:100A70004009800000F1E020C0F88012704700F0CB
:100A80001F02012191404009800000F1E020C0F8E0
:100A90000011704700F01F020121914040098000C1
:100AA00000F1E020C0F80012704710B502F068FABB
:100AB000BDE8104002F0F2BA07480021C0F840112A
:100AC000C0F84411C0F84811C0F84C11C0F800112A
:100AD000C0F8041103F0BCB90010014003480078CD
:100AE000002801D100F014BA70470000140C002057
:100AF000F8B50646002014460D46009001F060F857
:100B000022462946304600F007F80446002001F04E
:100B100085F82046F8BD00002DE9F0471C4D07463A
:100B2000164628780C4608B900F0F2F907EB4700A2
:100B300005EBC007A046BD6DD7F854900024483798
:100B40004D4511D9B868441BB44200D33446786887
:100B5000224641194046FFF7BFFBB868361B2544C3
:100B6000A044A84200D10025A9EB0500B04200D264
:100B700006463EB17868324641194046FFF7ACFB65
:100B80003444354404B13D612046BDE8F08700009F
:100B9000140C0020F8B50B4B0646144618780D4689
:100BA00008B900F0B5F90020009001F009F82246DC
:100BB0002946304600F008F80446002001F02EF8DF
:100BC0002046F8BD140C002070B50E46144900EB09
:100BD000400001EBC0051446E86A183520B1012831
:100BE0000FD0022805D113E0284600F0C5F9A04235
:100BF00001D2002411E022463146284600F0F4F9E3
:100C00000BE0284600F0B8F9A042F4D20446F2E71F
:100C10003146284600F0BBF90446204670BD00006E
:100C2000140C002003F086B8F0B5A3480023021D81
:100C300001780125101D4FF0805406290BD116783C
:100C4000360708D10678C6F30316032E06D0042E05
:100C500004D0052E02D0062907D00EE0B4F8246394
:100C6000964FC6F304263E6002E01678360704D19C
:100C70000678C6F30316032E02D0062904D00FE02F
:100C8000904F8F4E7E670EE01678360708D10678B3
:100C9000C6F30316032E06D0042E04D0052E02D070
:100CA000062907D00EE0D4F84462874FC6F34236D7
:100CB0003E6002E01678360704D10678C6F30316C4
:100CC000032E02D0062906D011E0804E376827F0A7
:100CD000807737600EE01678360708D10678C6F3BD
:100CE0000316032E06D0042E04D0052E02D00629AA
:100CF0000AD011E04FF08046C6F80C31C6F810312A
:100D0000714E361F336002E01678360704D106783C
:100D1000C6F30316032E02D0062905D00CE06A4F55
:100D2000032664373E600AE01678360704D1067859
:100D3000C6F30316032E02D006290DD014E0644F2B
:100D400005263E60624E78363560614E0836336067
:100D50003F263F1D3E6002E01678360704D1067834
:100D6000C6F30316052E02D0062957D068E059496C
:100D70000968594A11605749091D0968121D116017
:100D8000544908310968121D116052490C31096833
:100D9000121D11604F4910310968121D11604D4933
:100DA00014310968121D11604A49183109684A4A0C
:100DB0002032116047491C310968121D11604549F4
:100DC00020310968121D1160424924310968121D41
:100DD0001160404928310968121D11603D492C31CC
:100DE0000968121D11603B49303109683A4A4032A6
:100DF0001160384934310968121D116035493831A4
:100E00000968121D116033493C310968121D1160D7
:100E1000304940310968121D116002E0117809075C
:100E20000ED10078C0F30310032803D0042801D0AA
:100E3000052805D1D4F85802284900F04F00086071
:100E400022487438016841F470010160BFF34F8F8C
:100E5000BFF36F8F4FF01021D1F80002002803DBA1
:100E6000D1F80402002822DA1D4A15601D480468E2
:100E7000002CFCD01524C1F800420568002DFCD0E0
:100E8000C1F8044201680029FCD013600168002900
:100E9000FCD0BFF34F8F0D48F0380168124A01F4BF
:100EA000E06111430160BFF34F8F00BFFDE71049C0
:100EB0000E480860F0BD0000E00F00F04035014032
:100EC0000DF0ADBA00C007403C050040FCED00E06D
:100ED000105600400404001020C50040E40E0040FD
:100EE00004E5014000E401400400FA050090D0034D
:100EF000480000200448017F04480029024901D02D
:100F000003F015B903F084B8C005002000200040AC
:100F100010B5124C02202061606111A0A061A4F103
:100F20005000E061402020620020A06260620CA1BD
:100F3000A164E062A4F11001E16410212165A065C3
:100F40006065E06509A1E01DFFF70BFA08A12046E6
:100F5000FFF707FA2020A07110BD0000140C00203C
:100F60005465726D696E616C00000000525454004B
:100F700053454747455200000269C1688A4203D879
:100F80008068401A104400E0501A401E70472DE956
:100F9000F047C4681746894606464FF00008306996
:100FA000A04201D9051B02E0B168201A0D1AB068F1
:100FB0006D1E001BA84200D80546BD4200D33D4629
:100FC00070682A4620444946FFF786F9B0687F1BBF
:100FD0002C44A844A944A04200D10024F460002F6E
:100FE000DDD14046BDE8F0872DE9F041C6680446F2
:100FF000174688468068851B6068BD4206D9304424
:10100000FFF76AF9F019E060BDE8F0812A46304444
:10101000FFF762F97E1B08EB050132466068FFF7B7
:101020005BF9E660F0E700000FB4084B10B504A9C7
:1010300002AA039800F0E0F8044602A9002000F09C
:101040007DFC204610BC5DF814FB00003D1900003B
:101050007CB5491E1C461546CDE90001044B6A4685
:101060002146284600F0C8F8009A002111707CBD86
:101070002719000002E008C8121F08C1002AFAD18F
:1010800070477047002001E001C1121F002AFBD108
:10109000704700002DE9FF5FDDE90220010DDDF85A
:1010A00038B0024318D044F61050A1F2FF3141434A
:1010B0000D140F98012820D0A5EB0B00401C5FEA0F
:1010C000000A4FF00004474EDFF81C91A04650463E
:1010D00016D5CAF1000728E00F98012443A2012881
:1010E00008D0002100980F9BC0E90021C0E902430D
:1010F000BDE8FF9F6FEA0B01F4E7CBF10000DEE7EC
:10110000074612E0F80707D02246334640464946D4
:10111000FFF71BFA80468946224633461046194699
:10112000FFF713FA04460E467F10002FEAD1DDE9DF
:101130000201BAF1000F42464B4602DAFFF705FA08
:1011400001E0FFF774FA04460E460022284BFFF731
:10115000F5FA03D84FF0FF30014607E00022254B97
:1011600020463146FFF74AF9FFF7D0FA102409E08C
:10117000002C0ADB0A220023FFF778F8019B3032AB
:101180001A55641E50EA0102F2D1641C019AC4F19E
:10119000110314440F9A012A03D0012208430DD1F0
:1011A0000AE0084304D000204FF0110B0F9080E7B5
:1011B000A3EB0B056D1E0DE05B4504DD4FF0000257
:1011C00005F1010504E003DA4FF00002A5F1010585
:1011D000002AECD000980F99C0E90231C0E900451F
:1011E00086E70000000024400000F03F30000000CF
:1011F0000000F0430000E03F2DE9FF4F95B09B4613
:101200008946064600250FE2252877D10024274687
:10121000F84A0121059400E0044316F8013F203B01
:1012200001FA03F01042F7D130782A2811D06FF07C
:101230002F033078A0F13002092A16D8059A44F01D
:10124000020402EB820203EB42021044761C05907A
:10125000EFE759F8042B0592002A03DA504244F4D0
:101260000054059044F00204761C30782E2816D1E4
:1012700016F8010F44F004042A280DD06FF02F0255
:101280003078A0F13003092B09D807EB870302EB74
:101290004303C718761CF3E759F8047B761C3078B3
:1012A0006C280FD006DC4C2817D068280DD06A288F
:1012B00014D104E0742810D07A280FD10DE044F442
:1012C00000140AE044F4801401E044F440147278FD
:1012D000824202D104F58014761C761C3078662890
:1012E0000BD013DC582877D009DC002875D04528AE
:1012F000F6D04628F4D047281AD19DE118E063289B
:1013000035D0642879D0652812D195E1702873D042
:1013100008DC6728F1D069286FD06E280DD06F28BF
:1013200006D1B5E073282CD0752875D0782874D0F4
:101330005A46179990476D1C75E1C4F30250022874
:1013400009D003280DD0D9F8001004280DD00D6065
:1013500009F1040967E1D9F80010EA17C1E9005260
:10136000F6E7D9F800100D80F2E70D70F0E719F8F4
:10137000041B8DF8001000208DF80100EA460120C2
:1013800003E059F804AB4FF0FF3061074FF0000164
:1013900002D40DE008F101018846B9420FDA804518
:1013A000F8DB1AF808100029F4D108E008F101016F
:1013B00088468142FADB1AF808100029F6D1059810
:1013C0005B46A0EB080721463846179A00F094FACE
:1013D000284400EB080507E04DE029E10DE01AF88C
:1013E000010B5A4617999047B8F10108F7D25B46AE
:1013F00021463846179A13E142E00A220092C4F3CC
:1014000002524FF0000A022A08D059F804CB032AEE
:101410004FEAEC710AD00DE029E02AE009F107015A
:1014200021F00702F2E802C1914609E00FFA8CFCB4
:101430004FEAEC71042A03D14FFA8CFC4FEAEC71AD
:10144000002907DA0A460021DCF1000C61EB0201F9
:101450002D2202E0220504D52B228DF80420012242
:1014600003E0E20701D02022F7E7904659E00A2185
:1014700002E010220DE010214FF0000A00910BE075
:1014800010224FF0000A44F004040827009203E001
:1014900008224FF0000A0092C4F30252022A05D03B
:1014A00059F804CB0021032A08D009E009F107010B
:1014B00021F00702F2E802C1914605E01FFA8CFC18
:1014C000042A01D10CF0FF0C4FF00008220728D5A8
:1014D000702806D0009B83F0100353EA0A0305D05E
:1014E0000EE040228DF80420012208E05CEA0102AF
:1014F00006D030228DF804208DF805000222904697
:10150000009B83F0080353EA0A030AD15CEA010254
:1015100001D1620705D530228DF804204FF0010873
:101520007F1E582804D034A003900EA802900DE02E
:1015300036A0F9E753466046009AFEF797FE8446C8
:101540000398825C0298401E029002705CEA0100DF
:10155000F0D1029806A9081A00F1200A600702D506
:1015600024F4803400E00127574502DDA7EB0A0090
:1015700000E0002000EB0A01009005984144401A69
:101580000590E00306D45B462146179A059800F0C3
:10159000B3F90544002706E001A85A46C05D179933
:1015A00090476D1C7F1C4745F6DBE0030CD55B467E
:1015B0002146179A059800F09FF9054404E0302071
:1015C0005A46179990476D1C0099481E00900029B3
:1015D000F5DC08E0029802995A460078491C02910D
:1015E000179990476D1CBAF10001AAF1010AF1DCCC
:1015F00065E10000092801003031323334353637D7
:10160000383961626364656600000000303132334E
:1016100034353637383941424344454600000000EE
:1016200000F058F90544761C307800287FF4ECADC2
:1016300019B02846BDE8F08F620700D4062709F1EB
:10164000070222F0070CFCE80223E14603F0004801
:101650005FEA080C02D00FF2702C0DE05FEA045C28
:1016600002D50FF2682C07E05FEAC47C02D00FF2CB
:10167000602C01E0AFF2700C4FF0FF3823F0004314
:10168000CDF850C065280CD006DC452809D0462886
:101690001DD047283DD13DE0662818D067287ED16F
:1016A00038E00021112F01DB112000E0781CCDE98A
:1016B000000106A90EA8FFF7EDFCDDE90F010E9A67
:1016C00003910021009207F1010A04914DE04FF0CF
:1016D00000400097CDE9011006A90EA8FFF7DAFC3B
:1016E000DDE90F0203920E9B11990022DDF80CA098
:1016F0000093049211B9791C00EB010AB7EB0A00C0
:1017000004D4C0F1FF3007F1010A0490AAEB0700EE
:10171000019044E0012F00DA01270021112F01DDA3
:10172000112000E03846CDE9000106A90EA8FFF718
:10173000B1FCDDE90F010E9A0391002104910092A2
:10174000BA4621070CD40399514500DA8A46BAF10A
:10175000010F05DD009AAAF10101515C302908D082
:10176000B84202DA10F1040F06DA0121CDE90110C6
:1017700015E0AAF10101E9E7002805DC049901441C
:101780000491AAEB000102E0411C514500DD8A46AC
:101790000499401A401C01904FF00040029020072D
:1017A00004D40198504501DBCDF8048000208DF869
:1017B0004F0002980DF14F07B0F1004F25D02B20BC
:1017C0000E9002984FF0020800280CDA4042029076
:1017D0002D200E9007E00A210298FEF7DAFD303145
:1017E000029007F8011DB8F10001A8F10108F2DC30
:1017F00002980028EFD1791E0E980870307800F01A
:10180000200040F0450007F8020D12A8C01B00F1AF
:1018100007081498007800B1012000EB0A01019834
:1018200001EBE07105984144401A401E0590E00329
:1018300006D45B462146179A059800F05DF80544EA
:101840001498007818B15A46179990476D1CE00318
:1018500024D55B462146179A059800F04DF80544BB
:101860001CE00498002807DBDDE90301884203DD62
:101870000098405C179901E0179930205A4690472C
:10188000049805F10105401C04900198401E019048
:1018900004D12E205A46179990476D1CBAF10001C9
:1018A000AAF1010ADDDC05E017F8010B5A46179989
:1018B00090476D1CB8F10001A8F10108F4DC5B460B
:1018C0002146179A0598ABE62D0000002B0000007A
:1018D000200000002DE9F041044600251E46174671
:1018E000880404D405E039462020B0476D1C641EEE
:1018F000F9D52846BDE8F0812DE9F04104460025E0
:101900001E469046C80301D5302700E020278804F2
:1019100004D505E041463846B0476D1C641EF9D534
:101920002846BDE8F0814A68002A06D00A68531CA0
:101930000B6010704868401E486070470A68531C6E
:101940000B6010707047000070B50D4606461446D7
:1019500008A1012002F0D8F802F03AF802F03CF8B1
:101960000028FBD1224629463046BDE8704000F0F1
:1019700015B800003A4552524F523A466174616CB4
:101980000D0A00000EB5ADF80010CDE901206A4641
:10199000002144F20100FFF7D7FF0EBD08B5012377
:1019A0008DF800309DF80030144B186059609A6033
:1019B0006FF48041401807D001280FD1DA60D86851
:1019C00000889861D86807E01A61186980685861D2
:1019D00018690088986118694068D8611868586863
:1019E0009868D868186958699869D86972B600BF4C
:1019F0009DF800000028FBD162B608BDE00500207C
:101A000010B58268C368934203D000F09DFE0020A9
:101A100010BD052010BD29B112B1531E134203D0D1
:101A2000092070470E20704701608380002181608B
:101A3000C1600846704710B58268C3689A1A8388E7
:101A40009A4203D800F08AFE002010BD042010BD89
:101A500070B5040003D10DA1A32000F073F91A4E54
:101A600021461A48B578FFF7CBFF04465DB1002048
:101A7000B070711C0122C81D01F0C8FB18B103A28F
:101A8000AF21FFF77FFF204670BD00002E2E5C2E99
:101A90002E5C2E2E5C2E2E5C2E2E5C2E2E5C636F0A
:101AA0006D706F6E656E74735C6C69627261726981
:101AB00065735C756172745C6170705F756172747E
:101AC0005F6669666F2E6300200000200C0700200F
:101AD000F0B5284E89B01F460D00044672603BD019
:101AE000A888296882B22448FFF795FF002834D1DE
:101AF000A889A96882B220481030FFF78CFF00281F
:101B00002BD120221D496846FEF7E6FB606906904E
:101B1000207C00B101208DF814008DF81C70607CD1
:101B200000B10E208DF81500E0680290A0680390C7
:101B300020680190606800900E48114A694608309C
:101B400001F00AFB002808D1B0702068401C04D0C6
:101B50009DF81D0018B106E0072009B0F0BD05484A
:101B6000083001F0DBFB03490122491CC81D01F0CC
:101B70004DFBF2E7200000200C070020444300004A
:101B8000613F000010B501460B48FFF754FF040009
:101B900010D10A4801F068FD60B9084906480839C3
:101BA000FFF72EFF30B9054901220839034801F03B
:101BB0009FFC0446204610BD1C0700202800002082
:101BC00010B502F055F8012803D004A11D2000F043
:101BD000B9F8BDE8104000F04FB800002E2E5C2E82
:101BE0002E5C2E2E5C2E2E5C2E2E5C2E2E5C636FB9
:101BF0006D706F6E656E74735C6C69627261726930
:101C000065735C7574696C5C6170705F7574696C28
:101C10005F706C6174666F726D2E630010B502F0B8
:101C200027F8012803D004A12B2000F08BF8BDE891
:101C3000104000F029B800002E2E5C2E2E5C2E2EB7
:101C40005C2E2E5C2E2E5C2E2E5C636F6D706F6E84
:101C5000656E74735C6C69627261726965735C75E0
:101C600074696C5C6170705F7574696C5F706C61D5
:101C700074666F726D2E630072B602480168491C6B
:101C8000016070473000002003490868401E08606A
:101C900000D162B6704700003000002070B50546E4
:101CA00008680C46411C04D001F0F2FD206801F0E8
:101CB00055FD6068411C02D0002101F046FD2879E5
:101CC0001F4901EB40102968007F0028A069C1F876
:101CD000240523D0607D227D29681043C1F86C055E
:101CE000D4E900122868C0F80C15C0F8142522E0C9
:101CF000A068411C02D0002101F027FDE068411CD2
:101D000004D001F0C5FDE06801F028FDD4E902121D
:101D10002868C0F80825C0F8101570BD607D217DC9
:101D20002A680843C2F86C05D4E900122868C0F894
:101D30001425C0F80C15207D0128D9D070BD0000F5
:101D4000C00500201CB56A46ADF8000001910021D5
:101D500044F20200FFF7F8FD1CBD00007CB5002432
:101D6000064E25460022305D03230095114601955D
:101D700001F0B0FC641C042CF4D37CBD384300009B
:101D800010B50446042803D305A11E20FFF7DAFF8F
:101D90000F480121005DBDE8104001F083BD000047
:101DA0002E2E5C2E2E5C2E2E5C2E2E5C2E2E5C2E6D
:101DB0002E5C636F6D706F6E656E74735C626F61C5
:101DC0007264735C626F617264732E630000000062
:101DD000344300007CB50024084E25460122305DC6
:101DE000009500231146019501F074FC641C042C3D
:101DF000F4D3BDE87C4000F003B800003443000099
:101E000010B500242046FFF7BBFF641C042CF9D357
:101E100010BD000070B5461C0D4601240020FFF7E0
:101E2000CFFE114A10682860D2E900109568081AA0
:101E30002B1A701C5B1C98420FD963B10B480C4BDA
:101E4000294000681B6802EB810163F39F20C86092
:101E50001068401C1060002401E088191060002008
:101E6000FFF7DCFE204670BDAC070020D843000021
:101E700044000020034803C8814201D1012070477B
:101E800000207047AC0700200249084490F9300058
:101E900070470000680500202DE9F0410446006904
:101EA000406C18B100263746354629E0002511E080
:101EB000680704D146A20321204600F02DFEA06849
:101EC00005EB450143A250F821300321204600F0E4
:101ED00023FE6D1CE068A842EAD840A202212368D4
:101EE0003EE000BFA06805EB450150F821002169E4
:101EF0004A6C4831FEF73EFA08B92F46761C6D1C35
:101F0000E068A842EED8002E5FD00025012E02D056
:101F100000273E4642E02069A16807EB4707466C70
:101F200051F82710304431444830FEF71AFAA068BF
:101F300050F82700FEF700FA216948364864226904
:101F40002021104427A280F848102169486C401CC9
:101F500048642169084480F84850206983190721A2
:101F600020462EE0A16806EB460851F828002169BA
:101F70004A6C4831FEF7FEF978B9780704D114A20B
:101F80000321204600F0C8FDA16812A2204651F8A6
:101F90002830032100F0C0FD7F1C761CE068B042B1
:101FA000E0D80EA202212046236800F0B5FD20698A
:101FB0000CA2416C0844072180F848502369204650
:101FC0004833BDE8F04100F0A7BDBDE8F081000056
:101FD0000D0A000020202573000000000D0A257363
:101FE00000000000257300002DE9F8430369044652
:101FF0004FF00009D3E93F2041B1824203D193F869
:10200000F81000297DD190B3451E31E082427BD08B
:1020100000F084F805462069D0F8FC10A94227D1C9
:1020200090F8F81021B34830FEF786F9064620698B
:10203000202231464830FEF761F9206948364F4684
:1020400000F80690206931A2483000900221204615
:10205000236800F061FD2069022180F8F870206992
:10206000C0F800512046BDE8F84300F0C3B807258A
:102070002169012005EB450281F8F8004FF48270D8
:10208000216900EB021801EB0800FEF755F9070083
:102090003AD020694830FEF74FF90646B84216D9C3
:1020A0001CA202212046236800F036FD2069202270
:1020B00031464830FEF722F92169483616A201F868
:1020C0000690236907212046483300F025FD20694A
:1020D000C0F8005120694764206900EB08014830CE
:1020E000FEF73FF90BA202212046236800F014FD01
:1020F000236901B02046BDE8F043072106A248331A
:1021000000E001E000F008BDBDE8F8830D2573256F
:10211000730D00000D25730025730000072801D200
:10212000401C70470020704713B50023012201A90D
:1021300000F048FA1CBD00002DE9F0411E4617468C
:102140000D46040000D01DB909A12020FFF7FAFDBB
:102150006068C06818B906A12120FFF7F3FD606828
:1021600032463946C3682846BDE8F04118470000AA
:102170002E2E5C2E2E5C2E2E5C2E2E5C2E2E5C2E99
:102180002E5C636F6D706F6E656E74735C6C6962EC
:102190007261726965735C636C695C6E72665F63C1
:1021A0006C692E630000000010B5FEF797FC00205C
:1021B00010BD10B514460A4601460020FEF798FCF3
:1021C00004B12060002010BD002070472DE9F041CF
:1021D00016460C4607460025224639460020FEF7E3
:1021E000D9FC0544241AF7D106B135600020BDE8BA
:1021F000F0810000026902291170026906D10021F4
:10220000516403A20221036800F086BC70470000FD
:10221000257300002DE9FC410026044601968DF847
:102220000060012701AB012269462046FFF784FFC9
:102230000198002815D02069817B21B186739DF813
:1022400000005B280FD02569E87B88B1EE739DF80C
:10225000000041280AD0422803D100212046FFF780
:10226000C3FEBDE8FC812069C773FAE70121F5E7E9
:102270009DF8000080460A28D4D006DC0028D1D082
:1022800008283CD0092806D11FE00D2821D01B28A2
:1022900019D07F2833D0FEF71BF8016811F8080029
:1022A00010F03E0FBED0696C294481F84880216946
:1022B000486C401C4864302835D09DF800102046FA
:1022C000FFF732FFAEE7AF73ACE72046FFF7E4FD60
:1022D000A8E7686C58B1284480F848602069416CD0
:1022E000491C416403212046FFF784FF9AE714A2AA
:1022F00002212046236800F00FFC0221F3E7686CFE
:1023000000288FD008212046FFF70EFF202120460D
:10231000FFF70AFF08212046FFF706FF2069416CFE
:10232000491E41647EE7206906A2012146642046D9
:1023300000F0F2FB02212046FFF75CFF91E700006E
:102340000D0A00000D0A20696E70757420627566B2
:10235000666572206F766572666C6F77204E5246A6
:102360005F434C495F434D445F425546465F534986
:102370005A4500002DE9F04104460069002600F1AD
:102380004805416C80F8F860471821694FF4827263
:102390004837D1F8FC0000EB400002EB0010084485
:1023A0004A6C4831FDF7BCFF2069D0F8FC20416C35
:1023B00002EB420200EB021001F5827146542069E3
:1023C000D0F8FC00FFF7AAFE2169C1F8FC002169E2
:1023D000C1F80001206930211430FDF796FF216912
:1023E0000120086120694561002014221DE0297840
:1023F00020290DD009290BD0B0B1A9B123691969E1
:102400000C2909D328A20121204600F085FB45E0D4
:1024100005F8016B012008E002EB810100205D500E
:1024200021690B695B1C0B616D1CBD42DFD300256C
:102430000BE000BFA06805EB450150F821102069B2
:102440004069FDF780FF50B16D1CE068A842F1D8EB
:1024500021A327A20121204600F05EFB1EE005EB30
:1024600045050821A06801EB8501405820B921A14C
:1024700040F21720FFF766FCA068216900EB850099
:102480002AA248600721204600F046FB206900F19F
:102490001402016940688368204698472046BDE8D9
:1024A000F0410221FFF7A6BE0D0A20746F6F206D68
:1024B000616E7920706172616D6574657273203E22
:1024C0003D204E52465F434C495F415247435F4D6A
:1024D00041580D0A000000000D0A636F6D6D616EBA
:1024E00064206E6F7420666F756E640D0A000000C4
:1024F000257300002E2E5C2E2E5C2E2E5C2E2E5C64
:102500002E2E5C2E2E5C636F6D706F6E656E747315
:102510005C6C69627261726965735C636C695C6E44
:1025200072665F636C692E63000000000D0A000094
:1025300000B58BB018220A496846FDF7CDFE094860
:102540000849069040204031CDE907010990072352
:10255000054A06A96846FFF7BBFA0BB000BD0000AC
:10256000A04300002C070020013F00002DE9F041AE
:1025700016460F460546002403E0641C6D1CBC4251
:1025800004D02846FFF764FA0028F6D006B134607C
:102590000020BDE8F081002070472DE9F04116468B
:1025A0000F46002504462078FFF7ECFA0028FAD100
:1025B000641C6D1CBD42F6D306B135600020BDE839
:1025C000F08100002DE9F0411E4617460D4604003B
:1025D00000D01DB909A11520FFF7B4FB6068806821
:1025E00018B906A11620FFF7ADFB606832463946E0
:1025F00083682846BDE8F041184700002E2E5C2E67
:102600002E5C2E2E5C2E2E5C2E2E5C2E2E5C636F8E
:102610006D706F6E656E74735C6C69627261726905
:1026200065735C636C695C6E72665F636C692E6374
:102630000000000070B5084C050009D01034216876
:10264000002907D008682060496828468847F6E7CF
:102650000834F4E770BD0000540500202DE9F05F58
:1026600026484168F1B3DFF898B00E688146DBF880
:10267000004087688078E11B21F07F45ED1CB0B9F0
:10268000DFF880804FF48030C8F84403C8F80403B2
:102690001120FEF7E9F91120FEF7F1F94FF0010AD8
:1026A000C8F800A02F2000F003FC89F802A0B54272
:1026B00000D23546124BE8193C3320F07F401860B9
:1026C000DBF800105A46091B21F07F41001B20F067
:1026D0007F40C91C81420FD9106818602F2000F07C
:1026E000E7FB00E004E0BDE8F05F1120FEF7D2B99F
:1026F000BDE8F05F01F0CABABDE8F09F0C00002011
:1027000004150140001001400E4910B50A784C78BC
:102710000023A24212D0521CD2B20A70022A00D167
:102720000B70084A0B780C3252F82320026088683C
:10273000104420F07F408860012010BD036000201D
:1027400010BD00000C000020826883881A400368D6
:102750009A5C0A708168491C81607047C2688388EE
:102760001A4003689954C168491CC1607047000051
:1027700070B50E460446007918494FF4A27501EB76
:102780004010017F2068A1B14FF4887101F02EFA4A
:102790004FF49071206801F029FA4FF4927120688B
:1027A00001F024FA2946206801F020FA0C4920683B
:1027B00009E04FF48E7101F008FA2946206801F013
:1027C00004FA08492068C0F80413206800F038FCB7
:1027D0003146BDE8704000F00BBC0000C005002091
:1027E00010030200800002002DE9F047394E002757
:1027F00080463D46DFF8E090D6F804A057E003D0CD
:102800000446D0F81C8035E099F8002002EB420124
:10281000521CD2B289F8002009EBC10199F80230AC
:10282000091D9A4201D189F8005048680A78044687
:10283000012A12D0022A02D0032A3BD108E001F07B
:10284000D7FA00B10127257434E00574C06900E0AF
:1028500070680028F9D170602CE0207C50BB88683B
:102860006060C868A0600869E0604869A061F078AD
:1028700000B165606268B168184B501A20F07F4063
:10288000984202D2A168084406E0881AA16820F0A4
:102890007F40814202D9081A206000E0256065600F
:1028A0000120A56020742046E56101F083FAB8F1AB
:1028B0000000A4D199F8001099F801008142A3D139
:1028C00017B97168514502D00120BDE8F08700209A
:1028D000FBE700000C00002000060020FFFF7F0047
:1028E00000F02CFB18B11DA2AA21FFF74BF8002025
:1028F00000F0B2FB18B119A2AC21FFF743F8FFF7C3
:1029000069FAFFF72BFA194800F0EEF918B113A293
:10291000B621FFF737F81548143000F0E5F918B183
:102920000EA2B821FFF72EF8104800F0A5FA18B152
:102930000FA2A021FFF726F80C48143000F09CFAF3
:1029400018B10BA2A221FFF71DF8084800F05AFAAF
:102950000648143000F056FAF7E700002E2E5C2EE1
:102960002E5C2E2E5C6D61696E2E63000C430000A0
:102970002E2E5C2E2E5C2E2E5C6D61696E2E6300F9
:10298000C20800F007030120895C984008407047A6
:1029900010B500220446114601F076FC2046BDE841
:1029A000104001F08DBC00002DE9F843804600691D
:1029B00000263446D0F8FC504FF4827905EB4502EE
:1029C000D8F8101009EB02100F182846FFF7A6FBE5
:1029D00005463846FDF7B0FC38B13346761C05A2F3
:1029E00007214046009700F097F8641C082CE5D3B7
:1029F000BDE8F8835B2533645D2025730D0A000074
:102A0000F0B587B0054614460F4601A80090002691
:102A10001F4B0222211D781E00F02EF901A800F0A4
:102A2000A1F8002802DA002404272DE03F280CD06A
:102A3000682803D07628F1D10126EFE70222144955
:102A4000284600F09FF907B0F0BD12A203212846E6
:102A5000049B00F061F8E1E7A86804EB44015EB173
:102A600007EB81028258009250F8213010A2072112
:102A7000284600F051F806E050F821300FA2072157
:102A8000284600F049F8641CE868A042E4D8DAE778
:102A9000684300006C6973743A20756E6B6E6F77D3
:102AA0006E206F7074696F6E3A2025730D0A0000F6
:102AB00020202573202D2025730D0A00202025734A
:102AC0000D0A0000022903D004A2012100F024B85D
:102AD000536809A2072100F01FB800007072696EE8
:102AE000743A2062616420706172616D20636F7559
:102AF0006E740D0A0000000025730D0A000000002E
:102B000001A2012100F008B84E696365206A6F6B6D
:102B1000653B290D0A0000000FB470B5044600693A
:102B20000E4607AB858980217830069AFEF790FA29
:102B30003146204601F08EFB20697830FDF7FCFB22
:102B400021690246002320467831FFF73BFDE9B2B8
:102B5000204601F07FFB290A204601F061FB70BC92
:102B60005DF814FB2DE9F041040004D134A140F2DA
:102B70006920FFF7E7F82168A068884203D14FF089
:102B8000FF30BDE8F0810021E160616851F820501C
:102B9000401CA06025B92AA14FF41E70FFF7D2F89F
:102BA00028782D2849D1697859B3A87810B12D29F2
:102BB00016D042E00020042362690EE000EB4007DB
:102BC000266903EB8707F65D8E4205D1216900EB8C
:102BD000400001EB80001AE0401C8242EED82CE05D
:102BE00078B1AF1C002609E0206906EB460150F8D9
:102BF00021103846FDF7A7FB20B1761C6069B04272
:102C0000F2D81AE0206906EB460100EB8100A0B182
:102C1000437953B1D4E90121266852F82120B14209
:102C200005D016782D2E02D003E00079A9E7012BFC
:102C300003D0491CC4E90212F7E73F20E560A0E792
:102C40002E2E5C2E2E5C2E2E5C2E2E5C2E2E5C2EBE
:102C50002E5C636F6D706F6E656E74735C6C696211
:102C60007261726965735C636C695C6E72665F63E6
:102C70006C692E63000000002DE9F0411D46069CA2
:102C800090460E46074624B909A14FF41770FFF786
:102C900059F825B906A140F25D20FFF753F880C42A
:102CA0000020E4E8026084E82101BDE8F081000032
:102CB0002E2E5C2E2E5C2E2E5C2E2E5C2E2E5C2E4E
:102CC0002E5C636F6D706F6E656E74735C6C6962A1
:102CD0007261726965735C636C695C6E72665F6376
:102CE0006C692E630000000010B5040003D117A129
:102CF0006D20FFF727F8206928B1606818B12068B7
:102D000008B1A06818B911A16E20FFF71BF8606820
:102D100000688047002818D14FF421712069FDF721
:102D2000F4FA2169012008700721204601F092FA87
:102D30000021204601F074FA00221146204601F0DD
:102D4000A3FA204601F0BCFA002010BD2E2E5C2E06
:102D50002E5C2E2E5C2E2E5C2E2E5C2E2E5C636F37
:102D60006D706F6E656E74735C6C696272617269AE
:102D700065735C636C695C6E72665F636C692E631D
:102D8000000000002DE9FC41074600690D4616468B
:102D9000406811A241680091036807213846FFF797
:102DA000BBFE10A207213846FFF7B6FE00240FE055
:102DB00004EB440005EB800155F820008A68CDE95A
:102DC00000020B790AA207213846FFF7A5FE641C12
:102DD000B442EDD3BDE8FC812573202D2025730D71
:102DE0000A0000004F7074696F6E733A0D0A00009C
:102DF00020202D25632C202D2D25730925730D0AE8
:102E00000000000010B5040004D10DA140F22920FB
:102E1000FEF798FF2069007800280FD001280DD018
:102E2000022806D0032809D12046BDE81040FFF74C
:102E3000A1BA2046BDE81040FFF7ECB910BD000074
:102E40002E2E5C2E2E5C2E2E5C2E2E5C2E2E5C2EBC
:102E50002E5C636F6D706F6E656E74735C6C69620F
:102E60007261726965735C636C695C6E72665F63E4
:102E70006C692E630000000010B501690978012912
:102E800001D0082010BD0221FFF7B4F9002010BDC9
:102E900000F180400068002800D00120704708B58C
:102EA00000F18040002101600068009008BD000032
:102EB00000283ED01F49204A096800BF00BF00BF5C
:102EC00000BF00BF00BF00BF00BF91422FD000BFB6
:102ED00000BF00BF00BF00BF00BF00BF00BF00BFFA
:102EE00000BF00BF00BF00BF00BF00BF00BF00BFEA
:102EF00000BF00BF00BF00BF00BF00BF00BF00BFDA
:102F000000BF00BF00BF00BF00BF00BF00BF00BFC9
:102F100000BF00BF00BF00BF00BF00BF00BF00BFB9
:102F200000BF00BF00BF00BF00BF00BF00BF401E0A
:102F3000C3D17047480000200024F40070B50E4C47
:102F40000025207808B1852513E00021A16061608B
:102F50002161E1604FF0E020D0F80001012610F07F
:102F6000010F03D10721002000F042F8034806605A
:102F70002670284670BD000054050020180500404A
:102F80002DE9F0414FF480773846FFF781FF0124A7
:102F9000104EA50748B13846FFF781FF0120C5F85C
:102FA000080374700020FFF745FB4FF48277384622
:102FB000FFF76EFF00280BD03846FFF770FF0220A6
:102FC000C5F80803B470BDE8F0410120FFF732BB3B
:102FD000BDE8F0815405002000F01F02012191405E
:102FE0004009800000F1E020C0F880117047000027
:102FF00070B50D460446082903D31049FD20FEF79D
:10300000A1FE6807000E002C06DA04F00F0101F1A2
:10301000E02181F8140D03E004F1E02181F80004BF
:1030200004F01F01012088406109890001F1E021BD
:10303000C1F88002C1F8000170BD0000F844000032
:10304000000B40B270470121B1EB507F01D101204C
:10305000704700207047000070B50D4C217809B111
:10306000852070BD00B90B480B49007800F00100C5
:1030700008604FF0E020D0F80001012510F0010FAA
:1030800003D107210020FFF7B3FF2570002070BD9A
:1030900000000020404300007805004070B54FF06C
:1030A0008040D0F804531B4C68070DD54FF4847052
:1030B00000F07CFD40B1606820B917A14FF4A0700A
:1030C000FEF740FE60688047A8060ED54FF48A7070
:1030D00000F06CFD48B1A06820B90FA14FF4A470B6
:1030E000FEF730FEA16800208847680611D54FF42E
:1030F0008C7000F05BFD00280BD0A06820B906A101
:1031000040F24F10FEF71EFEA168BDE8704001209E
:10311000084770BD000000202E2E5C2E2E5C2E2E47
:103120005C2E2E5C2E2E5C2E2E5C636F6D706F6E8F
:10313000656E74735C647269766572735F6E7266D5
:103140005C706F7765725C6E72665F6472765F70DA
:103150006F7765722E6300002DE9F04190460D00F7
:10316000064603D118A1E420FEF7ECFD3079264F86
:1031700007EB4014E07E10B10820BDE8F081687FC5
:10318000207729463046FEF789FD5FEA0800606037
:103190002969216003D0297F3046FFF7E9FA3079A9
:1031A00007EB4010007F0028306801D0082100E0C4
:1031B0000421C0F800150020E0752076A0750121DB
:1031C000E176A076D9E700002E2E5C2E2E5C2E2E06
:1031D0005C2E2E5C2E2E5C2E2E5C636F6D706F6EDF
:1031E000656E74735C647269766572735F6E726625
:1031F0005C756172745C6E72665F6472765F756135
:1032000072742E6300000000C00500202DE9F0411B
:1032100005460079304E174606EB40148846E07E9E
:10322000012804D02DA140F22F20FEF78BFD27B9F5
:103230002AA14FF40C70FEF785FD287906EB4010AB
:10324000007F18B14046FFF7FEFE80B162680023A0
:103250004FF404704FF4017172B12A7906EB4212F7
:10326000127F002A2A6805D0C2F8080304E0102063
:10327000BDE8F081C2F80813E27DB2B1227E7AB1D6
:1032800062685AB12A7906EB4212127F1AB1296894
:10329000C1F8040302E02868C0F804131120E7E72E
:1032A000C4F810800123277605E0E7750020C4F8F4
:1032B0000C806076207628793A4606EB401041462D
:1032C000007F0028284603D0BDE8F04100F0B8B8E0
:1032D000BDE8F04100F060B8C00500202E2E5C2E45
:1032E0002E5C2E2E5C2E2E5C2E2E5C2E2E5C636FA2
:1032F0006D706F6E656E74735C64726976657273FF
:103300005F6E72665C756172745C6E72665F647229
:10331000765F756172742E630000000070B504461C
:1033200000790C4D05EB4010017F31B1BDE87040D4
:1033300009A14FF42370FEF705BD807E002807D158
:10334000204600F0E6FC2179012005EB411188764A
:1033500070BD0000C00500202E2E5C2E2E5C2E2E8F
:103360005C2E2E5C2E2E5C2E2E5C636F6D706F6E4D
:10337000656E74735C647269766572735F6E726693
:103380005C756172745C6E72665F6472765F7561A3
:1033900072742E63000000002DE9F05F044600798E
:1033A000264901EB4015A87E184302D1204600F0C3
:1033B000B0FC68680028206806D04FF40171C0F89E
:1033C00004130020BDE8F09F4FF4A276314600F0D0
:1033D000FCFBB1464FF4927A4FF4847B514620684F
:1033E00000F0EEFB06465946206800F0E9FB8046F7
:1033F0004946206800F0E4FB074648EA07003043EE
:10340000ECD056EA070007D12946206800F05CFCA2
:10341000E87D697E8842E1D80020E8750EB103207E
:10342000D0E70FB10F20CDE7A97E01200029216848
:1034300001D00860C5E74860C3E70000C005002070
:103440002DE9F05F894604464FF488759A46904608
:1034500000260068294600F0C9FB4FF4A2773946E0
:10346000206800F0C3FB2068C0F83495C0F83885A8
:103470002068BAF1000F14D0D0F8001241F02001FA
:10348000C0F800122179DFF8648008EB4110406831
:1034900050B120684FF40471C0F804133046BDE801
:1034A000F09F01210160EDE7AA46B9464FF4927BF7
:1034B0005146206800F095FB07464946206800F019
:1034C00090FB05465946206800F08BFB014647EA11
:1034D00005000843ECD02379002208EB4310C275A5
:1034E00001B10326002DD9D00F26D7E7C005002053
:1034F0002DE9F0470E460179DFF82881044608EBF4
:1035000041151746E87E012804D047A140F271100A
:10351000FEF718FC27B944A14FF4B970FEF712FC6E
:1035200026B941A140F27310FEF70CFC217908EB9B
:103530004110007F18B13046FFF785FD30B12046BD
:1035400000F092F820B11120BDE8F0871020FBE7D1
:10355000AF750027AE60AF8221793E4608EB41157A
:103560004FF00108287F0028206825D04FF490797B
:10357000494600F03BFB4FF4AC7A5146206800F01E
:1035800035FB2068A97DAA68C0F84425C0F8481515
:103590002068C0F808806868F0B94946206800F0E3
:1035A00020FB80465146206800F01BFB58EA0001D2
:1035B000F3D058BBAF750FE04FF48E7A514600F050
:1035C00004FB2068C0F808802946206800F07AFCD7
:1035D00069684FF4807089B13046B5E7514620687C
:1035E00000F0EEFA10B9A88A4845F7D1A88A4845F4
:1035F00005D02946206800F065FC00E08146A88AD5
:10360000A97D8842EAD3A88A484501D10F26D1E78F
:103610005146206800F0D4FA0028F9D02068C0F89C
:103620000C80C7E7C00500202E2E5C2E2E5C2E2EAF
:103630005C2E2E5C2E2E5C2E2E5C636F6D706F6E7A
:10364000656E74735C647269766572735F6E7266C0
:103650005C756172745C6E72665F6472765F7561D0
:1036600072742E63000000000079044901EB4010E1
:10367000807D002800D0012070470000C005002098
:1036800070B5044600791149002601EB4015206809
:103690002A7FC0F80065686888B1207901EB401086
:1036A000007F0028206801D0094901E008498C39D1
:1036B000C0F808132068FFF7C3FCFFF78DFC204615
:1036C00000F09AFAEE766E6070BD0000C005002032
:1036D000100302002DE9FF411C46DDE90A7815467A
:1036E0000E46684600F05CF846EA450141EA84016E
:1036F00041EA072242EA0841009A00EB8200C0F842
:103700000017BDE8FF812DE9FF411C46DDE90A787D
:1037100015460E46684600F093F846EA450141EA30
:10372000840141EA072242EA0841009A00EB820044
:10373000C0F80017BDE8FF811CB5002100910B46C1
:1037400001220191FFF7DFFF1CBD1CB500220B46D3
:10375000009211460192FFF7D6FF1CBD1CB5002157
:1037600000910B46012201911146FFF7CCFF1CBDD1
:1037700013B50C46684600F03BF8009900EB810158
:10378000D1F8002722F44032C1F80027009900EB5D
:103790008100D0F8001741EA0441C0F800171CBDB1
:1037A00010B50068202804D303A14FF4D570FEF7AC
:1037B000C9FA4FF0A04010BD2E2E5C2E2E5C2E2E8E
:1037C0005C2E2E5C2E2E5C2E2E5C636F6D706F6EE9
:1037D000656E74735C647269766572735F6E72662F
:1037E0005C68616C5C6E72665F6770696F2E680002
:1037F00010B50068202804D303A14FF4D570FEF75C
:10380000A1FA4FF0A04010BD2E2E5C2E2E5C2E2E65
:103810005C2E2E5C2E2E5C2E2E5C636F6D706F6E98
:10382000656E74735C647269766572735F6E7266DE
:103830005C68616C5C6E72665F6770696F2E6800B1
:1038400010B50068202804D303A14FF4D570FEF70B
:1038500079FA4FF0A04010BD2E2E5C2E2E5C2E2E3D
:103860005C2E2E5C2E2E5C2E2E5C636F6D706F6E48
:10387000656E74735C647269766572735F6E72668E
:103880005C68616C5C6E72665F6770696F2E680061
:1038900001B56846FFF7D4FF009A01219140C0F8B6
:1038A000081508BD38B501240090684631B1FFF70E
:1038B00077FF00998C40C0F8084538BDFFF770FFCE
:1038C00000998C40C0F80C4538BD0000F8B504469E
:1038D0000B486618154600680090012E04D909A10E
:1038E00040F2C220FEF72EFA694605E051F82400A6
:1038F000D0F81005641C01C5A642F7D8F8BD000039
:103900003C4300002E2E5C2E2E5C2E2E5C2E2E5C58
:103910002E2E5C2E2E5C636F6D706F6E656E7473F1
:103920005C647269766572735F6E72665C68616C06
:103930005C6E72665F6770696F2E6800034908B538
:103940000844002101600068009008BD006000404C
:1039500002494058012800D0002070470060004014
:1039600030B5184C054689B0207828B1607885427A
:1039700002D1002009B030BD202213496846FCF76F
:10398000ABFC00208DF81400062000900820019068
:1039900005200390072002904FF0EB700690094835
:1039A000001DFFF76DFE0DB1002200E0074A05483B
:1039B0006946001DFFF7D0FB0028DBD101202070F5
:1039C0006570D6E738000020B843000001400000D1
:1039D0000120FFF7C5BF00002DE9F04F87B0FEF7CB
:1039E00049FA18B1002007B0BDE8F08F454ED6E97E
:1039F000014704EA070006EB8000A146641CC56885
:103A00000CE000BFC5F3891000EB9550044404EAB4
:103A1000070006EB8000A146C568641CA807F1D02A
:103A200005F003004FF0000B022805D0AA0A01A8F8
:103A3000C5F38313002153E004EA070006EB80007E
:103A400004F1010A0AEA0704C268381B80004FEA41
:103A50009558001DC5F38913804521D929490C319A
:103A600038B106EB840400F0FF0CA8EB00000C3426
:103A700004E00C46002108F0FF0C0846C0B2CDE976
:103A80000210CDE9004CD6F81444C5F3C2005946E3
:103A9000A047404511D108F103080AEB98042AE039
:103AA000002106EB84000C300090CDE901810391E8
:103AB000C5F3C200D6F81444EAE760F38F1509EAAB
:103AC000070006EB8000C56016E000BF04EA070CA3
:103AD00006EB8C0C491CDCF80CC040F804CB641CD1
:103AE0009942F3D3C5F3C2000093D6F8105401AB4A
:103AF0005946A84700B17460FEF7BCF980F0010098
:103B000071E70000AC0700202DE9F8430F4F88460D
:103B10000446002569462846BE68FEF77BF9002862
:103B200012D00B480021406861F38200009964F3D1
:103B3000C50001EA060265F3891007EB820268F30B
:103B40009F20491CD0600091BDE8F883AC0700209D
:103B5000D84300002DE9F843124D8846044601275A
:103B6000914669463846AE68FEF754F9002817D0EA
:103B70000D480021806861F38200009964F3C5005C
:103B800001EA060267F3891005EB820268F39F20C1
:103B9000491CD0600091314005EB8101C1F80C90C7
:103BA000BDE8F883AC070020D843000000F1804155
:103BB0000868002210B101200A6070471046704763
:103BC0004058002800D00120704708B5002242501C
:103BD0004058009008BDD0F80403084000D00120F0
:103BE00070474058002800D00120704708B50022D7
:103BF00042504058009008BD70B5034600791B49FB
:103C000001EB40101968027F4FF0FF30002AD1F815
:103C10000C25D1F81465D1F80855D1F8104504D019
:103C2000C1F80C05C1F8140503E0C1F81405C1F88A
:103C30000C051968C1F80805C1F81005501C02D020
:103C40001046FFF779FD701C02D03046FFF774FD77
:103C5000601C02D02046FFF76FFD681C04D0284688
:103C6000BDE87040FFF768BD70BD0000C0050020D2
:103C7000EFF30580C005C00D01D001207047EFF3C0
:103C8000148040F30000401C7047000070B501260E
:103C900070044FF0E0210025C1F88001084C40106D
:103CA000C4F84803C4F8080366602F20FFF700F942
:103CB000A660044C2F20A560FFF7FAF8A57070BD30
:103CC000001001400C00002070B50546C87D0C4670
:103CD00000284FF4847128460AD0FFF776FFD5F804
:103CE0001805627EE1688854607E401C607670BD75
:103CF000FFF76BFFD5F8180570BD1FB501238DF8D0
:103D000000308DF808100192D0E900126846904703
:103D10001FBD10B5044600684FF49271FFF755FFC0
:103D20004FF484712068FFF750FF20680121016083
:103D300010BD00002DE9F84F1D4C00256846D4E960
:103D400001A6FEF7E1FC002738B30023009A616862
:103D50001CE0D1F800C00846944503D9ACEB020240
:103D60000A6015E0A2EB0C0263440760D0F80CC0B7
:103D7000C1698146BCF1000F08D006EB030828F0AA
:103D80007F48C0E9018CC9F81C5005460029E0D1E4
:103D900028466160FEF728FD03E02846FEF724FD73
:103DA00010B15046FEF75AFCE770BDE8F88F0000EE
:103DB0000C0000200D4B10B5596831B102680C6839
:103DC000A24204D8A21A0A60C161586010BD0B4615
:103DD00003E00B46C969121B21B10C689442F8D369
:103DE000A41A0C600260C161D86110BD0C000020F3
:103DF0002DE9F041144E77683D462C4603E084429D
:103E000004D02546E469002CF9D11BE0D4B1A542C9
:103E10000BD1F869706040B90C490120886000211D
:103E2000B160F0702F20FFF743F82168E069E86186
:103E300010B10268114401607068874202D001200D
:103E4000BDE8F0810020FBE70C00002000100140DD
:103E50002DE9F041194D6C68002C2CD01848002732
:103E60000068A968B846401A20F07F462068B04232
:103E70000CD82146361A0744E469087C20B181F841
:103E80001080886949698847002CEFD129786878C3
:103E9000814206D1401CC0B26870022801D185F869
:103EA0000180064869780C3040F82170BDE8F04187
:103EB0001420FCF7EFBDBDE8F08100000C000020ED
:103EC0000415014070B50C4605464FF48E71FFF79E
:103ED0007CFEA18AA068415CA08A401CA082C5F833
:103EE0001C1570BD1FB500228DF800208DF808103C
:103EF000816801918275D0E90012684690471FBD24
:103F00000178022906D0012908D1406804A21021B5
:103F1000FDF738BD406802A20C21F9E770470000A8
:103F20002E2E5C2E2E5C2E2E5C2E2E5C2E2E5C2ECB
:103F30002E5C636F6D706F6E656E74735C6C69621E
:103F40007261726965735C636C695C756172745CE3
:103F50006E72665F636C695F756172742E630000D8
:103F60007CB50178244D81B301290BD002292BD1D6
:103F70008DF80010C068691C01900122C81DFFF770
:103F800045F92EE0406801781C48FDF754FD1B4CB4
:103F9000012618B18DF80060019006E0A068E16884
:103FA000814205D000208DF8000069686846884786
:103FB000A068E168081AA188884207D80E49012242
:103FC000491CC81DFFF722F97CBD01E0AE70FBE77C
:103FD0000A4809491030FDF713FD30B103208DF870
:103FE0000000696868468847EEE70349012201F14D
:103FF0000800FFF77DFAE7E7200000200C0700200B
:104000000078012801D101498870704738000020EC
:104010002DE9FF470C4605464FF40071FFF7DBFD25
:1040200001274FF40178002618B34FF492794946DE
:104030002846FFF7C5FDE0B149462846FFF7C5FD14
:10404000C5F80883A07E00B96F6002208DF80000DB
:10405000D5F88004C5F880040390E07D8DF8080051
:10406000E0680190E6752676D4E90012684690472C
:1040700027E004212846FFF7AEFD10B34FF484710A
:104080002846FFF79DFDE0B121462846FFF71CFEBC
:10409000E07D617E884214D1207E38B1617EE26885
:1040A000E0752069E0602676667607E0A07E00B9BC
:1040B0006F60C5F80883E675617EE2682046FFF709
:1040C0001CFE4FF48E7841462846FFF779FD88B1F3
:1040D000A08AA17D884204D221462846FFF7F2FE3D
:1040E00008E041462846FFF770FDA17D11B120464A
:1040F000FFF7F8FE4FF4A27841462846FFF760FD2F
:10410000002812D041462846FFF75FFDA07E00B18F
:104110002F60E07D002808D0E675617EE26804B07B
:104120002046BDE8F047FFF7E8BDBDE8FF872DE971
:10413000FF410C464FF4927705463946FFF751FD93
:104140000026C0B139462846FFF750FD02208DF801
:104150000000D5F88004C5F880040390D5F83C052C
:104160008DF80800E0680190E6752676D4E9001223
:104170006846904724E04FF4887739462846FFF791
:1041800030FDE8B139462846FFF730FDD5F83C054B
:10419000C1B2E07D884213D1207E60B1E268D5F8DB
:1041A000000220F02000C5F80002207EE0752069A2
:1041B000E060267601E0E675E2682046FFF79DFDA7
:1041C0004FF4A27739462846FFF70BFD68B1394610
:1041D0002846FFF70BFDE07D38B1E675D5F83C05C4
:1041E000E268C1B22046FFF788FD4FF49076314671
:1041F0002846FFF7F6FC00280FD031462846FFF787
:10420000F5FCA07D002808D0D5F84C0504B0C1B25B
:104210002046BDE8F041FFF765BEBDE8FF81000024
:104220001CB50AA3D3E90023CDE9002301F1300234
:104230008DF803200269537B8B4205D05173002314
:1042400005226946FEF7BEF91CBD00001B5B340069
:104250006D0000001CB50AA3D3E90023CDE90023BB
:1042600001F130028DF803200269137B8B4205D0E7
:104270001173002305226946FEF7A4F91CBD000056
:104280001B5B33006D00000010B588B0491C04466C
:10429000531C00911B2207A101A8FCF7C5FE01A831
:1042A000FCF74AF80246002301A92046FEF78AF9E6
:1042B00008B010BD25635B25643B25644800000001
:1042C000002304220149FEF77DB900006443000089
:1042D000D4440000B8440000012A00009C440000BF
:1042E0008444000091290000E4440000DC44000004
:1042F000A9290000CC440000DC440000C52A0000CD
:1043000094440000A4440000012B0000EC44000091
:1043100090430000D0420000050000004C00002047
:10432000EC44000080430000D04200000500000083
:10433000D0020020111213140D0E0F1000000050B7
:1043400000000000FFFFFFFFFFFFFFFFFFFFFFFF79
:10435000FFFFFFFF00000000000000000000D6018A
:10436000070100001B5B324A58450000680000004E
:10437000444500003C450000760000006045000018
:10438000A9210000C9210000CD210000B3210000B7
:1043900031250000972500009B2500006D250000B9
:1043A00008000000060000000500000007000000F3
:1043B0000100000000E0D701FFFFFFFFFFFFFFFF4C
:1043C000FFFFFFFFFFFFFFFF0000000000000000F5
:1043D0000000D601070100002900000001000000D4
:1043E00001000000010000000100000001000000C9
:1043F00001000000010000000200000000404040F9
:1044000040404040404041414141414040404040A7
:104410004040404040404040404040404005020253
:104420000202020202020202020202020220202012
:10443000202020202020200202020202020290906E
:10444000909090901010101010101010101010106C
:1044500010101010101010100202020202028888C0
:1044600088888888080808080808080808080808CC
:1044700008080808080808080202020240000000B4
:10448000FD430000636C6561722073637265656E45
:1044900000000000707974686F6E0000636C6561E5
:1044A00072000000707974686F6E20696E746572B6
:1044B00070726574657200006C69737420616C6C55
:1044C00020636F6D6D616E64730000007072696EC1
:1044D000740000006C69737400000000636F6D6D00
:1044E000616E6420686973746F7279006E72665FC2
:1044F000636C693A7E2420002E2E5C2E2E5C2E2EBC
:104500005C2E2E5C2E2E5C2E2E5C636F6D706F6E9B
:10451000656E74735C647269766572735F6E7266E1
:104520005C636F6D6D6F6E5C6E72665F6472765FFA
:10453000636F6D6D6F6E2E630000000076657262B2
:104540006F73650073686F7720636F6D6D616E6464
:104550002068656C7000000068656C7000000000E9
:1045600073686F7720616C6C20636F6D6D616E6432
:104570002068656C7020737472696E677300000048
:104580004F766572666C6F770D0A0000AC450000CF
:10459000000000204C00000074100000F8450000EE
:1045A0004C000020442C000084100000000000009B
:1045B00000000000000000000000000000000000FB
:1045C00000000000000000000000000000000000EB
:1045D000000000000020004000000000000000007B
:1045E000000000000000000000200040000000006B
:0845F000804500000090D0039B
:0400000500000201F4
:00000001FF
