:020000040000FA
:1000000070200020150200001D0200001F020000E9
:100010002102000023020000250200000000000071
:1000200000000000000000000000000027020000A7
:1000300029020000000000002B0200002D02000039
:100040002F0200002F0200008D0600002F0200008A
:100050002F0200002F0200005D0200002F020000AE
:100060002F0200002F0200002F0200002F020000CC
:100070002F0200002F0200002F0200002F020000BC
:100080002F0200002F0200002F0200002F020000AC
:100090002F0200002F0200002F0200002F0200009C
:1000A0002F0200002F0200002F0200002F0200008C
:1000B0002F0200002F0200000000000000000000DE
:1000C0002F0200002F0200002F0200002F0200006C
:1000D0002F0200002F0200002F020000000000008D
:1000E0000000000000000000000000000000000010
:1000F0000000000000000000000000000000000000
:1001000000000000000000000000000000000000EF
:1001100000000000000000000000000000000000DF
:1001200000000000000000000000000000000000CF
:1001300000000000000000000000000000000000BF
:1001400000000000000000000000000000000000AF
:10015000000000000000000000000000000000009F
:10016000000000000000000000000000000000008F
:10017000000000000000000000000000000000007F
:10018000000000000000000000000000000000006F
:10019000000000000000000000000000000000005F
:1001A000000000000000000000000000000000004F
:1001B000000000000000000000000000000000003F
:1001C000000000000000000000000000000000002F
:1001D000000000000000000000000000000000001F
:1001E000000000000000000000000000000000000F
:1001F00000000000000000000000000000000000FF
:10020000DFF80CD000F018F8004800478107000024
:10021000702000200648804706480047FEE7FEE7BA
:10022000FEE7FEE7FEE7FEE7FEE7FEE7FEE7FEE7A6
:10023000C103000001020000064C074D06E0E06823
:1002400040F0010394E8070098471034AC42F6D31D
:10025000FFF7DAFF380E0000580E00002DE9F047D6
:1002600000268AB0DFF85091B0464FF48075012423
:1002700037460596284600F055FC38B1D9F80403F6
:10028000204203D0284600F043FC26432D1D640085
:100290007F1CADB2082FEDD34FF4BE74204600F0A2
:1002A00041FC48B1204600F033FC46F0004605AA68
:1002B0000121002000F018FC404D16F0FF0F15D072
:1002C0000127002437420DD009EB8401D1F8100535
:1002D000D1F81015C0F3042055F82420C1F30141D2
:1002E00002B190477F00641C082CEBD3002E3DDA4E
:1002F0004FF0FF304FF00109CDF82080069095F8BF
:100300004460002770B226F0C004401C2ED006A91D
:10031000204600F05BFA002828D04FEA96182046C5
:1003200000F022FA55F820601EB1B8F1030F03D097
:100330000CE0B8F1030F19D108A8E10804F0070296
:10034000435C09FA02FC43EA0C0343544FF0A0401B
:1003500000EB8400D0F8000705A9C0F3014A20464D
:1003600000F034FA28B1BAF1020F05D00AB0BDE8A6
:10037000F087BAF1030FF9D1B8F1030F07D1BAF141
:10038000020F17D00221204600F09CFB012716B176
:1003900041462046B047002FE8D06A4601210020A0
:1003A00000F0A2FB059900988842DFD005900898DC
:1003B0000690A4E70321E6E7006000400400002067
:1003C000F0B5A3480023021D01780125101D4FF050
:1003D000805406290BD11678360708D10678C6F363
:1003E0000316032E06D0042E04D0052E02D00629B3
:1003F00007D00EE0B4F82463964FC6F304263E609F
:1004000002E01678360704D10678C6F30316032EE9
:1004100002D0062904D00FE0904F8F4E7E670EE089
:100420001678360708D10678C6F30316032E06D0D1
:10043000042E04D0052E02D0062907D00EE0D4F8F1
:100440004462874FC6F342363E6002E016783607B4
:1004500004D10678C6F30316032E02D0062906D06F
:1004600011E0804E376827F0807737600EE016780D
:10047000360708D10678C6F30316032E06D0042EDD
:1004800004D0052E02D006290AD011E04FF0804694
:10049000C6F80C31C6F81031714E361F336002E0D9
:1004A0001678360704D10678C6F30316032E02D059
:1004B000062905D00CE06A4F032664373E600AE047
:1004C0001678360704D10678C6F30316032E02D039
:1004D00006290DD014E0644F05263E60624E783642
:1004E0003560614E083633603F263F1D3E6002E0B6
:1004F0001678360704D10678C6F30316052E02D007
:10050000062957D068E059490968594A1160574986
:10051000091D0968121D1160544908310968121D2E
:10052000116052490C310968121D11604F49103198
:100530000968121D11604D4914310968121D1160BE
:100540004A49183109684A4A2032116047491C312A
:100550000968121D1160454920310968121D11609A
:10056000424924310968121D116040492831096847
:10057000121D11603D492C310968121D11603B4963
:10058000303109683A4A40321160384934310968DB
:10059000121D1160354938310968121D1160334947
:1005A0003C310968121D1160304940310968121D43
:1005B000116002E0117809070ED10078C0F3031032
:1005C000032803D0042801D0052805D1D4F8580207
:1005D000284900F04F00086022487438016841F44F
:1005E00070010160BFF34F8FBFF36F8F4FF0102189
:1005F000D1F80002002803DBD1F80402002822DA37
:100600001D4A15601D480468002CFCD01524C1F853
:1006100000420568002DFCD0C1F8044201680029A1
:10062000FCD0136001680029FCD0BFF34F8F0D4848
:10063000F0380168124A01F4E06111430160BFF330
:100640004F8F00BFFDE710490E480860F0BD000065
:10065000E00F00F0403501400DF0ADBA00C007409A
:100660003C050040FCED00E0105600400404001082
:1006700020C50040E40E004004E5014000E40140D4
:100680000400FA050090D003000000200448017F18
:1006900004480029024901D000F052BB00F0C1BA61
:1006A0004C0000200020004002E008C8121F08C1D2
:1006B000002AFAD170477047002001E001C1121FE3
:1006C000002AFBD170470000BFF34F8F0548016837
:1006D000054A01F4E06111430160BFF34F8F00BF91
:1006E000FDE700000CED00E00400FA050EB5002166
:1006F0000091CDE901106A4644F20100FFF7E4FFE2
:100700000EBD000005494FF0FF32082841F82020B7
:1007100002D3084480F83C20704700000400002009
:10072000F0B54FF0FF3512B10023082601E0082391
:1007300009260C4C05E000BF54F823707F1C04D040
:100740005B1CB342F8D32846F0BD26185DB286F88C
:10075000245044F82310002AF5D1E11881F83C0018
:10076000F1E70000040000200249084490F9240049
:100770007047000004000020112000F083B9000041
:100780001CB500F0F5F808B1FFF7B0FF00200190AC
:1007900001A9112000F01AF908B1FFF7A7FF0948D5
:1007A000094A69460068009003208DF801000D2079
:1007B00000F082F808B1FFF799FF01210D2000F049
:1007C00029F8FEE7300E000079070000C20800F0AB
:1007D00007030120895C9840084070474907090ECB
:1007E000002806DA00F00F0202F1E02282F8141D60
:1007F00003E000F1E02282F8001400F01F02012162
:1008000091404009800000F1E020C0F88012C0F85B
:10081000001170472DE9F0418846054600F0A6F921
:10082000234E002828461AD0FFF79EFF304490F848
:100830003C008009032802D001280ED007E04FF0C9
:10084000A040D0F81005E84010F0010F05D00321BA
:100850002846BDE8F04100F035B90221F8E700F084
:1008600091F9002822D02846FFF77EFF04464FF476
:10087000807000EB84000F4F81B207EB8400D0F84A
:10088000102542F00102C0F81025084600F040F99A
:10089000B8F1000F0AD02846FFF766FF56F820008F
:1008A000002803D00120A040C7F80403BDE8F08170
:1008B00004000020006000402DE9FC41DFF8A48026
:1008C000044608EB0400002790F924001346C017E3
:1008D0000E46401C01D0082741E0F2781946204618
:1008E000FFF71EFF0546401C38D0B07850B14FF0DE
:1008F000A04000EB8400D0F8001721F00201C0F8FE
:10090000001707E000217378204600910A46019104
:1009100000F0C6F8F078C0B11348317800EB8500DC
:10092000D0F81025114B1A40C0F810254FF4F8529A
:100930004FF4403302EA042203EA01410A43D0F8AB
:1009400010150A43C0F8102509E008EB05003278BD
:1009500010F83C1F41EA8211017000E0042738467C
:10096000BDE8FC810400002000600040FFE0FCFFC7
:1009700070B5144D95F8450008B1082070BD0020F1
:10098000411E2A18401CC0B282F824102028F8D337
:1009900000242046FFF7B6FE641CE4B2092CF8D30D
:1009A00007210620FFF71AFF4FF4BE7000F0B0F8E1
:1009B00005494FF00040C1F80403012085F84500C7
:1009C000002070BD04000020006000402DE9FC41C3
:1009D000044629480F462044002590F92410491C5C
:1009E00001D0082541E0B978002651B30122002149
:1009F0002046FFF795FE411C21D083001F483A781E
:100A000018447978D0F81035DFF874C003EA0C0385
:100A1000C0F81035D0F810354FF4F85C0CEA042C0F
:100A200043EA0C034FF4403C0CEA02424FF4801CB2
:100A30000CEA01510A431343C0F8103504E00425C1
:100A400013E0FE2180F824107A780120A0404FF0B6
:100A5000A041012A0CD0C1F80C05012220460096C5
:100A600000231146019600F01BF82846BDE8FC81E2
:100A7000C1F80805F1E70000040000200060004014
:100A8000FFE0ECFF4FF0A042D2F804350121814095
:100A900021EA0300C2F808051940C2F80C15704796
:100AA00070B541EA4201DDE904564FF0A04441EA45
:100AB000830141EA052104EB800041EA0641C0F8C8
:100AC000001770BD4FF0A04202EB8000D0F8002765
:100AD00022F44032C0F80027D0F8002742EA014152
:100AE000C0F800177047000018B5084B6C46014469
:100AF0001B68009306E000BF54F82030D3F810358F
:100B0000401C08C28142F7D818BD0000340E000016
:100B1000034908B50844002101600068009008BD41
:100B20000060004002494058012800D00020704772
:100B3000006000404058002800D00120704708B5F0
:100B4000002242504058009008BDD0F804030840ED
:100B500000D0012070474058002800D00120704785
:100B600008B5002242504058009008BD044908448E
:100B700090F92400082801DB01207047002070470D
:100B8000040000200449084490F92400082801D2F8
:100B900001207047002070470400002070B5054612
:100BA000C87D0C4600284FF4847128460AD0FFF710
:100BB000C6FFD5F81805627EE1688854607E401C47
:100BC000607670BDFFF7BBFFD5F8180570BD1FB587
:100BD00001238DF800308DF808100192D0E9001241
:100BE000684690471FBD70B50C4605464FF48E71A0
:100BF000FFF7A5FFA18AA068415CA08A401CA082E3
:100C0000C5F81C1570BD1FB500228DF800208DF8A9
:100C10000810816801918275D0E9001268469047FA
:100C20001FBD2DE9FF470C4605464FF40071FFF745
:100C30008CFF01274FF40178002618B34FF4927906
:100C400049462846FFF776FFE0B149462846FFF7B8
:100C500076FFC5F80883A07E00B96F6002208DF88A
:100C60000000D5F88004C5F880040390E07D8DF87D
:100C70000800E0680190E6752676D4E9001268461F
:100C8000904727E004212846FFF75FFF10B34FF499
:100C900084712846FFF74EFFE0B121462846FFF752
:100CA0007DFFE07D617E884214D1207E38B1617E77
:100CB000E268E0752069E0602676667607E0A07E4F
:100CC00000B96F60C5F80883E675617EE26820466A
:100CD000FFF77DFF4FF48E7841462846FFF72AFF45
:100CE00088B1A08AA17D884204D221462846FFF718
:100CF0007AFF08E041462846FFF721FFA17D11B1A8
:100D00002046FFF780FF4FF4A27841462846FFF7C0
:100D100011FF002812D041462846FFF710FFA07EA1
:100D200000B12F60E07D002808D0E675617EE268A2
:100D300004B02046BDE8F047FFF749BFBDE8FF8794
:100D40002DE9FF410C464FF4927705463946FFF7EF
:100D500002FF0026C0B139462846FFF701FF0220F6
:100D60008DF80000D5F88004C5F880040390D5F80C
:100D70003C058DF80800E0680190E6752676D4E918
:100D800000126846904724E04FF488773946284699
:100D9000FFF7E1FEE8B139462846FFF7E1FED5F856
:100DA0003C05C1B2E07D884213D1207E60B1E2688B
:100DB000D5F8000220F02000C5F80002207EE07582
:100DC0002069E060267601E0E675E2682046FFF7DC
:100DD000FEFE4FF4A27739462846FFF7BCFE68B105
:100DE00039462846FFF7BCFEE07D38B1E675D5F8F8
:100DF0003C05E268C1B22046FFF7E9FE4FF4907669
:100E000031462846FFF7A7FE00280FD03146284676
:100E1000FFF7A6FEA07D002808D0D5F84C0504B049
:100E2000C1B22046BDE8F041FFF7EDBEBDE8FF814D
:100E30000300000100000050580E000000000020D8
:100E400004000000A80600005C0E00000400002062
:0C0E50006C200000B80600000090D003E9
:0400000500000201F4
:00000001FF
