:020000040000FA
:10000000D0210020150200001D0200001F02000088
:100010002102000023020000250200000000000071
:1000200000000000000000000000000027020000A7
:1000300029020000000000002B0200002D02000039
:100040002F0200002F020000C10600002F02000056
:100050002F0200002F0200005D0200002F020000AE
:100060002F020000750600002F0200002F02000082
:100070002F0200002F0200002F0200002F020000BC
:100080002F020000650400002F0200002F02000074
:10009000890400002F0200002F0200002F02000040
:1000A0002F0200002F0200002F0200002F0200008C
:1000B0002F0200002F0200000000000000000000DE
:1000C0002F0200002F0200002F0200002F0200006C
:1000D0002F0200002F0200002F0200002F0200005C
:1000E0002F0200002F0200002F0200002F0200004C
:1000F000000000002F0200000000000000000000CF
:1001000000000000000000000000000000000000EF
:1001100000000000000000000000000000000000DF
:1001200000000000000000000000000000000000CF
:1001300000000000000000000000000000000000BF
:1001400000000000000000000000000000000000AF
:10015000000000000000000000000000000000009F
:10016000000000000000000000000000000000008F
:10017000000000000000000000000000000000007F
:10018000000000000000000000000000000000006F
:10019000000000000000000000000000000000005F
:1001A000000000000000000000000000000000004F
:1001B000000000000000000000000000000000003F
:1001C000000000000000000000000000000000002F
:1001D000000000000000000000000000000000001F
:1001E000000000000000000000000000000000000F
:1001F00000000000000000000000000000000000FF
:10020000DFF80CD000F018F800480047ED0A0000B5
:10021000D02100200648804706480047FEE7FEE759
:10022000FEE7FEE7FEE7FEE7FEE7FEE7FEE7FEE7A6
:100230008D04000001020000064C074D06E0E06856
:1002400040F0010394E8070098471034AC42F6D31D
:10025000FFF7DAFF20140000401400002DE9F04FF2
:1002600000268FB0DFF8B081B14602964FF480755A
:10027000012437460396284600F00EFE38B1D8F820
:100280000403204203D0284600F0FCFD26432D1D28
:1002900064007F1CADB2082FEDD34FF4BE7420462E
:1002A00000F0FAFD48B1204600F0ECFD46F00046B3
:1002B00002AA0221002000F0CFFD584C16F0FF0FDB
:1002C00015D00127002537420DD008EB8501D1F864
:1002D0001005D1F81015C0F3052054F82520C1F3FE
:1002E000014102B190477F006D1C082DEBD3002E19
:1002F0007DDA0020CDF82890411E0DF1080B08AAE8
:10030000CDF82C9042F82010401C91460228F9D3D9
:1003100000252E46A01910F8607F90F9000027F004
:10032000C008401C49D008A9404600F0F9FB88B33A
:100330004FEA971A404600F0C3FA54F820701FB1F4
:10034000BAF1030F03D00FE0BAF1030F35D10AA8B9
:100350004FEAD80208F00703815C4FF0010C0CFA59
:1003600003FC41EA0C01815406A8CDF8188000F086
:1003700051FD069900EB8100D0F8000702A9C0F3F7
:1003800001400690404600F0CBFB0028069802D0C2
:10039000022802D011E003280FD1BAF1030F08D1CF
:1003A0000698022832D00221404600F00CFD6D1C58
:1003B000EDB217B151464046B847761C042EA9D37A
:1003C000002D20D004AA0221002000F045FD0020CD
:1003D0005A4604A952F8206051F82030B34217D091
:1003E00000200AAE4FEA090351F8207000E00AE04D
:1003F00042F8207056F8207043F82070401C022804
:10040000F2D3002D84D10FB0BDE8F08F0321CBE7EC
:10041000401C0228DED3F6E70060004030000020D8
:1004200000F01F02012191404009800000F1E0200E
:10043000C0F88012704700F01F020121914040096E
:10044000800000F1E020C0F80011704700F01F02AA
:10045000012191404009800000F1E020C0F8001225
:100460007047000007480021C0F84011C0F844114F
:10047000C0F84811C0F84C11C0F80011C0F80411C0
:1004800000F05EBE0010014000F0CCBD30B54FF072
:1004900080500022D0F830110123082902D1D0F871
:1004A000344114B1082909D00BE04FF08041C1F864
:1004B0000C21C1F8102161490A6005E0D0F83441EF
:1004C00014B1082957D059E05D4909685D4C216095
:1004D0005B49091D0968241D2160594908310968D3
:1004E000241D216056490C310968241D216054499E
:1004F00010310968241D2160514914310968241DF7
:1005000021604F49183109684E4C203421604C4914
:100510001C310968241D2160494920310968241DC6
:100520002160474924310968241D2160444928314C
:100530000968241D216042492C310968241D21606D
:100540003F49303109683F4C403421603C493431E7
:100550000968241D21603A4938310968241D216049
:1005600037493C310968241D21603549403109680B
:10057000241D216005E0D0F8344114B1082904D0CD
:1005800006E0324C3049216005E0D0F8344114B126
:10059000082904D006E02E4CFB21216005E0D0F8AC
:1005A000344114B1082908D00EE090F85842294887
:1005B000016864F30301016002E0D0F8340118B966
:1005C00025494FF4007008602448016841F4700127
:1005D0000160BFF34F8FBFF36F8F4FF01021D1F841
:1005E0000002002803DBD1F80402002822DA1C4CA8
:1005F00023601C480368002BFCD01223C1F8003292
:100600000568002DFCD0C1F8043201680029FCD037
:10061000226001680029FCD0BFF34F8F0F487C385F
:100620000168114A01F4E06111430160BFF34F8F8B
:1006300000BFFDE70E490D48086030BD3805004099
:100640000404001020C50040488103008C5600407F
:1006500018F50040E40E00404096024088ED00E0AE
:1006600004E5014000E401400400FA050090D003D5
:100670002C0000202DE9F84300250F4C04274FF4EF
:10068000A078BE034FEA050908EB850006FA05F1DC
:1006900022585AB1D4F804230A4207D044F80090F3
:1006A0002158064A00915168126890476D1CEDB2BE
:1006B000BD42E9D3BDE8F8830090004098000020D7
:1006C0000448017F04480029024901D000F01FBE00
:1006D00000F08EBDA40000200020004002E008C809
:1006E000121F08C1002AFAD170477047002001E0AC
:1006F00001C1121F002AFBD17047000000F0D6F89C
:10070000054C204600F014FA002000F093F8012078
:1007100000F090F8F5E7000040420F000EB5002110
:100720000091CDE901106A4644F20100FFF7E6FFAF
:100730000EBD0000B0F5A07F07D10449487808B984
:100740000220087088684968084770470C0000203C
:100750001CB50C490C4AD1E90201CDE90001002089
:100760008DF801008DF8020004208DF80000694624
:10077000044800F0BFFA002802D1044A0121117098
:100780001CBD000010140000350700000C00002004
:100790002DE9F843984691460F00054605D0012DF6
:1007A00005D035B10720BDE8F8830E20FBE7012610
:1007B00001E04FF48076154C207810B1032802D068
:1007C00006E00820EFE700F025F808B1FFF7A6FFE4
:1007D0002078022802D10E4800F052FA6570C4E970
:1007E00001780120009033464A460021084800F075
:1007F0006BFA20780228064805D000F057FA03204B
:1008000020700020CFE700F0C1FAF8E70C000020CC
:100810001014000010B5054C2078032804D10448BA
:1008200000F0B0FA02202070002010BD0C00002063
:1008300010140000094908B5085C0090684600F0F3
:10084000DBFAD0F80425009B0121994021EA02033C
:10085000C0F808351140C0F80C1508BDFE130000A3
:100860000249085C012100F0E3BA0000FE13000019
:100870000249085C002100F0DBBA0000FE13000012
:100880007CB50024084E25460122305D00950023EA
:100890001146019500F07EFA641C042CF4D3BDE8E7
:1008A0007C4000F003B80000FE13000010B50024E7
:1008B0002046FFF7D5FF641C042CF9D310BD0000BF
:1008C0000249084490F930007047000030000020D1
:1008D0002DE9F05F26484168F1B3DFF898B00E6863
:1008E0008146DBF8004087688078E11B21F07F4576
:1008F000ED1CB0B9DFF880804FF48030C8F84403B5
:10090000C8F804031120FFF78BFD1120FFF793FDBA
:100910004FF0010AC8F800A02F2000F04FF989F825
:1009200002A0B54200D23546124BE8193C3320F004
:100930007F401860DBF800105A46091B21F07F4108
:10094000001B20F07F40C91C81420FD9106818603D
:100950002F2000F033F900E004E0BDE8F05F112043
:10096000FFF774BDBDE8F05F00F0BABABDE8F09FD4
:100970001800002004150140001001400E4910B578
:100980000A784C780023A24212D0521CD2B20A70CC
:10099000022A00D10B70084A0B780C3252F823203F
:1009A00002608868104420F07F408860012010BDFC
:1009B0000360002010BD00001800002010B50C4698
:1009C000FFF738FF094A282050600A209060002372
:1009D0004CF2503206492046FFF7DAFE002803D0D9
:1009E000BDE81040FFF79ABE10BD000000000020D7
:1009F0008D0F00002DE9F047394E002780463D4617
:100A0000DFF8E090D6F804A057E003D00446D0F811
:100A10001C8035E099F8002002EB4201521CD2B252
:100A200089F8002009EBC10199F80230091D9A42AA
:100A300001D189F8005048680A780446012A12D08A
:100A4000022A02D0032A3BD108E000F049FB00B1A2
:100A50000127257434E00574C06900E0706800283F
:100A6000F9D170602CE0207C50BB88686060C86859
:100A7000A0600869E0604869A061F07800B1656035
:100A80006268B168184B501A20F07F40984202D239
:100A9000A168084406E0881AA16820F07F408142DE
:100AA00002D9081A206000E0256065600120A56079
:100AB00020742046E56100F0F5FAB8F10000A4D1F9
:100AC00099F8001099F801008142A3D117B9716813
:100AD000514502D00120BDE8F0870020FBE700006F
:100AE00018000020C4000020FFFF7F00FFF730FE49
:100AF00008B1FFF713FEFFF7C3FE0020FFF7B8FEB3
:100B00000120FFF7B5FE054800F012F8002000F0C4
:100B10002BFA20BF40BF20BFFBE7000040420F0080
:100B2000C20800F007030120895C98400840704724
:100B300000283ED01F49204A096800BF00BF00BFFF
:100B400000BF00BF00BF00BF00BF91422FD000BF59
:100B500000BF00BF00BF00BF00BF00BF00BF00BF9D
:100B600000BF00BF00BF00BF00BF00BF00BF00BF8D
:100B700000BF00BF00BF00BF00BF00BF00BF00BF7D
:100B800000BF00BF00BF00BF00BF00BF00BF00BF6D
:100B900000BF00BF00BF00BF00BF00BF00BF00BF5D
:100BA00000BF00BF00BF00BF00BF00BF00BF401EAE
:100BB000C3D170472C0000200024F40000283ED050
:100BC0001F49204A096800BF00BF00BF00BF00BF27
:100BD00000BF00BF00BF91422FD000BF00BF00BFC9
:100BE00000BF00BF00BF00BF00BF00BF00BF00BF0D
:100BF00000BF00BF00BF00BF00BF00BF00BF00BFFD
:100C000000BF00BF00BF00BF00BF00BF00BF00BFEC
:100C100000BF00BF00BF00BF00BF00BF00BF00BFDC
:100C200000BF00BF00BF00BF00BF00BF00BF00BFCC
:100C300000BF00BF00BF00BF00BF401EC3D1704750
:100C40002C0000200024F4004907090E002806DAD1
:100C500000F00F0202F1E02282F8141D03E000F11F
:100C6000E02282F8001400F01F02012191404009A7
:100C7000800000F1E020C0F88012C0F80011704739
:100C800000680121C160704730B54FF480340568B9
:100C90008C4013B1C5F8044301E0C5F8084300686F
:100CA00000EB8100C0F8402530BD00000168012242
:100CB0000A600079034A00EB400002EB8000022149
:100CC0000172704798000020F0B40468049E40F25E
:100CD0000115D4F800728D40AF43C4F80072046867
:100CE000D4F800521D43C4F800523346F0BCFFF75D
:100CF000CBBF0000F8B504460D460079204900EB53
:100D0000400001EB8006307A08B10820F8BD3AB106
:100D1000326068687060002003464FF4A07709E0F5
:100D20000720F8BD226807EB800153505158401C42
:100D3000C0B2009161798142F4D82068E978000B53
:100D400040B2FFF781FF20686978D0F8042561F38D
:100D50000102C0F804252068A978D0F8082561F3BD
:100D60000102C0F8082520682978D0F8102561F321
:100D70000302C0F81025012030720020F8BD0000E9
:100D8000980000200068012141607047006801213F
:100D9000016070472DE9FF411C46DDE90A781546E0
:100DA0000E46684600F028F846EA450141EA84010B
:100DB00041EA072242EA0841009A00EB8200C0F8AB
:100DC0000017BDE8FF8113B50C46684600F022F815
:100DD000009900EB8101D1F8002722F44032C1F8DC
:100DE0000027009900EB8100D0F8001741EA044188
:100DF000C0F800171CBD00000168202902D24FF086
:100E0000A040704701F01F010160014870470000D9
:100E1000000300500168202902D24FF0A040704723
:100E200001F01F01016001487047000000030050FD
:100E300038B501240090684631B1FFF7DDFF009915
:100E40008C40C0F8084538BDFFF7D6FF00998C40AC
:100E5000C0F80C4538BD00001CB5094C0144D4E96C
:100E60000034CDE900346C4606E000BF54F8203071
:100E7000D3F81035401C08C28142F7D81CBD0000D1
:100E800008140000034908B5084400210160006807
:100E9000009008BD0060004002494058012800D081
:100EA00000207047006000404058002800D001201A
:100EB000704708B5002242504058009008BDD0F855
:100EC0000403084000D0012070474058002800D09B
:100ED0000120704708B5002242504058009008BDDC
:100EE00070B5012670044FF0E0210025C1F88001A3
:100EF000084C4010C4F84803C4F8080366602F206B
:100F0000FFF75CFEA660044C2F20A560FFF756FE9D
:100F1000A57070BD001001401800002070B5054696
:100F2000C87D0C4600284FF4847128460AD0FFF78C
:100F3000C0FFD5F81805627EE1688854607E401CC9
:100F4000607670BDFFF7B5FFD5F8180570BD1FB509
:100F500001238DF800308DF808100192D0E90012BD
:100F6000684690471FBD000007490870087820B107
:100F7000012805D00878FFF7D1BB0021084601E021
:100F800001210846FFF71ABD00000020234810B5D4
:100F900002780A211AB1012A1DD0007815E04268B2
:100FA000521E426015D08268521E826003D1816059
:100FB0000020FFF73FFC00234CF25032AFF2330128
:100FC0001846FFF7E5FB002826D0BDE81040FFF7E4
:100FD000A5BB01201CE04268521E426009D0826815
:100FE000521E826018D18160BDE810400120FFF7D9
:100FF00021BC0020FFF73CFC0120FFF739FCFFF784
:1010000009FC08B1FFF78AFB0548FFF791FD0020B6
:10101000BDE81040FFF7A8BF10BD00000000002091
:1010200040420F002DE9F84F1D4C00256846D4E9D9
:1010300001A6FFF7A3FC002738B30023009A6168DC
:101040001CE0D1F800C00846944503D9ACEB02027D
:101050000A6015E0A2EB0C0263440760D0F80CC0F4
:10106000C1698146BCF1000F08D006EB030828F0E7
:101070007F48C0E9018CC9F81C5005460029E0D121
:1010800028466160FFF7B6FC03E02846FFF7B2FC94
:1010900010B15046FFF71CFCE770BDE8F88F000068
:1010A000180000200D4B10B5596831B102680C686A
:1010B000A24204D8A21A0A60C161586010BD0B4652
:1010C00003E00B46C969121B21B10C689442F8D3A6
:1010D000A41A0C600260C161D86110BD1800002024
:1010E0002DE9F041144E77683D462C4603E08442DA
:1010F00004D02546E469002CF9D11BE0D4B1A54207
:101100000BD1F869706040B90C490120886000215A
:10111000B160F0702F20FFF751FD2168E069E861B0
:1011200010B10268114401607068874202D001204A
:10113000BDE8F0810020FBE718000020001001400E
:101140002DE9F041194D6C68002C2CD0184800276F
:101150000068A968B846401A20F07F462068B0426F
:101160000CD82146361A0744E469087C20B181F87E
:101170001080886949698847002CEFD12978687800
:10118000814206D1401CC0B26870022801D185F8A6
:101190000180064869780C3040F82170BDE8F041C4
:1011A0001420FFF753B9BDE8F081000018000020BB
:1011B0000415014070B50C4605464FF48E71FFF7DB
:1011C00078FEA18AA068415CA08A401CA082C5F874
:1011D0001C1570BD1FB500228DF800208DF8081079
:1011E000816801918275D0E90012684690471FBD61
:1011F0002DE9FF470C4605464FF40071FFF75FFEEF
:1012000001274FF40178002618B34FF4927949462C
:101210002846FFF749FEE0B149462846FFF749FE58
:10122000C5F80883A07E00B96F6002208DF8000029
:10123000D5F88004C5F880040390E07D8DF808009F
:10124000E0680190E6752676D4E90012684690477A
:1012500027E004212846FFF732FE10B34FF48471D3
:101260002846FFF721FEE0B121462846FFF756FE4B
:10127000E07D617E884214D1207E38B1617EE268D3
:10128000E0752069E0602676667607E0A07E00B90A
:101290006F60C5F80883E675617EE2682046FFF757
:1012A00056FE4FF48E7841462846FFF7FDFD88B183
:1012B000A08AA17D884204D221462846FFF77AFF02
:1012C00008E041462846FFF7F4FDA17D11B1204614
:1012D000FFF780FF4FF4A27841462846FFF7E4FD70
:1012E000002812D041462846FFF7E3FDA07E00B15A
:1012F0002F60E07D002808D0E675617EE26804B0CA
:101300002046BDE8F047FFF722BEBDE8FF872DE984
:10131000FF410C464FF4927705463946FFF7D5FD5D
:101320000026C0B139462846FFF7D4FD02208DF8CB
:101330000000D5F88004C5F880040390D5F83C057A
:101340008DF80800E0680190E6752676D4E9001271
:101350006846904724E04FF4887739462846FFF7DF
:10136000B4FDE8B139462846FFF7B4FDD5F83C0591
:10137000C1B2E07D884213D1207E60B1E268D5F829
:10138000000220F02000C5F80002207EE0752069F0
:10139000E060267601E0E675E2682046FFF7D7FDBB
:1013A0004FF4A27739462846FFF78FFD68B13946DA
:1013B0002846FFF78FFDE07D38B1E675D5F83C058E
:1013C000E268C1B22046FFF7C2FD4FF49076314685
:1013D0002846FFF77AFD00280FD031462846FFF750
:1013E00079FDA07D002808D0D5F84C0504B0C1B225
:1013F0002046BDE8F041FFF7EDBEBDE8FF810D0ED0
:101400000F100B0C181900000000005000030050D2
:1014100000900040000400000000000700000000F1
:10142000401400000000002030000000DC06000036
:101430007014000030000020A0210000EC06000025
:10144000000000000000000000000000000000009C
:10145000000000000000000000000000000000008C
:101460000000000000000000000000000090D00319
:0400000500000201F4
:00000001FF
