:020000040000FA
:10000000E0210020150200001D0200001F02000078
:100010002102000023020000250200000000000071
:1000200000000000000000000000000027020000A7
:1000300029020000000000002B0200002D02000039
:100040002F0200002F020000C106000089040000FA
:100050002F0200002F0200005D0200002F020000AE
:100060002F0200002F0200002F0200002F020000CC
:100070002F0200002F0200002F0200002F020000BC
:100080002F020000650400002F0200002F02000074
:10009000D50400002F0200002F0200002F020000F4
:1000A0002F0200002F0200002F0200002F0200008C
:1000B0002F0200002F0200000000000000000000DE
:1000C0002F0200002F0200002F0200002F0200006C
:1000D0002F0200002F0200002F0200002F0200005C
:1000E0002F0200002F0200002F0200002F0200004C
:1000F000000000002F0200000000000000000000CF
:1001000000000000000000000000000000000000EF
:1001100000000000000000000000000000000000DF
:1001200000000000000000000000000000000000CF
:1001300000000000000000000000000000000000BF
:1001400000000000000000000000000000000000AF
:10015000000000000000000000000000000000009F
:10016000000000000000000000000000000000008F
:10017000000000000000000000000000000000007F
:10018000000000000000000000000000000000006F
:10019000000000000000000000000000000000005F
:1001A000000000000000000000000000000000004F
:1001B000000000000000000000000000000000003F
:1001C000000000000000000000000000000000002F
:1001D000000000000000000000000000000000001F
:1001E000000000000000000000000000000000000F
:1001F00000000000000000000000000000000000FF
:10020000DFF80CD000F018F800480047A9090000FA
:10021000E02100200648804706480047FEE7FEE749
:10022000FEE7FEE7FEE7FEE7FEE7FEE7FEE7FEE7A6
:10023000D904000001020000064C074D06E0E0680A
:1002400040F0010394E8070098471034AC42F6D31D
:10025000FFF7DAFF68140000881400002DE9F04F62
:1002600000268FB0DFF8B081B14602964FF480755A
:10027000012437460396284600F026FE38B1D8F808
:100280000403204203D0284600F014FE26432D1D0F
:1002900064007F1CADB2082FEDD34FF4BE7420462E
:1002A00000F012FE48B1204600F004FE46F0004681
:1002B00002AA0221002000F0E7FD584C16F0FF0FC3
:1002C00015D00127002537420DD008EB8501D1F864
:1002D0001005D1F81015C0F3052054F82520C1F3FE
:1002E000014102B190477F006D1C082DEBD3002E19
:1002F0007DDA0020CDF82890411E0DF1080B08AAE8
:10030000CDF82C9042F82010401C91460228F9D3D9
:1003100000252E46A01910F8607F90F9000027F004
:10032000C008401C49D008A9404600F085FB88B3AE
:100330004FEA971A404600F03DFA54F820701FB17A
:10034000BAF1030F03D00FE0BAF1030F35D10AA8B9
:100350004FEAD80208F00703815C4FF0010C0CFA59
:1003600003FC41EA0C01815406A8CDF8188000F086
:1003700051FD069900EB8100D0F8000702A9C0F3F7
:1003800001400690404600F057FB0028069802D036
:10039000022802D011E003280FD1BAF1030F08D1CF
:1003A0000698022832D00221404600F003FD6D1C61
:1003B000EDB217B151464046B847761C042EA9D37A
:1003C000002D20D004AA0221002000F05DFD0020B5
:1003D0005A4604A952F8206051F82030B34217D091
:1003E00000200AAE4FEA090351F8207000E00AE04D
:1003F00042F8207056F8207043F82070401C022804
:10040000F2D3002D84D10FB0BDE8F08F0321CBE7EC
:10041000401C0228DED3F6E70060004028000020E0
:1004200000F01F02012191404009800000F1E0200E
:10043000C0F88012704700F01F020121914040096E
:10044000800000F1E020C0F80011704700F01F02AA
:10045000012191404009800000F1E020C0F8001225
:100460007047000007480021C0F84011C0F844114F
:10047000C0F84811C0F84C11C0F80011C0F80411C0
:1004800000F07EBE00100140F8B511480F4D044643
:100490004FF48C7100F020FD002815D00026C4F820
:1004A0001861D4F818010090A87F2C46FF2801D0CD
:1004B00000F0CCFC66772672D4E9002101B004F18B
:1004C0000800BDE8F0401047F8BD00009000002093
:1004D0000030004000F0C6BD30B54FF08050002223
:1004E000D0F830110123082902D1D0F8344114B1D9
:1004F000082909D00BE04FF08041C1F80C21C1F868
:10050000102161490A6005E0D0F8344114B108298E
:1005100057D059E05D4909685D4C21605B49091D70
:100520000968241D2160594908310968241D21608A
:1005300056490C310968241D21605449103109685D
:10054000241D2160514914310968241D21604F493F
:10055000183109684E4C203421604C491C3109681F
:10056000241D2160494920310968241D2160474923
:1005700024310968241D2160444928310968241D5B
:10058000216042492C310968241D21603F493031E6
:1005900009683F4C403421603C4934310968241DCE
:1005A00021603A4938310968241D216037493C31BE
:1005B0000968241D2160354940310968241D2160E6
:1005C00005E0D0F8344114B1082904D006E0324CDB
:1005D0003049216005E0D0F8344114B1082904D035
:1005E00006E02E4CFB21216005E0D0F8344114B127
:1005F000082908D00EE090F858422948016864F3B1
:100600000301016002E0D0F8340118B925494FF424
:10061000007008602448016841F470010160BFF374
:100620004F8FBFF36F8F4FF01021D1F800020028D9
:1006300003DBD1F80402002822DA1C4C23601C489A
:100640000368002BFCD01223C1F800320568002D8E
:10065000FCD0C1F8043201680029FCD02260016896
:100660000029FCD0BFF34F8F0F487C380168114A36
:1006700001F4E06111430160BFF34F8F00BFFDE75C
:100680000E490D48086030BD3805004004040010D4
:1006900020C50040488103008C56004018F50040FA
:1006A000E40E00404096024088ED00E004E5014081
:1006B00000E401400400FA050090D003240000206B
:1006C0000448017F04480029024901D000F03FBEE0
:1006D00000F0AEBDB40000200020004002E008C8D9
:1006E000121F08C1002AFAD170477047002001E0AC
:1006F00001C1121F002AFBD170470000BFF34F8FCA
:1007000005480168054A01F4E06111430160BFF347
:100710004F8F00BFFDE700000CED00E00400FA057C
:100720000EB500210091CDE901106A4644F20100A6
:10073000FFF7E4FF0EBD0000094908B5085C009012
:10074000684600F059FBD0F80425009B0121994030
:1007500021EA0203C0F808351140C0F80C1508BDA5
:10076000581400000249085C012100F079BB000028
:10077000581400007CB50024084E25460122305D47
:10078000009500231146019500F0D8FA641C042C52
:10079000F4D3BDE87C4000F003B80000581400001A
:1007A00010B500242046FFF7DDFF641C042CF9D3AC
:1007B00010BD00000249084490F930007047000065
:1007C000280000202DE9F05F26484168F1B3DFF8EA
:1007D00098B00E688146DBF8004087688078E11B9E
:1007E00021F07F45ED1CB0B9DFF880804FF48030F8
:1007F000C8F84403C8F804031120FFF711FE1120C4
:10080000FFF719FE4FF0010AC8F800A02F2000F0F2
:1008100061F989F802A0B54200D23546124BE819B9
:100820003C3320F07F401860DBF800105A46091B6B
:1008300021F07F41001B20F07F40C91C81420FD96D
:10084000106818602F2000F045F900E004E0BDE8D2
:10085000F05F1120FFF7FABDBDE8F05F00F05EBB6E
:10086000BDE8F09F10000020041501400010014079
:100870000E4910B50A784C780023A24212D0521CBF
:10088000D2B20A70022A00D10B70084A0B780C32DF
:1008900052F8232002608868104420F07F4088606E
:1008A000012010BD0360002010BD000010000020DA
:1008B0002DE9F047394E002780463D46DFF8E090AD
:1008C000D6F804A057E003D00446D0F81C8035E0E9
:1008D00099F8002002EB4201521CD2B289F80020A4
:1008E00009EBC10199F80230091D9A4201D189F83A
:1008F000005048680A780446012A12D0022A02D021
:10090000032A3BD108E000F00BFC00B1012725745D
:1009100034E00574C06900E070680028F9D17060A7
:100920002CE0207C50BB88686060C868A0600869C3
:10093000E0604869A061F07800B165606268B16804
:10094000184B501A20F07F40984202D2A168084408
:1009500006E0881AA16820F07F40814202D9081A77
:10096000206000E0256065600120A56020742046BD
:10097000E56100F0B7FBB8F10000A4D199F80010D0
:1009800099F801008142A3D117B97168514502D08D
:100990000120BDE8F0870020FBE7000010000020E8
:1009A000D4000020FFFF7F0086B0FFF7E3FE1E4B60
:1009B0000DF1040C0FCB8CE80F001D208DF8070003
:1009C0001C208DF8060004208DF8050003208DF80A
:1009D000040015480023154A01A9083800F0E4F87E
:1009E00008B1FFF79DFE0025114C124E0727A560A8
:1009F000A581A57325700E4B0B4808330722D91F1C
:100A00000838009700F05AF918B1FFF789FE00E0A6
:100A100020BF20780028FBD00020FFF78DFE304655
:100A200000F012F8E3E7000048140000A50F0000F2
:100A300000000020400D0300C20800F00703012061
:100A4000895C98400840704700283ED01F49204AE2
:100A5000096800BF00BF00BF00BF00BF00BF00BFEC
:100A600000BF91422FD000BF00BF00BF00BF00BF3A
:100A700000BF00BF00BF00BF00BF00BF00BF00BF7E
:100A800000BF00BF00BF00BF00BF00BF00BF00BF6E
:100A900000BF00BF00BF00BF00BF00BF00BF00BF5E
:100AA00000BF00BF00BF00BF00BF00BF00BF00BF4E
:100AB00000BF00BF00BF00BF00BF00BF00BF00BF3E
:100AC00000BF00BF00BF401EC3D1704724000020FC
:100AD0000024F40000283ED01F49204A096800BFC6
:100AE00000BF00BF00BF00BF00BF00BF00BF9142FA
:100AF0002FD000BF00BF00BF00BF00BF00BF00BFBE
:100B000000BF00BF00BF00BF00BF00BF00BF00BFED
:100B100000BF00BF00BF00BF00BF00BF00BF00BFDD
:100B200000BF00BF00BF00BF00BF00BF00BF00BFCD
:100B300000BF00BF00BF00BF00BF00BF00BF00BFBD
:100B400000BF00BF00BF00BF00BF00BF00BF00BFAD
:100B500000BF401EC3D17047240000200024F400D1
:100B60004907090E002806DA00F00F0202F1E02220
:100B700082F8141D03E000F1E02282F8001400F076
:100B80001F02012191404009800000F1E020C0F8DF
:100B90008012C0F8001170470121B1EB507F01D1E4
:100BA00001207047002070472DE9FC470746407937
:100BB0000C46DFF804A100EBC0010AEB8106307F90
:100BC00010B10820BDE8FC87C6E90023207B01287E
:100BD000207802D800F006F901E000F037F94FF074
:100BE0000009CDF80090CDF8049020784B464A4695
:100BF000012100F0BCF860784FF0FF35FF2806D0E7
:100C0000804600F0EFF8404600F0CAF800E0A84641
:100C1000A078FF2809D0002205464B46CDF8009069
:100C20001146CDF8049000F0A2F8E078FF2804D037
:100C300000F00CF9E07800F0B3F87879E17800EB97
:100C4000C0020AEB8200817738682278C0F8082554
:100C5000C0F80C85C0F81055A168C0F82415227B97
:100C6000617B01B10121012A04D0022A05D0032AA7
:100C700008D105E041F0020104E041F0040101E087
:100C800041F00601C0F854156179C0F8C01531680B
:100C900011B14021C0F804130721C0F800153068D5
:100CA00020B1217997F90400FFF75AFF484686F8EA
:100CB0001D900121317785E7900000201FB5069C2B
:100CC00000918DF8042002938DF80C4000226946B3
:100CD00000F002F804B010BD2DE9F04105460F46C2
:100CE0004079154900EBC00001EB80041646607F97
:100CF00010B11120BDE8F081206820B116F0140F6A
:100D000001D10120607797E80F0004F10C0888E812
:100D10000F0094F8210020F0070084F82100A07F44
:100D2000FF2801D000F05EF833463A462146286895
:100D3000BDE8F04100F03CB9900000202DE9FF41F2
:100D40001C46DDE90A7815460E46684600F054F860
:100D500046EA450141EA840141EA072242EA0841A4
:100D6000009A00EB8200C0F80017BDE8FF812DE972
:100D7000FF411C46DDE90A7815460E46684600F03C
:100D800057F846EA450141EA840141EA072242EA6E
:100D90000841009A00EB8200C0F80017BDE8FF810F
:100DA0001CB5002100910B46012201911146FFF76D
:100DB000DEFF1CBD13B50C46684600F02BF8009909
:100DC00000EB8101D1F8002722F44032C1F800275E
:100DD000009900EB8100D0F8001741EA0441C0F807
:100DE00000171CBD01B5684600F022F8009A0121E9
:100DF0009140C0F80C1508BD0168202902D24FF0BF
:100E0000A040704701F01F010160014870470000D9
:100E1000000300500168202902D24FF0A040704723
:100E200001F01F01016001487047000000030050FD
:100E30000168202902D24FF0A040704701F01F0145
:100E400001600148704700000003005001B568468A
:100E5000FFF7EEFF009A01219140C0F8081508BD88
:100E600038B501240090684631B1FFF7C5FF0099FD
:100E70008C40C0F8084538BDFFF7BEFF00998C4094
:100E8000C0F80C4538BD00001CB5094C0144D4E93C
:100E90000034CDE900346C4606E000BF54F8203041
:100EA000D3F81035401C08C28142F7D81CBD0000A1
:100EB00060140000034908B508440021016000687F
:100EC000009008BD0060004002494058012800D051
:100ED00000207047006000404058002800D00120EA
:100EE00070474058002800D00120704708B5002204
:100EF00042504058009008BDD0F80403084000D08C
:100F0000012070474058002800D00120704708B5E4
:100F1000002242504058009008BD000070B50126E4
:100F200070044FF0E0210025C1F88001084C40100A
:100F3000C4F84803C4F8080366602F20FFF7CAFD11
:100F4000A660044C2F20A560FFF7C4FDA57070BDFE
:100F5000001001401000002070B50546C87D0C4609
:100F600000284FF4847128460AD0FFF7BFFFD5F858
:100F70001805627EE1688854607E401C607670BD12
:100F8000FFF7B4FFD5F8180570BD1FB501238DF824
:100F900000308DF808100192D0E9001268469047A1
:100FA0001FBD0000014901200870704700000020AB
:100FB0002DE9F843044610681E4615460F464FF0CB
:100FC000000810B1FFF7E8FDF8B1A86810B1FFF70D
:100FD000E3FDD0B128792968C4F84415C4F8480560
:100FE000287BA968C4F83415C4F838054FF48C750B
:100FF0004046C4F81881D4F818110091F2074FF058
:10100000010107D0C4F8501506E087F81D801020B4
:10101000BDE8F883C4F85005B20702D5C4F84015FE
:1010200001E0C4F84005300700D42161386848B1B8
:1010300046F38000401C4FF040000FD0C4F804037A
:101040000020E5E729462046FFF746FF0028F9D0B3
:10105000B87FFF28F4D0FFF7F9FEF1E7C4F80803E2
:10106000EEE700002DE9F84F1D4C00256846D4E955
:1010700001A6FFF7FDFB002738B30023009A616843
:101080001CE0D1F800C00846944503D9ACEB02023D
:101090000A6015E0A2EB0C0263440760D0F80CC0B4
:1010A000C1698146BCF1000F08D006EB030828F0A7
:1010B0007F48C0E9018CC9F81C5005460029E0D1E1
:1010C00028466160FFF7F4FB03E02846FFF7F0FBDA
:1010D00010B15046FFF776FBE770BDE8F88F0000CF
:1010E000100000200D4B10B5596831B102680C6832
:1010F000A24204D8A21A0A60C161586010BD0B4612
:1011000003E00B46C969121B21B10C689442F8D365
:10111000A41A0C600260C161D86110BD10000020EB
:101120002DE9F041144E77683D462C4603E0844299
:1011300004D02546E469002CF9D11BE0D4B1A542C6
:101140000BD1F869706040B90C490120886000211A
:10115000B160F0702F20FFF7BDFC2168E069E86105
:1011600010B10268114401607068874202D001200A
:10117000BDE8F0810020FBE71000002000100140D6
:101180002DE9F041194D6C68002C2CD0184800272F
:101190000068A968B846401A20F07F462068B0422F
:1011A0000CD82146361A0744E469087C20B181F83E
:1011B0001080886949698847002CEFD129786878C0
:1011C000814206D1401CC0B26870022801D185F866
:1011D0000180064869780C3040F82170BDE8F04184
:1011E0001420FFF733B9BDE8F081000010000020A3
:1011F0000415014070B50C4605464FF48E71FFF79B
:1012000075FEA18AA068415CA08A401CA082C5F836
:101210001C1570BD1FB500228DF800208DF8081038
:10122000816801918275D0E90012684690471FBD20
:101230002DE9FF470C4605464FF40071FFF75CFEB1
:1012400001274FF40178002618B34FF492794946EC
:101250002846FFF746FEE0B149462846FFF746FE1E
:10126000C5F80883A07E00B96F6002208DF80000E9
:10127000D5F88004C5F880040390E07D8DF808005F
:10128000E0680190E6752676D4E90012684690473A
:1012900027E004212846FFF72FFE10B34FF4847196
:1012A0002846FFF71EFEE0B121462846FFF754FE10
:1012B000E07D617E884214D1207E38B1617EE26893
:1012C000E0752069E0602676667607E0A07E00B9CA
:1012D0006F60C5F80883E675617EE2682046FFF717
:1012E00054FE4FF48E7841462846FFF7FAFD88B148
:1012F000A08AA17D884204D221462846FFF77AFFC2
:1013000008E041462846FFF7F1FDA17D11B12046D6
:10131000FFF780FF4FF4A27841462846FFF7E1FD32
:10132000002812D041462846FFF7E0FDA07E00B11C
:101330002F60E07D002808D0E675617EE26804B089
:101340002046BDE8F047FFF720BEBDE8FF872DE946
:10135000FF410C464FF4927705463946FFF7D2FD20
:101360000026C0B139462846FFF7D1FD02208DF88E
:101370000000D5F88004C5F880040390D5F83C053A
:101380008DF80800E0680190E6752676D4E9001231
:101390006846904724E04FF4887739462846FFF79F
:1013A000B1FDE8B139462846FFF7B1FDD5F83C0557
:1013B000C1B2E07D884213D1207E60B1E268D5F8E9
:1013C000000220F02000C5F80002207EE0752069B0
:1013D000E060267601E0E675E2682046FFF7D5FD7D
:1013E0004FF4A27739462846FFF78CFD68B139469D
:1013F0002846FFF78CFDE07D38B1E675D5F83C0551
:10140000E268C1B22046FFF7C0FD4FF49076314646
:101410002846FFF777FD00280FD031462846FFF712
:1014200076FDA07D002808D0D5F84C0504B0C1B2E7
:101430002046BDE8F041FFF7EDBEBDE8FF810000AA
:101440000030004003000100FFFFFFFF07FF000026
:1014500000000040000000000D0E0F100B0C1819CA
:10146000000000500003005088140000000000201D
:1014700028000000DC060000B01400002800002056
:10148000B8210000EC060000004E6F726469630032
:10149000000000000000000000000000000000004C
:1014A0000000000000000000000000000090D003D9
:0400000500000201F4
:00000001FF
