:020000040000FA
:1000000038270020490200005102000015020000BC
:1000100055020000570200005902000000000000D5
:100020000000000000000000000000005B02000073
:100030005D020000000000005F020000610200009D
:10004000310600006302000069090000630200003D
:10005000630200001D030000630200006302000051
:1000600063020000630200006302000063020000FC
:1000700063020000630200006302000063020000EC
:1000800063020000630200006302000063020000DC
:1000900063020000630200006302000063020000CC
:1000A00063020000630200006302000055090000C3
:1000B0006302000063020000000000000000000076
:1000C000630200006302000063020000630200009C
:1000D00063020000630200006302000000000000F1
:1000E0000000000000000000000000000000000010
:1000F0000000000000000000000000000000000000
:1001000000000000000000000000000000000000EF
:1001100000000000000000000000000000000000DF
:1001200000000000000000000000000000000000CF
:1001300000000000000000000000000000000000BF
:1001400000000000000000000000000000000000AF
:10015000000000000000000000000000000000009F
:10016000000000000000000000000000000000008F
:10017000000000000000000000000000000000007F
:10018000000000000000000000000000000000006F
:10019000000000000000000000000000000000005F
:1001A000000000000000000000000000000000004F
:1001B000000000000000000000000000000000003F
:1001C000000000000000000000000000000000002F
:1001D000000000000000000000000000000000001F
:1001E000000000000000000000000000000000000F
:1001F00000000000000000000000000000000000FF
:10020000DFF80CD000F064F800480047A1110000AE
:1002100038270020094B1EF0040F1CBFEFF30980A4
:100220001847EFF308800649064A884201D89042F1
:1002300002D88D464FF0000018470000F50200007C
:100240003827002038070020064880470648004726
:10025000FEE7FEE7FEE7FEE7FEE7FEE7FEE7FEE776
:10026000FEE7FEE7890600000102000040EA010304
:100270009B0703D009E008C9121F08C0042AFAD25C
:1002800003E011F8013B00F8013B521EF9D2704720
:10029000D2B201E000F8012B491EFBD270470022C8
:1002A000F6E710B513460A4604461946FFF7F0FF75
:1002B000204610BD30B504460020034600E05B1C1C
:1002C000934203D2E05CCD5C401BF8D030BD00000F
:1002D000064C074D06E0E06840F0010394E8070093
:1002E00098471034AC42F6D3FFF78EFF581C00003D
:1002F000781C000000F000F8BFF34F8F054801683C
:10030000054A01F4E06111430160BFF34F8F00BF64
:10031000FDE700000CED00E00400FA052DE9F84FC0
:10032000DFF8A482D8F804010025A84C012688B182
:10033000D8F8000380070DD5A54801F0DDFA6078F4
:1003400038B904F1200001F047FAA248C6600660FF
:10035000A5616670D8F81801DFF87C92DFF878B2F2
:100360004FF0100AA9F18C09002870D0D8F80003CA
:1003700040066CD5984878380068C0F3C800801EE5
:1003800000909348143001F0B7FA94480178E029BE
:1003900010D00178C22914D0E17811B10178F22986
:1003A00011D0017801F0EE01022929D000785028FF
:1003B0003CD03FE0DBF8001041F00101CBF8001029
:1003C0003AE0A67038E0E570207970B32571804876
:1003D0000C3001F091FAC8F804A32169C9F80010A3
:1003E000616940F6FF7000EAC1017B488038016016
:1003F0007949032090390860C8F80C6065711BE0EA
:100400007248F221C01D017016214170C9F8000028
:1004100071498039C1F800A06F49022290390A6001
:10042000C8F80C606671C8F804A305E02670402087
:10043000C8F80803C8F81C60E76827B1674A0221BA
:10044000009BE069B8476248083001F055FAD8F8D7
:10045000100168B3D8F80003C00629D55C480C30F9
:1004600001F04AFAC8F808A3A07860B1DBF80010E0
:1004700021F00101CBF80010C8F828604020C8F82E
:100480000803A5700DE05548C9F8000052494FF423
:10049000807088390860C8F81C604FF48860C8F81C
:1004A0000403E76827B100231A460321E069B8472F
:1004B000D8F84C014FF00D0B78B3D8F800030003C7
:1004C0002BD54348483001F017FA4148143001F069
:1004D00013FA3F48243001F00FFA4048C9F80000F1
:1004E0003D494FF4807088390860C8F81C604FF4AB
:1004F0008860C8F804033A49C1F800B0384908399F
:10050000C1F800B0E76827B100231A461946E06930
:10051000B847E570257125616561D8F8280138B3C1
:10052000D8F80003400523D52D4F386828482430DB
:1005300001F0E2F9E5702079C0B1257165712448B8
:100540000C3001F0D9F9C8F804A32169C9F80010EA
:10055000616940F6FF7000EAC1011F488038016000
:100560001D49032090390860C8F80C60C7F800B036
:10057000D8F81C01A0B1D8F80003000610D5184F18
:10058000083FD7F800901248183001F0B5F95FEA3B
:10059000C97003D0207808B13E602570C7F800B05C
:1005A000D8F80C0100280CD0D8F80003000708D5B3
:1005B0000748083001F0A0F96079002801D0657182
:1005C000E670BDE8F88F00000050004008000020F1
:1005D0000451004000B001409C550040A0040020A0
:1005E0000C54004000F01F0201219140400980009E
:1005F00000F1E020C0F88012704700F01F020121D6
:1006000091404009800000F1E020C0F800117047DF
:100610004907090E002806DA00F00F0000F1E0207B
:1006200080F8141D704700F1E02080F80014704736
:100630002DE9F0414FF48077384601F09BF8012412
:10064000104EA50748B1384601F09BF80120C5F8C7
:1006500008037470002000F009FA4FF482773846DE
:1006600001F088F800280BD0384601F08AF8022003
:10067000C5F80803B470BDE8F041012000F0F6B9F8
:10068000BDE8F0816C040020F0B5A3480023021DF2
:1006900001780125101D4FF0805406290BD11678E2
:1006A000360708D10678C6F30316032E06D0042EAB
:1006B00004D0052E02D0062907D00EE0B4F824633A
:1006C000964FC6F304263E6002E01678360704D142
:1006D0000678C6F30316032E02D0062904D00FE0D5
:1006E000904F8F4E7E670EE01678360708D1067859
:1006F000C6F30316032E06D0042E04D0052E02D016
:10070000062907D00EE0D4F84462874FC6F342367C
:100710003E6002E01678360704D10678C6F3031669
:10072000032E02D0062906D011E0804E376827F04C
:10073000807737600EE01678360708D10678C6F362
:100740000316032E06D0042E04D0052E02D006294F
:100750000AD011E04FF08046C6F80C31C6F81031CF
:10076000714E361F336002E01678360704D10678E2
:10077000C6F30316032E02D0062905D00CE06A4FFB
:10078000032664373E600AE01678360704D10678FF
:10079000C6F30316032E02D006290DD014E0644FD1
:1007A00005263E60624E78363560614E083633600D
:1007B0003F263F1D3E6002E01678360704D10678DA
:1007C000C6F30316052E02D0062957D068E0594912
:1007D0000968594A11605749091D0968121D1160BD
:1007E000544908310968121D116052490C310968D9
:1007F000121D11604F4910310968121D11604D49D9
:1008000014310968121D11604A49183109684A4AB1
:100810002032116047491C310968121D1160454999
:1008200020310968121D1160424924310968121DE6
:100830001160404928310968121D11603D492C3171
:100840000968121D11603B49303109683A4A40324B
:100850001160384934310968121D11603549383149
:100860000968121D116033493C310968121D11607D
:10087000304940310968121D116002E01178090702
:100880000ED10078C0F30310032803D0042801D050
:10089000052805D1D4F85802284900F04F00086017
:1008A00022487438016841F470010160BFF34F8F32
:1008B000BFF36F8F4FF01021D1F80002002803DB47
:1008C000D1F80402002822DA1D4A15601D48046888
:1008D000002CFCD01524C1F800420568002DFCD086
:1008E000C1F8044201680029FCD0136001680029A6
:1008F000FCD0BFF34F8F0D48F0380168124A01F465
:10090000E06111430160BFF34F8F00BFFDE7104965
:100910000E480860F0BD0000E00F00F040350140D7
:100920000DF0ADBA00C007403C050040FCED00E012
:10093000105600400404001020C50040E40E0040A2
:1009400004E5014000E401400400FA050090D003F2
:100950005800002010B500F025F902490020C1F828
:10096000400110BD00B001400448017F0448002947
:10097000024901D001F0B4B801F023B8800400208E
:100980000020004002E008C8121F08C1002AFAD166
:1009900070477047002001E001C1121F002AFBD1FF
:1009A00070470000BFF34F8F05480168054A01F406
:1009B000E06111430160BFF34F8F00BFFDE700000E
:1009C0000CED00E00400FA050EB500210091CDE920
:1009D00001106A4644F20100FFF7E4FF0EBD00F08B
:1009E00003B800F009B8000072B602480168491C5B
:1009F000016070470400002003490868401E086039
:100A000000D162B670470000040000200249085C73
:100A1000012100F05DBF0000DE1B00000249085C00
:100A2000002100F055BF0000DE1B00007CB5002453
:100A3000084E25460122305D0095002311460195A0
:100A400000F034FF641C042CF4D3BDE87C4000F0BB
:100A500003B80000DE1B000010B500242046FFF79D
:100A6000D5FF641C042CF9D310BD000070B5084CF0
:100A7000050009D010342168002907D008682060DB
:100A8000496828468847F6E70834F4E770BD000057
:100A90006C040020F8B5174CA0422AD1044600256A
:100AA00049B1012918D0022910D0032921D1BDE86C
:100AB000F84000F07DB9D4F82061002E19D0002351
:100AC0000095D0F824011A46012111E0C4E902235F
:100AD000BDE8F84000F0F6B900F05CF9D4F8206108
:100AE000002E06D0002300951A460221D4F82401D6
:100AF000B047F8BDF8050020F0B525490B68091D81
:100B00000968244A0224C2F804430824C2F80443B2
:100B1000214CC2F80443DAB2C3F30724C3F30743FA
:100B2000027082EA040583F0880644707540837081
:100B3000C5700D0A0E0C01710F0E4571867169406A
:100B40007E40C771714001721204002142EA042202
:100B50001A43124B41721A604268C07912BA22F0ED
:100B6000FF020243181F02600C4A4FF6FF708C3AD6
:100B700010600B4804228271084B202210331A6047
:100B800044221B1F1A60C170017101614161F0BDF7
:100B900050040010005000408000080094550040B0
:100BA00008000020FEB513480068134C10F0030F36
:100BB0004FF0000501D0A561FEBDA069401CA061F9
:100BC0000728F9D90D480126066100F0F1FDBFF3B1
:100BD0005F8F0B480560BFF35F8F0660E66826B144
:100BE00000231A460121E069B04765706846FFF7A7
:100BF00083FFFEBD3C5400400800002000B00140CF
:100C0000FC5F004070B50C00054607D0114AD07853
:100C1000012628B1C2E90454167118E00C2070BDF9
:100C2000002050710C4800F067FE0C481021C0F8FD
:100C300004130B490D600A4A40F6FF710C3201EAB9
:100C4000C4011160064A0321121F1160C660002012
:100C500070BD00000800002010510040005000400E
:100C6000105500403EB5194AD161D0606846FFF783
:100C700043FF1648164920300024C0E9004100F027
:100C8000D7FD054613480460001D04601149042087
:100C90000C3108600F4964203C3108600E48012186
:100CA000C0F800120904C0F804131B20FFF79AFCD7
:100CB00007211B20FFF7ACFC1B20FFF79EFC1DB19A
:100CC000852D01D003203EBD00203EBD0800002040
:100CD000E918000004B5014000B00140094910B511
:100CE0000D2008600849012088600520FFF77AFC84
:100CF00007210520FFF78CFC0520FFF77EFC002074
:100D000010BD00000454004000500040054910B5DB
:100D100001200860012000F03DFD0028FAD10249C1
:100D2000487010BD040000406C04002038B5184C19
:100D3000049DA0422AD104F1280080E82C0020461E
:100D40000022D0E9015001290DD0022912D0052935
:100D500005D006291AD1BDE8384000F04BBBBDE8EC
:100D6000384000F083BB002D10D0002300921A46BB
:100D700001210AE04FF0FF31616284F83A20002D32
:100D800004D0002300921A460221A84738BD000073
:100D9000AC05002001210176002180F81E1180F8A9
:100DA0001F1101714171C0F82811C0F82C11704752
:100DB000F8B5044690F81C0100280FD000250095D6
:100DC000D4E94903D4F82061D4F83421052104F58D
:100DD0008E74B047A56104F8015C2570F8BD10B5AC
:100DE000044680680178090703D540782179884254
:100DF00007D1204600F061F92046BDE81040FFF71A
:100E0000C9BF10BD38B504460120A1680A78130790
:100E100004D54878237998422ED10220520704D570
:100E20000A5C63799A4200D1401C227E82F0010361
:100E300023760A78D507B5EBC37F1DD1D3064FF0D3
:100E400001020CD50092E268131A0A18D4E948503E
:100E50000621A8472046BDE8384000F0A4B884F831
:100E60001B2100220092E268131A0A18D4F8240108
:100E7000D4F820410621A04738BD826811780B07BD
:100E800003D5527803799A421AD1CB0600F11902A0
:100E90000FD401F00103017E8B4204D081F00101E7
:100EA000017600F098B84169002909D01046FFF793
:100EB000A9BE037E01F001019942F4D000F073B89D
:100EC00070470000C168002939D08168002936D0F8
:100ED000097801F0F002902A31D0D02A2FD08A0769
:100EE0000CD511F0E00107D0A02903D0C02926D1EC
:100EF000FFF775BFFFF7C1BFFFF784BF1D291ED0E5
:100F000050291CD0E0291AD190F81E11002916D1C1
:100F10000121017680F81E118168094A4978090982
:100F200052F82110891E01618168497811F00F0182
:100F3000017100D0012180F81F1100F017B870472F
:100F4000181C0000024610B50920074B002100BF05
:100F500053F82140944201D1084610BD491CC9B242
:100F60000929F5D310BD0000181C000010B5044677
:100F70000068FFF7E7FF092813D040F07000A07663
:100F80008021E176E179A279022041EA02112177FC
:100F900060770521617604F11900BDE81040FFF784
:100FA00031BE032010BD30B4027E002102F00102E8
:100FB00042F0A202427690F81F313BB142F00801A4
:100FC0004176837E0479012123438376193030BC36
:100FD000491CFFF717BE70B50446007E002600F0DE
:100FE0000101891C617694F81F21D4F82C0132B1DB
:100FF00028B941F00801617621790126A176D4F85B
:101000002811761C0D1A2169891B8D4204D9627E34
:101010000D4642F0100262763DB1D4F834112A46F2
:101020000144A0191930FFF721F9627E7119D00629
:1010300029D4D4F8300108B323698B4231D9D4F8CC
:101040003821C0F10200105C621801F101015076F4
:10105000D4F83001401EC4F8300114D022698A420D
:101060000DD9D4F83821C0F10200105C6218507616
:10107000D4F83001401E491CC4F8300103E0607E02
:1010800040F0100060766161D4F82C012844C4F867
:101090002C01D4F82821904209D3D4F8300118B19A
:1010A00005E042F01000EDE7012084F81C0104F196
:1010B0001900BDE87040FFF7A5BD30B40021C22281
:1010C000427690F81F2132B1CA214176837E04799D
:1010D000012123438376193030BC491CFFF792BDB0
:1010E0002DE9F041124C0746154694F81D010E46B5
:1010F000E0B9DDB14FF49E712046FFF7D0F84FF410
:10110000807020600220E0710420A0712C602146D4
:101110000848C4E94867FFF7A5FD28B15FF0000162
:1011200084F81D11BDE8F0810121F9E70720F9E7F6
:10113000F8050020950A000030B4124CA04204D1FA
:1011400019B14FF6F074A24202D9072030BC7047A3
:10115000D0F8344154B990F81B413CB100243BB164
:101160000225C0F83051C0F8383103E00820EDE71F
:10117000C0F83041C0F83411C0E94A2430BCFFF750
:101180002ABF0000F80500200268134602E08A42E8
:1011900004D01268002AFAD10B6001607047000089
:1011A0001CB5FFF743FC0021104800F083FA08B19A
:1011B000FFF70AFC4FF4806401A8CDE900040C4B52
:1011C0000E220C49012000F091FA08B1FFF7FCFB58
:1011D0002146074800F050FA08B1FFF7F5FB00F090
:1011E00040FA08B1FFF7F0FBFEE70000B51400007D
:1011F0006C000020D01B00000848018CC268090A5E
:10120000D172C26890F82010117390F8391009B1AA
:10121000002100E0FF21C06881737047AC05002009
:1012200010B50F2209490A48FFF720F80849A1F133
:101230003C00C16041610F21C161002101614A1E72
:101240008161C0E9081280F8391010BD091C000046
:10125000E805002070B50D4D0D4A00212C7800BF27
:1012600001EB4103D65CA6420AD113445B7883426A
:1012700006D101EB4100104480782870002070BD39
:10128000491C0529ECD3082070BD0000AC050020E6
:101290005C0000202DE9F0411848174B0022C46A79
:1012A000591F052C22D3856A476AEC78AE782D79D0
:1012B00004EB062400EB870604EB050CD6F81CE0D3
:1012C000F44513D84B1C71692A462144012F0DD1D6
:1012D00085696E782D7806EB0525AC4203D2AC45C6
:1012E00001D3012400E0002480F83840406BBDE8C1
:1012F000F041FFF721BF0000EC1B0000AC0500200F
:1013000070B51D4C1B4D0026E06A0D2808D10D223A
:1013100005F11201A06AFEF7CDFF08B9AD1E6662A5
:10132000606A401C1DD0E06A07281AD111490722C3
:10133000091DA06AFEF7BEFF10B90E4D6662AD1E14
:10134000606A401C0DD0E06A07280AD109490722CB
:101350000B31A06AFEF7AEFF18B90120054D60629F
:10136000AD1E2B46606BBDE8704002490022C91ECD
:10137000FFF7E2BEEA1B0000AC050020F8B51C4CEC
:101380001A4EE06A052826D3616A012923D194F810
:10139000391001B3A16A401FCA788B7802EB03258C
:1013A0000A79904217D1236AA818984213D8206965
:1013B000491D2844FEF75AFF361F012D0BD820691E
:1013C0004178007801EB0023002002460090D4E928
:1013D00001500421A847606B01B03346BDE8F040DE
:1013E00002490022491FFFF7A7BE0000EC1B0000C6
:1013F000AC05002038B51B490878022811D10846F1
:10140000D0E90A230C690CB9886920B1022B10D3EA
:10141000107838B10DE0086B0090D1E90140062149
:10142000A04738BD5078A4280FD0B02811D0D628B6
:1014300013D00C48406B03B10B4B01B00A49BDE817
:1014400030400022C91EFFF777BEBDE83840FFF7E5
:1014500057BFBDE83840FFF71DBFBDE83840FFF774
:101460008DBF0000AC050020EA1B000038B5104C11
:1014700094F8380068B194F83A0050B90020034657
:1014800002460090D4E901500321A847012084F8C6
:101490003A00206900280AD1A069002807D1206BF2
:1014A0000090D4E90A23A06864680521A04738BDEC
:1014B000AC05002070B5012911D000250D4C022982
:1014C0000FD0032911D004290ED183B12078002830
:1014D0000AD025700120BDE87040FFF79FBA0020B8
:1014E000F9E7FFF7B9FA257070BD0320F3E7012093
:1014F000207070BD000000200021816070472DE940
:10150000F84F17465FEA00080D460DD067B1D8F8CE
:1015100000005FEA000907D08A464DB1386802280A
:1015200004D20420BDE8F88F0E20FBE70AF1020583
:10153000022400261EE026B1711C884207D14021FA
:1015400006E0012801D0802102E0C02100E0002156
:1015500038686B46001B00902A46D9F8000000F05E
:101560002AF80028DED10098044405B1054409F1A9
:101570000409761CD8F80800B042DCD855B1A01E8A
:10158000B0F5803F01D30620CCE7020A8AF800209C
:101590008AF8010000203C60C4E7D0E901329A4299
:1015A00001D304207047036843F822108168491C66
:1015B0008160002070472DE9F843144698460A469A
:1015C00005004FF000074AD06878297A4618B61D02
:1015D00000B1761C8CB332F0C00002D00720BDE809
:1015E000F883D8F80000B04201D20420F7E7227057
:1015F0002B78601C1A4322702A7A00F8012B2146AE
:101600000746041D687828B104F8010B087840F0FB
:10161000080008702A7A2046E968FEF727FE287A33
:101620006A7804442AB120466968FEF71FFE68788C
:101630000444D8F80000801B00902B697BB16A46F7
:101640002146686998470028C9D114B1009800BAAA
:101650003860009831180020C8F80010BFE70E204D
:10166000BDE710B50220FFF7F5FD08B1082010BD59
:10167000BDE81040FFF732BB70B505464FF6F0707D
:101680000C46814207D804B12DB10120FFF7E2FDDD
:1016900018B1082070BD0C2070BD054801210561FE
:1016A0008561046280F83910FFF7A6FD002070BD47
:1016B000AC05002070B50D46040005D00020FFF7F2
:1016C000C9FD18B1082070BD072070BDFFF7A8FD47
:1016D0000448054900F13402C0E90145BDE8704005
:1016E000FFF7FEBCAC0500202D0D00002DE9F041F8
:1016F00007461E460C4615460D48DDF81880FFF7D4
:10170000FBFE8CB12A462146384600F029F80146F6
:101710000748FFF742FF002807D142463146BDE89F
:10172000F0410348FFF7EBBE0720BDE8F081000061
:101730003400002070B51546044661B1207A2A684D
:10174000904201D3042070BD20780870481C227A92
:101750006168FEF78BFD207A401C2860002070BD78
:10176000024B187059601A7201487047A00500209A
:101770004000002000F180400068002800D00120D7
:10178000704708B500F180400021016000680090BA
:1017900008BD00000549096840F4803001F00111DE
:1017A000814201D101207047002070470C040040A5
:1017B00010B50020FFF713F906484168491E416043
:1017C000406808B9FFF7A2FABDE810400020FFF713
:1017D00008B900006C04002070B5144D0446687808
:1017E00038B114B16168002088470020FFF7F7F88E
:1017F00013E00020FFF7F3F824B10C48214608302D
:10180000FFF7C2FC686840B94FF48070FFF7B9FF7A
:1018100001208107C1F8040308606868401C686003
:10182000BDE870400020FFF7DCB800006C04002029
:1018300070B50E4C0025207808B1852513E00021F5
:10184000A16061602161E1604FF0E020D0F800010B
:10185000012610F0010F03D10721002000F00AF843
:10186000034806602670284670BD00006C04002006
:10187000180500404907090E002806DA00F00F029B
:1018800002F1E02282F8141D03E000F1E02282F868
:10189000001400F01F02012191404009800000F176
:1018A000E020C0F88012C0F80011704770B541EA1E
:1018B0004201DDE904564FF0A04441EA830141EAC8
:1018C000052104EB800041EA0641C0F8001770BD15
:1018D00001224FF0A043824011B1C3F808257047A0
:1018E000C3F80C2570470000002802D101490120EF
:1018F000086070470050004008B500210160006892
:10190000009008BD4058002800D00120704708B55D
:10191000002242504058009008BDD0F8040308400F
:1019200000D0012070474058002800D001207047A7
:1019300008B5002242504058009008BD70B50546D9
:10194000C87D0C4600284FF4847128460AD0FFF762
:10195000DEFFD5F81805627EE1688854607E401C81
:10196000607670BDFFF7D3FFD5F8180570BD1FB5C1
:1019700001238DF800308DF808100192D0E9001293
:10198000684690471FBD70B50C4605464FF48E71F2
:10199000FFF7BDFFA18AA068415CA08A401CA0821D
:1019A000C5F81C1570BD1FB500228DF800208DF8FC
:1019B0000810816801918275D0E90012684690474D
:1019C0001FBD2DE9FF470C4605464FF40071FFF798
:1019D000A4FF01274FF40178002618B34FF4927941
:1019E00049462846FFF78EFFE0B149462846FFF7F3
:1019F0008EFFC5F80883A07E00B96F6002208DF8C5
:101A00000000D5F88004C5F880040390E07D8DF8CF
:101A10000800E0680190E6752676D4E90012684671
:101A2000904727E004212846FFF777FF10B34FF4D3
:101A300084712846FFF766FFE0B121462846FFF78C
:101A40007DFFE07D617E884214D1207E38B1617EC9
:101A5000E268E0752069E0602676667607E0A07EA1
:101A600000B96F60C5F80883E675617EE2682046BC
:101A7000FFF77DFF4FF48E7841462846FFF742FF7F
:101A800088B1A08AA17D884204D221462846FFF76A
:101A90007AFF08E041462846FFF739FFA17D11B1E2
:101AA0002046FFF780FF4FF4A27841462846FFF713
:101AB00029FF002812D041462846FFF728FFA07EC4
:101AC00000B12F60E07D002808D0E675617EE268F5
:101AD00004B02046BDE8F047FFF749BFBDE8FF87E7
:101AE0002DE9FF410C464FF4927705463946FFF742
:101AF0001AFF0026C0B139462846FFF719FF022019
:101B00008DF80000D5F88004C5F880040390D5F85E
:101B10003C058DF80800E0680190E6752676D4E96A
:101B200000126846904724E04FF4887739462846EB
:101B3000FFF7F9FEE8B139462846FFF7F9FED5F878
:101B40003C05C1B2E07D884213D1207E60B1E268DD
:101B5000D5F8000220F02000C5F80002207EE075D4
:101B60002069E060267601E0E675E2682046FFF72E
:101B7000FEFE4FF4A27739462846FFF7D4FE68B13F
:101B800039462846FFF7D4FEE07D38B1E675D5F832
:101B90003C05E268C1B22046FFF7E9FE4FF49076BB
:101BA00031462846FFF7BFFE00280FD031462846B1
:101BB000FFF7BEFEA07D002808D0D5F84C0504B084
:101BC000C1B22046BDE8F041FFF7EDBEBDE8FF81A0
:101BD0006E6F7264696373656D692E636F6D111248
:101BE00013140D0E0F10550090006A826B0000A4B4
:101BF000000C02E10300A4000C02E10400A40400B4
:101C000007D276000085010100000F2000F800F8DF
:101C10000406E104000000001000000018000000AD
:101C200020000000280000003000000040000000FC
:101C300060000000800000000001000000000000C3
:101C40000000000000000000000000000000000094
:101C50000000000000000000781C000000000020D0
:101C60006C00000084090000E41C00006C000020EF
:101C7000CC260000940900000000000000000000D5
:101C80000000000000000000000000000000000054
:101C90000000000000000000000000000000000044
:101CA00000000000000000000000000030000020E4
:101CB0000100000000000000010000000000000022
:101CC00001000000E61B000035170000A005002001
:101CD0000090D00302030100000101010101020292
:041CE00001040000FB
:0400000500000201F4
:00000001FF
