:020000040000FA
:1000000008200020150200001D0200001F02000051
:100010002102000023020000250200000000000071
:1000200000000000000000000000000027020000A7
:1000300029020000000000002B0200002D02000039
:100040002F0200002F0200002F0200002F020000EC
:100050002F0200002F0200002F0200002F020000DC
:100060002F0200002F0200002F0200002F020000CC
:100070002F0200002F0200002F0200002F020000BC
:100080002F0200002F0200002F0200002F020000AC
:100090002F0200002F0200002F0200002F0200009C
:1000A0002F0200002F0200002F0200002F0200008C
:1000B0002F0200002F0200000000000000000000DE
:1000C0002F0200002F0200002F0200002F0200006C
:1000D0002F0200002F0200002F0200002F0200005C
:1000E0002F0200002F0200002F0200002F0200004C
:1000F000000000002F0200000000000000000000CF
:1001000000000000000000000000000000000000EF
:1001100000000000000000000000000000000000DF
:1001200000000000000000000000000000000000CF
:1001300000000000000000000000000000000000BF
:1001400000000000000000000000000000000000AF
:10015000000000000000000000000000000000009F
:10016000000000000000000000000000000000008F
:10017000000000000000000000000000000000007F
:10018000000000000000000000000000000000006F
:10019000000000000000000000000000000000005F
:1001A000000000000000000000000000000000004F
:1001B000000000000000000000000000000000003F
:1001C000000000000000000000000000000000002F
:1001D000000000000000000000000000000000001F
:1001E000000000000000000000000000000000000F
:1001F00000000000000000000000000000000000FF
:10020000DFF80CD000F018F800480047DF040000C9
:10021000082000200648804706480047FEE7FEE722
:10022000FEE7FEE7FEE7FEE7FEE7FEE7FEE7FEE7A6
:100230005D02000001020000064C074D06E0E06888
:1002400040F0010394E8070098471034AC42F6D31D
:10025000FFF7DAFFE00500000006000030B54FF0C0
:1002600080500022D0F830110123082902D1D0F8A3
:10027000344114B1082909D00BE04FF08041C1F896
:100280000C21C1F8102161490A6005E0D0F8344121
:1002900014B1082957D059E05D4909685D4C2160C7
:1002A0005B49091D0968241D216059490831096805
:1002B000241D216056490C310968241D21605449D0
:1002C00010310968241D2160514914310968241D29
:1002D00021604F49183109684E4C203421604C4947
:1002E0001C310968241D2160494920310968241DF9
:1002F0002160474924310968241D2160444928317F
:100300000968241D216042492C310968241D21609F
:100310003F49303109683F4C403421603C49343119
:100320000968241D21603A4938310968241D21607B
:1003300037493C310968241D21603549403109683D
:10034000241D216005E0D0F8344114B1082904D0FF
:1003500006E0324C3049216005E0D0F8344114B158
:10036000082904D006E02E4CFB21216005E0D0F8DE
:10037000344114B1082908D00EE090F858422948B9
:10038000016864F30301016002E0D0F8340118B998
:1003900025494FF4007008602448016841F4700159
:1003A0000160BFF34F8FBFF36F8F4FF01021D1F873
:1003B0000002002803DBD1F80402002822DA1C4CDA
:1003C00023601C480368002BFCD01223C1F80032C4
:1003D0000568002DFCD0C1F8043201680029FCD06A
:1003E000226001680029FCD0BFF34F8F0F487C3892
:1003F0000168114A01F4E06111430160BFF34F8FBE
:1004000000BFFDE70E490D48086030BD38050040CB
:100410000404001020C50040488103008C560040B1
:1004200018F50040E40E00404096024088ED00E0E0
:1004300004E5014000E401400400FA050090D00307
:100440000000002002E008C8121F08C1002AFAD1EB
:1004500070477047002001E001C1121F002AFBD144
:1004600070470000094908B5085C0090684600F034
:1004700091F8D0F80425009B0121994021EA02035C
:10048000C0F808351140C0F80C1508BDD6050000AD
:100490000249085C012100F08BB80000D60500007D
:1004A0007CB50024084E25460122305D00950023CE
:1004B0001146019500F054F8641C042CF4D3BDE8F7
:1004C0007C4000F003B80000D605000010B5002401
:1004D0002046FFF7DDFF641C042CF9D310BDFFF7A5
:1004E000DFFF00F02AF84FF4FA7500242046FFF7EA
:1004F000B9FF284600F004F8641C042CF6DBF4E78E
:1005000070B5840900F03F0504E0402000F01EF8BB
:1005100000F009F8641EF8D2284600F017F8BDE88C
:100520007040AFF300804FF0E02291699369CB1ADD
:1005300023F07F438342F9D370474FF0E0206FF000
:100540007F414161052101617047000003494FF47B
:100550007A720968B1FBF2F148437047000000204D
:100560002DE9FF411C46DDE90A7815460E4668462E
:1005700000F010F846EA450141EA840141EA072209
:1005800042EA0841009A00EB8200C0F80017BDE87B
:10059000FF8100000168202902D24FF0A04070477F
:1005A00001F01F0101600148704700000003005086
:1005B00038B501240090684631B1FFF7EBFF009990
:1005C0008C40C0F8084538BDFFF7E4FF00998C4027
:1005D000C0F80C4538BD0D0E0F100B0C181900009B
:1005E0000006000000000020040000004404000099
:1005F0000406000004000020042000005404000051
:040600000090D00393
:0400000500000201F4
:00000001FF
