:020000040000FA
:1000000088250020150200001D0200001F020000CC
:100010002102000023020000250200000000000071
:1000200000000000000000000000000027020000A7
:1000300029020000000000002B0200002D02000039
:100040002F0200002F020000710500002F020000A7
:100050002F0200002F0200002F0200002F020000DC
:100060002F0200002F0200002F0200002F020000CC
:100070002F020000390300002F0200002F020000B1
:100080002F0200002F0200002F0200002F020000AC
:100090002F0200002F0200002F0200002F0200009C
:1000A0002F0200002F0200002F0200002F0200008C
:1000B0002F0200002F0200000000000000000000DE
:1000C0002F0200002F0200002F0200002F0200006C
:1000D0002F0200002F0200002F0200002F0200005C
:1000E0002F0200002F0200002F0200002F0200004C
:1000F000000000002F0200000000000000000000CF
:1001000000000000000000000000000000000000EF
:1001100000000000000000000000000000000000DF
:1001200000000000000000000000000000000000CF
:1001300000000000000000000000000000000000BF
:1001400000000000000000000000000000000000AF
:10015000000000000000000000000000000000009F
:10016000000000000000000000000000000000008F
:10017000000000000000000000000000000000007F
:10018000000000000000000000000000000000006F
:10019000000000000000000000000000000000005F
:1001A000000000000000000000000000000000004F
:1001B000000000000000000000000000000000003F
:1001C000000000000000000000000000000000002F
:1001D000000000000000000000000000000000001F
:1001E000000000000000000000000000000000000F
:1001F00000000000000000000000000000000000FF
:10020000DFF80CD000F066F800480047A50C0000AD
:10021000882500200648804706480047FEE7FEE79D
:10022000FEE7FEE7FEE7FEE7FEE7FEE7FEE7FEE7A6
:10023000890300000102000000487047D01C000044
:1002400040EA01039B0703D009E008C9121F08C058
:10025000042AFAD203E011F8013B00F8013B521ED8
:10026000F9D27047421C10F8011B0029FBD1801AFB
:1002700070472DE9F05F0546002092469B46884670
:100280000646814640241BE0284641464746224612
:1002900000F041F853465A46C01A914110D3114616
:1002A0001846224600F028F82D1A67EB01084F4641
:1002B00022460120002100F01FF817EB00094E41F3
:1002C000201EA4F10104DFDC484631462A4643469D
:1002D000BDE8F09F064C074D06E0E06840F00103E2
:1002E00094E8070098471034AC42F6D3FFF78CFF30
:1002F000E01C0000001D0000202A04DB203A00FA68
:1003000002F1002070479140C2F1200320FA03F36C
:10031000194390407047202A04DB203A21FA02F06A
:100320000021704721FA02F3D040C2F1200291402F
:1003300008431946704700001CB510480E49036871
:100340000022002B16D0D1F8081311F0010F11D0A4
:100350000260006801900A4800688DF80000694654
:10036000084801F0A3F9074801F08AF9002801D0F4
:1003700000F0AEFD1CBD000000D0004000D10040E8
:1003800008D50040F41B000030B54FF0805000222B
:10039000D0F830110123082902D1D0F8344114B12A
:1003A000082909D00BE04FF08041C1F80C21C1F8B9
:1003B000102161490A6005E0D0F8344114B10829E0
:1003C00057D059E05D4909685D4C21605B49091DC2
:1003D0000968241D2160594908310968241D2160DC
:1003E00056490C310968241D2160544910310968AF
:1003F000241D2160514914310968241D21604F4991
:10040000183109684E4C203421604C491C31096870
:10041000241D2160494920310968241D2160474974
:1004200024310968241D2160444928310968241DAC
:10043000216042492C310968241D21603F49303137
:1004400009683F4C403421603C4934310968241D1F
:1004500021603A4938310968241D216037493C310F
:100460000968241D2160354940310968241D216037
:1004700005E0D0F8344114B1082904D006E0324C2C
:100480003049216005E0D0F8344114B1082904D086
:1004900006E02E4CFB21216005E0D0F8344114B178
:1004A000082908D00EE090F858422948016864F302
:1004B0000301016002E0D0F8340118B925494FF476
:1004C000007008602448016841F470010160BFF3C6
:1004D0004F8FBFF36F8F4FF01021D1F8000200282B
:1004E00003DBD1F80402002822DA1C4C23601C48EC
:1004F0000368002BFCD01223C1F800320568002DE0
:10050000FCD0C1F8043201680029FCD022600168E7
:100510000029FCD0BFF34F8F0F487C380168114A87
:1005200001F4E06111430160BFF34F8F00BFFDE7AD
:100530000E490D48086030BD380500400404001025
:1005400020C50040488103008C56004018F500404B
:10055000E40E00404096024088ED00E004E50140D2
:1005600000E401400400FA050090D00318000020C8
:100570000448017F04480029024901D001F0BFBAB4
:1005800001F02EBA4C000020002000400FB41CB532
:100590000A46521ECDE9000207A9054B6A46069895
:1005A00000F018F8009A002111701CBC5DF814FBD3
:1005B000370A000002E008C8121F08C1002AFAD159
:1005C00070477047002001E001C1121F002AFBD1D3
:1005D000704700002DE9FF4F8DB00F4605460026FD
:1005E00006E025280BD0DDE90F1290476D1C761C24
:1005F00028780028F5D111B03046BDE8F08F0024EE
:10060000A246A1460122EC4900E0044315F8013F4F
:10061000203B02FA03F00842F7D128782A2810D0AC
:100620006FF02F022878A0F13001092914D80AEBC5
:100630008A0102EB410144F0020400EB010A6D1C47
:10064000F0E701CF5FEA000A03D544F40054CAF191
:10065000000A44F002046D1C28782E2817D115F8E2
:10066000010F44F004042A280ED06FF02F022878DE
:10067000A0F1300109290AD809EB890102EB4101F7
:1006800000EB01096D1CF2E757F8049B6D1C2878FC
:100690006C280FD006DC4C2817D068280DD06A28AB
:1006A00014D104E0742810D07A280FD10DE044F45E
:1006B00000140AE044F4801401E044F44014697822
:1006C000814202D104F580146D1C6D1C2A786E2ABB
:1006D0001FD00CDC632A31D004DC002A8BD0582ACE
:1006E00011D1A3E0642A68D0692A0CD165E0732A8D
:1006F0002ED004DC6F2A73D0702A04D19BE0752AB7
:100700006FD0782A6ED01046DDE90F129047761C24
:1007100050E1C4F30250022806D0032809D004286F
:1007200001CF09D0066045E101CFF117C0E90061B2
:1007300040E101CF06803DE106703BE117F8040B74
:100740008DF8000000208DF80100EB46012003E049
:1007500057F804BB4FF0FF3061074FF0000102D49F
:100760000DE008F10101884649450FDA8045F8DBC4
:100770001BF808100029F4D108E008F101018846AF
:100780008142FADB1BF808100029F6D1DDE90F23BE
:10079000AAEB08008146214600F036F9304400EB10
:1007A000080604E0DDE90F121BF8010B9047B8F1D1
:1007B0000108F7D221464846F7E00A21C4F3025364
:1007C0004FF0000B0891022B04D001CFC117032B6F
:1007D00009D00AE0FF1D27F00707F7E8020108E04B
:1007E00032E01FE020E000B2C117042B01D140B27B
:1007F000C117031E71F1000307DA4FF0000CD0EBB4
:100800000C006CEB01012D2302E0230504D52B2302
:100810008DF82430012303E0E30701D02023F7E71C
:10082000984658E00A2110E010210EE010204FF009
:10083000000B08900CE010214FF0000B44F0040472
:100840004FF00809089103E008214FF0000B0891D0
:10085000C4F30253022B04D001CF0021032B06D096
:1008600006E0FF1D27F00707F7E8020103E080B26A
:10087000042B00D1C0B24FF0000823072BD5702AFB
:1008800007D0DDF820C08CF0100C5CEA0B0C05D012
:100890000EE040238DF82430012308E050EA0103E4
:1008A00006D030238DF824308DF825200223984679
:1008B000DDF820C08CF0080C5CEA0B0C0BD150EA80
:1008C000010301D1630706D530238DF824304FF0A2
:1008D0000108A9F10109582A04D038A20B9208AAEC
:1008E0000A920BE03AA2F9E75B46089AFFF7C1FCCF
:1008F0000B9B9B5C0A9A521E0A92137050EA0102EB
:10090000F2D10A98ADEB000000F1200B600702D590
:1009100024F4803401E04FF00109D94502DDA9EB50
:100920000B0000E0002000EB0B0141440890AAEB13
:10093000010AE00306D4DDE90F232146504600F00A
:1009400063F806444FF0000908E009A911F809000E
:10095000DDE90F12904709F10109761CC145F4DB6E
:10096000E0030CD5DDE90F232146504600F04CF89A
:10097000064404E0DDE90F1230209047761C089908
:10098000481E08900029F5DC08E00A980A990078CA
:10099000491C0A91DDE90F129047761CBBF100015A
:1009A000ABF1010BF1DC21465046DDE90F2300F0ED
:1009B00019F806446D1C1BE609280100303132335A
:1009C000343536373839616263646566000000008B
:1009D0003031323334353637383941424344454675
:1009E000000000002DE9F041044600251E46174690
:1009F000880404D405E039462020B0476D1C641EED
:100A0000F9D52846BDE8F0812DE9F04104460025DE
:100A10001E469046C80301D5302700E020278804F1
:100A200004D505E041463846B0476D1C641EF9D533
:100A30002846BDE8F0814A68002A06D00A68531C9F
:100A40000B6010704868401E486070470DA101207F
:100A500000F0D6FD00F0E6FC00F0E8FC0028FBD139
:100A60000CA1032000F0CCFDBFF34F8F10480168AC
:100A7000104A01F4E06111430160BFF34F8F00BFE2
:100A8000FDE700003A4552524F523A466174616C9C
:100A90000D0A00003A494E464F3A4869742077657E
:100AA000616B2068616E646C65720D0A0000000065
:100AB0000CED00E00400FA050EB500210091CDE92F
:100AC00001106A4644F20100FFF7C0FF0EBD00F0BE
:100AD00003B800F009B8000072B602480168491C6A
:100AE000016070470400002003490868401E086048
:100AF00000D162B6704700000400002070B50546C2
:100B000008680C46411C04D000F020FB206800F06F
:100B100004FB6068411C02D0002100F0F5FA28793E
:100B20001F4901EB40102968007F0028A069C1F827
:100B3000240523D0607D227D29681043C1F86C050F
:100B4000D4E900122868C0F80C15C0F8142522E07A
:100B5000A068411C02D0002100F0D6FAE068411CD8
:100B600004D000F0F3FAE06800F0D7FAD4E90212FA
:100B70002868C0F80825C0F8101570BD607D217D7B
:100B80002A680843C2F86C05D4E900122868C0F846
:100B90001425C0F80C15207D0128D9D070BD0000A7
:100BA0004C000020002901DA00207047026811443F
:100BB000016001207047000070B5461C0D460124FD
:100BC0000020FFF784FF114A10682860D2E9001066
:100BD0009568081A2B1A701C5B1C98420FD963B1D8
:100BE0000B480C4B294000681B6802EB810163F342
:100BF0009F20C8601068401C1060002401E0881924
:100C000010600020FFF765FF204670BD6C010020DA
:100C1000281C000014000020034803C8814201D1B1
:100C200001207047002070476C01002070B50E460F
:100C30000446007918494FF4A27501EB4010017F7A
:100C40002068A1B14FF4887100F0C7FD4FF4907196
:100C5000206800F0C2FD4FF49271206800F0BDFDE5
:100C60002946206800F0B9FD0C49206809E04FF4DE
:100C70008E7100F0A1FD2946206800F09DFD084915
:100C80002068C0F80413206800F0C3F83146BDE8BE
:100C9000704000F0A2B800004C00002010030200D9
:100CA0008000020086B0002000F0D8FC08B1FFF7F9
:100CB00003FF002000F0C2F808B1FFF7FDFE6D460B
:100CC000102404A800F0B0F89DF81000102800D8F7
:100CD00004462146284600F0DDF808B1FFF7ECFE97
:100CE0000AA1032000F08CFC23466A460EA10320D3
:100CF00000F034FC0CA1032000F082FC00F096FB15
:100D00000028FBD10B4800F017F8D8E74150503AC3
:100D1000494E464F3A52616E646F6D20566563745A
:100D20006F723A0D0A0000004150503A494E464F4A
:100D30003A0D0A00A086010000283ED01F49204A33
:100D4000096800BF00BF00BF00BF00BF00BF00BFF9
:100D500000BF91422FD000BF00BF00BF00BF00BF47
:100D600000BF00BF00BF00BF00BF00BF00BF00BF8B
:100D700000BF00BF00BF00BF00BF00BF00BF00BF7B
:100D800000BF00BF00BF00BF00BF00BF00BF00BF6B
:100D900000BF00BF00BF00BF00BF00BF00BF00BF5B
:100DA00000BF00BF00BF00BF00BF00BF00BF00BF4B
:100DB00000BF00BF00BF401EC3D170471800002015
:100DC0000024F40000F01F0201219140400980003E
:100DD00000F1E020C0F8801170474907090E002893
:100DE00006DA00F00F0202F1E02282F8141D03E09F
:100DF00000F1E02282F8001400F01F02012191406E
:100E00004009800000F1E020C0F88012C0F8001115
:100E10007047000B40B270470121B1EB507F01D108
:100E2000012070470020704710B50446024800F0CA
:100E3000B0FC207010BD0000F41B000010B5114C78
:100E4000217809B1852010BD00B90F480088A4F8A9
:100E500001006078C00704D00C48016841F001012E
:100E600001600B48D0F8001221F00101C0F8001217
:100E7000A1780D20FFF7B1FF00F01AF801202070D3
:100E8000002010BD00000020F01B000004D5004031
:100E900000D000400A4610B50146044800F05CFC52
:100EA000044600F005F8204610BD0000F41B0000C9
:100EB000064908B5002204480A600968009101212A
:100EC000C0F80413016008BD00D0004000D100400C
:100ED00003490120C1F80803091D0860704700009C
:100EE00000D000402DE9F04105460079164F9046AC
:100EF00007EB40140E46E07E10B10820BDE8F081FB
:100F0000707F20772846FFF7F9FD5FEA08006060F0
:100F10003169216003D0317F2846FFF787FE2879A9
:100F200007EB4010007F0028286801D0082100E06E
:100F30000421C0F800150020E0752076A07501217D
:100F4000E176A076DAE700004C0000202DE9F047BA
:100F5000054600793F4E904606EB40140F46207F31
:100F600018B10846FFF758FF30B1284600F074F872
:100F700020B11120BDE8F0871020FBE784F816802F
:100F8000A7600027A78228794FF0010806EB4014DC
:100F90003E46207F0028286825D04FF490794946A6
:100FA00000F01BFC4FF4AC7A5146286800F015FCA9
:100FB0002868A17DA268C0F84425C0F848152868B3
:100FC000C0F808806068F0B94946286800F000FC65
:100FD00080465146286800F0FBFB58EA0001F3D038
:100FE00058BBA7750FE04FF48E7A514600F0E4FB32
:100FF0002868C0F808802146286800F0CBFC6168AA
:101000004FF4807089B13046B4E75146286800F04B
:10101000CEFB10B9A08A4845F7D1A08A484505D033
:101020002146286800F0B6FC00E08146A08AA17D38
:101030008842EAD3A08A484501D10F26D1E751461C
:10104000286800F0B4FB0028F9D02868C0F80C80AC
:10105000C7E700004C0000200079044901EB401074
:10106000807D002800D00120704700004C00002047
:1010700070B5044600791149002601EB401520683F
:101080002A7FC0F80065686888B1207901EB4010BC
:10109000007F0028206801D0094901E008498C3907
:1010A000C0F808132068FFF7B4FEFFF78BFE204658
:1010B00000F09AFBEE766E6070BD00004C000020E0
:1010C000100302002DE9FF411C46DDE90A781546B0
:1010D0000E46684600F02CF846EA450141EA8401D4
:1010E00041EA072242EA0841009A00EB8200C0F878
:1010F0000017BDE8FF811CB5002100910B460122BD
:101100000191FFF7DFFF1CBD1CB500220B460092CA
:1011100011460192FFF7D6FF1CBD1CB500210091BE
:101120000B46012201911146FFF7CCFF1CBD0000C8
:101130000168202902D24FF0A040704701F01F0142
:1011400001600148704700000003005001B5684687
:10115000FFF7EEFF009A01219140C0F8081508BD85
:1011600000487047D911000030B5184C054689B0C9
:10117000207828B16078854202D1002009B030BDC6
:10118000202213496846FFF75BF800208DF8140011
:10119000062000900820019005200390072002906F
:1011A0004FF0EB7006900948001DFFF761FF0DB18D
:1011B000002200E0074A05486946001DFFF792FE3D
:1011C0000028DBD1012020706570D6E708000020E0
:1011D000081C0000D11900002DE9F04FC1B00D002E
:1011E0004FF0000140914D984B991C46174601EB7A
:1011F000000B01D00A2000E00020804600F094FBA4
:1012000000287CD16E46BCB9409840AA31182846C7
:1012100000F0A6FB002872D03846FFF723F8C2285A
:1012200000D9C220054640982A4630443946FFF787
:1012300007F84098284440904FF0200A409901EB6D
:10124000080231320DEB01050DEB0206002002E031
:1012500005F801AB401C4045FAD300275C4508D394
:1012600005F801AB05F801AB05F801AB06F801ABD9
:101270002DE04B98844202D24A98005D02E0211A88
:101280004C98405C2B46814602460121880022FA98
:1012900000F000F00F00092801D9373000E03030AD
:1012A000C1F1010C491E03F80C00EFD29D1C05F89A
:1012B00001ABFEF7C1FF016811F8090010F03E0F05
:1012C00001D0484600E02E2006F8010B641C7F1C6C
:1012D000102FC3D30D2030700A20707085F800A045
:1012E0004099684641444331409100F023FB30B1BE
:1012F00000F01AFB18B9002040905C459ED341B025
:101300002046BDE8F08F2DE9F043C7B000251C460C
:10131000904689464E9F459500F006FB00287AD1FD
:10132000459805AE311845AA484600F019FB00283B
:1013300035D0072F27D2DFE807F004121B35424FC4
:101340005D004046FEF78EFF054645982918FF29A7
:1013500019D830442A464146FEF772FF13E04598FB
:101360002368C0F5807130444246FFF70FF909E069
:101370006068009045982368C0F58071304442460B
:10138000FFF704F90546294645A8FFF70BFC4599E8
:1013900078B3B1F5807F3ED805A800F0CBFA47B00E
:1013A000BDE8F083D4E90101CDE900014598236847
:1013B000C0F5807130444246FFF7E8F8E2E7201DAF
:1013C00007C88DE8070045982368C0F58071304450
:1013D0004246FFF7DBF8D5E7201D0FC88DE80F0068
:1013E00045982368C0F5807130444246FFF7CEF837
:1013F000C8E710E004F1080001AD0FC885E80F0050
:101400006068009045982368C0F58071304442467A
:10141000FFF7BCF8B6E70020C1E7000000487047BE
:10142000071300000120FFF79FBE00002DE9F04FD9
:1014300087B0FFF7F1FB18B1002007B0BDE8F08FCF
:10144000454ED6E9014704EA070006EB8000A146B5
:10145000641CC5680CE000BFC5F3891000EB955013
:10146000044404EA070006EB8000A146C568641C3A
:10147000A807F1D005F003004FF0000B022805D0BB
:10148000AA0A01A8C5F38313002153E004EA070068
:1014900006EB800004F1010A0AEA0704C268381B5F
:1014A00080004FEA9558001DC5F38913804521D966
:1014B00029490C3138B106EB840400F0FF0CA8EB8D
:1014C00000000C3404E00C46002108F0FF0C084634
:1014D000C0B2CDE90210CDE9004CD6F81444C5F3F2
:1014E000C2005946A047404511D108F103080AEB54
:1014F00098042AE0002106EB84000C300090CDE92E
:1015000001810391C5F3C200D6F81444EAE760F301
:101510008F1509EA070006EB8000C56016E000BFE2
:1015200004EA070C06EB8C0C491CDCF80CC040F8F4
:1015300004CB641C9942F3D3C5F3C2000093D6F8E0
:10154000105401AB5946A84700B17460FFF764FB23
:1015500080F0010071E700006C0100202DE9F843E4
:10156000894607461F4CD81C012101EB90001D46FF
:1015700090466946A668FFF71FFB002830D01A483E
:10158000016A002060F38201009867F3C50100EA58
:10159000060204EB820265F39F51401CD16000EA11
:1015A000060204EB8202401CC2F80C900090A16875
:1015B0003040091A8E00361DB54204EB800002D877
:1015C0002A46414609E0324641460C30FEF738FED5
:1015D000A81B82B2034808EB06010C30FEF730FE70
:1015E000BDE8F8836C010020281C0000034AFF239B
:1015F000936000231360536000F028B86C01002052
:101600002DE9F8430F4F88460446002569462846D1
:10161000BE68FFF7D1FA002812D00B4800214068BD
:1016200061F38200009964F3C50001EA060265F3E4
:10163000891007EB820268F39F20491CD06000915B
:10164000BDE8F8836C010020281C0000024A02F566
:10165000826203C2704700006C01002070B506462C
:101660000020FFF781FD040008D1FFF779FD054652
:10167000FFF7D4FE32462946FFF7B8FF204670BD7B
:1016800001680A6849688068884201D9491C00E0FD
:101690000021914201D101207047002070478068ED
:1016A000884201D9481C7047002070472DE9F0415D
:1016B00004464FF000080E464046FFF708FA204661
:1016C000FFF7DEFF070009D0207C38B14FF0040897
:1016D0000020FFF7FEF94046BDE8F081206845682C
:1016E00041682046FFF7DBFF2168486037B120687A
:1016F00001682046FFF7D3FF21680860E268012AED
:1017000014D0022A16D0042A19D0082A1CD06068E6
:10171000314605FB0200FEF793FD204600F0D3F8AA
:1017200021688A688242D3D28860D1E761683078C4
:101730004855F2E76168308821F81500EDE76168E7
:10174000306841F82500E8E7D6E90001626802EB5D
:10175000C502C2E90001E0E72DE9F04107464FF07C
:10176000000415000E46204611D0FFF7B0F93846A8
:1017700000F0A9F8A84205D32A463146384600F0C1
:101780006FF800E005240020FFF7A3F92046BDE82C
:10179000F08110B504460020FFF799F9204600F0CB
:1017A00092F804460020FFF794F9204610BD4058F7
:1017B000002800D00120704708B500224250405850
:1017C000009008BDD0F80403084000D00120704705
:1017D0004058002800D00120704708B50022425030
:1017E0004058009008BD000070B5034600791B49C1
:1017F00001EB40101968027F4FF0FF30002AD1F84A
:101800000C25D1F81465D1F80855D1F8104504D04D
:10181000C1F80C05C1F8140503E0C1F81405C1F8BE
:101820000C051968C1F80805C1F81005501C02D054
:101830001046FFF760FC701C02D03046FFF75BFCDF
:10184000601C02D02046FFF756FC681C04D02846D6
:10185000BDE87040FFF74FBC70BD00004C00002099
:101860002DE9F0410446006817468846056840683F
:10187000854201D8461B02E0A068461B761CE26840
:101880006068B74205FB02010CD87A434046FEF778
:10189000D7FCA168E819884200D9002021680860B7
:1018A000BDE8F08102FB06F52A464046FEF7C8FC7B
:1018B000E268BE1B724308EB05006168FEF7C0FCDE
:1018C00020680660ECE701680A684968914201D324
:1018D000881A70478068801A0844401C704770B5A9
:1018E0000546C87D0C4600284FF4847128460AD06E
:1018F000FFF762FFD5F81805627EE1688854607EC4
:10190000401C607670BDFFF757FFD5F8180570BD15
:101910001FB501238DF800308DF808100192D0E931
:101920000012684690471FBD0148FFF795BB0000B5
:101930000C00002070B50D460A46014601240648F9
:10194000FEF77EFCEAB204490448FFF7FFFA00B153
:101950000024204670BD00006C0000200C00002018
:1019600010B5144602004FF001000CD00846136871
:1019700006A24FF48071FEF709FE01462046BDE83D
:101980001040FFF70FB90021216010BD5B253038F2
:10199000645D000070B50C4605464FF48E71FFF78C
:1019A0000BFFA18AA068415CA08A401CA082C5F8F8
:1019B0001C1570BD1FB500228DF800208DF8081091
:1019C000816801918275D0E90012684690471FBD79
:1019D0000078012801D10149887070470800002073
:1019E0002DE9FF470C4605464FF40071FFF7EAFE6C
:1019F00001274FF40178002618B34FF49279494635
:101A00002846FFF7D4FEE0B149462846FFF7D4FE4A
:101A1000C5F80883A07E00B96F6002208DF8000031
:101A2000D5F88004C5F880040390E07D8DF80800A7
:101A3000E0680190E6752676D4E900126846904782
:101A400027E004212846FFF7BDFE10B34FF4847150
:101A50002846FFF7ACFEE0B121462846FFF73FFFDE
:101A6000E07D617E884214D1207E38B1617EE268DB
:101A7000E0752069E0602676667607E0A07E00B912
:101A80006F60C5F80883E675617EE2682046FFF75F
:101A90003FFF4FF48E7841462846FFF788FE88B115
:101AA000A08AA17D884204D221462846FFF772FF12
:101AB00008E041462846FFF77FFEA17D11B1204690
:101AC000FFF778FF4FF4A27841462846FFF76FFEF4
:101AD000002812D041462846FFF76EFEA07E00B1D6
:101AE0002F60E07D002808D0E675617EE26804B0D2
:101AF0002046BDE8F047FFF70BBFBDE8FF872DE9A3
:101B0000FF410C464FF4927705463946FFF760FED9
:101B10000026C0B139462846FFF75FFE02208DF847
:101B20000000D5F88004C5F880040390D5F83C0582
:101B30008DF80800E0680190E6752676D4E9001279
:101B40006846904724E04FF4887739462846FFF7E7
:101B50003FFEE8B139462846FFF73FFED5F83C0581
:101B6000C1B2E07D884213D1207E60B1E268D5F831
:101B7000000220F02000C5F80002207EE0752069F8
:101B8000E060267601E0E675E2682046FFF7C0FED9
:101B90004FF4A27739462846FFF71AFE68B1394656
:101BA0002846FFF71AFEE07D38B1E675D5F83C050A
:101BB000E268C1B22046FFF7ABFE4FF490763146A3
:101BC0002846FFF705FE00280FD031462846FFF7CC
:101BD00004FEA07D002808D0D5F84C0504B0C1B2A1
:101BE0002046BDE8F041FFF7E5BEBDE8FF810000FB
:101BF00000070000400000201C0000202000000022
:101C00000100000000000000FFFFFFFFFFFFFFFFDB
:101C1000FFFFFFFFFFFFFFFF0000000000000000CC
:101C20000000D601070100002900000001000000AB
:101C300001000000010000000100000001000000A0
:101C400001000000010000000200000000404040D0
:101C5000404040404040414141414140404040407F
:101C6000404040404040404040404040400502022B
:101C700002020202020202020202020202202020EA
:101C80002020202020202002020202020202909046
:101C90009090909010101010101010101010101044
:101CA0001010101010101010020202020202888898
:101CB00088888888080808080808080808080808A4
:101CC000080808080808080802020202400000008C
:101CD0004D1C00004F766572666C6F770D0A000030
:101CE000001D0000000000201C000000B4050000E2
:101CF0001C1D00001C0000206C250000C405000015
:101D00000000000000000000000000000020004073
:0C1D100000000000D41C00000090D00374
:0400000500000201F4
:00000001FF
